{
  "_format": "hh-sol-artifact-1",
  "contractName": "ARE_Proxy",
  "sourceName": "contracts/AREProxy.sol",
  "abi": [
    {
      "inputs": [
        {
          "internalType": "address",
          "name": "_implContract",
          "type": "address"
        }
      ],
      "stateMutability": "nonpayable",
      "type": "constructor"
    },
    {
      "anonymous": false,
      "inputs": [
        {
          "indexed": true,
          "internalType": "address",
          "name": "marketowner",
          "type": "address"
        },
        {
          "indexed": true,
          "internalType": "address",
          "name": "newImplAddrs",
          "type": "address"
        }
      ],
      "name": "ImplUpgrade",
      "type": "event"
    },
    {
      "anonymous": false,
      "inputs": [
        {
          "indexed": true,
          "internalType": "address",
          "name": "owner",
          "type": "address"
        },
        {
          "indexed": true,
          "internalType": "address",
          "name": "user",
          "type": "address"
        },
        {
          "indexed": true,
          "internalType": "address",
          "name": "nftContract",
          "type": "address"
        },
        {
          "indexed": false,
          "internalType": "uint256",
          "name": "tokenId",
          "type": "uint256"
        },
        {
          "indexed": false,
          "internalType": "uint256",
          "name": "pricePerDay",
          "type": "uint256"
        },
        {
          "indexed": false,
          "internalType": "uint256",
          "name": "expires",
          "type": "uint256"
        }
      ],
      "name": "NFTListed",
      "type": "event"
    },
    {
      "anonymous": false,
      "inputs": [
        {
          "indexed": true,
          "internalType": "address",
          "name": "owner",
          "type": "address"
        },
        {
          "indexed": true,
          "internalType": "address",
          "name": "user",
          "type": "address"
        },
        {
          "indexed": true,
          "internalType": "address",
          "name": "nftContract",
          "type": "address"
        },
        {
          "indexed": false,
          "internalType": "uint256",
          "name": "tokenId",
          "type": "uint256"
        },
        {
          "indexed": false,
          "internalType": "uint64",
          "name": "expires",
          "type": "uint64"
        },
        {
          "indexed": false,
          "internalType": "uint256",
          "name": "rentalFee",
          "type": "uint256"
        }
      ],
      "name": "NFTRented",
      "type": "event"
    },
    {
      "anonymous": false,
      "inputs": [
        {
          "indexed": true,
          "internalType": "address",
          "name": "unlistSender",
          "type": "address"
        },
        {
          "indexed": true,
          "internalType": "address",
          "name": "nftContract",
          "type": "address"
        },
        {
          "indexed": true,
          "internalType": "uint256",
          "name": "tokenId",
          "type": "uint256"
        }
      ],
      "name": "NFTUnlisted",
      "type": "event"
    },
    {
      "inputs": [
        {
          "internalType": "address",
          "name": "nftAddress",
          "type": "address"
        },
        {
          "internalType": "uint256",
          "name": "tokenId",
          "type": "uint256"
        }
      ],
      "name": "getARListing",
      "outputs": [
        {
          "components": [
            {
              "internalType": "address",
              "name": "owner",
              "type": "address"
            },
            {
              "internalType": "address",
              "name": "user",
              "type": "address"
            },
            {
              "internalType": "address",
              "name": "nftContract",
              "type": "address"
            },
            {
              "internalType": "uint256",
              "name": "tokenId",
              "type": "uint256"
            },
            {
              "internalType": "uint256",
              "name": "pricePerDay",
              "type": "uint256"
            },
            {
              "internalType": "uint256",
              "name": "expires",
              "type": "uint256"
            }
          ],
          "internalType": "struct ARE_Proxy.Listing_rent",
          "name": "",
          "type": "tuple"
        }
      ],
      "stateMutability": "view",
      "type": "function"
    },
    {
      "inputs": [],
      "name": "getImplAddrs",
      "outputs": [
        {
          "internalType": "address",
          "name": "",
          "type": "address"
        }
      ],
      "stateMutability": "view",
      "type": "function"
    },
    {
      "inputs": [],
      "name": "getListingFee",
      "outputs": [
        {
          "internalType": "uint256",
          "name": "",
          "type": "uint256"
        }
      ],
      "stateMutability": "view",
      "type": "function"
    },
    {
      "inputs": [
        {
          "internalType": "address",
          "name": "nftAddress",
          "type": "address"
        }
      ],
      "name": "getRListedAdddressTokens",
      "outputs": [
        {
          "internalType": "uint256[]",
          "name": "",
          "type": "uint256[]"
        }
      ],
      "stateMutability": "view",
      "type": "function"
    },
    {
      "inputs": [],
      "name": "getRListedAdddresses",
      "outputs": [
        {
          "internalType": "address[]",
          "name": "",
          "type": "address[]"
        }
      ],
      "stateMutability": "view",
      "type": "function"
    },
    {
      "inputs": [
        {
          "internalType": "address",
          "name": "nftContract",
          "type": "address"
        }
      ],
      "name": "isNFT",
      "outputs": [
        {
          "internalType": "bool",
          "name": "",
          "type": "bool"
        }
      ],
      "stateMutability": "view",
      "type": "function"
    },
    {
      "inputs": [
        {
          "internalType": "address",
          "name": "nftContract",
          "type": "address"
        }
      ],
      "name": "isRentableNFT",
      "outputs": [
        {
          "internalType": "bool",
          "name": "",
          "type": "bool"
        }
      ],
      "stateMutability": "view",
      "type": "function"
    },
    {
      "inputs": [
        {
          "internalType": "address",
          "name": "nftAddress",
          "type": "address"
        },
        {
          "internalType": "uint256",
          "name": "tokenId",
          "type": "uint256"
        },
        {
          "internalType": "uint256",
          "name": "pricePerDay",
          "type": "uint256"
        }
      ],
      "name": "listNFT",
      "outputs": [
        {
          "internalType": "string",
          "name": "",
          "type": "string"
        }
      ],
      "stateMutability": "payable",
      "type": "function"
    },
    {
      "inputs": [
        {
          "internalType": "address",
          "name": "nftAddress",
          "type": "address"
        },
        {
          "internalType": "uint256",
          "name": "tokenId",
          "type": "uint256"
        },
        {
          "internalType": "uint64",
          "name": "numDays",
          "type": "uint64"
        }
      ],
      "name": "rentNFT",
      "outputs": [
        {
          "internalType": "string",
          "name": "",
          "type": "string"
        }
      ],
      "stateMutability": "payable",
      "type": "function"
    },
    {
      "inputs": [
        {
          "internalType": "address",
          "name": "nftAddress",
          "type": "address"
        },
        {
          "internalType": "uint256",
          "name": "tokenId",
          "type": "uint256"
        }
      ],
      "name": "unlistNFT",
      "outputs": [
        {
          "internalType": "string",
          "name": "",
          "type": "string"
        }
      ],
      "stateMutability": "payable",
      "type": "function"
    },
    {
      "inputs": [
        {
          "internalType": "address",
          "name": "newImplAddrs",
          "type": "address"
        }
      ],
      "name": "updateImplContract",
      "outputs": [],
      "stateMutability": "nonpayable",
      "type": "function"
    }
  ],
  "bytecode": "0x6080604052662386f26fc10000600255600a600360006101000a81548167ffffffffffffffff021916908367ffffffffffffffff1602179055503480156200004657600080fd5b5060405162001a8338038062001a8383398181016040528101906200006c919062000167565b600160008190555033600160006101000a81548173ffffffffffffffffffffffffffffffffffffffff021916908373ffffffffffffffffffffffffffffffffffffffff16021790555080600960006101000a81548173ffffffffffffffffffffffffffffffffffffffff021916908373ffffffffffffffffffffffffffffffffffffffff1602179055505062000199565b600080fd5b600073ffffffffffffffffffffffffffffffffffffffff82169050919050565b60006200012f8262000102565b9050919050565b620001418162000122565b81146200014d57600080fd5b50565b600081519050620001618162000136565b92915050565b60006020828403121562000180576200017f620000fd565b5b6000620001908482850162000150565b91505092915050565b6118da80620001a96000396000f3fe60806040526004361061009c5760003560e01c806395046b7c1161006457806395046b7c1461019f5780639a34f003146101ca578063ad05f1b4146101fa578063b31b85c91461022a578063b8fe6abe14610267578063e9a6f4f6146102925761009c565b80631578e7c8146100a1578063555df3cd146100de5780636ae012c81461011b5780637fc27efd146101465780638524528f14610176575b600080fd5b3480156100ad57600080fd5b506100c860048036038101906100c39190610f33565b6102cf565b6040516100d5919061100c565b60405180910390f35b3480156100ea57600080fd5b5061010560048036038101906101009190611027565b61045a565b6040516101129190611103565b60405180910390f35b34801561012757600080fd5b506101306104b0565b60405161013d9190611134565b60405180910390f35b610160600480360381019061015b9190610f33565b6104da565b60405161016d91906111df565b60405180910390f35b34801561018257600080fd5b5061019d60048036038101906101989190611027565b610658565b005b3480156101ab57600080fd5b506101b46107da565b6040516101c191906112b0565b60405180910390f35b6101e460048036038101906101df9190611312565b6107f1565b6040516101f191906111df565b60405180910390f35b610214600480360381019061020f9190611365565b610972565b60405161022191906111df565b60405180910390f35b34801561023657600080fd5b50610251600480360381019061024c9190611027565b610af3565b60405161025e91906113d3565b60405180910390f35b34801561027357600080fd5b5061027c610ba9565b60405161028991906113fd565b60405180910390f35b34801561029e57600080fd5b506102b960048036038101906102b49190611027565b610bb3565b6040516102c691906113d3565b60405180910390f35b6102d7610e13565b600460008473ffffffffffffffffffffffffffffffffffffffff1673ffffffffffffffffffffffffffffffffffffffff16815260200190815260200160002060008381526020019081526020016000206040518060c00160405290816000820160009054906101000a900473ffffffffffffffffffffffffffffffffffffffff1673ffffffffffffffffffffffffffffffffffffffff1673ffffffffffffffffffffffffffffffffffffffff1681526020016001820160009054906101000a900473ffffffffffffffffffffffffffffffffffffffff1673ffffffffffffffffffffffffffffffffffffffff1673ffffffffffffffffffffffffffffffffffffffff1681526020016002820160009054906101000a900473ffffffffffffffffffffffffffffffffffffffff1673ffffffffffffffffffffffffffffffffffffffff1673ffffffffffffffffffffffffffffffffffffffff1681526020016003820154815260200160048201548152602001600582015481525050905092915050565b606060006104a5600560008573ffffffffffffffffffffffffffffffffffffffff1673ffffffffffffffffffffffffffffffffffffffff168152602001908152602001600020610d1c565b905080915050919050565b6000600960009054906101000a900473ffffffffffffffffffffffffffffffffffffffff16905090565b6060600080600960009054906101000a900473ffffffffffffffffffffffffffffffffffffffff1673ffffffffffffffffffffffffffffffffffffffff16858560405160240161052b929190611418565b6040516020818303038152906040527f7fc27efd000000000000000000000000000000000000000000000000000000007bffffffffffffffffffffffffffffffffffffffffffffffffffffffff19166020820180517bffffffffffffffffffffffffffffffffffffffffffffffffffffffff83818316178352505050506040516105b59190611488565b600060405180830381855af49150503d80600081146105f0576040519150601f19603f3d011682016040523d82523d6000602084013e6105f5565b606091505b50915091508161063a576040517f08c379a0000000000000000000000000000000000000000000000000000000008152600401610631906114eb565b60405180910390fd5b8080602001905181019061064e9190611631565b9250505092915050565b610660610d3d565b600160009054906101000a900473ffffffffffffffffffffffffffffffffffffffff1673ffffffffffffffffffffffffffffffffffffffff163373ffffffffffffffffffffffffffffffffffffffff16146106f0576040517f08c379a00000000000000000000000000000000000000000000000000000000081526004016106e7906116ec565b60405180910390fd5b80600960006101000a81548173ffffffffffffffffffffffffffffffffffffffff021916908373ffffffffffffffffffffffffffffffffffffffff160217905550600960009054906101000a900473ffffffffffffffffffffffffffffffffffffffff1673ffffffffffffffffffffffffffffffffffffffff16600160009054906101000a900473ffffffffffffffffffffffffffffffffffffffff1673ffffffffffffffffffffffffffffffffffffffff167f1ed34c9a7b236ee6031785cd9ca32de930e1ae39020c1279886b687a307e7fcb60405160405180910390a36107d7610d8c565b50565b606060006107e86006610d96565b90508091505090565b6060600080600960009054906101000a900473ffffffffffffffffffffffffffffffffffffffff1673ffffffffffffffffffffffffffffffffffffffff168686866040516024016108449392919061171b565b6040516020818303038152906040527f9a34f003000000000000000000000000000000000000000000000000000000007bffffffffffffffffffffffffffffffffffffffffffffffffffffffff19166020820180517bffffffffffffffffffffffffffffffffffffffffffffffffffffffff83818316178352505050506040516108ce9190611488565b600060405180830381855af49150503d8060008114610909576040519150601f19603f3d011682016040523d82523d6000602084013e61090e565b606091505b509150915081610953576040517f08c379a000000000000000000000000000000000000000000000000000000000815260040161094a906114eb565b60405180910390fd5b808060200190518101906109679190611631565b925050509392505050565b6060600080600960009054906101000a900473ffffffffffffffffffffffffffffffffffffffff1673ffffffffffffffffffffffffffffffffffffffff168686866040516024016109c593929190611752565b6040516020818303038152906040527fad05f1b4000000000000000000000000000000000000000000000000000000007bffffffffffffffffffffffffffffffffffffffffffffffffffffffff19166020820180517bffffffffffffffffffffffffffffffffffffffffffffffffffffffff8381831617835250505050604051610a4f9190611488565b600060405180830381855af49150503d8060008114610a8a576040519150601f19603f3d011682016040523d82523d6000602084013e610a8f565b606091505b509150915081610ad4576040517f08c379a0000000000000000000000000000000000000000000000000000000008152600401610acb906114eb565b60405180910390fd5b80806020019051810190610ae89190611631565b925050509392505050565b600080600090508273ffffffffffffffffffffffffffffffffffffffff166301ffc9a77f80ac58cd000000000000000000000000000000000000000000000000000000006040518263ffffffff1660e01b8152600401610b5391906117c4565b602060405180830381865afa925050508015610b8d57506040513d601f19601f82011682018060405250810190610b8a919061180b565b60015b610b9b576000915050610ba4565b80915050809150505b919050565b6000600254905090565b6000806000905060008373ffffffffffffffffffffffffffffffffffffffff166301ffc9a77fad092b5c000000000000000000000000000000000000000000000000000000006040518263ffffffff1660e01b8152600401610c1591906117c4565b602060405180830381865afa925050508015610c4f57506040513d601f19601f82011682018060405250810190610c4c919061180b565b60015b610c5e57600092505050610d17565b809250508373ffffffffffffffffffffffffffffffffffffffff166301ffc9a77f80ac58cd000000000000000000000000000000000000000000000000000000006040518263ffffffff1660e01b8152600401610cbb91906117c4565b602060405180830381865afa925050508015610cf557506040513d601f19601f82011682018060405250810190610cf2919061180b565b60015b610d0457600092505050610d17565b80915050818015610d125750805b925050505b919050565b60606000610d2c83600001610db7565b905060608190508092505050919050565b600260005403610d82576040517f08c379a0000000000000000000000000000000000000000000000000000000008152600401610d7990611884565b60405180910390fd5b6002600081905550565b6001600081905550565b60606000610da683600001610db7565b905060608190508092505050919050565b606081600001805480602002602001604051908101604052809291908181526020018280548015610e0757602002820191906000526020600020905b815481526020019060010190808311610df3575b50505050509050919050565b6040518060c00160405280600073ffffffffffffffffffffffffffffffffffffffff168152602001600073ffffffffffffffffffffffffffffffffffffffff168152602001600073ffffffffffffffffffffffffffffffffffffffff1681526020016000815260200160008152602001600081525090565b6000604051905090565b600080fd5b600080fd5b600073ffffffffffffffffffffffffffffffffffffffff82169050919050565b6000610eca82610e9f565b9050919050565b610eda81610ebf565b8114610ee557600080fd5b50565b600081359050610ef781610ed1565b92915050565b6000819050919050565b610f1081610efd565b8114610f1b57600080fd5b50565b600081359050610f2d81610f07565b92915050565b60008060408385031215610f4a57610f49610e95565b5b6000610f5885828601610ee8565b9250506020610f6985828601610f1e565b9150509250929050565b610f7c81610ebf565b82525050565b610f8b81610efd565b82525050565b60c082016000820151610fa76000850182610f73565b506020820151610fba6020850182610f73565b506040820151610fcd6040850182610f73565b506060820151610fe06060850182610f82565b506080820151610ff36080850182610f82565b5060a082015161100660a0850182610f82565b50505050565b600060c0820190506110216000830184610f91565b92915050565b60006020828403121561103d5761103c610e95565b5b600061104b84828501610ee8565b91505092915050565b600081519050919050565b600082825260208201905092915050565b6000819050602082019050919050565b600061108c8383610f82565b60208301905092915050565b6000602082019050919050565b60006110b082611054565b6110ba818561105f565b93506110c583611070565b8060005b838110156110f65781516110dd8882611080565b97506110e883611098565b9250506001810190506110c9565b5085935050505092915050565b6000602082019050818103600083015261111d81846110a5565b905092915050565b61112e81610ebf565b82525050565b60006020820190506111496000830184611125565b92915050565b600081519050919050565b600082825260208201905092915050565b60005b8381101561118957808201518184015260208101905061116e565b60008484015250505050565b6000601f19601f8301169050919050565b60006111b18261114f565b6111bb818561115a565b93506111cb81856020860161116b565b6111d481611195565b840191505092915050565b600060208201905081810360008301526111f981846111a6565b905092915050565b600081519050919050565b600082825260208201905092915050565b6000819050602082019050919050565b60006112398383610f73565b60208301905092915050565b6000602082019050919050565b600061125d82611201565b611267818561120c565b93506112728361121d565b8060005b838110156112a357815161128a888261122d565b975061129583611245565b925050600181019050611276565b5085935050505092915050565b600060208201905081810360008301526112ca8184611252565b905092915050565b600067ffffffffffffffff82169050919050565b6112ef816112d2565b81146112fa57600080fd5b50565b60008135905061130c816112e6565b92915050565b60008060006060848603121561132b5761132a610e95565b5b600061133986828701610ee8565b935050602061134a86828701610f1e565b925050604061135b868287016112fd565b9150509250925092565b60008060006060848603121561137e5761137d610e95565b5b600061138c86828701610ee8565b935050602061139d86828701610f1e565b92505060406113ae86828701610f1e565b9150509250925092565b60008115159050919050565b6113cd816113b8565b82525050565b60006020820190506113e860008301846113c4565b92915050565b6113f781610efd565b82525050565b600060208201905061141260008301846113ee565b92915050565b600060408201905061142d6000830185611125565b61143a60208301846113ee565b9392505050565b600081519050919050565b600081905092915050565b600061146282611441565b61146c818561144c565b935061147c81856020860161116b565b80840191505092915050565b60006114948284611457565b915081905092915050565b7f7472616e73616374696f6e206661696c65640000000000000000000000000000600082015250565b60006114d560128361115a565b91506114e08261149f565b602082019050919050565b60006020820190508181036000830152611504816114c8565b9050919050565b600080fd5b600080fd5b7f4e487b7100000000000000000000000000000000000000000000000000000000600052604160045260246000fd5b61154d82611195565b810181811067ffffffffffffffff8211171561156c5761156b611515565b5b80604052505050565b600061157f610e8b565b905061158b8282611544565b919050565b600067ffffffffffffffff8211156115ab576115aa611515565b5b6115b482611195565b9050602081019050919050565b60006115d46115cf84611590565b611575565b9050828152602081018484840111156115f0576115ef611510565b5b6115fb84828561116b565b509392505050565b600082601f8301126116185761161761150b565b5b81516116288482602086016115c1565b91505092915050565b60006020828403121561164757611646610e95565b5b600082015167ffffffffffffffff81111561166557611664610e9a565b5b61167184828501611603565b91505092915050565b7f6d61726b6574706c6163652063616e206f6e6c7920626520757067726164656460008201527f20627920746865206f776e657200000000000000000000000000000000000000602082015250565b60006116d6602d8361115a565b91506116e18261167a565b604082019050919050565b60006020820190508181036000830152611705816116c9565b9050919050565b611715816112d2565b82525050565b60006060820190506117306000830186611125565b61173d60208301856113ee565b61174a604083018461170c565b949350505050565b60006060820190506117676000830186611125565b61177460208301856113ee565b61178160408301846113ee565b949350505050565b60007fffffffff0000000000000000000000000000000000000000000000000000000082169050919050565b6117be81611789565b82525050565b60006020820190506117d960008301846117b5565b92915050565b6117e8816113b8565b81146117f357600080fd5b50565b600081519050611805816117df565b92915050565b60006020828403121561182157611820610e95565b5b600061182f848285016117f6565b91505092915050565b7f5265656e7472616e637947756172643a207265656e7472616e742063616c6c00600082015250565b600061186e601f8361115a565b915061187982611838565b602082019050919050565b6000602082019050818103600083015261189d81611861565b905091905056fea264697066735822122034eb42597b553215029db0f641bff179e1e05c2a0954127571c5aedfbf15f21f64736f6c63430008110033",
  "linkReferences": {},
  "deployedLinkReferences": {}
}