{
  "_format": "hh-sol-artifact-1",
  "contractName": "ARE_Proxy",
  "sourceName": "contracts/AREProxy.sol",
  "abi": [
    {
      "inputs": [
        {
          "internalType": "address",
          "name": "_implContract",
          "type": "address"
        }
      ],
      "stateMutability": "nonpayable",
      "type": "constructor"
    },
    {
      "anonymous": false,
      "inputs": [
        {
          "indexed": true,
          "internalType": "address",
          "name": "marketowner",
          "type": "address"
        },
        {
          "indexed": true,
          "internalType": "address",
          "name": "newImplAddrs",
          "type": "address"
        }
      ],
      "name": "ImplUpgrade",
      "type": "event"
    },
    {
      "anonymous": false,
      "inputs": [
        {
          "indexed": true,
          "internalType": "address",
          "name": "owner",
          "type": "address"
        },
        {
          "indexed": true,
          "internalType": "address",
          "name": "user",
          "type": "address"
        },
        {
          "indexed": true,
          "internalType": "address",
          "name": "nftContract",
          "type": "address"
        },
        {
          "indexed": false,
          "internalType": "uint256",
          "name": "tokenId",
          "type": "uint256"
        },
        {
          "indexed": false,
          "internalType": "uint256",
          "name": "pricePerDay",
          "type": "uint256"
        },
        {
          "indexed": false,
          "internalType": "uint256",
          "name": "expires",
          "type": "uint256"
        }
      ],
      "name": "NFTListed",
      "type": "event"
    },
    {
      "anonymous": false,
      "inputs": [
        {
          "indexed": true,
          "internalType": "address",
          "name": "owner",
          "type": "address"
        },
        {
          "indexed": true,
          "internalType": "address",
          "name": "user",
          "type": "address"
        },
        {
          "indexed": true,
          "internalType": "address",
          "name": "nftContract",
          "type": "address"
        },
        {
          "indexed": false,
          "internalType": "uint256",
          "name": "tokenId",
          "type": "uint256"
        },
        {
          "indexed": false,
          "internalType": "uint64",
          "name": "expires",
          "type": "uint64"
        },
        {
          "indexed": false,
          "internalType": "uint256",
          "name": "rentalFee",
          "type": "uint256"
        }
      ],
      "name": "NFTRented",
      "type": "event"
    },
    {
      "anonymous": false,
      "inputs": [
        {
          "indexed": true,
          "internalType": "address",
          "name": "unlistSender",
          "type": "address"
        },
        {
          "indexed": true,
          "internalType": "address",
          "name": "nftContract",
          "type": "address"
        },
        {
          "indexed": true,
          "internalType": "uint256",
          "name": "tokenId",
          "type": "uint256"
        }
      ],
      "name": "NFTUnlisted",
      "type": "event"
    },
    {
      "inputs": [
        {
          "internalType": "address",
          "name": "nftAddress",
          "type": "address"
        },
        {
          "internalType": "uint256",
          "name": "tokenId",
          "type": "uint256"
        }
      ],
      "name": "getARListing",
      "outputs": [
        {
          "components": [
            {
              "internalType": "address",
              "name": "owner",
              "type": "address"
            },
            {
              "internalType": "address",
              "name": "user",
              "type": "address"
            },
            {
              "internalType": "address",
              "name": "nftContract",
              "type": "address"
            },
            {
              "internalType": "uint256",
              "name": "tokenId",
              "type": "uint256"
            },
            {
              "internalType": "uint256",
              "name": "pricePerDay",
              "type": "uint256"
            },
            {
              "internalType": "uint256",
              "name": "expires",
              "type": "uint256"
            }
          ],
          "internalType": "struct ARE_Proxy.Listing_rent",
          "name": "",
          "type": "tuple"
        }
      ],
      "stateMutability": "view",
      "type": "function"
    },
    {
      "inputs": [],
      "name": "getImplAddrs",
      "outputs": [
        {
          "internalType": "address",
          "name": "",
          "type": "address"
        }
      ],
      "stateMutability": "view",
      "type": "function"
    },
    {
      "inputs": [],
      "name": "getListingFee",
      "outputs": [
        {
          "internalType": "uint256",
          "name": "",
          "type": "uint256"
        }
      ],
      "stateMutability": "view",
      "type": "function"
    },
    {
      "inputs": [
        {
          "internalType": "address",
          "name": "nftAddress",
          "type": "address"
        }
      ],
      "name": "getRListedAdddressTokens",
      "outputs": [
        {
          "internalType": "uint256[]",
          "name": "",
          "type": "uint256[]"
        }
      ],
      "stateMutability": "view",
      "type": "function"
    },
    {
      "inputs": [],
      "name": "getRListedAdddresses",
      "outputs": [
        {
          "internalType": "address[]",
          "name": "",
          "type": "address[]"
        }
      ],
      "stateMutability": "view",
      "type": "function"
    },
    {
      "inputs": [],
      "name": "getRentListings",
      "outputs": [
        {
          "components": [
            {
              "internalType": "address",
              "name": "owner",
              "type": "address"
            },
            {
              "internalType": "address",
              "name": "user",
              "type": "address"
            },
            {
              "internalType": "address",
              "name": "nftContract",
              "type": "address"
            },
            {
              "internalType": "uint256",
              "name": "tokenId",
              "type": "uint256"
            },
            {
              "internalType": "uint256",
              "name": "pricePerDay",
              "type": "uint256"
            },
            {
              "internalType": "uint256",
              "name": "expires",
              "type": "uint256"
            }
          ],
          "internalType": "struct ARE_Proxy.Listing_rent[]",
          "name": "",
          "type": "tuple[]"
        }
      ],
      "stateMutability": "view",
      "type": "function"
    },
    {
      "inputs": [
        {
          "internalType": "address",
          "name": "nftContract",
          "type": "address"
        }
      ],
      "name": "isNFT",
      "outputs": [
        {
          "internalType": "bool",
          "name": "",
          "type": "bool"
        }
      ],
      "stateMutability": "view",
      "type": "function"
    },
    {
      "inputs": [
        {
          "internalType": "address",
          "name": "nftContract",
          "type": "address"
        }
      ],
      "name": "isRentableNFT",
      "outputs": [
        {
          "internalType": "bool",
          "name": "",
          "type": "bool"
        }
      ],
      "stateMutability": "view",
      "type": "function"
    },
    {
      "inputs": [
        {
          "internalType": "address",
          "name": "nftAddress",
          "type": "address"
        },
        {
          "internalType": "uint256",
          "name": "tokenId",
          "type": "uint256"
        },
        {
          "internalType": "uint256",
          "name": "pricePerDay",
          "type": "uint256"
        }
      ],
      "name": "listNFT",
      "outputs": [
        {
          "internalType": "string",
          "name": "",
          "type": "string"
        }
      ],
      "stateMutability": "payable",
      "type": "function"
    },
    {
      "inputs": [
        {
          "internalType": "address",
          "name": "nftAddress",
          "type": "address"
        },
        {
          "internalType": "uint256",
          "name": "tokenId",
          "type": "uint256"
        },
        {
          "internalType": "uint64",
          "name": "numDays",
          "type": "uint64"
        }
      ],
      "name": "rentNFT",
      "outputs": [
        {
          "internalType": "string",
          "name": "",
          "type": "string"
        }
      ],
      "stateMutability": "payable",
      "type": "function"
    },
    {
      "inputs": [
        {
          "internalType": "address",
          "name": "nftAddress",
          "type": "address"
        },
        {
          "internalType": "uint256",
          "name": "tokenId",
          "type": "uint256"
        }
      ],
      "name": "unlistNFT",
      "outputs": [
        {
          "internalType": "string",
          "name": "",
          "type": "string"
        }
      ],
      "stateMutability": "payable",
      "type": "function"
    },
    {
      "inputs": [
        {
          "internalType": "address",
          "name": "newImplAddrs",
          "type": "address"
        }
      ],
      "name": "updateImplContract",
      "outputs": [],
      "stateMutability": "nonpayable",
      "type": "function"
    }
  ],
  "bytecode": "0x6080604052662386f26fc10000600255600a600360006101000a81548167ffffffffffffffff021916908367ffffffffffffffff1602179055503480156200004657600080fd5b5060405162001fa138038062001fa183398181016040528101906200006c919062000167565b600160008190555033600160006101000a81548173ffffffffffffffffffffffffffffffffffffffff021916908373ffffffffffffffffffffffffffffffffffffffff16021790555080600960006101000a81548173ffffffffffffffffffffffffffffffffffffffff021916908373ffffffffffffffffffffffffffffffffffffffff1602179055505062000199565b600080fd5b600073ffffffffffffffffffffffffffffffffffffffff82169050919050565b60006200012f8262000102565b9050919050565b620001418162000122565b81146200014d57600080fd5b50565b600081519050620001618162000136565b92915050565b60006020828403121562000180576200017f620000fd565b5b6000620001908482850162000150565b91505092915050565b611df880620001a96000396000f3fe6080604052600436106100a75760003560e01c806395046b7c1161006457806395046b7c146101d55780639a34f00314610200578063ad05f1b414610230578063b31b85c914610260578063b8fe6abe1461029d578063e9a6f4f6146102c8576100a7565b80631578e7c8146100ac578063555df3cd146100e95780636ae012c814610126578063789df8db146101515780637fc27efd1461017c5780638524528f146101ac575b600080fd5b3480156100b857600080fd5b506100d360048036038101906100ce919061125f565b610305565b6040516100e09190611338565b60405180910390f35b3480156100f557600080fd5b50610110600480360381019061010b9190611353565b610490565b60405161011d919061142f565b60405180910390f35b34801561013257600080fd5b5061013b6104e6565b6040516101489190611460565b60405180910390f35b34801561015d57600080fd5b50610166610510565b60405161017391906115a5565b60405180910390f35b6101966004803603810190610191919061125f565b6107f8565b6040516101a39190611657565b60405180910390f35b3480156101b857600080fd5b506101d360048036038101906101ce9190611353565b610976565b005b3480156101e157600080fd5b506101ea610af8565b6040516101f79190611728565b60405180910390f35b61021a6004803603810190610215919061178a565b610b0f565b6040516102279190611657565b60405180910390f35b61024a600480360381019061024591906117dd565b610c90565b6040516102579190611657565b60405180910390f35b34801561026c57600080fd5b5061028760048036038101906102829190611353565b610e11565b604051610294919061184b565b60405180910390f35b3480156102a957600080fd5b506102b2610ec7565b6040516102bf9190611875565b60405180910390f35b3480156102d457600080fd5b506102ef60048036038101906102ea9190611353565b610ed1565b6040516102fc919061184b565b60405180910390f35b61030d61113f565b600460008473ffffffffffffffffffffffffffffffffffffffff1673ffffffffffffffffffffffffffffffffffffffff16815260200190815260200160002060008381526020019081526020016000206040518060c00160405290816000820160009054906101000a900473ffffffffffffffffffffffffffffffffffffffff1673ffffffffffffffffffffffffffffffffffffffff1673ffffffffffffffffffffffffffffffffffffffff1681526020016001820160009054906101000a900473ffffffffffffffffffffffffffffffffffffffff1673ffffffffffffffffffffffffffffffffffffffff1673ffffffffffffffffffffffffffffffffffffffff1681526020016002820160009054906101000a900473ffffffffffffffffffffffffffffffffffffffff1673ffffffffffffffffffffffffffffffffffffffff1673ffffffffffffffffffffffffffffffffffffffff1681526020016003820154815260200160048201548152602001600582015481525050905092915050565b606060006104db600560008573ffffffffffffffffffffffffffffffffffffffff1673ffffffffffffffffffffffffffffffffffffffff16815260200190815260200160002061103a565b905080915050919050565b6000600960009054906101000a900473ffffffffffffffffffffffffffffffffffffffff16905090565b6060600061051e600861105b565b67ffffffffffffffff81111561053757610536611890565b5b60405190808252806020026020018201604052801561057057816020015b61055d61113f565b8152602001906001900390816105555790505b5090506000806105806006611069565b905060005b81518110156107ee5760008282815181106105a3576105a26118bf565b5b6020026020010151905060006105f6600560008473ffffffffffffffffffffffffffffffffffffffff1673ffffffffffffffffffffffffffffffffffffffff16815260200190815260200160002061103a565b905060005b81518110156107d857600460008473ffffffffffffffffffffffffffffffffffffffff1673ffffffffffffffffffffffffffffffffffffffff1681526020019081526020016000206000838381518110610658576106576118bf565b5b602002602001015181526020019081526020016000206040518060c00160405290816000820160009054906101000a900473ffffffffffffffffffffffffffffffffffffffff1673ffffffffffffffffffffffffffffffffffffffff1673ffffffffffffffffffffffffffffffffffffffff1681526020016001820160009054906101000a900473ffffffffffffffffffffffffffffffffffffffff1673ffffffffffffffffffffffffffffffffffffffff1673ffffffffffffffffffffffffffffffffffffffff1681526020016002820160009054906101000a900473ffffffffffffffffffffffffffffffffffffffff1673ffffffffffffffffffffffffffffffffffffffff1673ffffffffffffffffffffffffffffffffffffffff16815260200160038201548152602001600482015481526020016005820154815250508787815181106107ac576107ab6118bf565b5b602002602001018190525085806107c29061191d565b96505080806107d09061191d565b9150506105fb565b50505080806107e69061191d565b915050610585565b5082935050505090565b6060600080600960009054906101000a900473ffffffffffffffffffffffffffffffffffffffff1673ffffffffffffffffffffffffffffffffffffffff168585604051602401610849929190611965565b6040516020818303038152906040527f7fc27efd000000000000000000000000000000000000000000000000000000007bffffffffffffffffffffffffffffffffffffffffffffffffffffffff19166020820180517bffffffffffffffffffffffffffffffffffffffffffffffffffffffff83818316178352505050506040516108d391906119d5565b600060405180830381855af49150503d806000811461090e576040519150601f19603f3d011682016040523d82523d6000602084013e610913565b606091505b509150915081610958576040517f08c379a000000000000000000000000000000000000000000000000000000000815260040161094f90611a38565b60405180910390fd5b8080602001905181019061096c9190611b4f565b9250505092915050565b61097e61108a565b600160009054906101000a900473ffffffffffffffffffffffffffffffffffffffff1673ffffffffffffffffffffffffffffffffffffffff163373ffffffffffffffffffffffffffffffffffffffff1614610a0e576040517f08c379a0000000000000000000000000000000000000000000000000000000008152600401610a0590611c0a565b60405180910390fd5b80600960006101000a81548173ffffffffffffffffffffffffffffffffffffffff021916908373ffffffffffffffffffffffffffffffffffffffff160217905550600960009054906101000a900473ffffffffffffffffffffffffffffffffffffffff1673ffffffffffffffffffffffffffffffffffffffff16600160009054906101000a900473ffffffffffffffffffffffffffffffffffffffff1673ffffffffffffffffffffffffffffffffffffffff167f1ed34c9a7b236ee6031785cd9ca32de930e1ae39020c1279886b687a307e7fcb60405160405180910390a3610af56110d9565b50565b60606000610b066006611069565b90508091505090565b6060600080600960009054906101000a900473ffffffffffffffffffffffffffffffffffffffff1673ffffffffffffffffffffffffffffffffffffffff16868686604051602401610b6293929190611c39565b6040516020818303038152906040527f9a34f003000000000000000000000000000000000000000000000000000000007bffffffffffffffffffffffffffffffffffffffffffffffffffffffff19166020820180517bffffffffffffffffffffffffffffffffffffffffffffffffffffffff8381831617835250505050604051610bec91906119d5565b600060405180830381855af49150503d8060008114610c27576040519150601f19603f3d011682016040523d82523d6000602084013e610c2c565b606091505b509150915081610c71576040517f08c379a0000000000000000000000000000000000000000000000000000000008152600401610c6890611a38565b60405180910390fd5b80806020019051810190610c859190611b4f565b925050509392505050565b6060600080600960009054906101000a900473ffffffffffffffffffffffffffffffffffffffff1673ffffffffffffffffffffffffffffffffffffffff16868686604051602401610ce393929190611c70565b6040516020818303038152906040527fad05f1b4000000000000000000000000000000000000000000000000000000007bffffffffffffffffffffffffffffffffffffffffffffffffffffffff19166020820180517bffffffffffffffffffffffffffffffffffffffffffffffffffffffff8381831617835250505050604051610d6d91906119d5565b600060405180830381855af49150503d8060008114610da8576040519150601f19603f3d011682016040523d82523d6000602084013e610dad565b606091505b509150915081610df2576040517f08c379a0000000000000000000000000000000000000000000000000000000008152600401610de990611a38565b60405180910390fd5b80806020019051810190610e069190611b4f565b925050509392505050565b600080600090508273ffffffffffffffffffffffffffffffffffffffff166301ffc9a77f80ac58cd000000000000000000000000000000000000000000000000000000006040518263ffffffff1660e01b8152600401610e719190611ce2565b602060405180830381865afa925050508015610eab57506040513d601f19601f82011682018060405250810190610ea89190611d29565b60015b610eb9576000915050610ec2565b80915050809150505b919050565b6000600254905090565b6000806000905060008373ffffffffffffffffffffffffffffffffffffffff166301ffc9a77fad092b5c000000000000000000000000000000000000000000000000000000006040518263ffffffff1660e01b8152600401610f339190611ce2565b602060405180830381865afa925050508015610f6d57506040513d601f19601f82011682018060405250810190610f6a9190611d29565b60015b610f7c57600092505050611035565b809250508373ffffffffffffffffffffffffffffffffffffffff166301ffc9a77f80ac58cd000000000000000000000000000000000000000000000000000000006040518263ffffffff1660e01b8152600401610fd99190611ce2565b602060405180830381865afa92505050801561101357506040513d601f19601f820116820180604052508101906110109190611d29565b60015b61102257600092505050611035565b809150508180156110305750805b925050505b919050565b6060600061104a836000016110e3565b905060608190508092505050919050565b600081600001549050919050565b60606000611079836000016110e3565b905060608190508092505050919050565b6002600054036110cf576040517f08c379a00000000000000000000000000000000000000000000000000000000081526004016110c690611da2565b60405180910390fd5b6002600081905550565b6001600081905550565b60608160000180548060200260200160405190810160405280929190818152602001828054801561113357602002820191906000526020600020905b81548152602001906001019080831161111f575b50505050509050919050565b6040518060c00160405280600073ffffffffffffffffffffffffffffffffffffffff168152602001600073ffffffffffffffffffffffffffffffffffffffff168152602001600073ffffffffffffffffffffffffffffffffffffffff1681526020016000815260200160008152602001600081525090565b6000604051905090565b600080fd5b600080fd5b600073ffffffffffffffffffffffffffffffffffffffff82169050919050565b60006111f6826111cb565b9050919050565b611206816111eb565b811461121157600080fd5b50565b600081359050611223816111fd565b92915050565b6000819050919050565b61123c81611229565b811461124757600080fd5b50565b60008135905061125981611233565b92915050565b60008060408385031215611276576112756111c1565b5b600061128485828601611214565b92505060206112958582860161124a565b9150509250929050565b6112a8816111eb565b82525050565b6112b781611229565b82525050565b60c0820160008201516112d3600085018261129f565b5060208201516112e6602085018261129f565b5060408201516112f9604085018261129f565b50606082015161130c60608501826112ae565b50608082015161131f60808501826112ae565b5060a082015161133260a08501826112ae565b50505050565b600060c08201905061134d60008301846112bd565b92915050565b600060208284031215611369576113686111c1565b5b600061137784828501611214565b91505092915050565b600081519050919050565b600082825260208201905092915050565b6000819050602082019050919050565b60006113b883836112ae565b60208301905092915050565b6000602082019050919050565b60006113dc82611380565b6113e6818561138b565b93506113f18361139c565b8060005b8381101561142257815161140988826113ac565b9750611414836113c4565b9250506001810190506113f5565b5085935050505092915050565b6000602082019050818103600083015261144981846113d1565b905092915050565b61145a816111eb565b82525050565b60006020820190506114756000830184611451565b92915050565b600081519050919050565b600082825260208201905092915050565b6000819050602082019050919050565b60c0820160008201516114bd600085018261129f565b5060208201516114d0602085018261129f565b5060408201516114e3604085018261129f565b5060608201516114f660608501826112ae565b50608082015161150960808501826112ae565b5060a082015161151c60a08501826112ae565b50505050565b600061152e83836114a7565b60c08301905092915050565b6000602082019050919050565b60006115528261147b565b61155c8185611486565b935061156783611497565b8060005b8381101561159857815161157f8882611522565b975061158a8361153a565b92505060018101905061156b565b5085935050505092915050565b600060208201905081810360008301526115bf8184611547565b905092915050565b600081519050919050565b600082825260208201905092915050565b60005b838110156116015780820151818401526020810190506115e6565b60008484015250505050565b6000601f19601f8301169050919050565b6000611629826115c7565b61163381856115d2565b93506116438185602086016115e3565b61164c8161160d565b840191505092915050565b60006020820190508181036000830152611671818461161e565b905092915050565b600081519050919050565b600082825260208201905092915050565b6000819050602082019050919050565b60006116b1838361129f565b60208301905092915050565b6000602082019050919050565b60006116d582611679565b6116df8185611684565b93506116ea83611695565b8060005b8381101561171b57815161170288826116a5565b975061170d836116bd565b9250506001810190506116ee565b5085935050505092915050565b6000602082019050818103600083015261174281846116ca565b905092915050565b600067ffffffffffffffff82169050919050565b6117678161174a565b811461177257600080fd5b50565b6000813590506117848161175e565b92915050565b6000806000606084860312156117a3576117a26111c1565b5b60006117b186828701611214565b93505060206117c28682870161124a565b92505060406117d386828701611775565b9150509250925092565b6000806000606084860312156117f6576117f56111c1565b5b600061180486828701611214565b93505060206118158682870161124a565b92505060406118268682870161124a565b9150509250925092565b60008115159050919050565b61184581611830565b82525050565b6000602082019050611860600083018461183c565b92915050565b61186f81611229565b82525050565b600060208201905061188a6000830184611866565b92915050565b7f4e487b7100000000000000000000000000000000000000000000000000000000600052604160045260246000fd5b7f4e487b7100000000000000000000000000000000000000000000000000000000600052603260045260246000fd5b7f4e487b7100000000000000000000000000000000000000000000000000000000600052601160045260246000fd5b600061192882611229565b91507fffffffffffffffffffffffffffffffffffffffffffffffffffffffffffffffff820361195a576119596118ee565b5b600182019050919050565b600060408201905061197a6000830185611451565b6119876020830184611866565b9392505050565b600081519050919050565b600081905092915050565b60006119af8261198e565b6119b98185611999565b93506119c98185602086016115e3565b80840191505092915050565b60006119e182846119a4565b915081905092915050565b7f7472616e73616374696f6e206661696c65640000000000000000000000000000600082015250565b6000611a226012836115d2565b9150611a2d826119ec565b602082019050919050565b60006020820190508181036000830152611a5181611a15565b9050919050565b600080fd5b600080fd5b611a6b8261160d565b810181811067ffffffffffffffff82111715611a8a57611a89611890565b5b80604052505050565b6000611a9d6111b7565b9050611aa98282611a62565b919050565b600067ffffffffffffffff821115611ac957611ac8611890565b5b611ad28261160d565b9050602081019050919050565b6000611af2611aed84611aae565b611a93565b905082815260208101848484011115611b0e57611b0d611a5d565b5b611b198482856115e3565b509392505050565b600082601f830112611b3657611b35611a58565b5b8151611b46848260208601611adf565b91505092915050565b600060208284031215611b6557611b646111c1565b5b600082015167ffffffffffffffff811115611b8357611b826111c6565b5b611b8f84828501611b21565b91505092915050565b7f6d61726b6574706c6163652063616e206f6e6c7920626520757067726164656460008201527f20627920746865206f776e657200000000000000000000000000000000000000602082015250565b6000611bf4602d836115d2565b9150611bff82611b98565b604082019050919050565b60006020820190508181036000830152611c2381611be7565b9050919050565b611c338161174a565b82525050565b6000606082019050611c4e6000830186611451565b611c5b6020830185611866565b611c686040830184611c2a565b949350505050565b6000606082019050611c856000830186611451565b611c926020830185611866565b611c9f6040830184611866565b949350505050565b60007fffffffff0000000000000000000000000000000000000000000000000000000082169050919050565b611cdc81611ca7565b82525050565b6000602082019050611cf76000830184611cd3565b92915050565b611d0681611830565b8114611d1157600080fd5b50565b600081519050611d2381611cfd565b92915050565b600060208284031215611d3f57611d3e6111c1565b5b6000611d4d84828501611d14565b91505092915050565b7f5265656e7472616e637947756172643a207265656e7472616e742063616c6c00600082015250565b6000611d8c601f836115d2565b9150611d9782611d56565b602082019050919050565b60006020820190508181036000830152611dbb81611d7f565b905091905056fea264697066735822122075d3134ba6b167da1eb1be63672724fe76c1a3b0e96325294940c6f14e9e262664736f6c63430008110033",
  "linkReferences": {},
  "deployedLinkReferences": {}
}