{
  "_format": "hh-sol-artifact-1",
  "contractName": "AvianInsExchange",
  "sourceName": "contracts/AvianInsExchange.sol",
  "abi": [
    {
      "inputs": [],
      "stateMutability": "nonpayable",
      "type": "constructor"
    },
    {
      "inputs": [
        {
          "internalType": "address",
          "name": "nftAddress",
          "type": "address"
        },
        {
          "internalType": "uint256",
          "name": "tokenId",
          "type": "uint256"
        }
      ],
      "name": "AlreadyListed",
      "type": "error"
    },
    {
      "inputs": [],
      "name": "NotApprovedForMarketplace",
      "type": "error"
    },
    {
      "inputs": [
        {
          "internalType": "address",
          "name": "nftAddress",
          "type": "address"
        },
        {
          "internalType": "uint256",
          "name": "tokenId",
          "type": "uint256"
        }
      ],
      "name": "NotListed",
      "type": "error"
    },
    {
      "inputs": [],
      "name": "NotOwner",
      "type": "error"
    },
    {
      "anonymous": false,
      "inputs": [
        {
          "indexed": true,
          "internalType": "address",
          "name": "owner",
          "type": "address"
        },
        {
          "indexed": true,
          "internalType": "address",
          "name": "user",
          "type": "address"
        },
        {
          "indexed": true,
          "internalType": "address",
          "name": "nftContract",
          "type": "address"
        },
        {
          "indexed": false,
          "internalType": "uint256",
          "name": "tokenId",
          "type": "uint256"
        },
        {
          "indexed": false,
          "internalType": "uint256",
          "name": "pricePerDay",
          "type": "uint256"
        }
      ],
      "name": "INSNFTListed",
      "type": "event"
    },
    {
      "anonymous": false,
      "inputs": [
        {
          "indexed": true,
          "internalType": "address",
          "name": "owner",
          "type": "address"
        },
        {
          "indexed": true,
          "internalType": "address",
          "name": "user",
          "type": "address"
        },
        {
          "indexed": true,
          "internalType": "address",
          "name": "nftContract",
          "type": "address"
        },
        {
          "indexed": false,
          "internalType": "uint256",
          "name": "tokenId",
          "type": "uint256"
        },
        {
          "indexed": false,
          "internalType": "uint64",
          "name": "expires",
          "type": "uint64"
        },
        {
          "indexed": false,
          "internalType": "uint64",
          "name": "insCount",
          "type": "uint64"
        },
        {
          "indexed": false,
          "internalType": "uint64",
          "name": "insIndex",
          "type": "uint64"
        },
        {
          "indexed": false,
          "internalType": "uint256",
          "name": "insAmount",
          "type": "uint256"
        },
        {
          "indexed": false,
          "internalType": "uint256",
          "name": "totalPaid",
          "type": "uint256"
        }
      ],
      "name": "NFTINSPaid",
      "type": "event"
    },
    {
      "anonymous": false,
      "inputs": [
        {
          "indexed": true,
          "internalType": "address",
          "name": "unlistSender",
          "type": "address"
        },
        {
          "indexed": true,
          "internalType": "address",
          "name": "nftContract",
          "type": "address"
        },
        {
          "indexed": true,
          "internalType": "uint256",
          "name": "tokenId",
          "type": "uint256"
        }
      ],
      "name": "NFTUnlisted",
      "type": "event"
    },
    {
      "inputs": [
        {
          "internalType": "uint256",
          "name": "totalPaid",
          "type": "uint256"
        },
        {
          "internalType": "uint256",
          "name": "installmentCount",
          "type": "uint256"
        },
        {
          "internalType": "uint256",
          "name": "pricePerDay",
          "type": "uint256"
        },
        {
          "internalType": "uint64",
          "name": "installmentIndex",
          "type": "uint64"
        }
      ],
      "name": "calculateInstallment",
      "outputs": [
        {
          "internalType": "uint256",
          "name": "",
          "type": "uint256"
        }
      ],
      "stateMutability": "pure",
      "type": "function"
    },
    {
      "inputs": [
        {
          "internalType": "address",
          "name": "nftContract",
          "type": "address"
        }
      ],
      "name": "isNFT",
      "outputs": [
        {
          "internalType": "bool",
          "name": "",
          "type": "bool"
        }
      ],
      "stateMutability": "view",
      "type": "function"
    },
    {
      "inputs": [
        {
          "internalType": "address",
          "name": "nftContract",
          "type": "address"
        }
      ],
      "name": "isRentableNFT",
      "outputs": [
        {
          "internalType": "bool",
          "name": "",
          "type": "bool"
        }
      ],
      "stateMutability": "view",
      "type": "function"
    },
    {
      "inputs": [
        {
          "internalType": "address",
          "name": "nftAddress",
          "type": "address"
        },
        {
          "internalType": "uint256",
          "name": "tokenId",
          "type": "uint256"
        },
        {
          "internalType": "uint256",
          "name": "pricePerDay",
          "type": "uint256"
        }
      ],
      "name": "listInsBasedNFT",
      "outputs": [
        {
          "internalType": "string",
          "name": "",
          "type": "string"
        }
      ],
      "stateMutability": "payable",
      "type": "function"
    },
    {
      "inputs": [
        {
          "internalType": "address",
          "name": "nftContract",
          "type": "address"
        },
        {
          "internalType": "uint256",
          "name": "tokenId",
          "type": "uint256"
        }
      ],
      "name": "payNFTIns",
      "outputs": [
        {
          "internalType": "string",
          "name": "",
          "type": "string"
        }
      ],
      "stateMutability": "payable",
      "type": "function"
    },
    {
      "inputs": [
        {
          "internalType": "address",
          "name": "nftContract",
          "type": "address"
        },
        {
          "internalType": "uint256",
          "name": "tokenId",
          "type": "uint256"
        },
        {
          "internalType": "uint64",
          "name": "numDays",
          "type": "uint64"
        }
      ],
      "name": "rentINSNFT",
      "outputs": [
        {
          "internalType": "string",
          "name": "",
          "type": "string"
        }
      ],
      "stateMutability": "payable",
      "type": "function"
    },
    {
      "inputs": [
        {
          "internalType": "address",
          "name": "nftAddress",
          "type": "address"
        },
        {
          "internalType": "uint256",
          "name": "tokenId",
          "type": "uint256"
        }
      ],
      "name": "unlistINSNFT",
      "outputs": [
        {
          "internalType": "string",
          "name": "",
          "type": "string"
        }
      ],
      "stateMutability": "nonpayable",
      "type": "function"
    }
  ],
  "bytecode": "0x6080604052662386f26fc10000600255600a600360006101000a81548167ffffffffffffffff021916908367ffffffffffffffff16021790555034801561004557600080fd5b50600160008190555033600160006101000a81548173ffffffffffffffffffffffffffffffffffffffff021916908373ffffffffffffffffffffffffffffffffffffffff1602179055506134b88061009e6000396000f3fe6080604052600436106100705760003560e01c8063b31b85c91161004e578063b31b85c91461011f578063c80e712f1461015c578063cebd51451461018c578063e9a6f4f6146101bc57610070565b80634b30261c146100755780636bf510bf146100a55780636d48cf02146100e2575b600080fd5b61008f600480360381019061008a919061250b565b6101f9565b60405161009c91906125db565b60405180910390f35b3480156100b157600080fd5b506100cc60048036038101906100c7919061250b565b610886565b6040516100d991906125db565b60405180910390f35b3480156100ee57600080fd5b506101096004803603810190610104919061263d565b610e56565b60405161011691906126b3565b60405180910390f35b34801561012b57600080fd5b50610146600480360381019061014191906126ce565b610fb1565b6040516101539190612716565b60405180910390f35b61017660048036038101906101719190612731565b611067565b60405161018391906125db565b60405180910390f35b6101a660048036038101906101a19190612784565b6119d7565b6040516101b391906125db565b60405180910390f35b3480156101c857600080fd5b506101e360048036038101906101de91906126ce565b611fdd565b6040516101f09190612716565b60405180910390f35b6060610203612146565b6000600460008573ffffffffffffffffffffffffffffffffffffffff1673ffffffffffffffffffffffffffffffffffffffff168152602001908152602001600020600084815260200190815260200160002090503373ffffffffffffffffffffffffffffffffffffffff168160010160009054906101000a900473ffffffffffffffffffffffffffffffffffffffff1673ffffffffffffffffffffffffffffffffffffffff16146102e9576040517f08c379a00000000000000000000000000000000000000000000000000000000081526004016102e090612823565b60405180910390fd5b8060050160009054906101000a900467ffffffffffffffff1667ffffffffffffffff168160050160109054906101000a900467ffffffffffffffff1667ffffffffffffffff161061036f576040517f08c379a00000000000000000000000000000000000000000000000000000000081526004016103669061288f565b60405180910390fd5b60018160050160109054906101000a900467ffffffffffffffff1667ffffffffffffffff1610156103d5576040517f08c379a00000000000000000000000000000000000000000000000000000000081526004016103cc906128fb565b60405180910390fd5b8060050160089054906101000a900467ffffffffffffffff1667ffffffffffffffff164210610439576040517f08c379a000000000000000000000000000000000000000000000000000000000815260040161043090612967565b60405180910390fd5b60008490503073ffffffffffffffffffffffffffffffffffffffff168173ffffffffffffffffffffffffffffffffffffffff1663081812fc866040518263ffffffff1660e01b815260040161048e91906126b3565b602060405180830381865afa1580156104ab573d6000803e3d6000fd5b505050506040513d601f19601f820116820180604052508101906104cf919061299c565b73ffffffffffffffffffffffffffffffffffffffff161461051c576040517f4be3a2c500000000000000000000000000000000000000000000000000000000815260040160405180910390fd5b6000620151808360050160089054906101000a900467ffffffffffffffff1661054591906129f8565b905060008360050160109054906101000a900467ffffffffffffffff169050600060018261057391906129f8565b905060006105ad86600601548760050160009054906101000a900467ffffffffffffffff1667ffffffffffffffff16886004015485610e56565b9050803410156105f2576040517f08c379a00000000000000000000000000000000000000000000000000000000081526004016105e990612aa6565b60405180910390fd5b8560000160009054906101000a900473ffffffffffffffffffffffffffffffffffffffff1673ffffffffffffffffffffffffffffffffffffffff166108fc829081150290604051600060405180830381858888f1935050505015801561065c573d6000803e3d6000fd5b50838660050160086101000a81548167ffffffffffffffff021916908367ffffffffffffffff1602179055508873ffffffffffffffffffffffffffffffffffffffff1663e030565e8933876040518463ffffffff1660e01b81526004016106c593929190612ae4565b600060405180830381600087803b1580156106df57600080fd5b505af11580156106f3573d6000803e3d6000fd5b5050505060008187600601546107099190612b1b565b9050828760050160106101000a81548167ffffffffffffffff021916908367ffffffffffffffff1602179055508087600601819055508973ffffffffffffffffffffffffffffffffffffffff163373ffffffffffffffffffffffffffffffffffffffff168b73ffffffffffffffffffffffffffffffffffffffff16636352211e8c6040518263ffffffff1660e01b81526004016107a691906126b3565b602060405180830381865afa1580156107c3573d6000803e3d6000fd5b505050506040513d601f19601f820116820180604052508101906107e7919061299c565b73ffffffffffffffffffffffffffffffffffffffff167f7948063926760d861fb6a515fe3d516633f815ee21533bbd37cdc875a77c128e8c898c60050160009054906101000a900467ffffffffffffffff168a898960405161084e96959493929190612b4f565b60405180910390a460405180606001604052806021815260200161346260219139975050505050505050610880612195565b92915050565b6060828233600083905060008173ffffffffffffffffffffffffffffffffffffffff16636352211e856040518263ffffffff1660e01b81526004016108cb91906126b3565b602060405180830381865afa1580156108e8573d6000803e3d6000fd5b505050506040513d601f19601f8201168201806040525081019061090c919061299c565b90508073ffffffffffffffffffffffffffffffffffffffff168373ffffffffffffffffffffffffffffffffffffffff1614610973576040517f30cd747100000000000000000000000000000000000000000000000000000000815260040160405180910390fd5b87876000600460008473ffffffffffffffffffffffffffffffffffffffff1673ffffffffffffffffffffffffffffffffffffffff1681526020019081526020016000206000838152602001908152602001600020604051806101200160405290816000820160009054906101000a900473ffffffffffffffffffffffffffffffffffffffff1673ffffffffffffffffffffffffffffffffffffffff1673ffffffffffffffffffffffffffffffffffffffff1681526020016001820160009054906101000a900473ffffffffffffffffffffffffffffffffffffffff1673ffffffffffffffffffffffffffffffffffffffff1673ffffffffffffffffffffffffffffffffffffffff1681526020016002820160009054906101000a900473ffffffffffffffffffffffffffffffffffffffff1673ffffffffffffffffffffffffffffffffffffffff1673ffffffffffffffffffffffffffffffffffffffff16815260200160038201548152602001600482015481526020016005820160009054906101000a900467ffffffffffffffff1667ffffffffffffffff1667ffffffffffffffff1681526020016005820160089054906101000a900467ffffffffffffffff1667ffffffffffffffff1667ffffffffffffffff1681526020016005820160109054906101000a900467ffffffffffffffff1667ffffffffffffffff1667ffffffffffffffff16815260200160068201548152505090506000816080015111610bd65782826040517f6831488c000000000000000000000000000000000000000000000000000000008152600401610bcd929190612bb0565b60405180910390fd5b610c1e600560008d73ffffffffffffffffffffffffffffffffffffffff1673ffffffffffffffffffffffffffffffffffffffff1681526020019081526020016000208b61219f565b50600460008c73ffffffffffffffffffffffffffffffffffffffff1673ffffffffffffffffffffffffffffffffffffffff16815260200190815260200160002060008b8152602001908152602001600020600080820160006101000a81549073ffffffffffffffffffffffffffffffffffffffff02191690556001820160006101000a81549073ffffffffffffffffffffffffffffffffffffffff02191690556002820160006101000a81549073ffffffffffffffffffffffffffffffffffffffff0219169055600382016000905560048201600090556005820160006101000a81549067ffffffffffffffff02191690556005820160086101000a81549067ffffffffffffffff02191690556005820160106101000a81549067ffffffffffffffff0219169055600682016000905550506000610d99600560008e73ffffffffffffffffffffffffffffffffffffffff1673ffffffffffffffffffffffffffffffffffffffff1681526020019081526020016000206121b9565b03610dab57610da960068c6121ce565b505b610db560086121fe565b898b73ffffffffffffffffffffffffffffffffffffffff163373ffffffffffffffffffffffffffffffffffffffff167f5e22415fbc0319574562e44217526b07e663891c4338550fe529eac37e9e0cb260405160405180910390a46040518060400160405280602081526020017f5375636365737366756c6c792072656d6f76656420746865206c697374696e678152509850505050505050505092915050565b6000838267ffffffffffffffff161115610ea5576040517f08c379a0000000000000000000000000000000000000000000000000000000008152600401610e9c90612c4b565b60405180910390fd5b60008267ffffffffffffffff1611610ef2576040517f08c379a0000000000000000000000000000000000000000000000000000000008152600401610ee990612cdd565b60405180910390fd5b60008484610f009190612cfd565b90506000806002600188610f149190612b1b565b88610f1f9190612cfd565b610f299190612d6e565b905060008184610f399190612d6e565b9050878667ffffffffffffffff161015610f815760018667ffffffffffffffff1689610f659190612d9f565b610f6f9190612b1b565b81610f7a9190612cfd565b9250610fa2565b878667ffffffffffffffff1603610fa1578884610f9e9190612d9f565b92505b5b82945050505050949350505050565b600080600090508273ffffffffffffffffffffffffffffffffffffffff166301ffc9a77f80ac58cd000000000000000000000000000000000000000000000000000000006040518263ffffffff1660e01b81526004016110119190612e0e565b602060405180830381865afa92505050801561104b57506040513d601f19601f820116820180604052508101906110489190612e55565b60015b611059576000915050611062565b80915050809150505b919050565b6060611071612146565b83836000600460008473ffffffffffffffffffffffffffffffffffffffff1673ffffffffffffffffffffffffffffffffffffffff1681526020019081526020016000206000838152602001908152602001600020604051806101200160405290816000820160009054906101000a900473ffffffffffffffffffffffffffffffffffffffff1673ffffffffffffffffffffffffffffffffffffffff1673ffffffffffffffffffffffffffffffffffffffff1681526020016001820160009054906101000a900473ffffffffffffffffffffffffffffffffffffffff1673ffffffffffffffffffffffffffffffffffffffff1673ffffffffffffffffffffffffffffffffffffffff1681526020016002820160009054906101000a900473ffffffffffffffffffffffffffffffffffffffff1673ffffffffffffffffffffffffffffffffffffffff1673ffffffffffffffffffffffffffffffffffffffff16815260200160038201548152602001600482015481526020016005820160009054906101000a900467ffffffffffffffff1667ffffffffffffffff1667ffffffffffffffff1681526020016005820160089054906101000a900467ffffffffffffffff1667ffffffffffffffff1667ffffffffffffffff1681526020016005820160109054906101000a900467ffffffffffffffff1667ffffffffffffffff1667ffffffffffffffff16815260200160068201548152505090506000816080015111156112d55782826040517f4a5568d50000000000000000000000000000000000000000000000000000000081526004016112cc929190612bb0565b60405180910390fd5b6112de87611fdd565b61131d576040517f08c379a000000000000000000000000000000000000000000000000000000000815260040161131490612ece565b60405180910390fd5b3373ffffffffffffffffffffffffffffffffffffffff168773ffffffffffffffffffffffffffffffffffffffff16636352211e886040518263ffffffff1660e01b815260040161136d91906126b3565b602060405180830381865afa15801561138a573d6000803e3d6000fd5b505050506040513d601f19601f820116820180604052508101906113ae919061299c565b73ffffffffffffffffffffffffffffffffffffffff1614611404576040517f08c379a00000000000000000000000000000000000000000000000000000000081526004016113fb90612f3a565b60405180910390fd5b6002543414611448576040517f08c379a000000000000000000000000000000000000000000000000000000000815260040161143f90612fa6565b60405180910390fd5b6000851161148b576040517f08c379a000000000000000000000000000000000000000000000000000000000815260040161148290613038565b60405180910390fd5b60008790503073ffffffffffffffffffffffffffffffffffffffff168173ffffffffffffffffffffffffffffffffffffffff1663081812fc896040518263ffffffff1660e01b81526004016114e091906126b3565b602060405180830381865afa1580156114fd573d6000803e3d6000fd5b505050506040513d601f19601f82011682018060405250810190611521919061299c565b73ffffffffffffffffffffffffffffffffffffffff161461156e576040517f4be3a2c500000000000000000000000000000000000000000000000000000000815260040160405180910390fd5b600160009054906101000a900473ffffffffffffffffffffffffffffffffffffffff1673ffffffffffffffffffffffffffffffffffffffff166108fc6002549081150290604051600060405180830381858888f193505050501580156115d8573d6000803e3d6000fd5b506040518061012001604052803373ffffffffffffffffffffffffffffffffffffffff168152602001600073ffffffffffffffffffffffffffffffffffffffff1681526020018973ffffffffffffffffffffffffffffffffffffffff168152602001888152602001878152602001600067ffffffffffffffff168152602001600067ffffffffffffffff168152602001600067ffffffffffffffff1681526020016000815250600460008a73ffffffffffffffffffffffffffffffffffffffff1673ffffffffffffffffffffffffffffffffffffffff168152602001908152602001600020600089815260200190815260200160002060008201518160000160006101000a81548173ffffffffffffffffffffffffffffffffffffffff021916908373ffffffffffffffffffffffffffffffffffffffff16021790555060208201518160010160006101000a81548173ffffffffffffffffffffffffffffffffffffffff021916908373ffffffffffffffffffffffffffffffffffffffff16021790555060408201518160020160006101000a81548173ffffffffffffffffffffffffffffffffffffffff021916908373ffffffffffffffffffffffffffffffffffffffff160217905550606082015181600301556080820151816004015560a08201518160050160006101000a81548167ffffffffffffffff021916908367ffffffffffffffff16021790555060c08201518160050160086101000a81548167ffffffffffffffff021916908367ffffffffffffffff16021790555060e08201518160050160106101000a81548167ffffffffffffffff021916908367ffffffffffffffff160217905550610100820151816006015590505061185c600861225a565b6118a4600560008a73ffffffffffffffffffffffffffffffffffffffff1673ffffffffffffffffffffffffffffffffffffffff16815260200190815260200160002088612270565b506118b060068961228a565b508773ffffffffffffffffffffffffffffffffffffffff16600073ffffffffffffffffffffffffffffffffffffffff168973ffffffffffffffffffffffffffffffffffffffff16636352211e8a6040518263ffffffff1660e01b815260040161191991906126b3565b602060405180830381865afa158015611936573d6000803e3d6000fd5b505050506040513d601f19601f8201168201806040525081019061195a919061299c565b73ffffffffffffffffffffffffffffffffffffffff167f96104f93007b1903cb7ec11f7eb4cb08e84720170462e648569235ae6ae6c6d08a8a6040516119a1929190613058565b60405180910390a4604051806060016040528060398152602001613429603991399450505050506119d0612195565b9392505050565b60606119e1612146565b600360009054906101000a900467ffffffffffffffff1667ffffffffffffffff168267ffffffffffffffff161115611a4e576040517f08c379a0000000000000000000000000000000000000000000000000000000008152600401611a45906130f3565b60405180910390fd5b60018267ffffffffffffffff1611611a9b576040517f08c379a0000000000000000000000000000000000000000000000000000000008152600401611a9290613185565b60405180910390fd5b6000600460008673ffffffffffffffffffffffffffffffffffffffff1673ffffffffffffffffffffffffffffffffffffffff16815260200190815260200160002060008581526020019081526020016000209050600073ffffffffffffffffffffffffffffffffffffffff168160010160009054906101000a900473ffffffffffffffffffffffffffffffffffffffff1673ffffffffffffffffffffffffffffffffffffffff161480611b6f57508060050160089054906101000a900467ffffffffffffffff1667ffffffffffffffff1642115b611bae576040517f08c379a0000000000000000000000000000000000000000000000000000000008152600401611ba5906131f1565b60405180910390fd5b60008590503073ffffffffffffffffffffffffffffffffffffffff168173ffffffffffffffffffffffffffffffffffffffff1663081812fc876040518263ffffffff1660e01b8152600401611c0391906126b3565b602060405180830381865afa158015611c20573d6000803e3d6000fd5b505050506040513d601f19601f82011682018060405250810190611c44919061299c565b73ffffffffffffffffffffffffffffffffffffffff1614611c91576040517f4be3a2c500000000000000000000000000000000000000000000000000000000815260040160405180910390fd5b60006201518042611ca291906129f8565b90506000611cc260008767ffffffffffffffff1686600401546001610e56565b905080341015611d07576040517f08c379a0000000000000000000000000000000000000000000000000000000008152600401611cfe90612aa6565b60405180910390fd5b8360000160009054906101000a900473ffffffffffffffffffffffffffffffffffffffff1673ffffffffffffffffffffffffffffffffffffffff166108fc829081150290604051600060405180830381858888f19350505050158015611d71573d6000803e3d6000fd5b508773ffffffffffffffffffffffffffffffffffffffff1663e030565e8833856040518463ffffffff1660e01b8152600401611daf93929190612ae4565b600060405180830381600087803b158015611dc957600080fd5b505af1158015611ddd573d6000803e3d6000fd5b50505050338460010160006101000a81548173ffffffffffffffffffffffffffffffffffffffff021916908373ffffffffffffffffffffffffffffffffffffffff160217905550818460050160086101000a81548167ffffffffffffffff021916908367ffffffffffffffff160217905550858460050160006101000a81548167ffffffffffffffff021916908367ffffffffffffffff16021790555060018460050160106101000a81548167ffffffffffffffff021916908367ffffffffffffffff1602179055508084600601819055508773ffffffffffffffffffffffffffffffffffffffff163373ffffffffffffffffffffffffffffffffffffffff168973ffffffffffffffffffffffffffffffffffffffff16636352211e8a6040518263ffffffff1660e01b8152600401611f1691906126b3565b602060405180830381865afa158015611f33573d6000803e3d6000fd5b505050506040513d601f19601f82011682018060405250810190611f57919061299c565b73ffffffffffffffffffffffffffffffffffffffff167f7948063926760d861fb6a515fe3d516633f815ee21533bbd37cdc875a77c128e8a868b60018889604051611fa796959493929190613256565b60405180910390a46040518060600160405280603b81526020016133ee603b9139945050505050611fd6612195565b9392505050565b6000806000905060008373ffffffffffffffffffffffffffffffffffffffff166301ffc9a77fad092b5c000000000000000000000000000000000000000000000000000000006040518263ffffffff1660e01b815260040161203f9190612e0e565b602060405180830381865afa92505050801561207957506040513d601f19601f820116820180604052508101906120769190612e55565b60015b61208857600092505050612141565b809250508373ffffffffffffffffffffffffffffffffffffffff166301ffc9a77f80ac58cd000000000000000000000000000000000000000000000000000000006040518263ffffffff1660e01b81526004016120e59190612e0e565b602060405180830381865afa92505050801561211f57506040513d601f19601f8201168201806040525081019061211c9190612e55565b60015b61212e57600092505050612141565b8091505081801561213c5750805b925050505b919050565b60026000540361218b576040517f08c379a000000000000000000000000000000000000000000000000000000000815260040161218290613303565b60405180910390fd5b6002600081905550565b6001600081905550565b60006121b1836000018360001b6122ba565b905092915050565b60006121c7826000016123ce565b9050919050565b60006121f6836000018373ffffffffffffffffffffffffffffffffffffffff1660001b6122ba565b905092915050565b6000816000015490506000811161224a576040517f08c379a00000000000000000000000000000000000000000000000000000000081526004016122419061336f565b60405180910390fd5b6001810382600001819055505050565b6001816000016000828254019250508190555050565b6000612282836000018360001b6123df565b905092915050565b60006122b2836000018373ffffffffffffffffffffffffffffffffffffffff1660001b6123df565b905092915050565b600080836001016000848152602001908152602001600020549050600081146123c25760006001826122ec9190612d9f565b90506000600186600001805490506123049190612d9f565b90508181146123735760008660000182815481106123255761232461338f565b5b90600052602060002001549050808760000184815481106123495761234861338f565b5b90600052602060002001819055508387600101600083815260200190815260200160002081905550505b85600001805480612387576123866133be565b5b6001900381819060005260206000200160009055905585600101600086815260200190815260200160002060009055600193505050506123c8565b60009150505b92915050565b600081600001805490509050919050565b60006123eb838361244f565b612444578260000182908060018154018082558091505060019003906000526020600020016000909190919091505582600001805490508360010160008481526020019081526020016000208190555060019050612449565b600090505b92915050565b600080836001016000848152602001908152602001600020541415905092915050565b600080fd5b600073ffffffffffffffffffffffffffffffffffffffff82169050919050565b60006124a282612477565b9050919050565b6124b281612497565b81146124bd57600080fd5b50565b6000813590506124cf816124a9565b92915050565b6000819050919050565b6124e8816124d5565b81146124f357600080fd5b50565b600081359050612505816124df565b92915050565b6000806040838503121561252257612521612472565b5b6000612530858286016124c0565b9250506020612541858286016124f6565b9150509250929050565b600081519050919050565b600082825260208201905092915050565b60005b8381101561258557808201518184015260208101905061256a565b60008484015250505050565b6000601f19601f8301169050919050565b60006125ad8261254b565b6125b78185612556565b93506125c7818560208601612567565b6125d081612591565b840191505092915050565b600060208201905081810360008301526125f581846125a2565b905092915050565b600067ffffffffffffffff82169050919050565b61261a816125fd565b811461262557600080fd5b50565b60008135905061263781612611565b92915050565b6000806000806080858703121561265757612656612472565b5b6000612665878288016124f6565b9450506020612676878288016124f6565b9350506040612687878288016124f6565b925050606061269887828801612628565b91505092959194509250565b6126ad816124d5565b82525050565b60006020820190506126c860008301846126a4565b92915050565b6000602082840312156126e4576126e3612472565b5b60006126f2848285016124c0565b91505092915050565b60008115159050919050565b612710816126fb565b82525050565b600060208201905061272b6000830184612707565b92915050565b60008060006060848603121561274a57612749612472565b5b6000612758868287016124c0565b9350506020612769868287016124f6565b925050604061277a868287016124f6565b9150509250925092565b60008060006060848603121561279d5761279c612472565b5b60006127ab868287016124c0565b93505060206127bc868287016124f6565b92505060406127cd86828701612628565b9150509250925092565b7f596f7520617265206e6f74207468652063757272656e742072656e7465720000600082015250565b600061280d601e83612556565b9150612818826127d7565b602082019050919050565b6000602082019050818103600083015261283c81612800565b9050919050565b7f52656e74616c206665652069732066756c6c7920706169640000000000000000600082015250565b6000612879601883612556565b915061288482612843565b602082019050919050565b600060208201905081810360008301526128a88161286c565b9050919050565b7f52656e74616c2061677265656d656e74206e6f7420796574206d616465000000600082015250565b60006128e5601d83612556565b91506128f0826128af565b602082019050919050565b60006020820190508181036000830152612914816128d8565b9050919050565b7f4e46542065787069726564000000000000000000000000000000000000000000600082015250565b6000612951600b83612556565b915061295c8261291b565b602082019050919050565b6000602082019050818103600083015261298081612944565b9050919050565b600081519050612996816124a9565b92915050565b6000602082840312156129b2576129b1612472565b5b60006129c084828501612987565b91505092915050565b7f4e487b7100000000000000000000000000000000000000000000000000000000600052601160045260246000fd5b6000612a03826125fd565b9150612a0e836125fd565b9250828201905067ffffffffffffffff811115612a2e57612a2d6129c9565b5b92915050565b7f4e6f7420656e6f75676820657468657220746f20636f7665722072656e74616c60008201527f20706572696f6400000000000000000000000000000000000000000000000000602082015250565b6000612a90602783612556565b9150612a9b82612a34565b604082019050919050565b60006020820190508181036000830152612abf81612a83565b9050919050565b612acf81612497565b82525050565b612ade816125fd565b82525050565b6000606082019050612af960008301866126a4565b612b066020830185612ac6565b612b136040830184612ad5565b949350505050565b6000612b26826124d5565b9150612b31836124d5565b9250828201905080821115612b4957612b486129c9565b5b92915050565b600060c082019050612b6460008301896126a4565b612b716020830188612ad5565b612b7e6040830187612ad5565b612b8b6060830186612ad5565b612b9860808301856126a4565b612ba560a08301846126a4565b979650505050505050565b6000604082019050612bc56000830185612ac6565b612bd260208301846126a4565b9392505050565b7f496e7374616c6c6d656e7420496e6465782073686f756c64206265206c65737360008201527f6572207468616e2074686520696e7374616c6c6d656e7420636f756e74000000602082015250565b6000612c35603d83612556565b9150612c4082612bd9565b604082019050919050565b60006020820190508181036000830152612c6481612c28565b9050919050565b7f496e7374616c6c6d656e7420496e6465782073686f756c64206265206772656160008201527f746572207468616e203000000000000000000000000000000000000000000000602082015250565b6000612cc7602a83612556565b9150612cd282612c6b565b604082019050919050565b60006020820190508181036000830152612cf681612cba565b9050919050565b6000612d08826124d5565b9150612d13836124d5565b9250828202612d21816124d5565b91508282048414831517612d3857612d376129c9565b5b5092915050565b7f4e487b7100000000000000000000000000000000000000000000000000000000600052601260045260246000fd5b6000612d79826124d5565b9150612d84836124d5565b925082612d9457612d93612d3f565b5b828204905092915050565b6000612daa826124d5565b9150612db5836124d5565b9250828203905081811115612dcd57612dcc6129c9565b5b92915050565b60007fffffffff0000000000000000000000000000000000000000000000000000000082169050919050565b612e0881612dd3565b82525050565b6000602082019050612e236000830184612dff565b92915050565b612e32816126fb565b8114612e3d57600080fd5b50565b600081519050612e4f81612e29565b92915050565b600060208284031215612e6b57612e6a612472565b5b6000612e7984828501612e40565b91505092915050565b7f436f6e7472616374206973206e6f7420616e2045524334393037000000000000600082015250565b6000612eb8601a83612556565b9150612ec382612e82565b602082019050919050565b60006020820190508181036000830152612ee781612eab565b9050919050565b7f4e6f74206f776e6572206f66206e667400000000000000000000000000000000600082015250565b6000612f24601083612556565b9150612f2f82612eee565b602082019050919050565b60006020820190508181036000830152612f5381612f17565b9050919050565b7f4e6f7420656e6f75676820657468657220666f72206c697374696e6720666565600082015250565b6000612f90602083612556565b9150612f9b82612f5a565b602082019050919050565b60006020820190508181036000830152612fbf81612f83565b9050919050565b7f52656e74616c2070726963652073686f756c642062652067726561746572207460008201527f68616e2030000000000000000000000000000000000000000000000000000000602082015250565b6000613022602583612556565b915061302d82612fc6565b604082019050919050565b6000602082019050818103600083015261305181613015565b9050919050565b600060408201905061306d60008301856126a4565b61307a60208301846126a4565b9392505050565b7f4d6178696d756d206f662031302072656e74616c20646179732061726520616c60008201527f6c6f776564000000000000000000000000000000000000000000000000000000602082015250565b60006130dd602583612556565b91506130e882613081565b604082019050919050565b6000602082019050818103600083015261310c816130d0565b9050919050565b7f4e756d626572206f6620696e7374616c6c6d656e7473206d757374206265206760008201527f726561746572207468616e203100000000000000000000000000000000000000602082015250565b600061316f602d83612556565b915061317a82613113565b604082019050919050565b6000602082019050818103600083015261319e81613162565b9050919050565b7f4e465420616c72656164792072656e7465640000000000000000000000000000600082015250565b60006131db601283612556565b91506131e6826131a5565b602082019050919050565b6000602082019050818103600083015261320a816131ce565b9050919050565b6000819050919050565b6000819050919050565b600061324061323b61323684613211565b61321b565b6125fd565b9050919050565b61325081613225565b82525050565b600060c08201905061326b60008301896126a4565b6132786020830188612ad5565b6132856040830187612ad5565b6132926060830186613247565b61329f60808301856126a4565b6132ac60a08301846126a4565b979650505050505050565b7f5265656e7472616e637947756172643a207265656e7472616e742063616c6c00600082015250565b60006132ed601f83612556565b91506132f8826132b7565b602082019050919050565b6000602082019050818103600083015261331c816132e0565b9050919050565b7f436f756e7465723a2064656372656d656e74206f766572666c6f770000000000600082015250565b6000613359601b83612556565b915061336482613323565b602082019050919050565b600060208201905081810360008301526133888161334c565b9050919050565b7f4e487b7100000000000000000000000000000000000000000000000000000000600052603260045260246000fd5b7f4e487b7100000000000000000000000000000000000000000000000000000000600052603160045260246000fdfe5375636365737366756c6c792072656e74656420746865206e667420627920706179696e672074686520666972737420696e7374616c6c6d656e745375636365737366756c6c79206c697374656420746865204e465420666f7220696e7374616c6c6d656e742062617365642072656e74616c735375636365737366756c6c7920706169642074686520696e7374616c6c6d656e74a26469706673582212205d8be8b05dfd75518d5e9b42d6a530f995132e1a64b4d7db65fcb16714ec28ff64736f6c63430008110033",
  "linkReferences": {},
  "deployedLinkReferences": {}
}