{
  "_format": "hh-sol-artifact-1",
  "contractName": "AvianInsExchange",
  "sourceName": "contracts/AvianInsExchange.sol",
  "abi": [
    {
      "inputs": [],
      "stateMutability": "nonpayable",
      "type": "constructor"
    },
    {
      "inputs": [
        {
          "internalType": "address",
          "name": "nftAddress",
          "type": "address"
        },
        {
          "internalType": "uint256",
          "name": "tokenId",
          "type": "uint256"
        }
      ],
      "name": "AlreadyListed",
      "type": "error"
    },
    {
      "inputs": [],
      "name": "NotApprovedForMarketplace",
      "type": "error"
    },
    {
      "inputs": [
        {
          "internalType": "address",
          "name": "nftAddress",
          "type": "address"
        },
        {
          "internalType": "uint256",
          "name": "tokenId",
          "type": "uint256"
        }
      ],
      "name": "NotListed",
      "type": "error"
    },
    {
      "inputs": [],
      "name": "NotOwner",
      "type": "error"
    },
    {
      "anonymous": false,
      "inputs": [
        {
          "indexed": true,
          "internalType": "address",
          "name": "owner",
          "type": "address"
        },
        {
          "indexed": true,
          "internalType": "address",
          "name": "user",
          "type": "address"
        },
        {
          "indexed": true,
          "internalType": "address",
          "name": "nftContract",
          "type": "address"
        },
        {
          "indexed": false,
          "internalType": "uint256",
          "name": "tokenId",
          "type": "uint256"
        },
        {
          "indexed": false,
          "internalType": "uint256",
          "name": "pricePerDay",
          "type": "uint256"
        }
      ],
      "name": "INSNFTListed",
      "type": "event"
    },
    {
      "anonymous": false,
      "inputs": [
        {
          "indexed": true,
          "internalType": "address",
          "name": "owner",
          "type": "address"
        },
        {
          "indexed": true,
          "internalType": "address",
          "name": "user",
          "type": "address"
        },
        {
          "indexed": true,
          "internalType": "address",
          "name": "nftContract",
          "type": "address"
        },
        {
          "indexed": false,
          "internalType": "uint256",
          "name": "tokenId",
          "type": "uint256"
        },
        {
          "indexed": false,
          "internalType": "uint64",
          "name": "expires",
          "type": "uint64"
        },
        {
          "indexed": false,
          "internalType": "uint64",
          "name": "ins_index",
          "type": "uint64"
        },
        {
          "indexed": false,
          "internalType": "uint256",
          "name": "amountIns",
          "type": "uint256"
        },
        {
          "indexed": false,
          "internalType": "uint256",
          "name": "paidIns",
          "type": "uint256"
        }
      ],
      "name": "NFTINSPaid",
      "type": "event"
    },
    {
      "anonymous": false,
      "inputs": [
        {
          "indexed": true,
          "internalType": "address",
          "name": "unlistSender",
          "type": "address"
        },
        {
          "indexed": true,
          "internalType": "address",
          "name": "nftContract",
          "type": "address"
        },
        {
          "indexed": true,
          "internalType": "uint256",
          "name": "tokenId",
          "type": "uint256"
        }
      ],
      "name": "NFTUnlisted",
      "type": "event"
    },
    {
      "inputs": [
        {
          "internalType": "uint256",
          "name": "totalPaid",
          "type": "uint256"
        },
        {
          "internalType": "uint256",
          "name": "installmentCount",
          "type": "uint256"
        },
        {
          "internalType": "uint256",
          "name": "pricePerDay",
          "type": "uint256"
        },
        {
          "internalType": "uint64",
          "name": "installmentIndex",
          "type": "uint64"
        }
      ],
      "name": "calculateInstallment",
      "outputs": [
        {
          "internalType": "uint256",
          "name": "",
          "type": "uint256"
        }
      ],
      "stateMutability": "pure",
      "type": "function"
    },
    {
      "inputs": [
        {
          "internalType": "address",
          "name": "nftContract",
          "type": "address"
        }
      ],
      "name": "isNFT",
      "outputs": [
        {
          "internalType": "bool",
          "name": "",
          "type": "bool"
        }
      ],
      "stateMutability": "view",
      "type": "function"
    },
    {
      "inputs": [
        {
          "internalType": "address",
          "name": "nftContract",
          "type": "address"
        }
      ],
      "name": "isRentableNFT",
      "outputs": [
        {
          "internalType": "bool",
          "name": "",
          "type": "bool"
        }
      ],
      "stateMutability": "view",
      "type": "function"
    },
    {
      "inputs": [
        {
          "internalType": "address",
          "name": "nftAddress",
          "type": "address"
        },
        {
          "internalType": "uint256",
          "name": "tokenId",
          "type": "uint256"
        },
        {
          "internalType": "uint256",
          "name": "pricePerDay",
          "type": "uint256"
        }
      ],
      "name": "listInsBasedNFT",
      "outputs": [
        {
          "internalType": "string",
          "name": "",
          "type": "string"
        }
      ],
      "stateMutability": "payable",
      "type": "function"
    },
    {
      "inputs": [
        {
          "internalType": "address",
          "name": "nftContract",
          "type": "address"
        },
        {
          "internalType": "uint256",
          "name": "tokenId",
          "type": "uint256"
        }
      ],
      "name": "payNFTIns",
      "outputs": [
        {
          "internalType": "string",
          "name": "",
          "type": "string"
        }
      ],
      "stateMutability": "payable",
      "type": "function"
    },
    {
      "inputs": [
        {
          "internalType": "address",
          "name": "nftContract",
          "type": "address"
        },
        {
          "internalType": "uint256",
          "name": "tokenId",
          "type": "uint256"
        },
        {
          "internalType": "uint64",
          "name": "numDays",
          "type": "uint64"
        }
      ],
      "name": "rentINSNFT",
      "outputs": [
        {
          "internalType": "string",
          "name": "",
          "type": "string"
        }
      ],
      "stateMutability": "payable",
      "type": "function"
    },
    {
      "inputs": [
        {
          "internalType": "address",
          "name": "nftAddress",
          "type": "address"
        },
        {
          "internalType": "uint256",
          "name": "tokenId",
          "type": "uint256"
        }
      ],
      "name": "unlistINSNFT",
      "outputs": [
        {
          "internalType": "string",
          "name": "",
          "type": "string"
        }
      ],
      "stateMutability": "nonpayable",
      "type": "function"
    }
  ],
  "bytecode": "0x6080604052662386f26fc10000600255600a600360006101000a81548167ffffffffffffffff021916908367ffffffffffffffff16021790555034801561004557600080fd5b50600160008190555033600160006101000a81548173ffffffffffffffffffffffffffffffffffffffff021916908373ffffffffffffffffffffffffffffffffffffffff1602179055506134808061009e6000396000f3fe6080604052600436106100705760003560e01c8063b31b85c91161004e578063b31b85c91461011f578063c80e712f1461015c578063cebd51451461018c578063e9a6f4f6146101bc57610070565b80634b30261c146100755780636bf510bf146100a55780636d48cf02146100e2575b600080fd5b61008f600480360381019061008a91906124ef565b6101f9565b60405161009c91906125bf565b60405180910390f35b3480156100b157600080fd5b506100cc60048036038101906100c791906124ef565b61086c565b6040516100d991906125bf565b60405180910390f35b3480156100ee57600080fd5b5061010960048036038101906101049190612621565b610e3c565b6040516101169190612697565b60405180910390f35b34801561012b57600080fd5b50610146600480360381019061014191906126b2565b610f97565b60405161015391906126fa565b60405180910390f35b61017660048036038101906101719190612715565b61104d565b60405161018391906125bf565b60405180910390f35b6101a660048036038101906101a19190612768565b6119bd565b6040516101b391906125bf565b60405180910390f35b3480156101c857600080fd5b506101e360048036038101906101de91906126b2565b611fc1565b6040516101f091906126fa565b60405180910390f35b606061020361212a565b6000600460008573ffffffffffffffffffffffffffffffffffffffff1673ffffffffffffffffffffffffffffffffffffffff168152602001908152602001600020600084815260200190815260200160002090503373ffffffffffffffffffffffffffffffffffffffff168160010160009054906101000a900473ffffffffffffffffffffffffffffffffffffffff1673ffffffffffffffffffffffffffffffffffffffff16146102e9576040517f08c379a00000000000000000000000000000000000000000000000000000000081526004016102e090612807565b60405180910390fd5b8060050160009054906101000a900467ffffffffffffffff1667ffffffffffffffff168160050160109054906101000a900467ffffffffffffffff1667ffffffffffffffff161061036f576040517f08c379a000000000000000000000000000000000000000000000000000000000815260040161036690612873565b60405180910390fd5b60018160050160109054906101000a900467ffffffffffffffff1667ffffffffffffffff1610156103d5576040517f08c379a00000000000000000000000000000000000000000000000000000000081526004016103cc906128df565b60405180910390fd5b8060050160089054906101000a900467ffffffffffffffff1667ffffffffffffffff164210610439576040517f08c379a00000000000000000000000000000000000000000000000000000000081526004016104309061294b565b60405180910390fd5b60008490503073ffffffffffffffffffffffffffffffffffffffff168173ffffffffffffffffffffffffffffffffffffffff1663081812fc866040518263ffffffff1660e01b815260040161048e9190612697565b602060405180830381865afa1580156104ab573d6000803e3d6000fd5b505050506040513d601f19601f820116820180604052508101906104cf9190612980565b73ffffffffffffffffffffffffffffffffffffffff161461051c576040517f4be3a2c500000000000000000000000000000000000000000000000000000000815260040160405180910390fd5b6000620151808360050160089054906101000a900467ffffffffffffffff1661054591906129dc565b905060008360050160109054906101000a900467ffffffffffffffff169050600060018261057391906129dc565b905060006105ad86600601548760050160009054906101000a900467ffffffffffffffff1667ffffffffffffffff16886004015485610e3c565b9050803410156105f2576040517f08c379a00000000000000000000000000000000000000000000000000000000081526004016105e990612a8a565b60405180910390fd5b8560000160009054906101000a900473ffffffffffffffffffffffffffffffffffffffff1673ffffffffffffffffffffffffffffffffffffffff166108fc829081150290604051600060405180830381858888f1935050505015801561065c573d6000803e3d6000fd5b50838660050160086101000a81548167ffffffffffffffff021916908367ffffffffffffffff1602179055508873ffffffffffffffffffffffffffffffffffffffff1663e030565e8933876040518463ffffffff1660e01b81526004016106c593929190612ac8565b600060405180830381600087803b1580156106df57600080fd5b505af11580156106f3573d6000803e3d6000fd5b5050505060008187600601546107099190612aff565b9050828760050160106101000a81548167ffffffffffffffff021916908367ffffffffffffffff1602179055508087600601819055508973ffffffffffffffffffffffffffffffffffffffff163373ffffffffffffffffffffffffffffffffffffffff168b73ffffffffffffffffffffffffffffffffffffffff16636352211e8c6040518263ffffffff1660e01b81526004016107a69190612697565b602060405180830381865afa1580156107c3573d6000803e3d6000fd5b505050506040513d601f19601f820116820180604052508101906107e79190612980565b73ffffffffffffffffffffffffffffffffffffffff167fbffba71858e59a3f9bbb8e5792d8ac859e29ecfe86d40bb1dc34e346594542778c89898888604051610834959493929190612b33565b60405180910390a460405180606001604052806021815260200161342a60219139975050505050505050610866612179565b92915050565b6060828233600083905060008173ffffffffffffffffffffffffffffffffffffffff16636352211e856040518263ffffffff1660e01b81526004016108b19190612697565b602060405180830381865afa1580156108ce573d6000803e3d6000fd5b505050506040513d601f19601f820116820180604052508101906108f29190612980565b90508073ffffffffffffffffffffffffffffffffffffffff168373ffffffffffffffffffffffffffffffffffffffff1614610959576040517f30cd747100000000000000000000000000000000000000000000000000000000815260040160405180910390fd5b87876000600460008473ffffffffffffffffffffffffffffffffffffffff1673ffffffffffffffffffffffffffffffffffffffff1681526020019081526020016000206000838152602001908152602001600020604051806101200160405290816000820160009054906101000a900473ffffffffffffffffffffffffffffffffffffffff1673ffffffffffffffffffffffffffffffffffffffff1673ffffffffffffffffffffffffffffffffffffffff1681526020016001820160009054906101000a900473ffffffffffffffffffffffffffffffffffffffff1673ffffffffffffffffffffffffffffffffffffffff1673ffffffffffffffffffffffffffffffffffffffff1681526020016002820160009054906101000a900473ffffffffffffffffffffffffffffffffffffffff1673ffffffffffffffffffffffffffffffffffffffff1673ffffffffffffffffffffffffffffffffffffffff16815260200160038201548152602001600482015481526020016005820160009054906101000a900467ffffffffffffffff1667ffffffffffffffff1667ffffffffffffffff1681526020016005820160089054906101000a900467ffffffffffffffff1667ffffffffffffffff1667ffffffffffffffff1681526020016005820160109054906101000a900467ffffffffffffffff1667ffffffffffffffff1667ffffffffffffffff16815260200160068201548152505090506000816080015111610bbc5782826040517f6831488c000000000000000000000000000000000000000000000000000000008152600401610bb3929190612b86565b60405180910390fd5b610c04600560008d73ffffffffffffffffffffffffffffffffffffffff1673ffffffffffffffffffffffffffffffffffffffff1681526020019081526020016000208b612183565b50600460008c73ffffffffffffffffffffffffffffffffffffffff1673ffffffffffffffffffffffffffffffffffffffff16815260200190815260200160002060008b8152602001908152602001600020600080820160006101000a81549073ffffffffffffffffffffffffffffffffffffffff02191690556001820160006101000a81549073ffffffffffffffffffffffffffffffffffffffff02191690556002820160006101000a81549073ffffffffffffffffffffffffffffffffffffffff0219169055600382016000905560048201600090556005820160006101000a81549067ffffffffffffffff02191690556005820160086101000a81549067ffffffffffffffff02191690556005820160106101000a81549067ffffffffffffffff0219169055600682016000905550506000610d7f600560008e73ffffffffffffffffffffffffffffffffffffffff1673ffffffffffffffffffffffffffffffffffffffff16815260200190815260200160002061219d565b03610d9157610d8f60068c6121b2565b505b610d9b60086121e2565b898b73ffffffffffffffffffffffffffffffffffffffff163373ffffffffffffffffffffffffffffffffffffffff167f5e22415fbc0319574562e44217526b07e663891c4338550fe529eac37e9e0cb260405160405180910390a46040518060400160405280602081526020017f5375636365737366756c6c792072656d6f76656420746865206c697374696e678152509850505050505050505092915050565b6000838267ffffffffffffffff161115610e8b576040517f08c379a0000000000000000000000000000000000000000000000000000000008152600401610e8290612c21565b60405180910390fd5b60008267ffffffffffffffff1611610ed8576040517f08c379a0000000000000000000000000000000000000000000000000000000008152600401610ecf90612cb3565b60405180910390fd5b60008484610ee69190612cd3565b90506000806002600188610efa9190612aff565b88610f059190612cd3565b610f0f9190612d44565b905060008184610f1f9190612d44565b9050878667ffffffffffffffff161015610f675760018667ffffffffffffffff1689610f4b9190612d75565b610f559190612aff565b81610f609190612cd3565b9250610f88565b878667ffffffffffffffff1603610f87578884610f849190612d75565b92505b5b82945050505050949350505050565b600080600090508273ffffffffffffffffffffffffffffffffffffffff166301ffc9a77f80ac58cd000000000000000000000000000000000000000000000000000000006040518263ffffffff1660e01b8152600401610ff79190612de4565b602060405180830381865afa92505050801561103157506040513d601f19601f8201168201806040525081019061102e9190612e2b565b60015b61103f576000915050611048565b80915050809150505b919050565b606061105761212a565b83836000600460008473ffffffffffffffffffffffffffffffffffffffff1673ffffffffffffffffffffffffffffffffffffffff1681526020019081526020016000206000838152602001908152602001600020604051806101200160405290816000820160009054906101000a900473ffffffffffffffffffffffffffffffffffffffff1673ffffffffffffffffffffffffffffffffffffffff1673ffffffffffffffffffffffffffffffffffffffff1681526020016001820160009054906101000a900473ffffffffffffffffffffffffffffffffffffffff1673ffffffffffffffffffffffffffffffffffffffff1673ffffffffffffffffffffffffffffffffffffffff1681526020016002820160009054906101000a900473ffffffffffffffffffffffffffffffffffffffff1673ffffffffffffffffffffffffffffffffffffffff1673ffffffffffffffffffffffffffffffffffffffff16815260200160038201548152602001600482015481526020016005820160009054906101000a900467ffffffffffffffff1667ffffffffffffffff1667ffffffffffffffff1681526020016005820160089054906101000a900467ffffffffffffffff1667ffffffffffffffff1667ffffffffffffffff1681526020016005820160109054906101000a900467ffffffffffffffff1667ffffffffffffffff1667ffffffffffffffff16815260200160068201548152505090506000816080015111156112bb5782826040517f4a5568d50000000000000000000000000000000000000000000000000000000081526004016112b2929190612b86565b60405180910390fd5b6112c487611fc1565b611303576040517f08c379a00000000000000000000000000000000000000000000000000000000081526004016112fa90612ea4565b60405180910390fd5b3373ffffffffffffffffffffffffffffffffffffffff168773ffffffffffffffffffffffffffffffffffffffff16636352211e886040518263ffffffff1660e01b81526004016113539190612697565b602060405180830381865afa158015611370573d6000803e3d6000fd5b505050506040513d601f19601f820116820180604052508101906113949190612980565b73ffffffffffffffffffffffffffffffffffffffff16146113ea576040517f08c379a00000000000000000000000000000000000000000000000000000000081526004016113e190612f10565b60405180910390fd5b600254341461142e576040517f08c379a000000000000000000000000000000000000000000000000000000000815260040161142590612f7c565b60405180910390fd5b60008511611471576040517f08c379a00000000000000000000000000000000000000000000000000000000081526004016114689061300e565b60405180910390fd5b60008790503073ffffffffffffffffffffffffffffffffffffffff168173ffffffffffffffffffffffffffffffffffffffff1663081812fc896040518263ffffffff1660e01b81526004016114c69190612697565b602060405180830381865afa1580156114e3573d6000803e3d6000fd5b505050506040513d601f19601f820116820180604052508101906115079190612980565b73ffffffffffffffffffffffffffffffffffffffff1614611554576040517f4be3a2c500000000000000000000000000000000000000000000000000000000815260040160405180910390fd5b600160009054906101000a900473ffffffffffffffffffffffffffffffffffffffff1673ffffffffffffffffffffffffffffffffffffffff166108fc6002549081150290604051600060405180830381858888f193505050501580156115be573d6000803e3d6000fd5b506040518061012001604052803373ffffffffffffffffffffffffffffffffffffffff168152602001600073ffffffffffffffffffffffffffffffffffffffff1681526020018973ffffffffffffffffffffffffffffffffffffffff168152602001888152602001878152602001600067ffffffffffffffff168152602001600067ffffffffffffffff168152602001600067ffffffffffffffff1681526020016000815250600460008a73ffffffffffffffffffffffffffffffffffffffff1673ffffffffffffffffffffffffffffffffffffffff168152602001908152602001600020600089815260200190815260200160002060008201518160000160006101000a81548173ffffffffffffffffffffffffffffffffffffffff021916908373ffffffffffffffffffffffffffffffffffffffff16021790555060208201518160010160006101000a81548173ffffffffffffffffffffffffffffffffffffffff021916908373ffffffffffffffffffffffffffffffffffffffff16021790555060408201518160020160006101000a81548173ffffffffffffffffffffffffffffffffffffffff021916908373ffffffffffffffffffffffffffffffffffffffff160217905550606082015181600301556080820151816004015560a08201518160050160006101000a81548167ffffffffffffffff021916908367ffffffffffffffff16021790555060c08201518160050160086101000a81548167ffffffffffffffff021916908367ffffffffffffffff16021790555060e08201518160050160106101000a81548167ffffffffffffffff021916908367ffffffffffffffff1602179055506101008201518160060155905050611842600861223e565b61188a600560008a73ffffffffffffffffffffffffffffffffffffffff1673ffffffffffffffffffffffffffffffffffffffff16815260200190815260200160002088612254565b5061189660068961226e565b508773ffffffffffffffffffffffffffffffffffffffff16600073ffffffffffffffffffffffffffffffffffffffff168973ffffffffffffffffffffffffffffffffffffffff16636352211e8a6040518263ffffffff1660e01b81526004016118ff9190612697565b602060405180830381865afa15801561191c573d6000803e3d6000fd5b505050506040513d601f19601f820116820180604052508101906119409190612980565b73ffffffffffffffffffffffffffffffffffffffff167f96104f93007b1903cb7ec11f7eb4cb08e84720170462e648569235ae6ae6c6d08a8a60405161198792919061302e565b60405180910390a46040518060600160405280603981526020016133f1603991399450505050506119b6612179565b9392505050565b60606119c761212a565b600360009054906101000a900467ffffffffffffffff1667ffffffffffffffff168267ffffffffffffffff161115611a34576040517f08c379a0000000000000000000000000000000000000000000000000000000008152600401611a2b906130c9565b60405180910390fd5b60018267ffffffffffffffff1611611a81576040517f08c379a0000000000000000000000000000000000000000000000000000000008152600401611a789061315b565b60405180910390fd5b6000600460008673ffffffffffffffffffffffffffffffffffffffff1673ffffffffffffffffffffffffffffffffffffffff16815260200190815260200160002060008581526020019081526020016000209050600073ffffffffffffffffffffffffffffffffffffffff168160010160009054906101000a900473ffffffffffffffffffffffffffffffffffffffff1673ffffffffffffffffffffffffffffffffffffffff161480611b5557508060050160089054906101000a900467ffffffffffffffff1667ffffffffffffffff1642115b611b94576040517f08c379a0000000000000000000000000000000000000000000000000000000008152600401611b8b906131c7565b60405180910390fd5b60008590503073ffffffffffffffffffffffffffffffffffffffff168173ffffffffffffffffffffffffffffffffffffffff1663081812fc876040518263ffffffff1660e01b8152600401611be99190612697565b602060405180830381865afa158015611c06573d6000803e3d6000fd5b505050506040513d601f19601f82011682018060405250810190611c2a9190612980565b73ffffffffffffffffffffffffffffffffffffffff1614611c77576040517f4be3a2c500000000000000000000000000000000000000000000000000000000815260040160405180910390fd5b60006201518042611c8891906129dc565b90506000611ca860008767ffffffffffffffff1686600401546001610e3c565b905080341015611ced576040517f08c379a0000000000000000000000000000000000000000000000000000000008152600401611ce490612a8a565b60405180910390fd5b8360000160009054906101000a900473ffffffffffffffffffffffffffffffffffffffff1673ffffffffffffffffffffffffffffffffffffffff166108fc829081150290604051600060405180830381858888f19350505050158015611d57573d6000803e3d6000fd5b508773ffffffffffffffffffffffffffffffffffffffff1663e030565e8833856040518463ffffffff1660e01b8152600401611d9593929190612ac8565b600060405180830381600087803b158015611daf57600080fd5b505af1158015611dc3573d6000803e3d6000fd5b50505050338460010160006101000a81548173ffffffffffffffffffffffffffffffffffffffff021916908373ffffffffffffffffffffffffffffffffffffffff160217905550818460050160086101000a81548167ffffffffffffffff021916908367ffffffffffffffff160217905550858460050160006101000a81548167ffffffffffffffff021916908367ffffffffffffffff16021790555060018460050160106101000a81548167ffffffffffffffff021916908367ffffffffffffffff1602179055508084600601819055508773ffffffffffffffffffffffffffffffffffffffff163373ffffffffffffffffffffffffffffffffffffffff168973ffffffffffffffffffffffffffffffffffffffff16636352211e8a6040518263ffffffff1660e01b8152600401611efc9190612697565b602060405180830381865afa158015611f19573d6000803e3d6000fd5b505050506040513d601f19601f82011682018060405250810190611f3d9190612980565b73ffffffffffffffffffffffffffffffffffffffff167fbffba71858e59a3f9bbb8e5792d8ac859e29ecfe86d40bb1dc34e346594542778a8660018788604051611f8b95949392919061322c565b60405180910390a46040518060600160405280603b81526020016133b6603b9139945050505050611fba612179565b9392505050565b6000806000905060008373ffffffffffffffffffffffffffffffffffffffff166301ffc9a77fad092b5c000000000000000000000000000000000000000000000000000000006040518263ffffffff1660e01b81526004016120239190612de4565b602060405180830381865afa92505050801561205d57506040513d601f19601f8201168201806040525081019061205a9190612e2b565b60015b61206c57600092505050612125565b809250508373ffffffffffffffffffffffffffffffffffffffff166301ffc9a77f80ac58cd000000000000000000000000000000000000000000000000000000006040518263ffffffff1660e01b81526004016120c99190612de4565b602060405180830381865afa92505050801561210357506040513d601f19601f820116820180604052508101906121009190612e2b565b60015b61211257600092505050612125565b809150508180156121205750805b925050505b919050565b60026000540361216f576040517f08c379a0000000000000000000000000000000000000000000000000000000008152600401612166906132cb565b60405180910390fd5b6002600081905550565b6001600081905550565b6000612195836000018360001b61229e565b905092915050565b60006121ab826000016123b2565b9050919050565b60006121da836000018373ffffffffffffffffffffffffffffffffffffffff1660001b61229e565b905092915050565b6000816000015490506000811161222e576040517f08c379a000000000000000000000000000000000000000000000000000000000815260040161222590613337565b60405180910390fd5b6001810382600001819055505050565b6001816000016000828254019250508190555050565b6000612266836000018360001b6123c3565b905092915050565b6000612296836000018373ffffffffffffffffffffffffffffffffffffffff1660001b6123c3565b905092915050565b600080836001016000848152602001908152602001600020549050600081146123a65760006001826122d09190612d75565b90506000600186600001805490506122e89190612d75565b905081811461235757600086600001828154811061230957612308613357565b5b906000526020600020015490508087600001848154811061232d5761232c613357565b5b90600052602060002001819055508387600101600083815260200190815260200160002081905550505b8560000180548061236b5761236a613386565b5b6001900381819060005260206000200160009055905585600101600086815260200190815260200160002060009055600193505050506123ac565b60009150505b92915050565b600081600001805490509050919050565b60006123cf8383612433565b61242857826000018290806001815401808255809150506001900390600052602060002001600090919091909150558260000180549050836001016000848152602001908152602001600020819055506001905061242d565b600090505b92915050565b600080836001016000848152602001908152602001600020541415905092915050565b600080fd5b600073ffffffffffffffffffffffffffffffffffffffff82169050919050565b60006124868261245b565b9050919050565b6124968161247b565b81146124a157600080fd5b50565b6000813590506124b38161248d565b92915050565b6000819050919050565b6124cc816124b9565b81146124d757600080fd5b50565b6000813590506124e9816124c3565b92915050565b6000806040838503121561250657612505612456565b5b6000612514858286016124a4565b9250506020612525858286016124da565b9150509250929050565b600081519050919050565b600082825260208201905092915050565b60005b8381101561256957808201518184015260208101905061254e565b60008484015250505050565b6000601f19601f8301169050919050565b60006125918261252f565b61259b818561253a565b93506125ab81856020860161254b565b6125b481612575565b840191505092915050565b600060208201905081810360008301526125d98184612586565b905092915050565b600067ffffffffffffffff82169050919050565b6125fe816125e1565b811461260957600080fd5b50565b60008135905061261b816125f5565b92915050565b6000806000806080858703121561263b5761263a612456565b5b6000612649878288016124da565b945050602061265a878288016124da565b935050604061266b878288016124da565b925050606061267c8782880161260c565b91505092959194509250565b612691816124b9565b82525050565b60006020820190506126ac6000830184612688565b92915050565b6000602082840312156126c8576126c7612456565b5b60006126d6848285016124a4565b91505092915050565b60008115159050919050565b6126f4816126df565b82525050565b600060208201905061270f60008301846126eb565b92915050565b60008060006060848603121561272e5761272d612456565b5b600061273c868287016124a4565b935050602061274d868287016124da565b925050604061275e868287016124da565b9150509250925092565b60008060006060848603121561278157612780612456565b5b600061278f868287016124a4565b93505060206127a0868287016124da565b92505060406127b18682870161260c565b9150509250925092565b7f596f7520617265206e6f74207468652063757272656e742072656e7465720000600082015250565b60006127f1601e8361253a565b91506127fc826127bb565b602082019050919050565b60006020820190508181036000830152612820816127e4565b9050919050565b7f52656e74616c206665652069732066756c6c7920706169640000000000000000600082015250565b600061285d60188361253a565b915061286882612827565b602082019050919050565b6000602082019050818103600083015261288c81612850565b9050919050565b7f52656e74616c2061677265656d656e74206e6f7420796574206d616465000000600082015250565b60006128c9601d8361253a565b91506128d482612893565b602082019050919050565b600060208201905081810360008301526128f8816128bc565b9050919050565b7f4e46542065787069726564000000000000000000000000000000000000000000600082015250565b6000612935600b8361253a565b9150612940826128ff565b602082019050919050565b6000602082019050818103600083015261296481612928565b9050919050565b60008151905061297a8161248d565b92915050565b60006020828403121561299657612995612456565b5b60006129a48482850161296b565b91505092915050565b7f4e487b7100000000000000000000000000000000000000000000000000000000600052601160045260246000fd5b60006129e7826125e1565b91506129f2836125e1565b9250828201905067ffffffffffffffff811115612a1257612a116129ad565b5b92915050565b7f4e6f7420656e6f75676820657468657220746f20636f7665722072656e74616c60008201527f20706572696f6400000000000000000000000000000000000000000000000000602082015250565b6000612a7460278361253a565b9150612a7f82612a18565b604082019050919050565b60006020820190508181036000830152612aa381612a67565b9050919050565b612ab38161247b565b82525050565b612ac2816125e1565b82525050565b6000606082019050612add6000830186612688565b612aea6020830185612aaa565b612af76040830184612ab9565b949350505050565b6000612b0a826124b9565b9150612b15836124b9565b9250828201905080821115612b2d57612b2c6129ad565b5b92915050565b600060a082019050612b486000830188612688565b612b556020830187612ab9565b612b626040830186612ab9565b612b6f6060830185612688565b612b7c6080830184612688565b9695505050505050565b6000604082019050612b9b6000830185612aaa565b612ba86020830184612688565b9392505050565b7f496e7374616c6c6d656e7420496e6465782073686f756c64206265206c65737360008201527f6572207468616e2074686520696e7374616c6c6d656e7420636f756e74000000602082015250565b6000612c0b603d8361253a565b9150612c1682612baf565b604082019050919050565b60006020820190508181036000830152612c3a81612bfe565b9050919050565b7f496e7374616c6c6d656e7420496e6465782073686f756c64206265206772656160008201527f746572207468616e203000000000000000000000000000000000000000000000602082015250565b6000612c9d602a8361253a565b9150612ca882612c41565b604082019050919050565b60006020820190508181036000830152612ccc81612c90565b9050919050565b6000612cde826124b9565b9150612ce9836124b9565b9250828202612cf7816124b9565b91508282048414831517612d0e57612d0d6129ad565b5b5092915050565b7f4e487b7100000000000000000000000000000000000000000000000000000000600052601260045260246000fd5b6000612d4f826124b9565b9150612d5a836124b9565b925082612d6a57612d69612d15565b5b828204905092915050565b6000612d80826124b9565b9150612d8b836124b9565b9250828203905081811115612da357612da26129ad565b5b92915050565b60007fffffffff0000000000000000000000000000000000000000000000000000000082169050919050565b612dde81612da9565b82525050565b6000602082019050612df96000830184612dd5565b92915050565b612e08816126df565b8114612e1357600080fd5b50565b600081519050612e2581612dff565b92915050565b600060208284031215612e4157612e40612456565b5b6000612e4f84828501612e16565b91505092915050565b7f436f6e7472616374206973206e6f7420616e2045524334393037000000000000600082015250565b6000612e8e601a8361253a565b9150612e9982612e58565b602082019050919050565b60006020820190508181036000830152612ebd81612e81565b9050919050565b7f4e6f74206f776e6572206f66206e667400000000000000000000000000000000600082015250565b6000612efa60108361253a565b9150612f0582612ec4565b602082019050919050565b60006020820190508181036000830152612f2981612eed565b9050919050565b7f4e6f7420656e6f75676820657468657220666f72206c697374696e6720666565600082015250565b6000612f6660208361253a565b9150612f7182612f30565b602082019050919050565b60006020820190508181036000830152612f9581612f59565b9050919050565b7f52656e74616c2070726963652073686f756c642062652067726561746572207460008201527f68616e2030000000000000000000000000000000000000000000000000000000602082015250565b6000612ff860258361253a565b915061300382612f9c565b604082019050919050565b6000602082019050818103600083015261302781612feb565b9050919050565b60006040820190506130436000830185612688565b6130506020830184612688565b9392505050565b7f4d6178696d756d206f662031302072656e74616c20646179732061726520616c60008201527f6c6f776564000000000000000000000000000000000000000000000000000000602082015250565b60006130b360258361253a565b91506130be82613057565b604082019050919050565b600060208201905081810360008301526130e2816130a6565b9050919050565b7f4e756d626572206f6620696e7374616c6c6d656e7473206d757374206265206760008201527f726561746572207468616e203100000000000000000000000000000000000000602082015250565b6000613145602d8361253a565b9150613150826130e9565b604082019050919050565b6000602082019050818103600083015261317481613138565b9050919050565b7f4e465420616c72656164792072656e7465640000000000000000000000000000600082015250565b60006131b160128361253a565b91506131bc8261317b565b602082019050919050565b600060208201905081810360008301526131e0816131a4565b9050919050565b6000819050919050565b6000819050919050565b600061321661321161320c846131e7565b6131f1565b6125e1565b9050919050565b613226816131fb565b82525050565b600060a0820190506132416000830188612688565b61324e6020830187612ab9565b61325b604083018661321d565b6132686060830185612688565b6132756080830184612688565b9695505050505050565b7f5265656e7472616e637947756172643a207265656e7472616e742063616c6c00600082015250565b60006132b5601f8361253a565b91506132c08261327f565b602082019050919050565b600060208201905081810360008301526132e4816132a8565b9050919050565b7f436f756e7465723a2064656372656d656e74206f766572666c6f770000000000600082015250565b6000613321601b8361253a565b915061332c826132eb565b602082019050919050565b6000602082019050818103600083015261335081613314565b9050919050565b7f4e487b7100000000000000000000000000000000000000000000000000000000600052603260045260246000fd5b7f4e487b7100000000000000000000000000000000000000000000000000000000600052603160045260246000fdfe5375636365737366756c6c792072656e74656420746865206e667420627920706179696e672074686520666972737420696e7374616c6c6d656e745375636365737366756c6c79206c697374656420746865204e465420666f7220696e7374616c6c6d656e742062617365642072656e74616c735375636365737366756c6c7920706169642074686520696e7374616c6c6d656e74a2646970667358221220b0a4b59250cfd62b3f5bdaeb6b13278be84d6b2f589de37c87dc625986db932b64736f6c63430008110033",
  "linkReferences": {},
  "deployedLinkReferences": {}
}