{
  "_format": "hh-sol-artifact-1",
  "contractName": "AvianInsExchange",
  "sourceName": "contracts/AvianInsExchange.sol",
  "abi": [
    {
      "inputs": [],
      "stateMutability": "nonpayable",
      "type": "constructor"
    },
    {
      "inputs": [
        {
          "internalType": "address",
          "name": "nftAddress",
          "type": "address"
        },
        {
          "internalType": "uint256",
          "name": "tokenId",
          "type": "uint256"
        }
      ],
      "name": "AlreadyListed",
      "type": "error"
    },
    {
      "inputs": [],
      "name": "NotApprovedForMarketplace",
      "type": "error"
    },
    {
      "inputs": [
        {
          "internalType": "address",
          "name": "nftAddress",
          "type": "address"
        },
        {
          "internalType": "uint256",
          "name": "tokenId",
          "type": "uint256"
        }
      ],
      "name": "NotListed",
      "type": "error"
    },
    {
      "inputs": [],
      "name": "NotOwner",
      "type": "error"
    },
    {
      "anonymous": false,
      "inputs": [
        {
          "indexed": true,
          "internalType": "address",
          "name": "owner",
          "type": "address"
        },
        {
          "indexed": true,
          "internalType": "address",
          "name": "user",
          "type": "address"
        },
        {
          "indexed": true,
          "internalType": "address",
          "name": "nftContract",
          "type": "address"
        },
        {
          "indexed": false,
          "internalType": "uint256",
          "name": "tokenId",
          "type": "uint256"
        },
        {
          "indexed": false,
          "internalType": "uint256",
          "name": "pricePerDay",
          "type": "uint256"
        }
      ],
      "name": "INSNFTListed",
      "type": "event"
    },
    {
      "anonymous": false,
      "inputs": [
        {
          "indexed": true,
          "internalType": "address",
          "name": "owner",
          "type": "address"
        },
        {
          "indexed": true,
          "internalType": "address",
          "name": "user",
          "type": "address"
        },
        {
          "indexed": true,
          "internalType": "address",
          "name": "nftContract",
          "type": "address"
        },
        {
          "indexed": false,
          "internalType": "uint256",
          "name": "tokenId",
          "type": "uint256"
        },
        {
          "indexed": false,
          "internalType": "uint64",
          "name": "expires",
          "type": "uint64"
        },
        {
          "indexed": false,
          "internalType": "uint64",
          "name": "ins_index",
          "type": "uint64"
        },
        {
          "indexed": false,
          "internalType": "uint256",
          "name": "amountIns",
          "type": "uint256"
        },
        {
          "indexed": false,
          "internalType": "uint256",
          "name": "paidIns",
          "type": "uint256"
        }
      ],
      "name": "NFTINSPaid",
      "type": "event"
    },
    {
      "anonymous": false,
      "inputs": [
        {
          "indexed": true,
          "internalType": "address",
          "name": "unlistSender",
          "type": "address"
        },
        {
          "indexed": true,
          "internalType": "address",
          "name": "nftContract",
          "type": "address"
        },
        {
          "indexed": true,
          "internalType": "uint256",
          "name": "tokenId",
          "type": "uint256"
        }
      ],
      "name": "NFTUnlisted",
      "type": "event"
    },
    {
      "inputs": [
        {
          "internalType": "uint256",
          "name": "totalPaid",
          "type": "uint256"
        },
        {
          "internalType": "uint256",
          "name": "installmentCount",
          "type": "uint256"
        },
        {
          "internalType": "uint256",
          "name": "pricePerDay",
          "type": "uint256"
        },
        {
          "internalType": "uint64",
          "name": "installmentIndex",
          "type": "uint64"
        }
      ],
      "name": "calculateInstallment",
      "outputs": [
        {
          "internalType": "uint256",
          "name": "",
          "type": "uint256"
        }
      ],
      "stateMutability": "pure",
      "type": "function"
    },
    {
      "inputs": [
        {
          "internalType": "address",
          "name": "nftAddress",
          "type": "address"
        },
        {
          "internalType": "uint256",
          "name": "tokenId",
          "type": "uint256"
        }
      ],
      "name": "getAInsListing",
      "outputs": [
        {
          "components": [
            {
              "internalType": "address",
              "name": "owner",
              "type": "address"
            },
            {
              "internalType": "address",
              "name": "user",
              "type": "address"
            },
            {
              "internalType": "address",
              "name": "nftContract",
              "type": "address"
            },
            {
              "internalType": "uint256",
              "name": "tokenId",
              "type": "uint256"
            },
            {
              "internalType": "uint256",
              "name": "pricePerDay",
              "type": "uint256"
            },
            {
              "internalType": "uint64",
              "name": "installmentCount",
              "type": "uint64"
            },
            {
              "internalType": "uint64",
              "name": "expires",
              "type": "uint64"
            },
            {
              "internalType": "uint64",
              "name": "installmentIndex",
              "type": "uint64"
            },
            {
              "internalType": "uint256",
              "name": "paidIns",
              "type": "uint256"
            }
          ],
          "internalType": "struct AvianInsExchange.Listing_installment",
          "name": "",
          "type": "tuple"
        }
      ],
      "stateMutability": "view",
      "type": "function"
    },
    {
      "inputs": [
        {
          "internalType": "address",
          "name": "nftAddress",
          "type": "address"
        }
      ],
      "name": "getInsListedAdddressTokens",
      "outputs": [
        {
          "internalType": "uint256[]",
          "name": "",
          "type": "uint256[]"
        }
      ],
      "stateMutability": "view",
      "type": "function"
    },
    {
      "inputs": [],
      "name": "getInsListedAdddresses",
      "outputs": [
        {
          "internalType": "address[]",
          "name": "",
          "type": "address[]"
        }
      ],
      "stateMutability": "view",
      "type": "function"
    },
    {
      "inputs": [],
      "name": "getListingFee",
      "outputs": [
        {
          "internalType": "uint256",
          "name": "",
          "type": "uint256"
        }
      ],
      "stateMutability": "view",
      "type": "function"
    },
    {
      "inputs": [
        {
          "internalType": "address",
          "name": "nftContract",
          "type": "address"
        }
      ],
      "name": "isNFT",
      "outputs": [
        {
          "internalType": "bool",
          "name": "",
          "type": "bool"
        }
      ],
      "stateMutability": "view",
      "type": "function"
    },
    {
      "inputs": [
        {
          "internalType": "address",
          "name": "nftContract",
          "type": "address"
        }
      ],
      "name": "isRentableNFT",
      "outputs": [
        {
          "internalType": "bool",
          "name": "",
          "type": "bool"
        }
      ],
      "stateMutability": "view",
      "type": "function"
    },
    {
      "inputs": [
        {
          "internalType": "address",
          "name": "nftAddress",
          "type": "address"
        },
        {
          "internalType": "uint256",
          "name": "tokenId",
          "type": "uint256"
        },
        {
          "internalType": "uint256",
          "name": "pricePerDay",
          "type": "uint256"
        }
      ],
      "name": "listInsBasedNFT",
      "outputs": [
        {
          "internalType": "string",
          "name": "",
          "type": "string"
        }
      ],
      "stateMutability": "payable",
      "type": "function"
    },
    {
      "inputs": [
        {
          "internalType": "address",
          "name": "nftContract",
          "type": "address"
        },
        {
          "internalType": "uint256",
          "name": "tokenId",
          "type": "uint256"
        }
      ],
      "name": "payNFTIns",
      "outputs": [
        {
          "internalType": "string",
          "name": "",
          "type": "string"
        }
      ],
      "stateMutability": "payable",
      "type": "function"
    },
    {
      "inputs": [
        {
          "internalType": "address",
          "name": "nftContract",
          "type": "address"
        },
        {
          "internalType": "uint256",
          "name": "tokenId",
          "type": "uint256"
        },
        {
          "internalType": "uint64",
          "name": "numDays",
          "type": "uint64"
        }
      ],
      "name": "rentINSNFT",
      "outputs": [
        {
          "internalType": "string",
          "name": "",
          "type": "string"
        }
      ],
      "stateMutability": "payable",
      "type": "function"
    },
    {
      "inputs": [
        {
          "internalType": "address",
          "name": "nftAddress",
          "type": "address"
        },
        {
          "internalType": "uint256",
          "name": "tokenId",
          "type": "uint256"
        }
      ],
      "name": "unlistINSNFT",
      "outputs": [
        {
          "internalType": "string",
          "name": "",
          "type": "string"
        }
      ],
      "stateMutability": "nonpayable",
      "type": "function"
    }
  ],
  "bytecode": "0x6080604052662386f26fc10000600255600a600360006101000a81548167ffffffffffffffff021916908367ffffffffffffffff16021790555034801561004557600080fd5b50600160008190555033600160006101000a81548173ffffffffffffffffffffffffffffffffffffffff021916908373ffffffffffffffffffffffffffffffffffffffff160217905550613a8f8061009e6000396000f3fe60806040526004361061009c5760003560e01c8063b31b85c911610064578063b31b85c9146101b3578063b8fe6abe146101f0578063c80e712f1461021b578063cebd51451461024b578063d4a55a741461027b578063e9a6f4f6146102b85761009c565b80632f4a073a146100a157806337feab07146100de5780634b30261c146101095780636bf510bf146101395780636d48cf0214610176575b600080fd5b3480156100ad57600080fd5b506100c860048036038101906100c391906127de565b6102f5565b6040516100d591906128d3565b60405180910390f35b3480156100ea57600080fd5b506100f361034b565b60405161010091906129b3565b60405180910390f35b610123600480360381019061011e9190612a01565b610362565b6040516101309190612ad1565b60405180910390f35b34801561014557600080fd5b50610160600480360381019061015b9190612a01565b6108f1565b60405161016d9190612ad1565b60405180910390f35b34801561018257600080fd5b5061019d60048036038101906101989190612b33565b610ec1565b6040516101aa9190612ba9565b60405180910390f35b3480156101bf57600080fd5b506101da60048036038101906101d591906127de565b61102a565b6040516101e79190612bdf565b60405180910390f35b3480156101fc57600080fd5b506102056110e0565b6040516102129190612ba9565b60405180910390f35b61023560048036038101906102309190612bfa565b6110ea565b6040516102429190612ad1565b60405180910390f35b61026560048036038101906102609190612c4d565b611a5a565b6040516102729190612ad1565b60405180910390f35b34801561028757600080fd5b506102a2600480360381019061029d9190612a01565b611f7a565b6040516102af9190612d66565b60405180910390f35b3480156102c457600080fd5b506102df60048036038101906102da91906127de565b61219c565b6040516102ec9190612bdf565b60405180910390f35b60606000610340600560008573ffffffffffffffffffffffffffffffffffffffff1673ffffffffffffffffffffffffffffffffffffffff168152602001908152602001600020612305565b905080915050919050565b606060006103596006612326565b90508091505090565b606061036c612347565b6000600460008573ffffffffffffffffffffffffffffffffffffffff1673ffffffffffffffffffffffffffffffffffffffff168152602001908152602001600020600084815260200190815260200160002090503373ffffffffffffffffffffffffffffffffffffffff168160010160009054906101000a900473ffffffffffffffffffffffffffffffffffffffff1673ffffffffffffffffffffffffffffffffffffffff1614610452576040517f08c379a000000000000000000000000000000000000000000000000000000000815260040161044990612dce565b60405180910390fd5b8060050160009054906101000a900467ffffffffffffffff1667ffffffffffffffff168160050160109054906101000a900467ffffffffffffffff1667ffffffffffffffff16106104d8576040517f08c379a00000000000000000000000000000000000000000000000000000000081526004016104cf90612e3a565b60405180910390fd5b60018160050160109054906101000a900467ffffffffffffffff1667ffffffffffffffff16101561053e576040517f08c379a000000000000000000000000000000000000000000000000000000000815260040161053590612ea6565b60405180910390fd5b8060050160089054906101000a900467ffffffffffffffff1667ffffffffffffffff1642106105a2576040517f08c379a000000000000000000000000000000000000000000000000000000000815260040161059990612f12565b60405180910390fd5b6000620151808260050160089054906101000a900467ffffffffffffffff166105cb9190612f61565b905060008260050160109054906101000a900467ffffffffffffffff16905060006001826105f99190612f61565b9050600061063385600601548660050160009054906101000a900467ffffffffffffffff1667ffffffffffffffff16876004015485610ec1565b905080341015610678576040517f08c379a000000000000000000000000000000000000000000000000000000000815260040161066f9061300f565b60405180910390fd5b8460000160009054906101000a900473ffffffffffffffffffffffffffffffffffffffff1673ffffffffffffffffffffffffffffffffffffffff166108fc829081150290604051600060405180830381858888f193505050501580156106e2573d6000803e3d6000fd5b50838560050160086101000a81548167ffffffffffffffff021916908367ffffffffffffffff1602179055508773ffffffffffffffffffffffffffffffffffffffff1663e030565e8833876040518463ffffffff1660e01b815260040161074b9392919061304d565b600060405180830381600087803b15801561076557600080fd5b505af1158015610779573d6000803e3d6000fd5b50505050600081866006015461078f9190613084565b9050828660050160106101000a81548167ffffffffffffffff021916908367ffffffffffffffff1602179055508086600601819055508873ffffffffffffffffffffffffffffffffffffffff163373ffffffffffffffffffffffffffffffffffffffff168a73ffffffffffffffffffffffffffffffffffffffff16636352211e8b6040518263ffffffff1660e01b815260040161082c9190612ba9565b602060405180830381865afa158015610849573d6000803e3d6000fd5b505050506040513d601f19601f8201168201806040525081019061086d91906130cd565b73ffffffffffffffffffffffffffffffffffffffff167fbffba71858e59a3f9bbb8e5792d8ac859e29ecfe86d40bb1dc34e346594542778b898988886040516108ba9594939291906130fa565b60405180910390a4604051806060016040528060218152602001613a396021913996505050505050506108eb612396565b92915050565b6060828233600083905060008173ffffffffffffffffffffffffffffffffffffffff16636352211e856040518263ffffffff1660e01b81526004016109369190612ba9565b602060405180830381865afa158015610953573d6000803e3d6000fd5b505050506040513d601f19601f8201168201806040525081019061097791906130cd565b90508073ffffffffffffffffffffffffffffffffffffffff168373ffffffffffffffffffffffffffffffffffffffff16146109de576040517f30cd747100000000000000000000000000000000000000000000000000000000815260040160405180910390fd5b87876000600460008473ffffffffffffffffffffffffffffffffffffffff1673ffffffffffffffffffffffffffffffffffffffff1681526020019081526020016000206000838152602001908152602001600020604051806101200160405290816000820160009054906101000a900473ffffffffffffffffffffffffffffffffffffffff1673ffffffffffffffffffffffffffffffffffffffff1673ffffffffffffffffffffffffffffffffffffffff1681526020016001820160009054906101000a900473ffffffffffffffffffffffffffffffffffffffff1673ffffffffffffffffffffffffffffffffffffffff1673ffffffffffffffffffffffffffffffffffffffff1681526020016002820160009054906101000a900473ffffffffffffffffffffffffffffffffffffffff1673ffffffffffffffffffffffffffffffffffffffff1673ffffffffffffffffffffffffffffffffffffffff16815260200160038201548152602001600482015481526020016005820160009054906101000a900467ffffffffffffffff1667ffffffffffffffff1667ffffffffffffffff1681526020016005820160089054906101000a900467ffffffffffffffff1667ffffffffffffffff1667ffffffffffffffff1681526020016005820160109054906101000a900467ffffffffffffffff1667ffffffffffffffff1667ffffffffffffffff16815260200160068201548152505090506000816080015111610c415782826040517f6831488c000000000000000000000000000000000000000000000000000000008152600401610c3892919061314d565b60405180910390fd5b610c89600560008d73ffffffffffffffffffffffffffffffffffffffff1673ffffffffffffffffffffffffffffffffffffffff1681526020019081526020016000208b6123a0565b50600460008c73ffffffffffffffffffffffffffffffffffffffff1673ffffffffffffffffffffffffffffffffffffffff16815260200190815260200160002060008b8152602001908152602001600020600080820160006101000a81549073ffffffffffffffffffffffffffffffffffffffff02191690556001820160006101000a81549073ffffffffffffffffffffffffffffffffffffffff02191690556002820160006101000a81549073ffffffffffffffffffffffffffffffffffffffff0219169055600382016000905560048201600090556005820160006101000a81549067ffffffffffffffff02191690556005820160086101000a81549067ffffffffffffffff02191690556005820160106101000a81549067ffffffffffffffff0219169055600682016000905550506000610e04600560008e73ffffffffffffffffffffffffffffffffffffffff1673ffffffffffffffffffffffffffffffffffffffff1681526020019081526020016000206123ba565b03610e1657610e1460068c6123cf565b505b610e2060086123ff565b898b73ffffffffffffffffffffffffffffffffffffffff163373ffffffffffffffffffffffffffffffffffffffff167f5e22415fbc0319574562e44217526b07e663891c4338550fe529eac37e9e0cb260405160405180910390a46040518060400160405280602081526020017f5375636365737366756c6c792072656d6f76656420746865206c697374696e678152509850505050505050505092915050565b6000838267ffffffffffffffff161115610f10576040517f08c379a0000000000000000000000000000000000000000000000000000000008152600401610f07906131e8565b60405180910390fd5b60008267ffffffffffffffff1611610f5d576040517f08c379a0000000000000000000000000000000000000000000000000000000008152600401610f549061327a565b60405180910390fd5b60008484610f6b919061329a565b9050600080600090506000600190505b878111610fa3578082610f8e9190613084565b91508080610f9b906132dc565b915050610f7b565b5060008184610fb29190613353565b9050878667ffffffffffffffff161015610ffa5760018667ffffffffffffffff1689610fde9190613384565b610fe89190613084565b81610ff3919061329a565b925061101b565b878667ffffffffffffffff160361101a5788846110179190613384565b92505b5b82945050505050949350505050565b600080600090508273ffffffffffffffffffffffffffffffffffffffff166301ffc9a77f80ac58cd000000000000000000000000000000000000000000000000000000006040518263ffffffff1660e01b815260040161108a91906133f3565b602060405180830381865afa9250505080156110c457506040513d601f19601f820116820180604052508101906110c1919061343a565b60015b6110d25760009150506110db565b80915050809150505b919050565b6000600254905090565b60606110f4612347565b83836000600460008473ffffffffffffffffffffffffffffffffffffffff1673ffffffffffffffffffffffffffffffffffffffff1681526020019081526020016000206000838152602001908152602001600020604051806101200160405290816000820160009054906101000a900473ffffffffffffffffffffffffffffffffffffffff1673ffffffffffffffffffffffffffffffffffffffff1673ffffffffffffffffffffffffffffffffffffffff1681526020016001820160009054906101000a900473ffffffffffffffffffffffffffffffffffffffff1673ffffffffffffffffffffffffffffffffffffffff1673ffffffffffffffffffffffffffffffffffffffff1681526020016002820160009054906101000a900473ffffffffffffffffffffffffffffffffffffffff1673ffffffffffffffffffffffffffffffffffffffff1673ffffffffffffffffffffffffffffffffffffffff16815260200160038201548152602001600482015481526020016005820160009054906101000a900467ffffffffffffffff1667ffffffffffffffff1667ffffffffffffffff1681526020016005820160089054906101000a900467ffffffffffffffff1667ffffffffffffffff1667ffffffffffffffff1681526020016005820160109054906101000a900467ffffffffffffffff1667ffffffffffffffff1667ffffffffffffffff16815260200160068201548152505090506000816080015111156113585782826040517f4a5568d500000000000000000000000000000000000000000000000000000000815260040161134f92919061314d565b60405180910390fd5b6113618761219c565b6113a0576040517f08c379a0000000000000000000000000000000000000000000000000000000008152600401611397906134b3565b60405180910390fd5b3373ffffffffffffffffffffffffffffffffffffffff168773ffffffffffffffffffffffffffffffffffffffff16636352211e886040518263ffffffff1660e01b81526004016113f09190612ba9565b602060405180830381865afa15801561140d573d6000803e3d6000fd5b505050506040513d601f19601f8201168201806040525081019061143191906130cd565b73ffffffffffffffffffffffffffffffffffffffff1614611487576040517f08c379a000000000000000000000000000000000000000000000000000000000815260040161147e9061351f565b60405180910390fd5b60025434146114cb576040517f08c379a00000000000000000000000000000000000000000000000000000000081526004016114c29061358b565b60405180910390fd5b6000851161150e576040517f08c379a00000000000000000000000000000000000000000000000000000000081526004016115059061361d565b60405180910390fd5b60008790503073ffffffffffffffffffffffffffffffffffffffff168173ffffffffffffffffffffffffffffffffffffffff1663081812fc896040518263ffffffff1660e01b81526004016115639190612ba9565b602060405180830381865afa158015611580573d6000803e3d6000fd5b505050506040513d601f19601f820116820180604052508101906115a491906130cd565b73ffffffffffffffffffffffffffffffffffffffff16146115f1576040517f4be3a2c500000000000000000000000000000000000000000000000000000000815260040160405180910390fd5b600160009054906101000a900473ffffffffffffffffffffffffffffffffffffffff1673ffffffffffffffffffffffffffffffffffffffff166108fc6002549081150290604051600060405180830381858888f1935050505015801561165b573d6000803e3d6000fd5b506040518061012001604052803373ffffffffffffffffffffffffffffffffffffffff168152602001600073ffffffffffffffffffffffffffffffffffffffff1681526020018973ffffffffffffffffffffffffffffffffffffffff168152602001888152602001878152602001600067ffffffffffffffff168152602001600067ffffffffffffffff168152602001600067ffffffffffffffff1681526020016000815250600460008a73ffffffffffffffffffffffffffffffffffffffff1673ffffffffffffffffffffffffffffffffffffffff168152602001908152602001600020600089815260200190815260200160002060008201518160000160006101000a81548173ffffffffffffffffffffffffffffffffffffffff021916908373ffffffffffffffffffffffffffffffffffffffff16021790555060208201518160010160006101000a81548173ffffffffffffffffffffffffffffffffffffffff021916908373ffffffffffffffffffffffffffffffffffffffff16021790555060408201518160020160006101000a81548173ffffffffffffffffffffffffffffffffffffffff021916908373ffffffffffffffffffffffffffffffffffffffff160217905550606082015181600301556080820151816004015560a08201518160050160006101000a81548167ffffffffffffffff021916908367ffffffffffffffff16021790555060c08201518160050160086101000a81548167ffffffffffffffff021916908367ffffffffffffffff16021790555060e08201518160050160106101000a81548167ffffffffffffffff021916908367ffffffffffffffff16021790555061010082015181600601559050506118df600861245b565b611927600560008a73ffffffffffffffffffffffffffffffffffffffff1673ffffffffffffffffffffffffffffffffffffffff16815260200190815260200160002088612471565b5061193360068961248b565b508773ffffffffffffffffffffffffffffffffffffffff16600073ffffffffffffffffffffffffffffffffffffffff168973ffffffffffffffffffffffffffffffffffffffff16636352211e8a6040518263ffffffff1660e01b815260040161199c9190612ba9565b602060405180830381865afa1580156119b9573d6000803e3d6000fd5b505050506040513d601f19601f820116820180604052508101906119dd91906130cd565b73ffffffffffffffffffffffffffffffffffffffff167f96104f93007b1903cb7ec11f7eb4cb08e84720170462e648569235ae6ae6c6d08a8a604051611a2492919061363d565b60405180910390a4604051806060016040528060398152602001613a0060399139945050505050611a53612396565b9392505050565b6060611a64612347565b600360009054906101000a900467ffffffffffffffff1667ffffffffffffffff168267ffffffffffffffff161115611ad1576040517f08c379a0000000000000000000000000000000000000000000000000000000008152600401611ac8906136d8565b60405180910390fd5b60018267ffffffffffffffff1611611b1e576040517f08c379a0000000000000000000000000000000000000000000000000000000008152600401611b159061376a565b60405180910390fd5b6000600460008673ffffffffffffffffffffffffffffffffffffffff1673ffffffffffffffffffffffffffffffffffffffff16815260200190815260200160002060008581526020019081526020016000209050600073ffffffffffffffffffffffffffffffffffffffff168160010160009054906101000a900473ffffffffffffffffffffffffffffffffffffffff1673ffffffffffffffffffffffffffffffffffffffff161480611bf257508060050160089054906101000a900467ffffffffffffffff1667ffffffffffffffff1642115b611c31576040517f08c379a0000000000000000000000000000000000000000000000000000000008152600401611c28906137d6565b60405180910390fd5b60006201518042611c429190612f61565b90506000611c6260008667ffffffffffffffff1685600401546001610ec1565b905080341015611ca7576040517f08c379a0000000000000000000000000000000000000000000000000000000008152600401611c9e9061300f565b60405180910390fd5b8260000160009054906101000a900473ffffffffffffffffffffffffffffffffffffffff1673ffffffffffffffffffffffffffffffffffffffff166108fc829081150290604051600060405180830381858888f19350505050158015611d11573d6000803e3d6000fd5b508673ffffffffffffffffffffffffffffffffffffffff1663e030565e8733856040518463ffffffff1660e01b8152600401611d4f9392919061304d565b600060405180830381600087803b158015611d6957600080fd5b505af1158015611d7d573d6000803e3d6000fd5b50505050338360010160006101000a81548173ffffffffffffffffffffffffffffffffffffffff021916908373ffffffffffffffffffffffffffffffffffffffff160217905550818360050160086101000a81548167ffffffffffffffff021916908367ffffffffffffffff160217905550848360050160006101000a81548167ffffffffffffffff021916908367ffffffffffffffff16021790555060018360050160106101000a81548167ffffffffffffffff021916908367ffffffffffffffff1602179055508083600601819055508673ffffffffffffffffffffffffffffffffffffffff163373ffffffffffffffffffffffffffffffffffffffff168873ffffffffffffffffffffffffffffffffffffffff16636352211e896040518263ffffffff1660e01b8152600401611eb69190612ba9565b602060405180830381865afa158015611ed3573d6000803e3d6000fd5b505050506040513d601f19601f82011682018060405250810190611ef791906130cd565b73ffffffffffffffffffffffffffffffffffffffff167fbffba71858e59a3f9bbb8e5792d8ac859e29ecfe86d40bb1dc34e34659454277898660018788604051611f4595949392919061383b565b60405180910390a46040518060600160405280603b81526020016139c5603b91399350505050611f73612396565b9392505050565b611f826126cf565b600460008473ffffffffffffffffffffffffffffffffffffffff1673ffffffffffffffffffffffffffffffffffffffff1681526020019081526020016000206000838152602001908152602001600020604051806101200160405290816000820160009054906101000a900473ffffffffffffffffffffffffffffffffffffffff1673ffffffffffffffffffffffffffffffffffffffff1673ffffffffffffffffffffffffffffffffffffffff1681526020016001820160009054906101000a900473ffffffffffffffffffffffffffffffffffffffff1673ffffffffffffffffffffffffffffffffffffffff1673ffffffffffffffffffffffffffffffffffffffff1681526020016002820160009054906101000a900473ffffffffffffffffffffffffffffffffffffffff1673ffffffffffffffffffffffffffffffffffffffff1673ffffffffffffffffffffffffffffffffffffffff16815260200160038201548152602001600482015481526020016005820160009054906101000a900467ffffffffffffffff1667ffffffffffffffff1667ffffffffffffffff1681526020016005820160089054906101000a900467ffffffffffffffff1667ffffffffffffffff1667ffffffffffffffff1681526020016005820160109054906101000a900467ffffffffffffffff1667ffffffffffffffff1667ffffffffffffffff168152602001600682015481525050905092915050565b6000806000905060008373ffffffffffffffffffffffffffffffffffffffff166301ffc9a77fad092b5c000000000000000000000000000000000000000000000000000000006040518263ffffffff1660e01b81526004016121fe91906133f3565b602060405180830381865afa92505050801561223857506040513d601f19601f82011682018060405250810190612235919061343a565b60015b61224757600092505050612300565b809250508373ffffffffffffffffffffffffffffffffffffffff166301ffc9a77f80ac58cd000000000000000000000000000000000000000000000000000000006040518263ffffffff1660e01b81526004016122a491906133f3565b602060405180830381865afa9250505080156122de57506040513d601f19601f820116820180604052508101906122db919061343a565b60015b6122ed57600092505050612300565b809150508180156122fb5750805b925050505b919050565b60606000612315836000016124bb565b905060608190508092505050919050565b60606000612336836000016124bb565b905060608190508092505050919050565b60026000540361238c576040517f08c379a0000000000000000000000000000000000000000000000000000000008152600401612383906138da565b60405180910390fd5b6002600081905550565b6001600081905550565b60006123b2836000018360001b612517565b905092915050565b60006123c88260000161262b565b9050919050565b60006123f7836000018373ffffffffffffffffffffffffffffffffffffffff1660001b612517565b905092915050565b6000816000015490506000811161244b576040517f08c379a000000000000000000000000000000000000000000000000000000000815260040161244290613946565b60405180910390fd5b6001810382600001819055505050565b6001816000016000828254019250508190555050565b6000612483836000018360001b61263c565b905092915050565b60006124b3836000018373ffffffffffffffffffffffffffffffffffffffff1660001b61263c565b905092915050565b60608160000180548060200260200160405190810160405280929190818152602001828054801561250b57602002820191906000526020600020905b8154815260200190600101908083116124f7575b50505050509050919050565b6000808360010160008481526020019081526020016000205490506000811461261f5760006001826125499190613384565b90506000600186600001805490506125619190613384565b90508181146125d057600086600001828154811061258257612581613966565b5b90600052602060002001549050808760000184815481106125a6576125a5613966565b5b90600052602060002001819055508387600101600083815260200190815260200160002081905550505b856000018054806125e4576125e3613995565b5b600190038181906000526020600020016000905590558560010160008681526020019081526020016000206000905560019350505050612625565b60009150505b92915050565b600081600001805490509050919050565b600061264883836126ac565b6126a15782600001829080600181540180825580915050600190039060005260206000200160009091909190915055826000018054905083600101600084815260200190815260200160002081905550600190506126a6565b600090505b92915050565b600080836001016000848152602001908152602001600020541415905092915050565b604051806101200160405280600073ffffffffffffffffffffffffffffffffffffffff168152602001600073ffffffffffffffffffffffffffffffffffffffff168152602001600073ffffffffffffffffffffffffffffffffffffffff1681526020016000815260200160008152602001600067ffffffffffffffff168152602001600067ffffffffffffffff168152602001600067ffffffffffffffff168152602001600081525090565b600080fd5b600073ffffffffffffffffffffffffffffffffffffffff82169050919050565b60006127ab82612780565b9050919050565b6127bb816127a0565b81146127c657600080fd5b50565b6000813590506127d8816127b2565b92915050565b6000602082840312156127f4576127f361277b565b5b6000612802848285016127c9565b91505092915050565b600081519050919050565b600082825260208201905092915050565b6000819050602082019050919050565b6000819050919050565b61284a81612837565b82525050565b600061285c8383612841565b60208301905092915050565b6000602082019050919050565b60006128808261280b565b61288a8185612816565b935061289583612827565b8060005b838110156128c65781516128ad8882612850565b97506128b883612868565b925050600181019050612899565b5085935050505092915050565b600060208201905081810360008301526128ed8184612875565b905092915050565b600081519050919050565b600082825260208201905092915050565b6000819050602082019050919050565b61292a816127a0565b82525050565b600061293c8383612921565b60208301905092915050565b6000602082019050919050565b6000612960826128f5565b61296a8185612900565b935061297583612911565b8060005b838110156129a657815161298d8882612930565b975061299883612948565b925050600181019050612979565b5085935050505092915050565b600060208201905081810360008301526129cd8184612955565b905092915050565b6129de81612837565b81146129e957600080fd5b50565b6000813590506129fb816129d5565b92915050565b60008060408385031215612a1857612a1761277b565b5b6000612a26858286016127c9565b9250506020612a37858286016129ec565b9150509250929050565b600081519050919050565b600082825260208201905092915050565b60005b83811015612a7b578082015181840152602081019050612a60565b60008484015250505050565b6000601f19601f8301169050919050565b6000612aa382612a41565b612aad8185612a4c565b9350612abd818560208601612a5d565b612ac681612a87565b840191505092915050565b60006020820190508181036000830152612aeb8184612a98565b905092915050565b600067ffffffffffffffff82169050919050565b612b1081612af3565b8114612b1b57600080fd5b50565b600081359050612b2d81612b07565b92915050565b60008060008060808587031215612b4d57612b4c61277b565b5b6000612b5b878288016129ec565b9450506020612b6c878288016129ec565b9350506040612b7d878288016129ec565b9250506060612b8e87828801612b1e565b91505092959194509250565b612ba381612837565b82525050565b6000602082019050612bbe6000830184612b9a565b92915050565b60008115159050919050565b612bd981612bc4565b82525050565b6000602082019050612bf46000830184612bd0565b92915050565b600080600060608486031215612c1357612c1261277b565b5b6000612c21868287016127c9565b9350506020612c32868287016129ec565b9250506040612c43868287016129ec565b9150509250925092565b600080600060608486031215612c6657612c6561277b565b5b6000612c74868287016127c9565b9350506020612c85868287016129ec565b9250506040612c9686828701612b1e565b9150509250925092565b612ca981612af3565b82525050565b61012082016000820151612cc66000850182612921565b506020820151612cd96020850182612921565b506040820151612cec6040850182612921565b506060820151612cff6060850182612841565b506080820151612d126080850182612841565b5060a0820151612d2560a0850182612ca0565b5060c0820151612d3860c0850182612ca0565b5060e0820151612d4b60e0850182612ca0565b50610100820151612d60610100850182612841565b50505050565b600061012082019050612d7c6000830184612caf565b92915050565b7f596f7520617265206e6f74207468652063757272656e742072656e7465720000600082015250565b6000612db8601e83612a4c565b9150612dc382612d82565b602082019050919050565b60006020820190508181036000830152612de781612dab565b9050919050565b7f52656e74616c206665652069732066756c6c7920706169640000000000000000600082015250565b6000612e24601883612a4c565b9150612e2f82612dee565b602082019050919050565b60006020820190508181036000830152612e5381612e17565b9050919050565b7f52656e74616c2061677265656d656e74206e6f7420796574206d616465000000600082015250565b6000612e90601d83612a4c565b9150612e9b82612e5a565b602082019050919050565b60006020820190508181036000830152612ebf81612e83565b9050919050565b7f4e46542065787069726564000000000000000000000000000000000000000000600082015250565b6000612efc600b83612a4c565b9150612f0782612ec6565b602082019050919050565b60006020820190508181036000830152612f2b81612eef565b9050919050565b7f4e487b7100000000000000000000000000000000000000000000000000000000600052601160045260246000fd5b6000612f6c82612af3565b9150612f7783612af3565b9250828201905067ffffffffffffffff811115612f9757612f96612f32565b5b92915050565b7f4e6f7420656e6f75676820657468657220746f20636f7665722072656e74616c60008201527f20706572696f6400000000000000000000000000000000000000000000000000602082015250565b6000612ff9602783612a4c565b915061300482612f9d565b604082019050919050565b6000602082019050818103600083015261302881612fec565b9050919050565b613038816127a0565b82525050565b61304781612af3565b82525050565b60006060820190506130626000830186612b9a565b61306f602083018561302f565b61307c604083018461303e565b949350505050565b600061308f82612837565b915061309a83612837565b92508282019050808211156130b2576130b1612f32565b5b92915050565b6000815190506130c7816127b2565b92915050565b6000602082840312156130e3576130e261277b565b5b60006130f1848285016130b8565b91505092915050565b600060a08201905061310f6000830188612b9a565b61311c602083018761303e565b613129604083018661303e565b6131366060830185612b9a565b6131436080830184612b9a565b9695505050505050565b6000604082019050613162600083018561302f565b61316f6020830184612b9a565b9392505050565b7f496e7374616c6c6d656e7420496e6465782073686f756c64206265206c65737360008201527f6572207468616e2074686520696e7374616c6c6d656e7420636f756e74000000602082015250565b60006131d2603d83612a4c565b91506131dd82613176565b604082019050919050565b60006020820190508181036000830152613201816131c5565b9050919050565b7f496e7374616c6c6d656e7420496e6465782073686f756c64206265206772656160008201527f746572207468616e203000000000000000000000000000000000000000000000602082015250565b6000613264602a83612a4c565b915061326f82613208565b604082019050919050565b6000602082019050818103600083015261329381613257565b9050919050565b60006132a582612837565b91506132b083612837565b92508282026132be81612837565b915082820484148315176132d5576132d4612f32565b5b5092915050565b60006132e782612837565b91507fffffffffffffffffffffffffffffffffffffffffffffffffffffffffffffffff820361331957613318612f32565b5b600182019050919050565b7f4e487b7100000000000000000000000000000000000000000000000000000000600052601260045260246000fd5b600061335e82612837565b915061336983612837565b92508261337957613378613324565b5b828204905092915050565b600061338f82612837565b915061339a83612837565b92508282039050818111156133b2576133b1612f32565b5b92915050565b60007fffffffff0000000000000000000000000000000000000000000000000000000082169050919050565b6133ed816133b8565b82525050565b600060208201905061340860008301846133e4565b92915050565b61341781612bc4565b811461342257600080fd5b50565b6000815190506134348161340e565b92915050565b6000602082840312156134505761344f61277b565b5b600061345e84828501613425565b91505092915050565b7f436f6e7472616374206973206e6f7420616e2045524334393037000000000000600082015250565b600061349d601a83612a4c565b91506134a882613467565b602082019050919050565b600060208201905081810360008301526134cc81613490565b9050919050565b7f4e6f74206f776e6572206f66206e667400000000000000000000000000000000600082015250565b6000613509601083612a4c565b9150613514826134d3565b602082019050919050565b60006020820190508181036000830152613538816134fc565b9050919050565b7f4e6f7420656e6f75676820657468657220666f72206c697374696e6720666565600082015250565b6000613575602083612a4c565b91506135808261353f565b602082019050919050565b600060208201905081810360008301526135a481613568565b9050919050565b7f52656e74616c2070726963652073686f756c642062652067726561746572207460008201527f68616e2030000000000000000000000000000000000000000000000000000000602082015250565b6000613607602583612a4c565b9150613612826135ab565b604082019050919050565b60006020820190508181036000830152613636816135fa565b9050919050565b60006040820190506136526000830185612b9a565b61365f6020830184612b9a565b9392505050565b7f4d6178696d756d206f662031302072656e74616c20646179732061726520616c60008201527f6c6f776564000000000000000000000000000000000000000000000000000000602082015250565b60006136c2602583612a4c565b91506136cd82613666565b604082019050919050565b600060208201905081810360008301526136f1816136b5565b9050919050565b7f4e756d626572206f6620696e7374616c6c6d656e7473206d757374206265206760008201527f726561746572207468616e203100000000000000000000000000000000000000602082015250565b6000613754602d83612a4c565b915061375f826136f8565b604082019050919050565b6000602082019050818103600083015261378381613747565b9050919050565b7f4e465420616c72656164792072656e7465640000000000000000000000000000600082015250565b60006137c0601283612a4c565b91506137cb8261378a565b602082019050919050565b600060208201905081810360008301526137ef816137b3565b9050919050565b6000819050919050565b6000819050919050565b600061382561382061381b846137f6565b613800565b612af3565b9050919050565b6138358161380a565b82525050565b600060a0820190506138506000830188612b9a565b61385d602083018761303e565b61386a604083018661382c565b6138776060830185612b9a565b6138846080830184612b9a565b9695505050505050565b7f5265656e7472616e637947756172643a207265656e7472616e742063616c6c00600082015250565b60006138c4601f83612a4c565b91506138cf8261388e565b602082019050919050565b600060208201905081810360008301526138f3816138b7565b9050919050565b7f436f756e7465723a2064656372656d656e74206f766572666c6f770000000000600082015250565b6000613930601b83612a4c565b915061393b826138fa565b602082019050919050565b6000602082019050818103600083015261395f81613923565b9050919050565b7f4e487b7100000000000000000000000000000000000000000000000000000000600052603260045260246000fd5b7f4e487b7100000000000000000000000000000000000000000000000000000000600052603160045260246000fdfe5375636365737366756c6c792072656e74656420746865206e667420627920706179696e672074686520666972737420696e7374616c6c6d656e745375636365737366756c6c79206c697374656420746865204e465420666f7220696e7374616c6c6d656e742062617365642072656e74616c735375636365737366756c6c7920706169642074686520696e7374616c6c6d656e74a26469706673582212201f91472b6c1c4f984d8e87efeeae4feb2328d7dc4368e562e2f1353247d277ce64736f6c63430008110033",
  "linkReferences": {},
  "deployedLinkReferences": {}
}