{
  "_format": "hh-sol-artifact-1",
  "contractName": "AvianRentExchange",
  "sourceName": "contracts/AvianRentExchange.sol",
  "abi": [
    {
      "inputs": [],
      "stateMutability": "nonpayable",
      "type": "constructor"
    },
    {
      "inputs": [
        {
          "internalType": "address",
          "name": "nftAddress",
          "type": "address"
        },
        {
          "internalType": "uint256",
          "name": "tokenId",
          "type": "uint256"
        }
      ],
      "name": "AlreadyListed",
      "type": "error"
    },
    {
      "inputs": [],
      "name": "NotApprovedForMarketplace",
      "type": "error"
    },
    {
      "inputs": [
        {
          "internalType": "address",
          "name": "nftAddress",
          "type": "address"
        },
        {
          "internalType": "uint256",
          "name": "tokenId",
          "type": "uint256"
        }
      ],
      "name": "NotListed",
      "type": "error"
    },
    {
      "inputs": [],
      "name": "NotOwner",
      "type": "error"
    },
    {
      "anonymous": false,
      "inputs": [
        {
          "indexed": true,
          "internalType": "address",
          "name": "owner",
          "type": "address"
        },
        {
          "indexed": true,
          "internalType": "address",
          "name": "user",
          "type": "address"
        },
        {
          "indexed": true,
          "internalType": "address",
          "name": "nftContract",
          "type": "address"
        },
        {
          "indexed": false,
          "internalType": "uint256",
          "name": "tokenId",
          "type": "uint256"
        },
        {
          "indexed": false,
          "internalType": "uint256",
          "name": "pricePerDay",
          "type": "uint256"
        },
        {
          "indexed": false,
          "internalType": "uint256",
          "name": "expires",
          "type": "uint256"
        }
      ],
      "name": "NFTListed",
      "type": "event"
    },
    {
      "anonymous": false,
      "inputs": [
        {
          "indexed": true,
          "internalType": "address",
          "name": "owner",
          "type": "address"
        },
        {
          "indexed": true,
          "internalType": "address",
          "name": "user",
          "type": "address"
        },
        {
          "indexed": true,
          "internalType": "address",
          "name": "nftContract",
          "type": "address"
        },
        {
          "indexed": false,
          "internalType": "uint256",
          "name": "tokenId",
          "type": "uint256"
        },
        {
          "indexed": false,
          "internalType": "uint64",
          "name": "expires",
          "type": "uint64"
        },
        {
          "indexed": false,
          "internalType": "uint256",
          "name": "rentalFee",
          "type": "uint256"
        }
      ],
      "name": "NFTRented",
      "type": "event"
    },
    {
      "anonymous": false,
      "inputs": [
        {
          "indexed": true,
          "internalType": "address",
          "name": "unlistSender",
          "type": "address"
        },
        {
          "indexed": true,
          "internalType": "address",
          "name": "nftContract",
          "type": "address"
        },
        {
          "indexed": true,
          "internalType": "uint256",
          "name": "tokenId",
          "type": "uint256"
        }
      ],
      "name": "NFTUnlisted",
      "type": "event"
    },
    {
      "inputs": [
        {
          "internalType": "address",
          "name": "nftContract",
          "type": "address"
        }
      ],
      "name": "isNFT",
      "outputs": [
        {
          "internalType": "bool",
          "name": "",
          "type": "bool"
        }
      ],
      "stateMutability": "view",
      "type": "function"
    },
    {
      "inputs": [
        {
          "internalType": "address",
          "name": "nftContract",
          "type": "address"
        }
      ],
      "name": "isRentableNFT",
      "outputs": [
        {
          "internalType": "bool",
          "name": "",
          "type": "bool"
        }
      ],
      "stateMutability": "view",
      "type": "function"
    },
    {
      "inputs": [
        {
          "internalType": "address",
          "name": "nftAddress",
          "type": "address"
        },
        {
          "internalType": "uint256",
          "name": "tokenId",
          "type": "uint256"
        },
        {
          "internalType": "uint256",
          "name": "pricePerDay",
          "type": "uint256"
        }
      ],
      "name": "listNFT",
      "outputs": [
        {
          "internalType": "string",
          "name": "",
          "type": "string"
        }
      ],
      "stateMutability": "payable",
      "type": "function"
    },
    {
      "inputs": [
        {
          "internalType": "address",
          "name": "nftContract",
          "type": "address"
        },
        {
          "internalType": "uint256",
          "name": "tokenId",
          "type": "uint256"
        },
        {
          "internalType": "uint64",
          "name": "numDays",
          "type": "uint64"
        }
      ],
      "name": "rentNFT",
      "outputs": [
        {
          "internalType": "string",
          "name": "",
          "type": "string"
        }
      ],
      "stateMutability": "payable",
      "type": "function"
    },
    {
      "inputs": [
        {
          "internalType": "address",
          "name": "nftAddress",
          "type": "address"
        },
        {
          "internalType": "uint256",
          "name": "tokenId",
          "type": "uint256"
        }
      ],
      "name": "unlistNFT",
      "outputs": [
        {
          "internalType": "string",
          "name": "",
          "type": "string"
        }
      ],
      "stateMutability": "payable",
      "type": "function"
    }
  ],
  "bytecode": "0x6080604052662386f26fc10000600255600a600360006101000a81548167ffffffffffffffff021916908367ffffffffffffffff16021790555034801561004557600080fd5b50600160008190555033600160006101000a81548173ffffffffffffffffffffffffffffffffffffffff021916908373ffffffffffffffffffffffffffffffffffffffff1602179055506123418061009e6000396000f3fe60806040526004361061004a5760003560e01c80637fc27efd1461004f5780639a34f0031461007f578063ad05f1b4146100af578063b31b85c9146100df578063e9a6f4f61461011c575b600080fd5b610069600480360381019061006491906118ca565b610159565b604051610076919061199a565b60405180910390f35b610099600480360381019061009491906119fc565b610651565b6040516100a6919061199a565b60405180910390f35b6100c960048036038101906100c49190611a4f565b610aaf565b6040516100d6919061199a565b60405180910390f35b3480156100eb57600080fd5b5061010660048036038101906101019190611aa2565b6112e6565b6040516101139190611aea565b60405180910390f35b34801561012857600080fd5b50610143600480360381019061013e9190611aa2565b61139c565b6040516101509190611aea565b60405180910390f35b6060610163611505565b828233600083905060008173ffffffffffffffffffffffffffffffffffffffff16636352211e856040518263ffffffff1660e01b81526004016101a69190611b14565b602060405180830381865afa1580156101c3573d6000803e3d6000fd5b505050506040513d601f19601f820116820180604052508101906101e79190611b44565b90508073ffffffffffffffffffffffffffffffffffffffff168373ffffffffffffffffffffffffffffffffffffffff161461024e576040517f30cd747100000000000000000000000000000000000000000000000000000000815260040160405180910390fd5b87876000600460008473ffffffffffffffffffffffffffffffffffffffff1673ffffffffffffffffffffffffffffffffffffffff16815260200190815260200160002060008381526020019081526020016000206040518060c00160405290816000820160009054906101000a900473ffffffffffffffffffffffffffffffffffffffff1673ffffffffffffffffffffffffffffffffffffffff1673ffffffffffffffffffffffffffffffffffffffff1681526020016001820160009054906101000a900473ffffffffffffffffffffffffffffffffffffffff1673ffffffffffffffffffffffffffffffffffffffff1673ffffffffffffffffffffffffffffffffffffffff1681526020016002820160009054906101000a900473ffffffffffffffffffffffffffffffffffffffff1673ffffffffffffffffffffffffffffffffffffffff1673ffffffffffffffffffffffffffffffffffffffff16815260200160038201548152602001600482015481526020016005820154815250509050600081608001511161041a5782826040517f6831488c000000000000000000000000000000000000000000000000000000008152600401610411929190611b80565b60405180910390fd5b610462600560008d73ffffffffffffffffffffffffffffffffffffffff1673ffffffffffffffffffffffffffffffffffffffff1681526020019081526020016000208b611554565b50600460008c73ffffffffffffffffffffffffffffffffffffffff1673ffffffffffffffffffffffffffffffffffffffff16815260200190815260200160002060008b8152602001908152602001600020600080820160006101000a81549073ffffffffffffffffffffffffffffffffffffffff02191690556001820160006101000a81549073ffffffffffffffffffffffffffffffffffffffff02191690556002820160006101000a81549073ffffffffffffffffffffffffffffffffffffffff02191690556003820160009055600482016000905560058201600090555050600061058c600560008e73ffffffffffffffffffffffffffffffffffffffff1673ffffffffffffffffffffffffffffffffffffffff16815260200190815260200160002061156e565b0361059e5761059c60068c611583565b505b6105a860086115b3565b898b73ffffffffffffffffffffffffffffffffffffffff163373ffffffffffffffffffffffffffffffffffffffff167f5e22415fbc0319574562e44217526b07e663891c4338550fe529eac37e9e0cb260405160405180910390a46040518060400160405280601981526020017f4e4654205375636365737366756c6c7920756e6c6973746564000000000000008152509850505050505050505061064b61160f565b92915050565b606061065b611505565b600360009054906101000a900467ffffffffffffffff1667ffffffffffffffff168267ffffffffffffffff1611156106c8576040517f08c379a00000000000000000000000000000000000000000000000000000000081526004016106bf90611c1b565b60405180910390fd5b6000600460008673ffffffffffffffffffffffffffffffffffffffff1673ffffffffffffffffffffffffffffffffffffffff16815260200190815260200160002060008581526020019081526020016000209050600073ffffffffffffffffffffffffffffffffffffffff168160010160009054906101000a900473ffffffffffffffffffffffffffffffffffffffff1673ffffffffffffffffffffffffffffffffffffffff16148061077e5750806005015442115b6107bd576040517f08c379a00000000000000000000000000000000000000000000000000000000081526004016107b490611c87565b60405180910390fd5b600062015180846107ce9190611cd6565b426107d99190611d13565b905060008467ffffffffffffffff1683600401546107f79190611d4f565b90508034101561083c576040517f08c379a000000000000000000000000000000000000000000000000000000000815260040161083390611e03565b60405180910390fd5b8260000160009054906101000a900473ffffffffffffffffffffffffffffffffffffffff1673ffffffffffffffffffffffffffffffffffffffff166108fc829081150290604051600060405180830381858888f193505050501580156108a6573d6000803e3d6000fd5b508673ffffffffffffffffffffffffffffffffffffffff1663e030565e8733856040518463ffffffff1660e01b81526004016108e493929190611e32565b600060405180830381600087803b1580156108fe57600080fd5b505af1158015610912573d6000803e3d6000fd5b50505050338360010160006101000a81548173ffffffffffffffffffffffffffffffffffffffff021916908373ffffffffffffffffffffffffffffffffffffffff1602179055508167ffffffffffffffff1683600501819055508673ffffffffffffffffffffffffffffffffffffffff163373ffffffffffffffffffffffffffffffffffffffff168873ffffffffffffffffffffffffffffffffffffffff16636352211e896040518263ffffffff1660e01b81526004016109d39190611b14565b602060405180830381865afa1580156109f0573d6000803e3d6000fd5b505050506040513d601f19601f82011682018060405250810190610a149190611b44565b73ffffffffffffffffffffffffffffffffffffffff167f11f8383374cb9462b2e00ec58deeceb0b52d3cc18d674282a3b1dec46676ecb2898686604051610a5d93929190611e69565b60405180910390a46040518060400160405280601781526020017f4e4654207375636365737366756c6c792072656e7465640000000000000000008152509350505050610aa861160f565b9392505050565b6060610ab9611505565b83836000600460008473ffffffffffffffffffffffffffffffffffffffff1673ffffffffffffffffffffffffffffffffffffffff16815260200190815260200160002060008381526020019081526020016000206040518060c00160405290816000820160009054906101000a900473ffffffffffffffffffffffffffffffffffffffff1673ffffffffffffffffffffffffffffffffffffffff1673ffffffffffffffffffffffffffffffffffffffff1681526020016001820160009054906101000a900473ffffffffffffffffffffffffffffffffffffffff1673ffffffffffffffffffffffffffffffffffffffff1673ffffffffffffffffffffffffffffffffffffffff1681526020016002820160009054906101000a900473ffffffffffffffffffffffffffffffffffffffff1673ffffffffffffffffffffffffffffffffffffffff1673ffffffffffffffffffffffffffffffffffffffff16815260200160038201548152602001600482015481526020016005820154815250509050600081608001511115610c865782826040517f4a5568d5000000000000000000000000000000000000000000000000000000008152600401610c7d929190611b80565b60405180910390fd5b610c8f8761139c565b610cce576040517f08c379a0000000000000000000000000000000000000000000000000000000008152600401610cc590611eec565b60405180910390fd5b3373ffffffffffffffffffffffffffffffffffffffff168773ffffffffffffffffffffffffffffffffffffffff16636352211e886040518263ffffffff1660e01b8152600401610d1e9190611b14565b602060405180830381865afa158015610d3b573d6000803e3d6000fd5b505050506040513d601f19601f82011682018060405250810190610d5f9190611b44565b73ffffffffffffffffffffffffffffffffffffffff1614610db5576040517f08c379a0000000000000000000000000000000000000000000000000000000008152600401610dac90611f58565b60405180910390fd5b6002543414610df9576040517f08c379a0000000000000000000000000000000000000000000000000000000008152600401610df090611fc4565b60405180910390fd5b60008511610e3c576040517f08c379a0000000000000000000000000000000000000000000000000000000008152600401610e3390612056565b60405180910390fd5b60008790503073ffffffffffffffffffffffffffffffffffffffff168173ffffffffffffffffffffffffffffffffffffffff1663081812fc896040518263ffffffff1660e01b8152600401610e919190611b14565b602060405180830381865afa158015610eae573d6000803e3d6000fd5b505050506040513d601f19601f82011682018060405250810190610ed29190611b44565b73ffffffffffffffffffffffffffffffffffffffff1614610f1f576040517f4be3a2c500000000000000000000000000000000000000000000000000000000815260040160405180910390fd5b600160009054906101000a900473ffffffffffffffffffffffffffffffffffffffff1673ffffffffffffffffffffffffffffffffffffffff166108fc6002549081150290604051600060405180830381858888f19350505050158015610f89573d6000803e3d6000fd5b506040518060c001604052803373ffffffffffffffffffffffffffffffffffffffff168152602001600073ffffffffffffffffffffffffffffffffffffffff1681526020018973ffffffffffffffffffffffffffffffffffffffff1681526020018881526020018781526020016000815250600460008a73ffffffffffffffffffffffffffffffffffffffff1673ffffffffffffffffffffffffffffffffffffffff168152602001908152602001600020600089815260200190815260200160002060008201518160000160006101000a81548173ffffffffffffffffffffffffffffffffffffffff021916908373ffffffffffffffffffffffffffffffffffffffff16021790555060208201518160010160006101000a81548173ffffffffffffffffffffffffffffffffffffffff021916908373ffffffffffffffffffffffffffffffffffffffff16021790555060408201518160020160006101000a81548173ffffffffffffffffffffffffffffffffffffffff021916908373ffffffffffffffffffffffffffffffffffffffff160217905550606082015181600301556080820151816004015560a0820151816005015590505061114b6008611619565b611193600560008a73ffffffffffffffffffffffffffffffffffffffff1673ffffffffffffffffffffffffffffffffffffffff1681526020019081526020016000208861162f565b5061119f600689611649565b508773ffffffffffffffffffffffffffffffffffffffff16600073ffffffffffffffffffffffffffffffffffffffff168973ffffffffffffffffffffffffffffffffffffffff16636352211e8a6040518263ffffffff1660e01b81526004016112089190611b14565b602060405180830381865afa158015611225573d6000803e3d6000fd5b505050506040513d601f19601f820116820180604052508101906112499190611b44565b73ffffffffffffffffffffffffffffffffffffffff167faf52e9d89a64bb9dec8228f11a14d277ed84b62f248715f1798456fa437278398a8a6000604051611293939291906120bb565b60405180910390a46040518060400160405280601781526020017f4e4654205375636365737366756c6c79206c69737465640000000000000000008152509450505050506112df61160f565b9392505050565b600080600090508273ffffffffffffffffffffffffffffffffffffffff166301ffc9a77f80ac58cd000000000000000000000000000000000000000000000000000000006040518263ffffffff1660e01b8152600401611346919061212d565b602060405180830381865afa92505050801561138057506040513d601f19601f8201168201806040525081019061137d9190612174565b60015b61138e576000915050611397565b80915050809150505b919050565b6000806000905060008373ffffffffffffffffffffffffffffffffffffffff166301ffc9a77fad092b5c000000000000000000000000000000000000000000000000000000006040518263ffffffff1660e01b81526004016113fe919061212d565b602060405180830381865afa92505050801561143857506040513d601f19601f820116820180604052508101906114359190612174565b60015b61144757600092505050611500565b809250508373ffffffffffffffffffffffffffffffffffffffff166301ffc9a77f80ac58cd000000000000000000000000000000000000000000000000000000006040518263ffffffff1660e01b81526004016114a4919061212d565b602060405180830381865afa9250505080156114de57506040513d601f19601f820116820180604052508101906114db9190612174565b60015b6114ed57600092505050611500565b809150508180156114fb5750805b925050505b919050565b60026000540361154a576040517f08c379a0000000000000000000000000000000000000000000000000000000008152600401611541906121ed565b60405180910390fd5b6002600081905550565b6000611566836000018360001b611679565b905092915050565b600061157c8260000161178d565b9050919050565b60006115ab836000018373ffffffffffffffffffffffffffffffffffffffff1660001b611679565b905092915050565b600081600001549050600081116115ff576040517f08c379a00000000000000000000000000000000000000000000000000000000081526004016115f690612259565b60405180910390fd5b6001810382600001819055505050565b6001600081905550565b6001816000016000828254019250508190555050565b6000611641836000018360001b61179e565b905092915050565b6000611671836000018373ffffffffffffffffffffffffffffffffffffffff1660001b61179e565b905092915050565b600080836001016000848152602001908152602001600020549050600081146117815760006001826116ab9190612279565b90506000600186600001805490506116c39190612279565b90508181146117325760008660000182815481106116e4576116e36122ad565b5b9060005260206000200154905080876000018481548110611708576117076122ad565b5b90600052602060002001819055508387600101600083815260200190815260200160002081905550505b85600001805480611746576117456122dc565b5b600190038181906000526020600020016000905590558560010160008681526020019081526020016000206000905560019350505050611787565b60009150505b92915050565b600081600001805490509050919050565b60006117aa838361180e565b611803578260000182908060018154018082558091505060019003906000526020600020016000909190919091505582600001805490508360010160008481526020019081526020016000208190555060019050611808565b600090505b92915050565b600080836001016000848152602001908152602001600020541415905092915050565b600080fd5b600073ffffffffffffffffffffffffffffffffffffffff82169050919050565b600061186182611836565b9050919050565b61187181611856565b811461187c57600080fd5b50565b60008135905061188e81611868565b92915050565b6000819050919050565b6118a781611894565b81146118b257600080fd5b50565b6000813590506118c48161189e565b92915050565b600080604083850312156118e1576118e0611831565b5b60006118ef8582860161187f565b9250506020611900858286016118b5565b9150509250929050565b600081519050919050565b600082825260208201905092915050565b60005b83811015611944578082015181840152602081019050611929565b60008484015250505050565b6000601f19601f8301169050919050565b600061196c8261190a565b6119768185611915565b9350611986818560208601611926565b61198f81611950565b840191505092915050565b600060208201905081810360008301526119b48184611961565b905092915050565b600067ffffffffffffffff82169050919050565b6119d9816119bc565b81146119e457600080fd5b50565b6000813590506119f6816119d0565b92915050565b600080600060608486031215611a1557611a14611831565b5b6000611a238682870161187f565b9350506020611a34868287016118b5565b9250506040611a45868287016119e7565b9150509250925092565b600080600060608486031215611a6857611a67611831565b5b6000611a768682870161187f565b9350506020611a87868287016118b5565b9250506040611a98868287016118b5565b9150509250925092565b600060208284031215611ab857611ab7611831565b5b6000611ac68482850161187f565b91505092915050565b60008115159050919050565b611ae481611acf565b82525050565b6000602082019050611aff6000830184611adb565b92915050565b611b0e81611894565b82525050565b6000602082019050611b296000830184611b05565b92915050565b600081519050611b3e81611868565b92915050565b600060208284031215611b5a57611b59611831565b5b6000611b6884828501611b2f565b91505092915050565b611b7a81611856565b82525050565b6000604082019050611b956000830185611b71565b611ba26020830184611b05565b9392505050565b7f4d6178696d756d206f662031302072656e74616c20646179732061726520616c60008201527f6c6f776564000000000000000000000000000000000000000000000000000000602082015250565b6000611c05602583611915565b9150611c1082611ba9565b604082019050919050565b60006020820190508181036000830152611c3481611bf8565b9050919050565b7f4e465420616c72656164792072656e7465640000000000000000000000000000600082015250565b6000611c71601283611915565b9150611c7c82611c3b565b602082019050919050565b60006020820190508181036000830152611ca081611c64565b9050919050565b7f4e487b7100000000000000000000000000000000000000000000000000000000600052601160045260246000fd5b6000611ce1826119bc565b9150611cec836119bc565b9250828202611cfa816119bc565b9150808214611d0c57611d0b611ca7565b5b5092915050565b6000611d1e826119bc565b9150611d29836119bc565b9250828201905067ffffffffffffffff811115611d4957611d48611ca7565b5b92915050565b6000611d5a82611894565b9150611d6583611894565b9250828202611d7381611894565b91508282048414831517611d8a57611d89611ca7565b5b5092915050565b7f4e6f7420656e6f75676820657468657220746f20636f7665722072656e74616c60008201527f20706572696f6400000000000000000000000000000000000000000000000000602082015250565b6000611ded602783611915565b9150611df882611d91565b604082019050919050565b60006020820190508181036000830152611e1c81611de0565b9050919050565b611e2c816119bc565b82525050565b6000606082019050611e476000830186611b05565b611e546020830185611b71565b611e616040830184611e23565b949350505050565b6000606082019050611e7e6000830186611b05565b611e8b6020830185611e23565b611e986040830184611b05565b949350505050565b7f436f6e7472616374206973206e6f7420616e2045524334393037000000000000600082015250565b6000611ed6601a83611915565b9150611ee182611ea0565b602082019050919050565b60006020820190508181036000830152611f0581611ec9565b9050919050565b7f4e6f74206f776e6572206f66206e667400000000000000000000000000000000600082015250565b6000611f42601083611915565b9150611f4d82611f0c565b602082019050919050565b60006020820190508181036000830152611f7181611f35565b9050919050565b7f4e6f7420656e6f75676820657468657220666f72206c697374696e6720666565600082015250565b6000611fae602083611915565b9150611fb982611f78565b602082019050919050565b60006020820190508181036000830152611fdd81611fa1565b9050919050565b7f52656e74616c2070726963652073686f756c642062652067726561746572207460008201527f68616e2030000000000000000000000000000000000000000000000000000000602082015250565b6000612040602583611915565b915061204b82611fe4565b604082019050919050565b6000602082019050818103600083015261206f81612033565b9050919050565b6000819050919050565b6000819050919050565b60006120a56120a061209b84612076565b612080565b611894565b9050919050565b6120b58161208a565b82525050565b60006060820190506120d06000830186611b05565b6120dd6020830185611b05565b6120ea60408301846120ac565b949350505050565b60007fffffffff0000000000000000000000000000000000000000000000000000000082169050919050565b612127816120f2565b82525050565b6000602082019050612142600083018461211e565b92915050565b61215181611acf565b811461215c57600080fd5b50565b60008151905061216e81612148565b92915050565b60006020828403121561218a57612189611831565b5b60006121988482850161215f565b91505092915050565b7f5265656e7472616e637947756172643a207265656e7472616e742063616c6c00600082015250565b60006121d7601f83611915565b91506121e2826121a1565b602082019050919050565b60006020820190508181036000830152612206816121ca565b9050919050565b7f436f756e7465723a2064656372656d656e74206f766572666c6f770000000000600082015250565b6000612243601b83611915565b915061224e8261220d565b602082019050919050565b6000602082019050818103600083015261227281612236565b9050919050565b600061228482611894565b915061228f83611894565b92508282039050818111156122a7576122a6611ca7565b5b92915050565b7f4e487b7100000000000000000000000000000000000000000000000000000000600052603260045260246000fd5b7f4e487b7100000000000000000000000000000000000000000000000000000000600052603160045260246000fdfea26469706673582212202f09496e2377b5d22850c9e1a1abd094dbcde142a6098ac1a54dd04e9aecc72c64736f6c63430008110033",
  "linkReferences": {},
  "deployedLinkReferences": {}
}