{
  "_format": "hh-sol-artifact-1",
  "contractName": "AvianRentExchange",
  "sourceName": "contracts/AvianRentExchange.sol",
  "abi": [
    {
      "inputs": [],
      "stateMutability": "nonpayable",
      "type": "constructor"
    },
    {
      "inputs": [
        {
          "internalType": "address",
          "name": "nftAddress",
          "type": "address"
        },
        {
          "internalType": "uint256",
          "name": "tokenId",
          "type": "uint256"
        }
      ],
      "name": "AlreadyListed",
      "type": "error"
    },
    {
      "inputs": [],
      "name": "NotApprovedForMarketplace",
      "type": "error"
    },
    {
      "inputs": [
        {
          "internalType": "address",
          "name": "nftAddress",
          "type": "address"
        },
        {
          "internalType": "uint256",
          "name": "tokenId",
          "type": "uint256"
        }
      ],
      "name": "NotListed",
      "type": "error"
    },
    {
      "inputs": [],
      "name": "NotOwner",
      "type": "error"
    },
    {
      "anonymous": false,
      "inputs": [
        {
          "indexed": true,
          "internalType": "address",
          "name": "owner",
          "type": "address"
        },
        {
          "indexed": true,
          "internalType": "address",
          "name": "user",
          "type": "address"
        },
        {
          "indexed": true,
          "internalType": "address",
          "name": "nftContract",
          "type": "address"
        },
        {
          "indexed": false,
          "internalType": "uint256",
          "name": "tokenId",
          "type": "uint256"
        },
        {
          "indexed": false,
          "internalType": "uint256",
          "name": "pricePerDay",
          "type": "uint256"
        },
        {
          "indexed": false,
          "internalType": "uint256",
          "name": "expires",
          "type": "uint256"
        }
      ],
      "name": "NFTListed",
      "type": "event"
    },
    {
      "anonymous": false,
      "inputs": [
        {
          "indexed": true,
          "internalType": "address",
          "name": "owner",
          "type": "address"
        },
        {
          "indexed": true,
          "internalType": "address",
          "name": "user",
          "type": "address"
        },
        {
          "indexed": true,
          "internalType": "address",
          "name": "nftContract",
          "type": "address"
        },
        {
          "indexed": false,
          "internalType": "uint256",
          "name": "tokenId",
          "type": "uint256"
        },
        {
          "indexed": false,
          "internalType": "uint64",
          "name": "expires",
          "type": "uint64"
        },
        {
          "indexed": false,
          "internalType": "uint256",
          "name": "rentalFee",
          "type": "uint256"
        }
      ],
      "name": "NFTRented",
      "type": "event"
    },
    {
      "anonymous": false,
      "inputs": [
        {
          "indexed": true,
          "internalType": "address",
          "name": "unlistSender",
          "type": "address"
        },
        {
          "indexed": true,
          "internalType": "address",
          "name": "nftContract",
          "type": "address"
        },
        {
          "indexed": true,
          "internalType": "uint256",
          "name": "tokenId",
          "type": "uint256"
        }
      ],
      "name": "NFTUnlisted",
      "type": "event"
    },
    {
      "inputs": [
        {
          "internalType": "address",
          "name": "nftAddress",
          "type": "address"
        },
        {
          "internalType": "uint256",
          "name": "tokenId",
          "type": "uint256"
        }
      ],
      "name": "getARListing",
      "outputs": [
        {
          "components": [
            {
              "internalType": "address",
              "name": "owner",
              "type": "address"
            },
            {
              "internalType": "address",
              "name": "user",
              "type": "address"
            },
            {
              "internalType": "address",
              "name": "nftContract",
              "type": "address"
            },
            {
              "internalType": "uint256",
              "name": "tokenId",
              "type": "uint256"
            },
            {
              "internalType": "uint256",
              "name": "pricePerDay",
              "type": "uint256"
            },
            {
              "internalType": "uint256",
              "name": "expires",
              "type": "uint256"
            }
          ],
          "internalType": "struct AvianRentExchange.Listing_rent",
          "name": "",
          "type": "tuple"
        }
      ],
      "stateMutability": "view",
      "type": "function"
    },
    {
      "inputs": [],
      "name": "getListingFee",
      "outputs": [
        {
          "internalType": "uint256",
          "name": "",
          "type": "uint256"
        }
      ],
      "stateMutability": "view",
      "type": "function"
    },
    {
      "inputs": [
        {
          "internalType": "address",
          "name": "nftAddress",
          "type": "address"
        }
      ],
      "name": "getRListedAdddressTokens",
      "outputs": [
        {
          "internalType": "uint256[]",
          "name": "",
          "type": "uint256[]"
        }
      ],
      "stateMutability": "view",
      "type": "function"
    },
    {
      "inputs": [],
      "name": "getRListedAdddresses",
      "outputs": [
        {
          "internalType": "address[]",
          "name": "",
          "type": "address[]"
        }
      ],
      "stateMutability": "view",
      "type": "function"
    },
    {
      "inputs": [],
      "name": "getRentListings",
      "outputs": [
        {
          "components": [
            {
              "internalType": "address",
              "name": "owner",
              "type": "address"
            },
            {
              "internalType": "address",
              "name": "user",
              "type": "address"
            },
            {
              "internalType": "address",
              "name": "nftContract",
              "type": "address"
            },
            {
              "internalType": "uint256",
              "name": "tokenId",
              "type": "uint256"
            },
            {
              "internalType": "uint256",
              "name": "pricePerDay",
              "type": "uint256"
            },
            {
              "internalType": "uint256",
              "name": "expires",
              "type": "uint256"
            }
          ],
          "internalType": "struct AvianRentExchange.Listing_rent[]",
          "name": "",
          "type": "tuple[]"
        }
      ],
      "stateMutability": "view",
      "type": "function"
    },
    {
      "inputs": [
        {
          "internalType": "address",
          "name": "nftContract",
          "type": "address"
        }
      ],
      "name": "isNFT",
      "outputs": [
        {
          "internalType": "bool",
          "name": "",
          "type": "bool"
        }
      ],
      "stateMutability": "view",
      "type": "function"
    },
    {
      "inputs": [
        {
          "internalType": "address",
          "name": "nftContract",
          "type": "address"
        }
      ],
      "name": "isRentableNFT",
      "outputs": [
        {
          "internalType": "bool",
          "name": "",
          "type": "bool"
        }
      ],
      "stateMutability": "view",
      "type": "function"
    },
    {
      "inputs": [
        {
          "internalType": "address",
          "name": "nftAddress",
          "type": "address"
        },
        {
          "internalType": "uint256",
          "name": "tokenId",
          "type": "uint256"
        },
        {
          "internalType": "uint256",
          "name": "pricePerDay",
          "type": "uint256"
        }
      ],
      "name": "listNFT",
      "outputs": [],
      "stateMutability": "payable",
      "type": "function"
    },
    {
      "inputs": [
        {
          "internalType": "address",
          "name": "nftContract",
          "type": "address"
        },
        {
          "internalType": "uint256",
          "name": "tokenId",
          "type": "uint256"
        },
        {
          "internalType": "uint64",
          "name": "numDays",
          "type": "uint64"
        }
      ],
      "name": "rentNFT",
      "outputs": [],
      "stateMutability": "payable",
      "type": "function"
    },
    {
      "inputs": [
        {
          "internalType": "address",
          "name": "nftAddress",
          "type": "address"
        },
        {
          "internalType": "uint256",
          "name": "tokenId",
          "type": "uint256"
        }
      ],
      "name": "unlistNFT",
      "outputs": [],
      "stateMutability": "payable",
      "type": "function"
    }
  ],
  "bytecode": "0x6080604052662386f26fc10000600255600a600360006101000a81548167ffffffffffffffff021916908367ffffffffffffffff16021790555034801561004557600080fd5b50600160008190555033600160006101000a81548173ffffffffffffffffffffffffffffffffffffffff021916908373ffffffffffffffffffffffffffffffffffffffff160217905550612d198061009e6000396000f3fe6080604052600436106100915760003560e01c80639a34f003116100595780639a34f00314610182578063ad05f1b41461019e578063b31b85c9146101ba578063b8fe6abe146101f7578063e9a6f4f61461022257610091565b80631578e7c814610096578063555df3cd146100d3578063789df8db146101105780637fc27efd1461013b57806395046b7c14610157575b600080fd5b3480156100a257600080fd5b506100bd60048036038101906100b89190611f2a565b61025f565b6040516100ca9190612003565b60405180910390f35b3480156100df57600080fd5b506100fa60048036038101906100f5919061201e565b6103ea565b60405161010791906120fa565b60405180910390f35b34801561011c57600080fd5b50610125610440565b6040516101329190612246565b60405180910390f35b61015560048036038101906101509190611f2a565b610728565b005b34801561016357600080fd5b5061016c610be4565b6040516101799190612317565b60405180910390f35b61019c60048036038101906101979190612379565b610bfb565b005b6101b860048036038101906101b391906123cc565b61101d565b005b3480156101c657600080fd5b506101e160048036038101906101dc919061201e565b611818565b6040516101ee919061243a565b60405180910390f35b34801561020357600080fd5b5061020c6118ce565b6040516102199190612464565b60405180910390f35b34801561022e57600080fd5b506102496004803603810190610244919061201e565b6118d8565b604051610256919061243a565b60405180910390f35b610267611e19565b600460008473ffffffffffffffffffffffffffffffffffffffff1673ffffffffffffffffffffffffffffffffffffffff16815260200190815260200160002060008381526020019081526020016000206040518060c00160405290816000820160009054906101000a900473ffffffffffffffffffffffffffffffffffffffff1673ffffffffffffffffffffffffffffffffffffffff1673ffffffffffffffffffffffffffffffffffffffff1681526020016001820160009054906101000a900473ffffffffffffffffffffffffffffffffffffffff1673ffffffffffffffffffffffffffffffffffffffff1673ffffffffffffffffffffffffffffffffffffffff1681526020016002820160009054906101000a900473ffffffffffffffffffffffffffffffffffffffff1673ffffffffffffffffffffffffffffffffffffffff1673ffffffffffffffffffffffffffffffffffffffff1681526020016003820154815260200160048201548152602001600582015481525050905092915050565b60606000610435600560008573ffffffffffffffffffffffffffffffffffffffff1673ffffffffffffffffffffffffffffffffffffffff168152602001908152602001600020611a41565b905080915050919050565b6060600061044e6008611a62565b67ffffffffffffffff8111156104675761046661247f565b5b6040519080825280602002602001820160405280156104a057816020015b61048d611e19565b8152602001906001900390816104855790505b5090506000806104b06006611a70565b905060005b815181101561071e5760008282815181106104d3576104d26124ae565b5b602002602001015190506000610526600560008473ffffffffffffffffffffffffffffffffffffffff1673ffffffffffffffffffffffffffffffffffffffff168152602001908152602001600020611a41565b905060005b815181101561070857600460008473ffffffffffffffffffffffffffffffffffffffff1673ffffffffffffffffffffffffffffffffffffffff1681526020019081526020016000206000838381518110610588576105876124ae565b5b602002602001015181526020019081526020016000206040518060c00160405290816000820160009054906101000a900473ffffffffffffffffffffffffffffffffffffffff1673ffffffffffffffffffffffffffffffffffffffff1673ffffffffffffffffffffffffffffffffffffffff1681526020016001820160009054906101000a900473ffffffffffffffffffffffffffffffffffffffff1673ffffffffffffffffffffffffffffffffffffffff1673ffffffffffffffffffffffffffffffffffffffff1681526020016002820160009054906101000a900473ffffffffffffffffffffffffffffffffffffffff1673ffffffffffffffffffffffffffffffffffffffff1673ffffffffffffffffffffffffffffffffffffffff16815260200160038201548152602001600482015481526020016005820154815250508787815181106106dc576106db6124ae565b5b602002602001018190525085806106f29061250c565b96505080806107009061250c565b91505061052b565b50505080806107169061250c565b9150506104b5565b5082935050505090565b610730611a91565b818133600083905060008173ffffffffffffffffffffffffffffffffffffffff16636352211e856040518263ffffffff1660e01b81526004016107739190612464565b602060405180830381865afa158015610790573d6000803e3d6000fd5b505050506040513d601f19601f820116820180604052508101906107b49190612569565b90508073ffffffffffffffffffffffffffffffffffffffff168373ffffffffffffffffffffffffffffffffffffffff161461081b576040517f30cd747100000000000000000000000000000000000000000000000000000000815260040160405180910390fd5b86866000600460008473ffffffffffffffffffffffffffffffffffffffff1673ffffffffffffffffffffffffffffffffffffffff16815260200190815260200160002060008381526020019081526020016000206040518060c00160405290816000820160009054906101000a900473ffffffffffffffffffffffffffffffffffffffff1673ffffffffffffffffffffffffffffffffffffffff1673ffffffffffffffffffffffffffffffffffffffff1681526020016001820160009054906101000a900473ffffffffffffffffffffffffffffffffffffffff1673ffffffffffffffffffffffffffffffffffffffff1673ffffffffffffffffffffffffffffffffffffffff1681526020016002820160009054906101000a900473ffffffffffffffffffffffffffffffffffffffff1673ffffffffffffffffffffffffffffffffffffffff1673ffffffffffffffffffffffffffffffffffffffff1681526020016003820154815260200160048201548152602001600582015481525050905060008160800151116109e75782826040517f6831488c0000000000000000000000000000000000000000000000000000000081526004016109de9291906125a5565b60405180910390fd5b610a2f600560008c73ffffffffffffffffffffffffffffffffffffffff1673ffffffffffffffffffffffffffffffffffffffff1681526020019081526020016000208a611ae0565b50600460008b73ffffffffffffffffffffffffffffffffffffffff1673ffffffffffffffffffffffffffffffffffffffff16815260200190815260200160002060008a8152602001908152602001600020600080820160006101000a81549073ffffffffffffffffffffffffffffffffffffffff02191690556001820160006101000a81549073ffffffffffffffffffffffffffffffffffffffff02191690556002820160006101000a81549073ffffffffffffffffffffffffffffffffffffffff021916905560038201600090556004820160009055600582016000905550506000610b59600560008d73ffffffffffffffffffffffffffffffffffffffff1673ffffffffffffffffffffffffffffffffffffffff168152602001908152602001600020611afa565b03610b6b57610b6960068b611b0f565b505b610b756008611b3f565b888a73ffffffffffffffffffffffffffffffffffffffff163373ffffffffffffffffffffffffffffffffffffffff167f5e22415fbc0319574562e44217526b07e663891c4338550fe529eac37e9e0cb260405160405180910390a45050505050505050610be0611b9b565b5050565b60606000610bf26006611a70565b90508091505090565b610c03611a91565b600360009054906101000a900467ffffffffffffffff1667ffffffffffffffff168167ffffffffffffffff161115610c70576040517f08c379a0000000000000000000000000000000000000000000000000000000008152600401610c6790612651565b60405180910390fd5b6000600460008573ffffffffffffffffffffffffffffffffffffffff1673ffffffffffffffffffffffffffffffffffffffff16815260200190815260200160002060008481526020019081526020016000209050600073ffffffffffffffffffffffffffffffffffffffff168160010160009054906101000a900473ffffffffffffffffffffffffffffffffffffffff1673ffffffffffffffffffffffffffffffffffffffff161480610d265750806005015442115b610d65576040517f08c379a0000000000000000000000000000000000000000000000000000000008152600401610d5c906126bd565b60405180910390fd5b60006201518083610d7691906126dd565b42610d81919061271a565b905060008367ffffffffffffffff168360040154610d9f9190612756565b905080341015610de4576040517f08c379a0000000000000000000000000000000000000000000000000000000008152600401610ddb9061280a565b60405180910390fd5b8260000160009054906101000a900473ffffffffffffffffffffffffffffffffffffffff1673ffffffffffffffffffffffffffffffffffffffff166108fc829081150290604051600060405180830381858888f19350505050158015610e4e573d6000803e3d6000fd5b508573ffffffffffffffffffffffffffffffffffffffff1663e030565e8633856040518463ffffffff1660e01b8152600401610e8c93929190612839565b600060405180830381600087803b158015610ea657600080fd5b505af1158015610eba573d6000803e3d6000fd5b50505050338360010160006101000a81548173ffffffffffffffffffffffffffffffffffffffff021916908373ffffffffffffffffffffffffffffffffffffffff1602179055508167ffffffffffffffff1683600501819055508573ffffffffffffffffffffffffffffffffffffffff163373ffffffffffffffffffffffffffffffffffffffff168773ffffffffffffffffffffffffffffffffffffffff16636352211e886040518263ffffffff1660e01b8152600401610f7b9190612464565b602060405180830381865afa158015610f98573d6000803e3d6000fd5b505050506040513d601f19601f82011682018060405250810190610fbc9190612569565b73ffffffffffffffffffffffffffffffffffffffff167f11f8383374cb9462b2e00ec58deeceb0b52d3cc18d674282a3b1dec46676ecb288868660405161100593929190612870565b60405180910390a4505050611018611b9b565b505050565b611025611a91565b82826000600460008473ffffffffffffffffffffffffffffffffffffffff1673ffffffffffffffffffffffffffffffffffffffff16815260200190815260200160002060008381526020019081526020016000206040518060c00160405290816000820160009054906101000a900473ffffffffffffffffffffffffffffffffffffffff1673ffffffffffffffffffffffffffffffffffffffff1673ffffffffffffffffffffffffffffffffffffffff1681526020016001820160009054906101000a900473ffffffffffffffffffffffffffffffffffffffff1673ffffffffffffffffffffffffffffffffffffffff1673ffffffffffffffffffffffffffffffffffffffff1681526020016002820160009054906101000a900473ffffffffffffffffffffffffffffffffffffffff1673ffffffffffffffffffffffffffffffffffffffff1673ffffffffffffffffffffffffffffffffffffffff168152602001600382015481526020016004820154815260200160058201548152505090506000816080015111156111f25782826040517f4a5568d50000000000000000000000000000000000000000000000000000000081526004016111e99291906125a5565b60405180910390fd5b6111fb866118d8565b61123a576040517f08c379a0000000000000000000000000000000000000000000000000000000008152600401611231906128f3565b60405180910390fd5b3373ffffffffffffffffffffffffffffffffffffffff168673ffffffffffffffffffffffffffffffffffffffff16636352211e876040518263ffffffff1660e01b815260040161128a9190612464565b602060405180830381865afa1580156112a7573d6000803e3d6000fd5b505050506040513d601f19601f820116820180604052508101906112cb9190612569565b73ffffffffffffffffffffffffffffffffffffffff1614611321576040517f08c379a00000000000000000000000000000000000000000000000000000000081526004016113189061295f565b60405180910390fd5b6002543414611365576040517f08c379a000000000000000000000000000000000000000000000000000000000815260040161135c906129cb565b60405180910390fd5b600084116113a8576040517f08c379a000000000000000000000000000000000000000000000000000000000815260040161139f90612a5d565b60405180910390fd5b60008690503073ffffffffffffffffffffffffffffffffffffffff168173ffffffffffffffffffffffffffffffffffffffff1663081812fc886040518263ffffffff1660e01b81526004016113fd9190612464565b602060405180830381865afa15801561141a573d6000803e3d6000fd5b505050506040513d601f19601f8201168201806040525081019061143e9190612569565b73ffffffffffffffffffffffffffffffffffffffff161461148b576040517f4be3a2c500000000000000000000000000000000000000000000000000000000815260040160405180910390fd5b600160009054906101000a900473ffffffffffffffffffffffffffffffffffffffff1673ffffffffffffffffffffffffffffffffffffffff166108fc6002549081150290604051600060405180830381858888f193505050501580156114f5573d6000803e3d6000fd5b506040518060c001604052803373ffffffffffffffffffffffffffffffffffffffff168152602001600073ffffffffffffffffffffffffffffffffffffffff1681526020018873ffffffffffffffffffffffffffffffffffffffff1681526020018781526020018681526020016000815250600460008973ffffffffffffffffffffffffffffffffffffffff1673ffffffffffffffffffffffffffffffffffffffff168152602001908152602001600020600088815260200190815260200160002060008201518160000160006101000a81548173ffffffffffffffffffffffffffffffffffffffff021916908373ffffffffffffffffffffffffffffffffffffffff16021790555060208201518160010160006101000a81548173ffffffffffffffffffffffffffffffffffffffff021916908373ffffffffffffffffffffffffffffffffffffffff16021790555060408201518160020160006101000a81548173ffffffffffffffffffffffffffffffffffffffff021916908373ffffffffffffffffffffffffffffffffffffffff160217905550606082015181600301556080820151816004015560a082015181600501559050506116b76008611ba5565b6116ff600560008973ffffffffffffffffffffffffffffffffffffffff1673ffffffffffffffffffffffffffffffffffffffff16815260200190815260200160002087611bbb565b5061170b600688611bd5565b508673ffffffffffffffffffffffffffffffffffffffff16600073ffffffffffffffffffffffffffffffffffffffff168873ffffffffffffffffffffffffffffffffffffffff16636352211e896040518263ffffffff1660e01b81526004016117749190612464565b602060405180830381865afa158015611791573d6000803e3d6000fd5b505050506040513d601f19601f820116820180604052508101906117b59190612569565b73ffffffffffffffffffffffffffffffffffffffff167faf52e9d89a64bb9dec8228f11a14d277ed84b62f248715f1798456fa43727839898960006040516117ff93929190612ac2565b60405180910390a450505050611813611b9b565b505050565b600080600090508273ffffffffffffffffffffffffffffffffffffffff166301ffc9a77f80ac58cd000000000000000000000000000000000000000000000000000000006040518263ffffffff1660e01b81526004016118789190612b34565b602060405180830381865afa9250505080156118b257506040513d601f19601f820116820180604052508101906118af9190612b7b565b60015b6118c05760009150506118c9565b80915050809150505b919050565b6000600254905090565b6000806000905060008373ffffffffffffffffffffffffffffffffffffffff166301ffc9a77fad092b5c000000000000000000000000000000000000000000000000000000006040518263ffffffff1660e01b815260040161193a9190612b34565b602060405180830381865afa92505050801561197457506040513d601f19601f820116820180604052508101906119719190612b7b565b60015b61198357600092505050611a3c565b809250508373ffffffffffffffffffffffffffffffffffffffff166301ffc9a77f80ac58cd000000000000000000000000000000000000000000000000000000006040518263ffffffff1660e01b81526004016119e09190612b34565b602060405180830381865afa925050508015611a1a57506040513d601f19601f82011682018060405250810190611a179190612b7b565b60015b611a2957600092505050611a3c565b80915050818015611a375750805b925050505b919050565b60606000611a5183600001611c05565b905060608190508092505050919050565b600081600001549050919050565b60606000611a8083600001611c05565b905060608190508092505050919050565b600260005403611ad6576040517f08c379a0000000000000000000000000000000000000000000000000000000008152600401611acd90612bf4565b60405180910390fd5b6002600081905550565b6000611af2836000018360001b611c61565b905092915050565b6000611b0882600001611d75565b9050919050565b6000611b37836000018373ffffffffffffffffffffffffffffffffffffffff1660001b611c61565b905092915050565b60008160000154905060008111611b8b576040517f08c379a0000000000000000000000000000000000000000000000000000000008152600401611b8290612c60565b60405180910390fd5b6001810382600001819055505050565b6001600081905550565b6001816000016000828254019250508190555050565b6000611bcd836000018360001b611d86565b905092915050565b6000611bfd836000018373ffffffffffffffffffffffffffffffffffffffff1660001b611d86565b905092915050565b606081600001805480602002602001604051908101604052809291908181526020018280548015611c5557602002820191906000526020600020905b815481526020019060010190808311611c41575b50505050509050919050565b60008083600101600084815260200190815260200160002054905060008114611d69576000600182611c939190612c80565b9050600060018660000180549050611cab9190612c80565b9050818114611d1a576000866000018281548110611ccc57611ccb6124ae565b5b9060005260206000200154905080876000018481548110611cf057611cef6124ae565b5b90600052602060002001819055508387600101600083815260200190815260200160002081905550505b85600001805480611d2e57611d2d612cb4565b5b600190038181906000526020600020016000905590558560010160008681526020019081526020016000206000905560019350505050611d6f565b60009150505b92915050565b600081600001805490509050919050565b6000611d928383611df6565b611deb578260000182908060018154018082558091505060019003906000526020600020016000909190919091505582600001805490508360010160008481526020019081526020016000208190555060019050611df0565b600090505b92915050565b600080836001016000848152602001908152602001600020541415905092915050565b6040518060c00160405280600073ffffffffffffffffffffffffffffffffffffffff168152602001600073ffffffffffffffffffffffffffffffffffffffff168152602001600073ffffffffffffffffffffffffffffffffffffffff1681526020016000815260200160008152602001600081525090565b600080fd5b600073ffffffffffffffffffffffffffffffffffffffff82169050919050565b6000611ec182611e96565b9050919050565b611ed181611eb6565b8114611edc57600080fd5b50565b600081359050611eee81611ec8565b92915050565b6000819050919050565b611f0781611ef4565b8114611f1257600080fd5b50565b600081359050611f2481611efe565b92915050565b60008060408385031215611f4157611f40611e91565b5b6000611f4f85828601611edf565b9250506020611f6085828601611f15565b9150509250929050565b611f7381611eb6565b82525050565b611f8281611ef4565b82525050565b60c082016000820151611f9e6000850182611f6a565b506020820151611fb16020850182611f6a565b506040820151611fc46040850182611f6a565b506060820151611fd76060850182611f79565b506080820151611fea6080850182611f79565b5060a0820151611ffd60a0850182611f79565b50505050565b600060c0820190506120186000830184611f88565b92915050565b60006020828403121561203457612033611e91565b5b600061204284828501611edf565b91505092915050565b600081519050919050565b600082825260208201905092915050565b6000819050602082019050919050565b60006120838383611f79565b60208301905092915050565b6000602082019050919050565b60006120a78261204b565b6120b18185612056565b93506120bc83612067565b8060005b838110156120ed5781516120d48882612077565b97506120df8361208f565b9250506001810190506120c0565b5085935050505092915050565b60006020820190508181036000830152612114818461209c565b905092915050565b600081519050919050565b600082825260208201905092915050565b6000819050602082019050919050565b60c08201600082015161215e6000850182611f6a565b5060208201516121716020850182611f6a565b5060408201516121846040850182611f6a565b5060608201516121976060850182611f79565b5060808201516121aa6080850182611f79565b5060a08201516121bd60a0850182611f79565b50505050565b60006121cf8383612148565b60c08301905092915050565b6000602082019050919050565b60006121f38261211c565b6121fd8185612127565b935061220883612138565b8060005b8381101561223957815161222088826121c3565b975061222b836121db565b92505060018101905061220c565b5085935050505092915050565b6000602082019050818103600083015261226081846121e8565b905092915050565b600081519050919050565b600082825260208201905092915050565b6000819050602082019050919050565b60006122a08383611f6a565b60208301905092915050565b6000602082019050919050565b60006122c482612268565b6122ce8185612273565b93506122d983612284565b8060005b8381101561230a5781516122f18882612294565b97506122fc836122ac565b9250506001810190506122dd565b5085935050505092915050565b6000602082019050818103600083015261233181846122b9565b905092915050565b600067ffffffffffffffff82169050919050565b61235681612339565b811461236157600080fd5b50565b6000813590506123738161234d565b92915050565b60008060006060848603121561239257612391611e91565b5b60006123a086828701611edf565b93505060206123b186828701611f15565b92505060406123c286828701612364565b9150509250925092565b6000806000606084860312156123e5576123e4611e91565b5b60006123f386828701611edf565b935050602061240486828701611f15565b925050604061241586828701611f15565b9150509250925092565b60008115159050919050565b6124348161241f565b82525050565b600060208201905061244f600083018461242b565b92915050565b61245e81611ef4565b82525050565b60006020820190506124796000830184612455565b92915050565b7f4e487b7100000000000000000000000000000000000000000000000000000000600052604160045260246000fd5b7f4e487b7100000000000000000000000000000000000000000000000000000000600052603260045260246000fd5b7f4e487b7100000000000000000000000000000000000000000000000000000000600052601160045260246000fd5b600061251782611ef4565b91507fffffffffffffffffffffffffffffffffffffffffffffffffffffffffffffffff8203612549576125486124dd565b5b600182019050919050565b60008151905061256381611ec8565b92915050565b60006020828403121561257f5761257e611e91565b5b600061258d84828501612554565b91505092915050565b61259f81611eb6565b82525050565b60006040820190506125ba6000830185612596565b6125c76020830184612455565b9392505050565b600082825260208201905092915050565b7f4d6178696d756d206f662031302072656e74616c20646179732061726520616c60008201527f6c6f776564000000000000000000000000000000000000000000000000000000602082015250565b600061263b6025836125ce565b9150612646826125df565b604082019050919050565b6000602082019050818103600083015261266a8161262e565b9050919050565b7f4e465420616c72656164792072656e7465640000000000000000000000000000600082015250565b60006126a76012836125ce565b91506126b282612671565b602082019050919050565b600060208201905081810360008301526126d68161269a565b9050919050565b60006126e882612339565b91506126f383612339565b925082820261270181612339565b9150808214612713576127126124dd565b5b5092915050565b600061272582612339565b915061273083612339565b9250828201905067ffffffffffffffff8111156127505761274f6124dd565b5b92915050565b600061276182611ef4565b915061276c83611ef4565b925082820261277a81611ef4565b91508282048414831517612791576127906124dd565b5b5092915050565b7f4e6f7420656e6f75676820657468657220746f20636f7665722072656e74616c60008201527f20706572696f6400000000000000000000000000000000000000000000000000602082015250565b60006127f46027836125ce565b91506127ff82612798565b604082019050919050565b60006020820190508181036000830152612823816127e7565b9050919050565b61283381612339565b82525050565b600060608201905061284e6000830186612455565b61285b6020830185612596565b612868604083018461282a565b949350505050565b60006060820190506128856000830186612455565b612892602083018561282a565b61289f6040830184612455565b949350505050565b7f436f6e7472616374206973206e6f7420616e2045524334393037000000000000600082015250565b60006128dd601a836125ce565b91506128e8826128a7565b602082019050919050565b6000602082019050818103600083015261290c816128d0565b9050919050565b7f4e6f74206f776e6572206f66206e667400000000000000000000000000000000600082015250565b60006129496010836125ce565b915061295482612913565b602082019050919050565b600060208201905081810360008301526129788161293c565b9050919050565b7f4e6f7420656e6f75676820657468657220666f72206c697374696e6720666565600082015250565b60006129b56020836125ce565b91506129c08261297f565b602082019050919050565b600060208201905081810360008301526129e4816129a8565b9050919050565b7f52656e74616c2070726963652073686f756c642062652067726561746572207460008201527f68616e2030000000000000000000000000000000000000000000000000000000602082015250565b6000612a476025836125ce565b9150612a52826129eb565b604082019050919050565b60006020820190508181036000830152612a7681612a3a565b9050919050565b6000819050919050565b6000819050919050565b6000612aac612aa7612aa284612a7d565b612a87565b611ef4565b9050919050565b612abc81612a91565b82525050565b6000606082019050612ad76000830186612455565b612ae46020830185612455565b612af16040830184612ab3565b949350505050565b60007fffffffff0000000000000000000000000000000000000000000000000000000082169050919050565b612b2e81612af9565b82525050565b6000602082019050612b496000830184612b25565b92915050565b612b588161241f565b8114612b6357600080fd5b50565b600081519050612b7581612b4f565b92915050565b600060208284031215612b9157612b90611e91565b5b6000612b9f84828501612b66565b91505092915050565b7f5265656e7472616e637947756172643a207265656e7472616e742063616c6c00600082015250565b6000612bde601f836125ce565b9150612be982612ba8565b602082019050919050565b60006020820190508181036000830152612c0d81612bd1565b9050919050565b7f436f756e7465723a2064656372656d656e74206f766572666c6f770000000000600082015250565b6000612c4a601b836125ce565b9150612c5582612c14565b602082019050919050565b60006020820190508181036000830152612c7981612c3d565b9050919050565b6000612c8b82611ef4565b9150612c9683611ef4565b9250828203905081811115612cae57612cad6124dd565b5b92915050565b7f4e487b7100000000000000000000000000000000000000000000000000000000600052603160045260246000fdfea264697066735822122043936cac5918714d4317843255289a6f724f3f1fd28039b25c5b01ce11549fde64736f6c63430008110033",
  "linkReferences": {},
  "deployedLinkReferences": {}
}