{
  "_format": "hh-sol-artifact-1",
  "contractName": "AvianRentExchange",
  "sourceName": "contracts/AvianRentExchange.sol",
  "abi": [
    {
      "inputs": [],
      "stateMutability": "nonpayable",
      "type": "constructor"
    },
    {
      "inputs": [
        {
          "internalType": "address",
          "name": "nftAddress",
          "type": "address"
        },
        {
          "internalType": "uint256",
          "name": "tokenId",
          "type": "uint256"
        }
      ],
      "name": "AlreadyListed",
      "type": "error"
    },
    {
      "inputs": [],
      "name": "NotApprovedForMarketplace",
      "type": "error"
    },
    {
      "inputs": [
        {
          "internalType": "address",
          "name": "nftAddress",
          "type": "address"
        },
        {
          "internalType": "uint256",
          "name": "tokenId",
          "type": "uint256"
        }
      ],
      "name": "NotListed",
      "type": "error"
    },
    {
      "inputs": [],
      "name": "NotOwner",
      "type": "error"
    },
    {
      "anonymous": false,
      "inputs": [
        {
          "indexed": true,
          "internalType": "address",
          "name": "owner",
          "type": "address"
        },
        {
          "indexed": true,
          "internalType": "address",
          "name": "user",
          "type": "address"
        },
        {
          "indexed": true,
          "internalType": "address",
          "name": "nftContract",
          "type": "address"
        },
        {
          "indexed": false,
          "internalType": "uint256",
          "name": "tokenId",
          "type": "uint256"
        },
        {
          "indexed": false,
          "internalType": "uint256",
          "name": "pricePerDay",
          "type": "uint256"
        },
        {
          "indexed": false,
          "internalType": "uint256",
          "name": "expires",
          "type": "uint256"
        }
      ],
      "name": "NFTListed",
      "type": "event"
    },
    {
      "anonymous": false,
      "inputs": [
        {
          "indexed": true,
          "internalType": "address",
          "name": "owner",
          "type": "address"
        },
        {
          "indexed": true,
          "internalType": "address",
          "name": "user",
          "type": "address"
        },
        {
          "indexed": true,
          "internalType": "address",
          "name": "nftContract",
          "type": "address"
        },
        {
          "indexed": false,
          "internalType": "uint256",
          "name": "tokenId",
          "type": "uint256"
        },
        {
          "indexed": false,
          "internalType": "uint64",
          "name": "expires",
          "type": "uint64"
        },
        {
          "indexed": false,
          "internalType": "uint256",
          "name": "rentalFee",
          "type": "uint256"
        }
      ],
      "name": "NFTRented",
      "type": "event"
    },
    {
      "anonymous": false,
      "inputs": [
        {
          "indexed": true,
          "internalType": "address",
          "name": "unlistSender",
          "type": "address"
        },
        {
          "indexed": true,
          "internalType": "address",
          "name": "nftContract",
          "type": "address"
        },
        {
          "indexed": true,
          "internalType": "uint256",
          "name": "tokenId",
          "type": "uint256"
        }
      ],
      "name": "NFTUnlisted",
      "type": "event"
    },
    {
      "inputs": [
        {
          "internalType": "address",
          "name": "nftContract",
          "type": "address"
        }
      ],
      "name": "isNFT",
      "outputs": [
        {
          "internalType": "bool",
          "name": "",
          "type": "bool"
        }
      ],
      "stateMutability": "view",
      "type": "function"
    },
    {
      "inputs": [
        {
          "internalType": "address",
          "name": "nftContract",
          "type": "address"
        }
      ],
      "name": "isRentableNFT",
      "outputs": [
        {
          "internalType": "bool",
          "name": "",
          "type": "bool"
        }
      ],
      "stateMutability": "view",
      "type": "function"
    },
    {
      "inputs": [
        {
          "internalType": "address",
          "name": "nftAddress",
          "type": "address"
        },
        {
          "internalType": "uint256",
          "name": "tokenId",
          "type": "uint256"
        },
        {
          "internalType": "uint256",
          "name": "pricePerDay",
          "type": "uint256"
        }
      ],
      "name": "listNFT",
      "outputs": [
        {
          "internalType": "string",
          "name": "",
          "type": "string"
        }
      ],
      "stateMutability": "payable",
      "type": "function"
    },
    {
      "inputs": [
        {
          "internalType": "address",
          "name": "nftContract",
          "type": "address"
        },
        {
          "internalType": "uint256",
          "name": "tokenId",
          "type": "uint256"
        },
        {
          "internalType": "uint64",
          "name": "numDays",
          "type": "uint64"
        }
      ],
      "name": "rentNFT",
      "outputs": [
        {
          "internalType": "string",
          "name": "",
          "type": "string"
        }
      ],
      "stateMutability": "payable",
      "type": "function"
    },
    {
      "inputs": [
        {
          "internalType": "address",
          "name": "nftAddress",
          "type": "address"
        },
        {
          "internalType": "uint256",
          "name": "tokenId",
          "type": "uint256"
        }
      ],
      "name": "unlistNFT",
      "outputs": [
        {
          "internalType": "string",
          "name": "",
          "type": "string"
        }
      ],
      "stateMutability": "nonpayable",
      "type": "function"
    },
    {
      "inputs": [
        {
          "internalType": "address",
          "name": "nftAddress",
          "type": "address"
        },
        {
          "internalType": "uint256",
          "name": "tokenId",
          "type": "uint256"
        },
        {
          "internalType": "uint256",
          "name": "pricePerDay",
          "type": "uint256"
        }
      ],
      "name": "updateRentNFT",
      "outputs": [
        {
          "internalType": "string",
          "name": "",
          "type": "string"
        }
      ],
      "stateMutability": "nonpayable",
      "type": "function"
    }
  ],
  "bytecode": "0x6080604052662386f26fc10000600255600a600360006101000a81548167ffffffffffffffff021916908367ffffffffffffffff16021790555034801561004557600080fd5b50600160008190555033600160006101000a81548173ffffffffffffffffffffffffffffffffffffffff021916908373ffffffffffffffffffffffffffffffffffffffff16021790555061296d8061009e6000396000f3fe6080604052600436106100555760003560e01c80637fc27efd1461005a578063979bcbb2146100975780639a34f003146100d4578063ad05f1b414610104578063b31b85c914610134578063e9a6f4f614610171575b600080fd5b34801561006657600080fd5b50610081600480360381019061007c9190611ebf565b6101ae565b60405161008e9190611f8f565b60405180910390f35b3480156100a357600080fd5b506100be60048036038101906100b99190611fb1565b6106a6565b6040516100cb9190611f8f565b60405180910390f35b6100ee60048036038101906100e99190612044565b610b62565b6040516100fb9190611f8f565b60405180910390f35b61011e60048036038101906101199190611fb1565b6110a4565b60405161012b9190611f8f565b60405180910390f35b34801561014057600080fd5b5061015b60048036038101906101569190612097565b6118db565b60405161016891906120df565b60405180910390f35b34801561017d57600080fd5b5061019860048036038101906101939190612097565b611991565b6040516101a591906120df565b60405180910390f35b60606101b8611afa565b828233600083905060008173ffffffffffffffffffffffffffffffffffffffff16636352211e856040518263ffffffff1660e01b81526004016101fb9190612109565b602060405180830381865afa158015610218573d6000803e3d6000fd5b505050506040513d601f19601f8201168201806040525081019061023c9190612139565b90508073ffffffffffffffffffffffffffffffffffffffff168373ffffffffffffffffffffffffffffffffffffffff16146102a3576040517f30cd747100000000000000000000000000000000000000000000000000000000815260040160405180910390fd5b87876000600460008473ffffffffffffffffffffffffffffffffffffffff1673ffffffffffffffffffffffffffffffffffffffff16815260200190815260200160002060008381526020019081526020016000206040518060c00160405290816000820160009054906101000a900473ffffffffffffffffffffffffffffffffffffffff1673ffffffffffffffffffffffffffffffffffffffff1673ffffffffffffffffffffffffffffffffffffffff1681526020016001820160009054906101000a900473ffffffffffffffffffffffffffffffffffffffff1673ffffffffffffffffffffffffffffffffffffffff1673ffffffffffffffffffffffffffffffffffffffff1681526020016002820160009054906101000a900473ffffffffffffffffffffffffffffffffffffffff1673ffffffffffffffffffffffffffffffffffffffff1673ffffffffffffffffffffffffffffffffffffffff16815260200160038201548152602001600482015481526020016005820154815250509050600081608001511161046f5782826040517f6831488c000000000000000000000000000000000000000000000000000000008152600401610466929190612175565b60405180910390fd5b6104b7600560008d73ffffffffffffffffffffffffffffffffffffffff1673ffffffffffffffffffffffffffffffffffffffff1681526020019081526020016000208b611b49565b50600460008c73ffffffffffffffffffffffffffffffffffffffff1673ffffffffffffffffffffffffffffffffffffffff16815260200190815260200160002060008b8152602001908152602001600020600080820160006101000a81549073ffffffffffffffffffffffffffffffffffffffff02191690556001820160006101000a81549073ffffffffffffffffffffffffffffffffffffffff02191690556002820160006101000a81549073ffffffffffffffffffffffffffffffffffffffff0219169055600382016000905560048201600090556005820160009055505060006105e1600560008e73ffffffffffffffffffffffffffffffffffffffff1673ffffffffffffffffffffffffffffffffffffffff168152602001908152602001600020611b63565b036105f3576105f160068c611b78565b505b6105fd6008611ba8565b898b73ffffffffffffffffffffffffffffffffffffffff163373ffffffffffffffffffffffffffffffffffffffff167f5e22415fbc0319574562e44217526b07e663891c4338550fe529eac37e9e0cb260405160405180910390a46040518060400160405280601981526020017f4e4654205375636365737366756c6c7920756e6c697374656400000000000000815250985050505050505050506106a0611c04565b92915050565b60606106b0611afa565b83836000600460008473ffffffffffffffffffffffffffffffffffffffff1673ffffffffffffffffffffffffffffffffffffffff16815260200190815260200160002060008381526020019081526020016000206040518060c00160405290816000820160009054906101000a900473ffffffffffffffffffffffffffffffffffffffff1673ffffffffffffffffffffffffffffffffffffffff1673ffffffffffffffffffffffffffffffffffffffff1681526020016001820160009054906101000a900473ffffffffffffffffffffffffffffffffffffffff1673ffffffffffffffffffffffffffffffffffffffff1673ffffffffffffffffffffffffffffffffffffffff1681526020016002820160009054906101000a900473ffffffffffffffffffffffffffffffffffffffff1673ffffffffffffffffffffffffffffffffffffffff1673ffffffffffffffffffffffffffffffffffffffff16815260200160038201548152602001600482015481526020016005820154815250509050600081608001511161087c5782826040517f6831488c000000000000000000000000000000000000000000000000000000008152600401610873929190612175565b60405180910390fd5b61088587611991565b6108c4576040517f08c379a00000000000000000000000000000000000000000000000000000000081526004016108bb906121ea565b60405180910390fd5b3373ffffffffffffffffffffffffffffffffffffffff168773ffffffffffffffffffffffffffffffffffffffff16636352211e886040518263ffffffff1660e01b81526004016109149190612109565b602060405180830381865afa158015610931573d6000803e3d6000fd5b505050506040513d601f19601f820116820180604052508101906109559190612139565b73ffffffffffffffffffffffffffffffffffffffff16146109ab576040517f08c379a00000000000000000000000000000000000000000000000000000000081526004016109a290612256565b60405180910390fd5b600085116109ee576040517f08c379a00000000000000000000000000000000000000000000000000000000081526004016109e5906122e8565b60405180910390fd5b6000600460008973ffffffffffffffffffffffffffffffffffffffff1673ffffffffffffffffffffffffffffffffffffffff168152602001908152602001600020600088815260200190815260200160002090508581600401819055508773ffffffffffffffffffffffffffffffffffffffff168160010160009054906101000a900473ffffffffffffffffffffffffffffffffffffffff1673ffffffffffffffffffffffffffffffffffffffff168260000160009054906101000a900473ffffffffffffffffffffffffffffffffffffffff1673ffffffffffffffffffffffffffffffffffffffff167faf52e9d89a64bb9dec8228f11a14d277ed84b62f248715f1798456fa437278398a8a8660050154604051610b0f93929190612308565b60405180910390a46040518060400160405280601781526020017f4e4654205375636365737366756c6c79206c6973746564000000000000000000815250945050505050610b5b611c04565b9392505050565b6060610b6c611afa565b600360009054906101000a900467ffffffffffffffff1667ffffffffffffffff168267ffffffffffffffff161115610bd9576040517f08c379a0000000000000000000000000000000000000000000000000000000008152600401610bd0906123b1565b60405180910390fd5b6000600460008673ffffffffffffffffffffffffffffffffffffffff1673ffffffffffffffffffffffffffffffffffffffff16815260200190815260200160002060008581526020019081526020016000209050600073ffffffffffffffffffffffffffffffffffffffff168160010160009054906101000a900473ffffffffffffffffffffffffffffffffffffffff1673ffffffffffffffffffffffffffffffffffffffff161480610c8f5750806005015442115b610cce576040517f08c379a0000000000000000000000000000000000000000000000000000000008152600401610cc59061241d565b60405180910390fd5b60008590503073ffffffffffffffffffffffffffffffffffffffff168173ffffffffffffffffffffffffffffffffffffffff1663081812fc876040518263ffffffff1660e01b8152600401610d239190612109565b602060405180830381865afa158015610d40573d6000803e3d6000fd5b505050506040513d601f19601f82011682018060405250810190610d649190612139565b73ffffffffffffffffffffffffffffffffffffffff1614610db1576040517f4be3a2c500000000000000000000000000000000000000000000000000000000815260040160405180910390fd5b60006201518085610dc2919061246c565b42610dcd91906124a9565b905060008567ffffffffffffffff168460040154610deb91906124e5565b905080341015610e30576040517f08c379a0000000000000000000000000000000000000000000000000000000008152600401610e2790612599565b60405180910390fd5b8360000160009054906101000a900473ffffffffffffffffffffffffffffffffffffffff1673ffffffffffffffffffffffffffffffffffffffff166108fc829081150290604051600060405180830381858888f19350505050158015610e9a573d6000803e3d6000fd5b508773ffffffffffffffffffffffffffffffffffffffff1663e030565e8833856040518463ffffffff1660e01b8152600401610ed8939291906125c8565b600060405180830381600087803b158015610ef257600080fd5b505af1158015610f06573d6000803e3d6000fd5b50505050338460010160006101000a81548173ffffffffffffffffffffffffffffffffffffffff021916908373ffffffffffffffffffffffffffffffffffffffff1602179055508167ffffffffffffffff1684600501819055508773ffffffffffffffffffffffffffffffffffffffff163373ffffffffffffffffffffffffffffffffffffffff168973ffffffffffffffffffffffffffffffffffffffff16636352211e8a6040518263ffffffff1660e01b8152600401610fc79190612109565b602060405180830381865afa158015610fe4573d6000803e3d6000fd5b505050506040513d601f19601f820116820180604052508101906110089190612139565b73ffffffffffffffffffffffffffffffffffffffff167f11f8383374cb9462b2e00ec58deeceb0b52d3cc18d674282a3b1dec46676ecb28a8686604051611051939291906125ff565b60405180910390a46040518060400160405280601781526020017f4e4654207375636365737366756c6c792072656e74656400000000000000000081525094505050505061109d611c04565b9392505050565b60606110ae611afa565b83836000600460008473ffffffffffffffffffffffffffffffffffffffff1673ffffffffffffffffffffffffffffffffffffffff16815260200190815260200160002060008381526020019081526020016000206040518060c00160405290816000820160009054906101000a900473ffffffffffffffffffffffffffffffffffffffff1673ffffffffffffffffffffffffffffffffffffffff1673ffffffffffffffffffffffffffffffffffffffff1681526020016001820160009054906101000a900473ffffffffffffffffffffffffffffffffffffffff1673ffffffffffffffffffffffffffffffffffffffff1673ffffffffffffffffffffffffffffffffffffffff1681526020016002820160009054906101000a900473ffffffffffffffffffffffffffffffffffffffff1673ffffffffffffffffffffffffffffffffffffffff1673ffffffffffffffffffffffffffffffffffffffff1681526020016003820154815260200160048201548152602001600582015481525050905060008160800151111561127b5782826040517f4a5568d5000000000000000000000000000000000000000000000000000000008152600401611272929190612175565b60405180910390fd5b61128487611991565b6112c3576040517f08c379a00000000000000000000000000000000000000000000000000000000081526004016112ba906121ea565b60405180910390fd5b3373ffffffffffffffffffffffffffffffffffffffff168773ffffffffffffffffffffffffffffffffffffffff16636352211e886040518263ffffffff1660e01b81526004016113139190612109565b602060405180830381865afa158015611330573d6000803e3d6000fd5b505050506040513d601f19601f820116820180604052508101906113549190612139565b73ffffffffffffffffffffffffffffffffffffffff16146113aa576040517f08c379a00000000000000000000000000000000000000000000000000000000081526004016113a190612256565b60405180910390fd5b60025434146113ee576040517f08c379a00000000000000000000000000000000000000000000000000000000081526004016113e590612682565b60405180910390fd5b60008511611431576040517f08c379a0000000000000000000000000000000000000000000000000000000008152600401611428906122e8565b60405180910390fd5b60008790503073ffffffffffffffffffffffffffffffffffffffff168173ffffffffffffffffffffffffffffffffffffffff1663081812fc896040518263ffffffff1660e01b81526004016114869190612109565b602060405180830381865afa1580156114a3573d6000803e3d6000fd5b505050506040513d601f19601f820116820180604052508101906114c79190612139565b73ffffffffffffffffffffffffffffffffffffffff1614611514576040517f4be3a2c500000000000000000000000000000000000000000000000000000000815260040160405180910390fd5b600160009054906101000a900473ffffffffffffffffffffffffffffffffffffffff1673ffffffffffffffffffffffffffffffffffffffff166108fc6002549081150290604051600060405180830381858888f1935050505015801561157e573d6000803e3d6000fd5b506040518060c001604052803373ffffffffffffffffffffffffffffffffffffffff168152602001600073ffffffffffffffffffffffffffffffffffffffff1681526020018973ffffffffffffffffffffffffffffffffffffffff1681526020018881526020018781526020016000815250600460008a73ffffffffffffffffffffffffffffffffffffffff1673ffffffffffffffffffffffffffffffffffffffff168152602001908152602001600020600089815260200190815260200160002060008201518160000160006101000a81548173ffffffffffffffffffffffffffffffffffffffff021916908373ffffffffffffffffffffffffffffffffffffffff16021790555060208201518160010160006101000a81548173ffffffffffffffffffffffffffffffffffffffff021916908373ffffffffffffffffffffffffffffffffffffffff16021790555060408201518160020160006101000a81548173ffffffffffffffffffffffffffffffffffffffff021916908373ffffffffffffffffffffffffffffffffffffffff160217905550606082015181600301556080820151816004015560a082015181600501559050506117406008611c0e565b611788600560008a73ffffffffffffffffffffffffffffffffffffffff1673ffffffffffffffffffffffffffffffffffffffff16815260200190815260200160002088611c24565b50611794600689611c3e565b508773ffffffffffffffffffffffffffffffffffffffff16600073ffffffffffffffffffffffffffffffffffffffff168973ffffffffffffffffffffffffffffffffffffffff16636352211e8a6040518263ffffffff1660e01b81526004016117fd9190612109565b602060405180830381865afa15801561181a573d6000803e3d6000fd5b505050506040513d601f19601f8201168201806040525081019061183e9190612139565b73ffffffffffffffffffffffffffffffffffffffff167faf52e9d89a64bb9dec8228f11a14d277ed84b62f248715f1798456fa437278398a8a6000604051611888939291906126e7565b60405180910390a46040518060400160405280601781526020017f4e4654205375636365737366756c6c79206c69737465640000000000000000008152509450505050506118d4611c04565b9392505050565b600080600090508273ffffffffffffffffffffffffffffffffffffffff166301ffc9a77f80ac58cd000000000000000000000000000000000000000000000000000000006040518263ffffffff1660e01b815260040161193b9190612759565b602060405180830381865afa92505050801561197557506040513d601f19601f8201168201806040525081019061197291906127a0565b60015b61198357600091505061198c565b80915050809150505b919050565b6000806000905060008373ffffffffffffffffffffffffffffffffffffffff166301ffc9a77fad092b5c000000000000000000000000000000000000000000000000000000006040518263ffffffff1660e01b81526004016119f39190612759565b602060405180830381865afa925050508015611a2d57506040513d601f19601f82011682018060405250810190611a2a91906127a0565b60015b611a3c57600092505050611af5565b809250508373ffffffffffffffffffffffffffffffffffffffff166301ffc9a77f80ac58cd000000000000000000000000000000000000000000000000000000006040518263ffffffff1660e01b8152600401611a999190612759565b602060405180830381865afa925050508015611ad357506040513d601f19601f82011682018060405250810190611ad091906127a0565b60015b611ae257600092505050611af5565b80915050818015611af05750805b925050505b919050565b600260005403611b3f576040517f08c379a0000000000000000000000000000000000000000000000000000000008152600401611b3690612819565b60405180910390fd5b6002600081905550565b6000611b5b836000018360001b611c6e565b905092915050565b6000611b7182600001611d82565b9050919050565b6000611ba0836000018373ffffffffffffffffffffffffffffffffffffffff1660001b611c6e565b905092915050565b60008160000154905060008111611bf4576040517f08c379a0000000000000000000000000000000000000000000000000000000008152600401611beb90612885565b60405180910390fd5b6001810382600001819055505050565b6001600081905550565b6001816000016000828254019250508190555050565b6000611c36836000018360001b611d93565b905092915050565b6000611c66836000018373ffffffffffffffffffffffffffffffffffffffff1660001b611d93565b905092915050565b60008083600101600084815260200190815260200160002054905060008114611d76576000600182611ca091906128a5565b9050600060018660000180549050611cb891906128a5565b9050818114611d27576000866000018281548110611cd957611cd86128d9565b5b9060005260206000200154905080876000018481548110611cfd57611cfc6128d9565b5b90600052602060002001819055508387600101600083815260200190815260200160002081905550505b85600001805480611d3b57611d3a612908565b5b600190038181906000526020600020016000905590558560010160008681526020019081526020016000206000905560019350505050611d7c565b60009150505b92915050565b600081600001805490509050919050565b6000611d9f8383611e03565b611df8578260000182908060018154018082558091505060019003906000526020600020016000909190919091505582600001805490508360010160008481526020019081526020016000208190555060019050611dfd565b600090505b92915050565b600080836001016000848152602001908152602001600020541415905092915050565b600080fd5b600073ffffffffffffffffffffffffffffffffffffffff82169050919050565b6000611e5682611e2b565b9050919050565b611e6681611e4b565b8114611e7157600080fd5b50565b600081359050611e8381611e5d565b92915050565b6000819050919050565b611e9c81611e89565b8114611ea757600080fd5b50565b600081359050611eb981611e93565b92915050565b60008060408385031215611ed657611ed5611e26565b5b6000611ee485828601611e74565b9250506020611ef585828601611eaa565b9150509250929050565b600081519050919050565b600082825260208201905092915050565b60005b83811015611f39578082015181840152602081019050611f1e565b60008484015250505050565b6000601f19601f8301169050919050565b6000611f6182611eff565b611f6b8185611f0a565b9350611f7b818560208601611f1b565b611f8481611f45565b840191505092915050565b60006020820190508181036000830152611fa98184611f56565b905092915050565b600080600060608486031215611fca57611fc9611e26565b5b6000611fd886828701611e74565b9350506020611fe986828701611eaa565b9250506040611ffa86828701611eaa565b9150509250925092565b600067ffffffffffffffff82169050919050565b61202181612004565b811461202c57600080fd5b50565b60008135905061203e81612018565b92915050565b60008060006060848603121561205d5761205c611e26565b5b600061206b86828701611e74565b935050602061207c86828701611eaa565b925050604061208d8682870161202f565b9150509250925092565b6000602082840312156120ad576120ac611e26565b5b60006120bb84828501611e74565b91505092915050565b60008115159050919050565b6120d9816120c4565b82525050565b60006020820190506120f460008301846120d0565b92915050565b61210381611e89565b82525050565b600060208201905061211e60008301846120fa565b92915050565b60008151905061213381611e5d565b92915050565b60006020828403121561214f5761214e611e26565b5b600061215d84828501612124565b91505092915050565b61216f81611e4b565b82525050565b600060408201905061218a6000830185612166565b61219760208301846120fa565b9392505050565b7f436f6e7472616374206973206e6f7420616e2045524334393037000000000000600082015250565b60006121d4601a83611f0a565b91506121df8261219e565b602082019050919050565b60006020820190508181036000830152612203816121c7565b9050919050565b7f4e6f74206f776e6572206f66206e667400000000000000000000000000000000600082015250565b6000612240601083611f0a565b915061224b8261220a565b602082019050919050565b6000602082019050818103600083015261226f81612233565b9050919050565b7f52656e74616c2070726963652073686f756c642062652067726561746572207460008201527f68616e2030000000000000000000000000000000000000000000000000000000602082015250565b60006122d2602583611f0a565b91506122dd82612276565b604082019050919050565b60006020820190508181036000830152612301816122c5565b9050919050565b600060608201905061231d60008301866120fa565b61232a60208301856120fa565b61233760408301846120fa565b949350505050565b7f4d6178696d756d206f662031302072656e74616c20646179732061726520616c60008201527f6c6f776564000000000000000000000000000000000000000000000000000000602082015250565b600061239b602583611f0a565b91506123a68261233f565b604082019050919050565b600060208201905081810360008301526123ca8161238e565b9050919050565b7f4e465420616c72656164792072656e7465640000000000000000000000000000600082015250565b6000612407601283611f0a565b9150612412826123d1565b602082019050919050565b60006020820190508181036000830152612436816123fa565b9050919050565b7f4e487b7100000000000000000000000000000000000000000000000000000000600052601160045260246000fd5b600061247782612004565b915061248283612004565b925082820261249081612004565b91508082146124a2576124a161243d565b5b5092915050565b60006124b482612004565b91506124bf83612004565b9250828201905067ffffffffffffffff8111156124df576124de61243d565b5b92915050565b60006124f082611e89565b91506124fb83611e89565b925082820261250981611e89565b915082820484148315176125205761251f61243d565b5b5092915050565b7f4e6f7420656e6f75676820657468657220746f20636f7665722072656e74616c60008201527f20706572696f6400000000000000000000000000000000000000000000000000602082015250565b6000612583602783611f0a565b915061258e82612527565b604082019050919050565b600060208201905081810360008301526125b281612576565b9050919050565b6125c281612004565b82525050565b60006060820190506125dd60008301866120fa565b6125ea6020830185612166565b6125f760408301846125b9565b949350505050565b600060608201905061261460008301866120fa565b61262160208301856125b9565b61262e60408301846120fa565b949350505050565b7f4e6f7420656e6f75676820657468657220666f72206c697374696e6720666565600082015250565b600061266c602083611f0a565b915061267782612636565b602082019050919050565b6000602082019050818103600083015261269b8161265f565b9050919050565b6000819050919050565b6000819050919050565b60006126d16126cc6126c7846126a2565b6126ac565b611e89565b9050919050565b6126e1816126b6565b82525050565b60006060820190506126fc60008301866120fa565b61270960208301856120fa565b61271660408301846126d8565b949350505050565b60007fffffffff0000000000000000000000000000000000000000000000000000000082169050919050565b6127538161271e565b82525050565b600060208201905061276e600083018461274a565b92915050565b61277d816120c4565b811461278857600080fd5b50565b60008151905061279a81612774565b92915050565b6000602082840312156127b6576127b5611e26565b5b60006127c48482850161278b565b91505092915050565b7f5265656e7472616e637947756172643a207265656e7472616e742063616c6c00600082015250565b6000612803601f83611f0a565b915061280e826127cd565b602082019050919050565b60006020820190508181036000830152612832816127f6565b9050919050565b7f436f756e7465723a2064656372656d656e74206f766572666c6f770000000000600082015250565b600061286f601b83611f0a565b915061287a82612839565b602082019050919050565b6000602082019050818103600083015261289e81612862565b9050919050565b60006128b082611e89565b91506128bb83611e89565b92508282039050818111156128d3576128d261243d565b5b92915050565b7f4e487b7100000000000000000000000000000000000000000000000000000000600052603260045260246000fd5b7f4e487b7100000000000000000000000000000000000000000000000000000000600052603160045260246000fdfea26469706673582212203919218a943839b4ae88dee3f2e1c8298d09a535372d50414bd837be9c37096a64736f6c63430008110033",
  "linkReferences": {},
  "deployedLinkReferences": {}
}