{
  "_format": "hh-sol-artifact-1",
  "contractName": "AvianRentExchange",
  "sourceName": "contracts/AvianRentExchange.sol",
  "abi": [
    {
      "inputs": [],
      "stateMutability": "nonpayable",
      "type": "constructor"
    },
    {
      "inputs": [
        {
          "internalType": "address",
          "name": "nftAddress",
          "type": "address"
        },
        {
          "internalType": "uint256",
          "name": "tokenId",
          "type": "uint256"
        }
      ],
      "name": "AlreadyListed",
      "type": "error"
    },
    {
      "inputs": [],
      "name": "NotApprovedForMarketplace",
      "type": "error"
    },
    {
      "inputs": [
        {
          "internalType": "address",
          "name": "nftAddress",
          "type": "address"
        },
        {
          "internalType": "uint256",
          "name": "tokenId",
          "type": "uint256"
        }
      ],
      "name": "NotListed",
      "type": "error"
    },
    {
      "inputs": [],
      "name": "NotOwner",
      "type": "error"
    },
    {
      "anonymous": false,
      "inputs": [
        {
          "indexed": true,
          "internalType": "address",
          "name": "owner",
          "type": "address"
        },
        {
          "indexed": true,
          "internalType": "address",
          "name": "user",
          "type": "address"
        },
        {
          "indexed": true,
          "internalType": "address",
          "name": "nftContract",
          "type": "address"
        },
        {
          "indexed": false,
          "internalType": "uint256",
          "name": "tokenId",
          "type": "uint256"
        },
        {
          "indexed": false,
          "internalType": "uint256",
          "name": "pricePerDay",
          "type": "uint256"
        },
        {
          "indexed": false,
          "internalType": "uint256",
          "name": "expires",
          "type": "uint256"
        }
      ],
      "name": "NFTListed",
      "type": "event"
    },
    {
      "anonymous": false,
      "inputs": [
        {
          "indexed": true,
          "internalType": "address",
          "name": "owner",
          "type": "address"
        },
        {
          "indexed": true,
          "internalType": "address",
          "name": "user",
          "type": "address"
        },
        {
          "indexed": true,
          "internalType": "address",
          "name": "nftContract",
          "type": "address"
        },
        {
          "indexed": false,
          "internalType": "uint256",
          "name": "tokenId",
          "type": "uint256"
        },
        {
          "indexed": false,
          "internalType": "uint64",
          "name": "expires",
          "type": "uint64"
        },
        {
          "indexed": false,
          "internalType": "uint256",
          "name": "rentalFee",
          "type": "uint256"
        }
      ],
      "name": "NFTRented",
      "type": "event"
    },
    {
      "anonymous": false,
      "inputs": [
        {
          "indexed": true,
          "internalType": "address",
          "name": "unlistSender",
          "type": "address"
        },
        {
          "indexed": true,
          "internalType": "address",
          "name": "nftContract",
          "type": "address"
        },
        {
          "indexed": true,
          "internalType": "uint256",
          "name": "tokenId",
          "type": "uint256"
        }
      ],
      "name": "NFTUnlisted",
      "type": "event"
    },
    {
      "inputs": [
        {
          "internalType": "address",
          "name": "nftAddress",
          "type": "address"
        },
        {
          "internalType": "uint256",
          "name": "tokenId",
          "type": "uint256"
        }
      ],
      "name": "getARListing",
      "outputs": [
        {
          "components": [
            {
              "internalType": "address",
              "name": "owner",
              "type": "address"
            },
            {
              "internalType": "address",
              "name": "user",
              "type": "address"
            },
            {
              "internalType": "address",
              "name": "nftContract",
              "type": "address"
            },
            {
              "internalType": "uint256",
              "name": "tokenId",
              "type": "uint256"
            },
            {
              "internalType": "uint256",
              "name": "pricePerDay",
              "type": "uint256"
            },
            {
              "internalType": "uint256",
              "name": "expires",
              "type": "uint256"
            }
          ],
          "internalType": "struct AvianRentExchange.Listing_rent",
          "name": "",
          "type": "tuple"
        }
      ],
      "stateMutability": "view",
      "type": "function"
    },
    {
      "inputs": [],
      "name": "getListingFee",
      "outputs": [
        {
          "internalType": "uint256",
          "name": "",
          "type": "uint256"
        }
      ],
      "stateMutability": "view",
      "type": "function"
    },
    {
      "inputs": [
        {
          "internalType": "address",
          "name": "nftAddress",
          "type": "address"
        }
      ],
      "name": "getRListedAdddressTokens",
      "outputs": [
        {
          "internalType": "uint256[]",
          "name": "",
          "type": "uint256[]"
        }
      ],
      "stateMutability": "view",
      "type": "function"
    },
    {
      "inputs": [],
      "name": "getRListedAdddresses",
      "outputs": [
        {
          "internalType": "address[]",
          "name": "",
          "type": "address[]"
        }
      ],
      "stateMutability": "view",
      "type": "function"
    },
    {
      "inputs": [],
      "name": "getRentListings",
      "outputs": [
        {
          "components": [
            {
              "internalType": "address",
              "name": "owner",
              "type": "address"
            },
            {
              "internalType": "address",
              "name": "user",
              "type": "address"
            },
            {
              "internalType": "address",
              "name": "nftContract",
              "type": "address"
            },
            {
              "internalType": "uint256",
              "name": "tokenId",
              "type": "uint256"
            },
            {
              "internalType": "uint256",
              "name": "pricePerDay",
              "type": "uint256"
            },
            {
              "internalType": "uint256",
              "name": "expires",
              "type": "uint256"
            }
          ],
          "internalType": "struct AvianRentExchange.Listing_rent[]",
          "name": "",
          "type": "tuple[]"
        }
      ],
      "stateMutability": "view",
      "type": "function"
    },
    {
      "inputs": [
        {
          "internalType": "address",
          "name": "nftContract",
          "type": "address"
        }
      ],
      "name": "isNFT",
      "outputs": [
        {
          "internalType": "bool",
          "name": "",
          "type": "bool"
        }
      ],
      "stateMutability": "view",
      "type": "function"
    },
    {
      "inputs": [
        {
          "internalType": "address",
          "name": "nftContract",
          "type": "address"
        }
      ],
      "name": "isRentableNFT",
      "outputs": [
        {
          "internalType": "bool",
          "name": "",
          "type": "bool"
        }
      ],
      "stateMutability": "view",
      "type": "function"
    },
    {
      "inputs": [
        {
          "internalType": "address",
          "name": "nftAddress",
          "type": "address"
        },
        {
          "internalType": "uint256",
          "name": "tokenId",
          "type": "uint256"
        },
        {
          "internalType": "uint256",
          "name": "pricePerDay",
          "type": "uint256"
        }
      ],
      "name": "listNFT",
      "outputs": [
        {
          "internalType": "string",
          "name": "",
          "type": "string"
        }
      ],
      "stateMutability": "payable",
      "type": "function"
    },
    {
      "inputs": [
        {
          "internalType": "address",
          "name": "nftContract",
          "type": "address"
        },
        {
          "internalType": "uint256",
          "name": "tokenId",
          "type": "uint256"
        },
        {
          "internalType": "uint64",
          "name": "numDays",
          "type": "uint64"
        }
      ],
      "name": "rentNFT",
      "outputs": [
        {
          "internalType": "string",
          "name": "",
          "type": "string"
        }
      ],
      "stateMutability": "payable",
      "type": "function"
    },
    {
      "inputs": [
        {
          "internalType": "address",
          "name": "nftAddress",
          "type": "address"
        },
        {
          "internalType": "uint256",
          "name": "tokenId",
          "type": "uint256"
        }
      ],
      "name": "unlistNFT",
      "outputs": [
        {
          "internalType": "string",
          "name": "",
          "type": "string"
        }
      ],
      "stateMutability": "payable",
      "type": "function"
    }
  ],
  "bytecode": "0x6080604052662386f26fc10000600255600a600360006101000a81548167ffffffffffffffff021916908367ffffffffffffffff16021790555034801561004557600080fd5b50600160008190555033600160006101000a81548173ffffffffffffffffffffffffffffffffffffffff021916908373ffffffffffffffffffffffffffffffffffffffff160217905550612eaa8061009e6000396000f3fe6080604052600436106100915760003560e01c80639a34f003116100595780639a34f00314610196578063ad05f1b4146101c6578063b31b85c9146101f6578063b8fe6abe14610233578063e9a6f4f61461025e57610091565b80631578e7c814610096578063555df3cd146100d3578063789df8db146101105780637fc27efd1461013b57806395046b7c1461016b575b600080fd5b3480156100a257600080fd5b506100bd60048036038101906100b8919061201a565b61029b565b6040516100ca91906120f3565b60405180910390f35b3480156100df57600080fd5b506100fa60048036038101906100f5919061210e565b610426565b60405161010791906121ea565b60405180910390f35b34801561011c57600080fd5b5061012561047c565b6040516101329190612336565b60405180910390f35b6101556004803603810190610150919061201a565b610764565b60405161016291906123e8565b60405180910390f35b34801561017757600080fd5b50610180610c5c565b60405161018d91906124b9565b60405180910390f35b6101b060048036038101906101ab919061251b565b610c73565b6040516101bd91906123e8565b60405180910390f35b6101e060048036038101906101db919061256e565b6110d1565b6040516101ed91906123e8565b60405180910390f35b34801561020257600080fd5b5061021d6004803603810190610218919061210e565b611908565b60405161022a91906125dc565b60405180910390f35b34801561023f57600080fd5b506102486119be565b6040516102559190612606565b60405180910390f35b34801561026a57600080fd5b506102856004803603810190610280919061210e565b6119c8565b60405161029291906125dc565b60405180910390f35b6102a3611f09565b600460008473ffffffffffffffffffffffffffffffffffffffff1673ffffffffffffffffffffffffffffffffffffffff16815260200190815260200160002060008381526020019081526020016000206040518060c00160405290816000820160009054906101000a900473ffffffffffffffffffffffffffffffffffffffff1673ffffffffffffffffffffffffffffffffffffffff1673ffffffffffffffffffffffffffffffffffffffff1681526020016001820160009054906101000a900473ffffffffffffffffffffffffffffffffffffffff1673ffffffffffffffffffffffffffffffffffffffff1673ffffffffffffffffffffffffffffffffffffffff1681526020016002820160009054906101000a900473ffffffffffffffffffffffffffffffffffffffff1673ffffffffffffffffffffffffffffffffffffffff1673ffffffffffffffffffffffffffffffffffffffff1681526020016003820154815260200160048201548152602001600582015481525050905092915050565b60606000610471600560008573ffffffffffffffffffffffffffffffffffffffff1673ffffffffffffffffffffffffffffffffffffffff168152602001908152602001600020611b31565b905080915050919050565b6060600061048a6008611b52565b67ffffffffffffffff8111156104a3576104a2612621565b5b6040519080825280602002602001820160405280156104dc57816020015b6104c9611f09565b8152602001906001900390816104c15790505b5090506000806104ec6006611b60565b905060005b815181101561075a57600082828151811061050f5761050e612650565b5b602002602001015190506000610562600560008473ffffffffffffffffffffffffffffffffffffffff1673ffffffffffffffffffffffffffffffffffffffff168152602001908152602001600020611b31565b905060005b815181101561074457600460008473ffffffffffffffffffffffffffffffffffffffff1673ffffffffffffffffffffffffffffffffffffffff16815260200190815260200160002060008383815181106105c4576105c3612650565b5b602002602001015181526020019081526020016000206040518060c00160405290816000820160009054906101000a900473ffffffffffffffffffffffffffffffffffffffff1673ffffffffffffffffffffffffffffffffffffffff1673ffffffffffffffffffffffffffffffffffffffff1681526020016001820160009054906101000a900473ffffffffffffffffffffffffffffffffffffffff1673ffffffffffffffffffffffffffffffffffffffff1673ffffffffffffffffffffffffffffffffffffffff1681526020016002820160009054906101000a900473ffffffffffffffffffffffffffffffffffffffff1673ffffffffffffffffffffffffffffffffffffffff1673ffffffffffffffffffffffffffffffffffffffff168152602001600382015481526020016004820154815260200160058201548152505087878151811061071857610717612650565b5b6020026020010181905250858061072e906126ae565b965050808061073c906126ae565b915050610567565b5050508080610752906126ae565b9150506104f1565b5082935050505090565b606061076e611b81565b828233600083905060008173ffffffffffffffffffffffffffffffffffffffff16636352211e856040518263ffffffff1660e01b81526004016107b19190612606565b602060405180830381865afa1580156107ce573d6000803e3d6000fd5b505050506040513d601f19601f820116820180604052508101906107f2919061270b565b90508073ffffffffffffffffffffffffffffffffffffffff168373ffffffffffffffffffffffffffffffffffffffff1614610859576040517f30cd747100000000000000000000000000000000000000000000000000000000815260040160405180910390fd5b87876000600460008473ffffffffffffffffffffffffffffffffffffffff1673ffffffffffffffffffffffffffffffffffffffff16815260200190815260200160002060008381526020019081526020016000206040518060c00160405290816000820160009054906101000a900473ffffffffffffffffffffffffffffffffffffffff1673ffffffffffffffffffffffffffffffffffffffff1673ffffffffffffffffffffffffffffffffffffffff1681526020016001820160009054906101000a900473ffffffffffffffffffffffffffffffffffffffff1673ffffffffffffffffffffffffffffffffffffffff1673ffffffffffffffffffffffffffffffffffffffff1681526020016002820160009054906101000a900473ffffffffffffffffffffffffffffffffffffffff1673ffffffffffffffffffffffffffffffffffffffff1673ffffffffffffffffffffffffffffffffffffffff168152602001600382015481526020016004820154815260200160058201548152505090506000816080015111610a255782826040517f6831488c000000000000000000000000000000000000000000000000000000008152600401610a1c929190612747565b60405180910390fd5b610a6d600560008d73ffffffffffffffffffffffffffffffffffffffff1673ffffffffffffffffffffffffffffffffffffffff1681526020019081526020016000208b611bd0565b50600460008c73ffffffffffffffffffffffffffffffffffffffff1673ffffffffffffffffffffffffffffffffffffffff16815260200190815260200160002060008b8152602001908152602001600020600080820160006101000a81549073ffffffffffffffffffffffffffffffffffffffff02191690556001820160006101000a81549073ffffffffffffffffffffffffffffffffffffffff02191690556002820160006101000a81549073ffffffffffffffffffffffffffffffffffffffff021916905560038201600090556004820160009055600582016000905550506000610b97600560008e73ffffffffffffffffffffffffffffffffffffffff1673ffffffffffffffffffffffffffffffffffffffff168152602001908152602001600020611bea565b03610ba957610ba760068c611bff565b505b610bb36008611c2f565b898b73ffffffffffffffffffffffffffffffffffffffff163373ffffffffffffffffffffffffffffffffffffffff167f5e22415fbc0319574562e44217526b07e663891c4338550fe529eac37e9e0cb260405160405180910390a46040518060400160405280601981526020017f4e4654205375636365737366756c6c7920756e6c69737465640000000000000081525098505050505050505050610c56611c8b565b92915050565b60606000610c6a6006611b60565b90508091505090565b6060610c7d611b81565b600360009054906101000a900467ffffffffffffffff1667ffffffffffffffff168267ffffffffffffffff161115610cea576040517f08c379a0000000000000000000000000000000000000000000000000000000008152600401610ce1906127e2565b60405180910390fd5b6000600460008673ffffffffffffffffffffffffffffffffffffffff1673ffffffffffffffffffffffffffffffffffffffff16815260200190815260200160002060008581526020019081526020016000209050600073ffffffffffffffffffffffffffffffffffffffff168160010160009054906101000a900473ffffffffffffffffffffffffffffffffffffffff1673ffffffffffffffffffffffffffffffffffffffff161480610da05750806005015442115b610ddf576040517f08c379a0000000000000000000000000000000000000000000000000000000008152600401610dd69061284e565b60405180910390fd5b60006201518084610df0919061286e565b42610dfb91906128ab565b905060008467ffffffffffffffff168360040154610e1991906128e7565b905080341015610e5e576040517f08c379a0000000000000000000000000000000000000000000000000000000008152600401610e559061299b565b60405180910390fd5b8260000160009054906101000a900473ffffffffffffffffffffffffffffffffffffffff1673ffffffffffffffffffffffffffffffffffffffff166108fc829081150290604051600060405180830381858888f19350505050158015610ec8573d6000803e3d6000fd5b508673ffffffffffffffffffffffffffffffffffffffff1663e030565e8733856040518463ffffffff1660e01b8152600401610f06939291906129ca565b600060405180830381600087803b158015610f2057600080fd5b505af1158015610f34573d6000803e3d6000fd5b50505050338360010160006101000a81548173ffffffffffffffffffffffffffffffffffffffff021916908373ffffffffffffffffffffffffffffffffffffffff1602179055508167ffffffffffffffff1683600501819055508673ffffffffffffffffffffffffffffffffffffffff163373ffffffffffffffffffffffffffffffffffffffff168873ffffffffffffffffffffffffffffffffffffffff16636352211e896040518263ffffffff1660e01b8152600401610ff59190612606565b602060405180830381865afa158015611012573d6000803e3d6000fd5b505050506040513d601f19601f82011682018060405250810190611036919061270b565b73ffffffffffffffffffffffffffffffffffffffff167f11f8383374cb9462b2e00ec58deeceb0b52d3cc18d674282a3b1dec46676ecb289868660405161107f93929190612a01565b60405180910390a46040518060400160405280601781526020017f4e4654207375636365737366756c6c792072656e74656400000000000000000081525093505050506110ca611c8b565b9392505050565b60606110db611b81565b83836000600460008473ffffffffffffffffffffffffffffffffffffffff1673ffffffffffffffffffffffffffffffffffffffff16815260200190815260200160002060008381526020019081526020016000206040518060c00160405290816000820160009054906101000a900473ffffffffffffffffffffffffffffffffffffffff1673ffffffffffffffffffffffffffffffffffffffff1673ffffffffffffffffffffffffffffffffffffffff1681526020016001820160009054906101000a900473ffffffffffffffffffffffffffffffffffffffff1673ffffffffffffffffffffffffffffffffffffffff1673ffffffffffffffffffffffffffffffffffffffff1681526020016002820160009054906101000a900473ffffffffffffffffffffffffffffffffffffffff1673ffffffffffffffffffffffffffffffffffffffff1673ffffffffffffffffffffffffffffffffffffffff168152602001600382015481526020016004820154815260200160058201548152505090506000816080015111156112a85782826040517f4a5568d500000000000000000000000000000000000000000000000000000000815260040161129f929190612747565b60405180910390fd5b6112b1876119c8565b6112f0576040517f08c379a00000000000000000000000000000000000000000000000000000000081526004016112e790612a84565b60405180910390fd5b3373ffffffffffffffffffffffffffffffffffffffff168773ffffffffffffffffffffffffffffffffffffffff16636352211e886040518263ffffffff1660e01b81526004016113409190612606565b602060405180830381865afa15801561135d573d6000803e3d6000fd5b505050506040513d601f19601f82011682018060405250810190611381919061270b565b73ffffffffffffffffffffffffffffffffffffffff16146113d7576040517f08c379a00000000000000000000000000000000000000000000000000000000081526004016113ce90612af0565b60405180910390fd5b600254341461141b576040517f08c379a000000000000000000000000000000000000000000000000000000000815260040161141290612b5c565b60405180910390fd5b6000851161145e576040517f08c379a000000000000000000000000000000000000000000000000000000000815260040161145590612bee565b60405180910390fd5b60008790503073ffffffffffffffffffffffffffffffffffffffff168173ffffffffffffffffffffffffffffffffffffffff1663081812fc896040518263ffffffff1660e01b81526004016114b39190612606565b602060405180830381865afa1580156114d0573d6000803e3d6000fd5b505050506040513d601f19601f820116820180604052508101906114f4919061270b565b73ffffffffffffffffffffffffffffffffffffffff1614611541576040517f4be3a2c500000000000000000000000000000000000000000000000000000000815260040160405180910390fd5b600160009054906101000a900473ffffffffffffffffffffffffffffffffffffffff1673ffffffffffffffffffffffffffffffffffffffff166108fc6002549081150290604051600060405180830381858888f193505050501580156115ab573d6000803e3d6000fd5b506040518060c001604052803373ffffffffffffffffffffffffffffffffffffffff168152602001600073ffffffffffffffffffffffffffffffffffffffff1681526020018973ffffffffffffffffffffffffffffffffffffffff1681526020018881526020018781526020016000815250600460008a73ffffffffffffffffffffffffffffffffffffffff1673ffffffffffffffffffffffffffffffffffffffff168152602001908152602001600020600089815260200190815260200160002060008201518160000160006101000a81548173ffffffffffffffffffffffffffffffffffffffff021916908373ffffffffffffffffffffffffffffffffffffffff16021790555060208201518160010160006101000a81548173ffffffffffffffffffffffffffffffffffffffff021916908373ffffffffffffffffffffffffffffffffffffffff16021790555060408201518160020160006101000a81548173ffffffffffffffffffffffffffffffffffffffff021916908373ffffffffffffffffffffffffffffffffffffffff160217905550606082015181600301556080820151816004015560a0820151816005015590505061176d6008611c95565b6117b5600560008a73ffffffffffffffffffffffffffffffffffffffff1673ffffffffffffffffffffffffffffffffffffffff16815260200190815260200160002088611cab565b506117c1600689611cc5565b508773ffffffffffffffffffffffffffffffffffffffff16600073ffffffffffffffffffffffffffffffffffffffff168973ffffffffffffffffffffffffffffffffffffffff16636352211e8a6040518263ffffffff1660e01b815260040161182a9190612606565b602060405180830381865afa158015611847573d6000803e3d6000fd5b505050506040513d601f19601f8201168201806040525081019061186b919061270b565b73ffffffffffffffffffffffffffffffffffffffff167faf52e9d89a64bb9dec8228f11a14d277ed84b62f248715f1798456fa437278398a8a60006040516118b593929190612c53565b60405180910390a46040518060400160405280601781526020017f4e4654205375636365737366756c6c79206c6973746564000000000000000000815250945050505050611901611c8b565b9392505050565b600080600090508273ffffffffffffffffffffffffffffffffffffffff166301ffc9a77f80ac58cd000000000000000000000000000000000000000000000000000000006040518263ffffffff1660e01b81526004016119689190612cc5565b602060405180830381865afa9250505080156119a257506040513d601f19601f8201168201806040525081019061199f9190612d0c565b60015b6119b05760009150506119b9565b80915050809150505b919050565b6000600254905090565b6000806000905060008373ffffffffffffffffffffffffffffffffffffffff166301ffc9a77fad092b5c000000000000000000000000000000000000000000000000000000006040518263ffffffff1660e01b8152600401611a2a9190612cc5565b602060405180830381865afa925050508015611a6457506040513d601f19601f82011682018060405250810190611a619190612d0c565b60015b611a7357600092505050611b2c565b809250508373ffffffffffffffffffffffffffffffffffffffff166301ffc9a77f80ac58cd000000000000000000000000000000000000000000000000000000006040518263ffffffff1660e01b8152600401611ad09190612cc5565b602060405180830381865afa925050508015611b0a57506040513d601f19601f82011682018060405250810190611b079190612d0c565b60015b611b1957600092505050611b2c565b80915050818015611b275750805b925050505b919050565b60606000611b4183600001611cf5565b905060608190508092505050919050565b600081600001549050919050565b60606000611b7083600001611cf5565b905060608190508092505050919050565b600260005403611bc6576040517f08c379a0000000000000000000000000000000000000000000000000000000008152600401611bbd90612d85565b60405180910390fd5b6002600081905550565b6000611be2836000018360001b611d51565b905092915050565b6000611bf882600001611e65565b9050919050565b6000611c27836000018373ffffffffffffffffffffffffffffffffffffffff1660001b611d51565b905092915050565b60008160000154905060008111611c7b576040517f08c379a0000000000000000000000000000000000000000000000000000000008152600401611c7290612df1565b60405180910390fd5b6001810382600001819055505050565b6001600081905550565b6001816000016000828254019250508190555050565b6000611cbd836000018360001b611e76565b905092915050565b6000611ced836000018373ffffffffffffffffffffffffffffffffffffffff1660001b611e76565b905092915050565b606081600001805480602002602001604051908101604052809291908181526020018280548015611d4557602002820191906000526020600020905b815481526020019060010190808311611d31575b50505050509050919050565b60008083600101600084815260200190815260200160002054905060008114611e59576000600182611d839190612e11565b9050600060018660000180549050611d9b9190612e11565b9050818114611e0a576000866000018281548110611dbc57611dbb612650565b5b9060005260206000200154905080876000018481548110611de057611ddf612650565b5b90600052602060002001819055508387600101600083815260200190815260200160002081905550505b85600001805480611e1e57611e1d612e45565b5b600190038181906000526020600020016000905590558560010160008681526020019081526020016000206000905560019350505050611e5f565b60009150505b92915050565b600081600001805490509050919050565b6000611e828383611ee6565b611edb578260000182908060018154018082558091505060019003906000526020600020016000909190919091505582600001805490508360010160008481526020019081526020016000208190555060019050611ee0565b600090505b92915050565b600080836001016000848152602001908152602001600020541415905092915050565b6040518060c00160405280600073ffffffffffffffffffffffffffffffffffffffff168152602001600073ffffffffffffffffffffffffffffffffffffffff168152602001600073ffffffffffffffffffffffffffffffffffffffff1681526020016000815260200160008152602001600081525090565b600080fd5b600073ffffffffffffffffffffffffffffffffffffffff82169050919050565b6000611fb182611f86565b9050919050565b611fc181611fa6565b8114611fcc57600080fd5b50565b600081359050611fde81611fb8565b92915050565b6000819050919050565b611ff781611fe4565b811461200257600080fd5b50565b60008135905061201481611fee565b92915050565b6000806040838503121561203157612030611f81565b5b600061203f85828601611fcf565b925050602061205085828601612005565b9150509250929050565b61206381611fa6565b82525050565b61207281611fe4565b82525050565b60c08201600082015161208e600085018261205a565b5060208201516120a1602085018261205a565b5060408201516120b4604085018261205a565b5060608201516120c76060850182612069565b5060808201516120da6080850182612069565b5060a08201516120ed60a0850182612069565b50505050565b600060c0820190506121086000830184612078565b92915050565b60006020828403121561212457612123611f81565b5b600061213284828501611fcf565b91505092915050565b600081519050919050565b600082825260208201905092915050565b6000819050602082019050919050565b60006121738383612069565b60208301905092915050565b6000602082019050919050565b60006121978261213b565b6121a18185612146565b93506121ac83612157565b8060005b838110156121dd5781516121c48882612167565b97506121cf8361217f565b9250506001810190506121b0565b5085935050505092915050565b60006020820190508181036000830152612204818461218c565b905092915050565b600081519050919050565b600082825260208201905092915050565b6000819050602082019050919050565b60c08201600082015161224e600085018261205a565b506020820151612261602085018261205a565b506040820151612274604085018261205a565b5060608201516122876060850182612069565b50608082015161229a6080850182612069565b5060a08201516122ad60a0850182612069565b50505050565b60006122bf8383612238565b60c08301905092915050565b6000602082019050919050565b60006122e38261220c565b6122ed8185612217565b93506122f883612228565b8060005b8381101561232957815161231088826122b3565b975061231b836122cb565b9250506001810190506122fc565b5085935050505092915050565b6000602082019050818103600083015261235081846122d8565b905092915050565b600081519050919050565b600082825260208201905092915050565b60005b83811015612392578082015181840152602081019050612377565b60008484015250505050565b6000601f19601f8301169050919050565b60006123ba82612358565b6123c48185612363565b93506123d4818560208601612374565b6123dd8161239e565b840191505092915050565b6000602082019050818103600083015261240281846123af565b905092915050565b600081519050919050565b600082825260208201905092915050565b6000819050602082019050919050565b6000612442838361205a565b60208301905092915050565b6000602082019050919050565b60006124668261240a565b6124708185612415565b935061247b83612426565b8060005b838110156124ac5781516124938882612436565b975061249e8361244e565b92505060018101905061247f565b5085935050505092915050565b600060208201905081810360008301526124d3818461245b565b905092915050565b600067ffffffffffffffff82169050919050565b6124f8816124db565b811461250357600080fd5b50565b600081359050612515816124ef565b92915050565b60008060006060848603121561253457612533611f81565b5b600061254286828701611fcf565b935050602061255386828701612005565b925050604061256486828701612506565b9150509250925092565b60008060006060848603121561258757612586611f81565b5b600061259586828701611fcf565b93505060206125a686828701612005565b92505060406125b786828701612005565b9150509250925092565b60008115159050919050565b6125d6816125c1565b82525050565b60006020820190506125f160008301846125cd565b92915050565b61260081611fe4565b82525050565b600060208201905061261b60008301846125f7565b92915050565b7f4e487b7100000000000000000000000000000000000000000000000000000000600052604160045260246000fd5b7f4e487b7100000000000000000000000000000000000000000000000000000000600052603260045260246000fd5b7f4e487b7100000000000000000000000000000000000000000000000000000000600052601160045260246000fd5b60006126b982611fe4565b91507fffffffffffffffffffffffffffffffffffffffffffffffffffffffffffffffff82036126eb576126ea61267f565b5b600182019050919050565b60008151905061270581611fb8565b92915050565b60006020828403121561272157612720611f81565b5b600061272f848285016126f6565b91505092915050565b61274181611fa6565b82525050565b600060408201905061275c6000830185612738565b61276960208301846125f7565b9392505050565b7f4d6178696d756d206f662031302072656e74616c20646179732061726520616c60008201527f6c6f776564000000000000000000000000000000000000000000000000000000602082015250565b60006127cc602583612363565b91506127d782612770565b604082019050919050565b600060208201905081810360008301526127fb816127bf565b9050919050565b7f4e465420616c72656164792072656e7465640000000000000000000000000000600082015250565b6000612838601283612363565b915061284382612802565b602082019050919050565b600060208201905081810360008301526128678161282b565b9050919050565b6000612879826124db565b9150612884836124db565b9250828202612892816124db565b91508082146128a4576128a361267f565b5b5092915050565b60006128b6826124db565b91506128c1836124db565b9250828201905067ffffffffffffffff8111156128e1576128e061267f565b5b92915050565b60006128f282611fe4565b91506128fd83611fe4565b925082820261290b81611fe4565b915082820484148315176129225761292161267f565b5b5092915050565b7f4e6f7420656e6f75676820657468657220746f20636f7665722072656e74616c60008201527f20706572696f6400000000000000000000000000000000000000000000000000602082015250565b6000612985602783612363565b915061299082612929565b604082019050919050565b600060208201905081810360008301526129b481612978565b9050919050565b6129c4816124db565b82525050565b60006060820190506129df60008301866125f7565b6129ec6020830185612738565b6129f960408301846129bb565b949350505050565b6000606082019050612a1660008301866125f7565b612a2360208301856129bb565b612a3060408301846125f7565b949350505050565b7f436f6e7472616374206973206e6f7420616e2045524334393037000000000000600082015250565b6000612a6e601a83612363565b9150612a7982612a38565b602082019050919050565b60006020820190508181036000830152612a9d81612a61565b9050919050565b7f4e6f74206f776e6572206f66206e667400000000000000000000000000000000600082015250565b6000612ada601083612363565b9150612ae582612aa4565b602082019050919050565b60006020820190508181036000830152612b0981612acd565b9050919050565b7f4e6f7420656e6f75676820657468657220666f72206c697374696e6720666565600082015250565b6000612b46602083612363565b9150612b5182612b10565b602082019050919050565b60006020820190508181036000830152612b7581612b39565b9050919050565b7f52656e74616c2070726963652073686f756c642062652067726561746572207460008201527f68616e2030000000000000000000000000000000000000000000000000000000602082015250565b6000612bd8602583612363565b9150612be382612b7c565b604082019050919050565b60006020820190508181036000830152612c0781612bcb565b9050919050565b6000819050919050565b6000819050919050565b6000612c3d612c38612c3384612c0e565b612c18565b611fe4565b9050919050565b612c4d81612c22565b82525050565b6000606082019050612c6860008301866125f7565b612c7560208301856125f7565b612c826040830184612c44565b949350505050565b60007fffffffff0000000000000000000000000000000000000000000000000000000082169050919050565b612cbf81612c8a565b82525050565b6000602082019050612cda6000830184612cb6565b92915050565b612ce9816125c1565b8114612cf457600080fd5b50565b600081519050612d0681612ce0565b92915050565b600060208284031215612d2257612d21611f81565b5b6000612d3084828501612cf7565b91505092915050565b7f5265656e7472616e637947756172643a207265656e7472616e742063616c6c00600082015250565b6000612d6f601f83612363565b9150612d7a82612d39565b602082019050919050565b60006020820190508181036000830152612d9e81612d62565b9050919050565b7f436f756e7465723a2064656372656d656e74206f766572666c6f770000000000600082015250565b6000612ddb601b83612363565b9150612de682612da5565b602082019050919050565b60006020820190508181036000830152612e0a81612dce565b9050919050565b6000612e1c82611fe4565b9150612e2783611fe4565b9250828203905081811115612e3f57612e3e61267f565b5b92915050565b7f4e487b7100000000000000000000000000000000000000000000000000000000600052603160045260246000fdfea2646970667358221220a0e812b4121d8a00ebba0e030151268ab05c29a0f7e11778975cefad261493d364736f6c63430008110033",
  "linkReferences": {},
  "deployedLinkReferences": {}
}