{
  "_format": "hh-sol-artifact-1",
  "contractName": "AvianRentExchange",
  "sourceName": "contracts/AvianRentExchange.sol",
  "abi": [
    {
      "inputs": [],
      "stateMutability": "nonpayable",
      "type": "constructor"
    },
    {
      "inputs": [
        {
          "internalType": "address",
          "name": "nftAddress",
          "type": "address"
        },
        {
          "internalType": "uint256",
          "name": "tokenId",
          "type": "uint256"
        }
      ],
      "name": "AlreadyListed",
      "type": "error"
    },
    {
      "inputs": [
        {
          "internalType": "address",
          "name": "nftAddress",
          "type": "address"
        },
        {
          "internalType": "uint256",
          "name": "tokenId",
          "type": "uint256"
        }
      ],
      "name": "NotListed",
      "type": "error"
    },
    {
      "inputs": [],
      "name": "NotOwner",
      "type": "error"
    },
    {
      "anonymous": false,
      "inputs": [
        {
          "indexed": true,
          "internalType": "address",
          "name": "owner",
          "type": "address"
        },
        {
          "indexed": true,
          "internalType": "address",
          "name": "user",
          "type": "address"
        },
        {
          "indexed": true,
          "internalType": "address",
          "name": "nftContract",
          "type": "address"
        },
        {
          "indexed": false,
          "internalType": "uint256",
          "name": "tokenId",
          "type": "uint256"
        },
        {
          "indexed": false,
          "internalType": "uint256",
          "name": "pricePerDay",
          "type": "uint256"
        },
        {
          "indexed": false,
          "internalType": "uint256",
          "name": "expires",
          "type": "uint256"
        }
      ],
      "name": "NFTListed",
      "type": "event"
    },
    {
      "anonymous": false,
      "inputs": [
        {
          "indexed": true,
          "internalType": "address",
          "name": "owner",
          "type": "address"
        },
        {
          "indexed": true,
          "internalType": "address",
          "name": "user",
          "type": "address"
        },
        {
          "indexed": true,
          "internalType": "address",
          "name": "nftContract",
          "type": "address"
        },
        {
          "indexed": false,
          "internalType": "uint256",
          "name": "tokenId",
          "type": "uint256"
        },
        {
          "indexed": false,
          "internalType": "uint64",
          "name": "expires",
          "type": "uint64"
        },
        {
          "indexed": false,
          "internalType": "uint256",
          "name": "rentalFee",
          "type": "uint256"
        }
      ],
      "name": "NFTRented",
      "type": "event"
    },
    {
      "anonymous": false,
      "inputs": [
        {
          "indexed": true,
          "internalType": "address",
          "name": "unlistSender",
          "type": "address"
        },
        {
          "indexed": true,
          "internalType": "address",
          "name": "nftContract",
          "type": "address"
        },
        {
          "indexed": true,
          "internalType": "uint256",
          "name": "tokenId",
          "type": "uint256"
        }
      ],
      "name": "NFTUnlisted",
      "type": "event"
    },
    {
      "inputs": [
        {
          "internalType": "address",
          "name": "nftContract",
          "type": "address"
        }
      ],
      "name": "isNFT",
      "outputs": [
        {
          "internalType": "bool",
          "name": "",
          "type": "bool"
        }
      ],
      "stateMutability": "view",
      "type": "function"
    },
    {
      "inputs": [
        {
          "internalType": "address",
          "name": "nftContract",
          "type": "address"
        }
      ],
      "name": "isRentableNFT",
      "outputs": [
        {
          "internalType": "bool",
          "name": "",
          "type": "bool"
        }
      ],
      "stateMutability": "view",
      "type": "function"
    },
    {
      "inputs": [
        {
          "internalType": "address",
          "name": "nftAddress",
          "type": "address"
        },
        {
          "internalType": "uint256",
          "name": "tokenId",
          "type": "uint256"
        },
        {
          "internalType": "uint256",
          "name": "price",
          "type": "uint256"
        }
      ],
      "name": "listNFT",
      "outputs": [
        {
          "internalType": "string",
          "name": "",
          "type": "string"
        }
      ],
      "stateMutability": "payable",
      "type": "function"
    },
    {
      "inputs": [
        {
          "internalType": "address",
          "name": "nftAddress",
          "type": "address"
        },
        {
          "internalType": "uint256",
          "name": "tokenId",
          "type": "uint256"
        },
        {
          "internalType": "uint64",
          "name": "numDays",
          "type": "uint64"
        }
      ],
      "name": "rentNFT",
      "outputs": [
        {
          "internalType": "string",
          "name": "",
          "type": "string"
        }
      ],
      "stateMutability": "payable",
      "type": "function"
    },
    {
      "inputs": [
        {
          "internalType": "address",
          "name": "nftAddress",
          "type": "address"
        },
        {
          "internalType": "uint256",
          "name": "tokenId",
          "type": "uint256"
        }
      ],
      "name": "unlistNFT",
      "outputs": [
        {
          "internalType": "string",
          "name": "",
          "type": "string"
        }
      ],
      "stateMutability": "nonpayable",
      "type": "function"
    },
    {
      "inputs": [
        {
          "internalType": "address",
          "name": "nftAddress",
          "type": "address"
        },
        {
          "internalType": "uint256",
          "name": "tokenId",
          "type": "uint256"
        },
        {
          "internalType": "uint256",
          "name": "price",
          "type": "uint256"
        }
      ],
      "name": "updateRentNFT",
      "outputs": [
        {
          "internalType": "string",
          "name": "",
          "type": "string"
        }
      ],
      "stateMutability": "nonpayable",
      "type": "function"
    }
  ],
  "bytecode": "0x6080604052662386f26fc10000600255600a600360006101000a81548167ffffffffffffffff021916908367ffffffffffffffff16021790555034801561004557600080fd5b50600160008190555033600160006101000a81548173ffffffffffffffffffffffffffffffffffffffff021916908373ffffffffffffffffffffffffffffffffffffffff160217905550612c048061009e6000396000f3fe6080604052600436106100555760003560e01c80637fc27efd1461005a578063979bcbb2146100975780639a34f003146100d4578063ad05f1b414610104578063b31b85c914610134578063e9a6f4f614610171575b600080fd5b34801561006657600080fd5b50610081600480360381019061007c919061213a565b6101ae565b60405161008e919061220a565b60405180910390f35b3480156100a357600080fd5b506100be60048036038101906100b9919061222c565b61069c565b6040516100cb919061220a565b60405180910390f35b6100ee60048036038101906100e991906122bf565b610b10565b6040516100fb919061220a565b60405180910390f35b61011e6004803603810190610119919061222c565b6112b2565b60405161012b919061220a565b60405180910390f35b34801561014057600080fd5b5061015b60048036038101906101569190612312565b611a44565b604051610168919061235a565b60405180910390f35b34801561017d57600080fd5b5061019860048036038101906101939190612312565b611afa565b6040516101a5919061235a565b60405180910390f35b60606101b8611c63565b828233600083905060008173ffffffffffffffffffffffffffffffffffffffff16636352211e856040518263ffffffff1660e01b81526004016101fb9190612384565b602060405180830381865afa158015610218573d6000803e3d6000fd5b505050506040513d601f19601f8201168201806040525081019061023c91906123b4565b90508073ffffffffffffffffffffffffffffffffffffffff168373ffffffffffffffffffffffffffffffffffffffff16146102a3576040517f30cd747100000000000000000000000000000000000000000000000000000000815260040160405180910390fd5b87876000600460008473ffffffffffffffffffffffffffffffffffffffff1673ffffffffffffffffffffffffffffffffffffffff16815260200190815260200160002060008381526020019081526020016000206040518060c00160405290816000820160009054906101000a900473ffffffffffffffffffffffffffffffffffffffff1673ffffffffffffffffffffffffffffffffffffffff1673ffffffffffffffffffffffffffffffffffffffff1681526020016001820160009054906101000a900473ffffffffffffffffffffffffffffffffffffffff1673ffffffffffffffffffffffffffffffffffffffff1673ffffffffffffffffffffffffffffffffffffffff1681526020016002820160009054906101000a900473ffffffffffffffffffffffffffffffffffffffff1673ffffffffffffffffffffffffffffffffffffffff1673ffffffffffffffffffffffffffffffffffffffff16815260200160038201548152602001600482015481526020016005820154815250509050600081608001511161046f5782826040517f6831488c0000000000000000000000000000000000000000000000000000000081526004016104669291906123f0565b60405180910390fd5b6104b7600560008d73ffffffffffffffffffffffffffffffffffffffff1673ffffffffffffffffffffffffffffffffffffffff1681526020019081526020016000208b611cb2565b50600460008c73ffffffffffffffffffffffffffffffffffffffff1673ffffffffffffffffffffffffffffffffffffffff16815260200190815260200160002060008b8152602001908152602001600020600080820160006101000a81549073ffffffffffffffffffffffffffffffffffffffff02191690556001820160006101000a81549073ffffffffffffffffffffffffffffffffffffffff02191690556002820160006101000a81549073ffffffffffffffffffffffffffffffffffffffff0219169055600382016000905560048201600090556005820160009055505060006105e1600560008e73ffffffffffffffffffffffffffffffffffffffff1673ffffffffffffffffffffffffffffffffffffffff168152602001908152602001600020611ccc565b036105f3576105f160068c611ce1565b505b898b73ffffffffffffffffffffffffffffffffffffffff163373ffffffffffffffffffffffffffffffffffffffff167f5e22415fbc0319574562e44217526b07e663891c4338550fe529eac37e9e0cb260405160405180910390a46040518060400160405280601981526020017f4e4654205375636365737366756c6c7920756e6c69737465640000000000000081525098505050505050505050610696611d11565b92915050565b60606106a6611c63565b83836000600460008473ffffffffffffffffffffffffffffffffffffffff1673ffffffffffffffffffffffffffffffffffffffff16815260200190815260200160002060008381526020019081526020016000206040518060c00160405290816000820160009054906101000a900473ffffffffffffffffffffffffffffffffffffffff1673ffffffffffffffffffffffffffffffffffffffff1673ffffffffffffffffffffffffffffffffffffffff1681526020016001820160009054906101000a900473ffffffffffffffffffffffffffffffffffffffff1673ffffffffffffffffffffffffffffffffffffffff1673ffffffffffffffffffffffffffffffffffffffff1681526020016002820160009054906101000a900473ffffffffffffffffffffffffffffffffffffffff1673ffffffffffffffffffffffffffffffffffffffff1673ffffffffffffffffffffffffffffffffffffffff1681526020016003820154815260200160048201548152602001600582015481525050905060008160800151116108725782826040517f6831488c0000000000000000000000000000000000000000000000000000000081526004016108699291906123f0565b60405180910390fd5b3373ffffffffffffffffffffffffffffffffffffffff168773ffffffffffffffffffffffffffffffffffffffff16636352211e886040518263ffffffff1660e01b81526004016108c29190612384565b602060405180830381865afa1580156108df573d6000803e3d6000fd5b505050506040513d601f19601f8201168201806040525081019061090391906123b4565b73ffffffffffffffffffffffffffffffffffffffff1614610959576040517f08c379a000000000000000000000000000000000000000000000000000000000815260040161095090612465565b60405180910390fd5b6000851161099c576040517f08c379a0000000000000000000000000000000000000000000000000000000008152600401610993906124d1565b60405180910390fd5b6000600460008973ffffffffffffffffffffffffffffffffffffffff1673ffffffffffffffffffffffffffffffffffffffff168152602001908152602001600020600088815260200190815260200160002090508581600401819055508773ffffffffffffffffffffffffffffffffffffffff168160010160009054906101000a900473ffffffffffffffffffffffffffffffffffffffff1673ffffffffffffffffffffffffffffffffffffffff168260000160009054906101000a900473ffffffffffffffffffffffffffffffffffffffff1673ffffffffffffffffffffffffffffffffffffffff167faf52e9d89a64bb9dec8228f11a14d277ed84b62f248715f1798456fa437278398a8a8660050154604051610abd939291906124f1565b60405180910390a46040518060400160405280601781526020017f4e4654205375636365737366756c6c79206c6973746564000000000000000000815250945050505050610b09611d11565b9392505050565b6060610b1a611c63565b83836000600460008473ffffffffffffffffffffffffffffffffffffffff1673ffffffffffffffffffffffffffffffffffffffff16815260200190815260200160002060008381526020019081526020016000206040518060c00160405290816000820160009054906101000a900473ffffffffffffffffffffffffffffffffffffffff1673ffffffffffffffffffffffffffffffffffffffff1673ffffffffffffffffffffffffffffffffffffffff1681526020016001820160009054906101000a900473ffffffffffffffffffffffffffffffffffffffff1673ffffffffffffffffffffffffffffffffffffffff1673ffffffffffffffffffffffffffffffffffffffff1681526020016002820160009054906101000a900473ffffffffffffffffffffffffffffffffffffffff1673ffffffffffffffffffffffffffffffffffffffff1673ffffffffffffffffffffffffffffffffffffffff168152602001600382015481526020016004820154815260200160058201548152505090506000816080015111610ce65782826040517f6831488c000000000000000000000000000000000000000000000000000000008152600401610cdd9291906123f0565b60405180910390fd5b610cf08787611d1b565b610d2f576040517f08c379a0000000000000000000000000000000000000000000000000000000008152600401610d2690612574565b60405180910390fd5b600360009054906101000a900467ffffffffffffffff1667ffffffffffffffff168567ffffffffffffffff161115610d9c576040517f08c379a0000000000000000000000000000000000000000000000000000000008152600401610d9390612606565b60405180910390fd5b610da68787611de3565b610de5576040517f08c379a0000000000000000000000000000000000000000000000000000000008152600401610ddc90612672565b60405180910390fd5b6000600460008973ffffffffffffffffffffffffffffffffffffffff1673ffffffffffffffffffffffffffffffffffffffff1681526020019081526020016000206000888152602001908152602001600020905060008667ffffffffffffffff168260040154610e5591906126c1565b905080341015610e9a576040517f08c379a0000000000000000000000000000000000000000000000000000000008152600401610e9190612775565b60405180910390fd5b60006201518088610eab9190612795565b42610eb691906127d2565b90508973ffffffffffffffffffffffffffffffffffffffff1663e030565e8a33846040518463ffffffff1660e01b8152600401610ef59392919061281d565b600060405180830381600087803b158015610f0f57600080fd5b505af1158015610f23573d6000803e3d6000fd5b50505050338360010160006101000a81548173ffffffffffffffffffffffffffffffffffffffff021916908373ffffffffffffffffffffffffffffffffffffffff1602179055508067ffffffffffffffff1683600501819055508260000160009054906101000a900473ffffffffffffffffffffffffffffffffffffffff1673ffffffffffffffffffffffffffffffffffffffff166108fc839081150290604051600060405180830381858888f19350505050158015610fe7573d6000803e3d6000fd5b50611030600560008c73ffffffffffffffffffffffffffffffffffffffff1673ffffffffffffffffffffffffffffffffffffffff1681526020019081526020016000208a611cb2565b50600460008b73ffffffffffffffffffffffffffffffffffffffff1673ffffffffffffffffffffffffffffffffffffffff16815260200190815260200160002060008a8152602001908152602001600020600080820160006101000a81549073ffffffffffffffffffffffffffffffffffffffff02191690556001820160006101000a81549073ffffffffffffffffffffffffffffffffffffffff02191690556002820160006101000a81549073ffffffffffffffffffffffffffffffffffffffff02191690556003820160009055600482016000905560058201600090555050600061115a600560008d73ffffffffffffffffffffffffffffffffffffffff1673ffffffffffffffffffffffffffffffffffffffff168152602001908152602001600020611ccc565b0361116c5761116a60068b611ce1565b505b8973ffffffffffffffffffffffffffffffffffffffff163373ffffffffffffffffffffffffffffffffffffffff168b73ffffffffffffffffffffffffffffffffffffffff16636352211e8c6040518263ffffffff1660e01b81526004016111d39190612384565b602060405180830381865afa1580156111f0573d6000803e3d6000fd5b505050506040513d601f19601f8201168201806040525081019061121491906123b4565b73ffffffffffffffffffffffffffffffffffffffff167f11f8383374cb9462b2e00ec58deeceb0b52d3cc18d674282a3b1dec46676ecb28c858760405161125d93929190612854565b60405180910390a46040518060400160405280601781526020017f4e4654207375636365737366756c6c792072656e74656400000000000000000081525096505050505050506112ab611d11565b9392505050565b60606112bc611c63565b83836000600460008473ffffffffffffffffffffffffffffffffffffffff1673ffffffffffffffffffffffffffffffffffffffff16815260200190815260200160002060008381526020019081526020016000206040518060c00160405290816000820160009054906101000a900473ffffffffffffffffffffffffffffffffffffffff1673ffffffffffffffffffffffffffffffffffffffff1673ffffffffffffffffffffffffffffffffffffffff1681526020016001820160009054906101000a900473ffffffffffffffffffffffffffffffffffffffff1673ffffffffffffffffffffffffffffffffffffffff1673ffffffffffffffffffffffffffffffffffffffff1681526020016002820160009054906101000a900473ffffffffffffffffffffffffffffffffffffffff1673ffffffffffffffffffffffffffffffffffffffff1673ffffffffffffffffffffffffffffffffffffffff168152602001600382015481526020016004820154815260200160058201548152505090506000816080015111156114895782826040517f4a5568d50000000000000000000000000000000000000000000000000000000081526004016114809291906123f0565b60405180910390fd5b6114938787611d1b565b6114d2576040517f08c379a00000000000000000000000000000000000000000000000000000000081526004016114c990612574565b60405180910390fd5b6114db87611afa565b61151a576040517f08c379a0000000000000000000000000000000000000000000000000000000008152600401611511906128d7565b60405180910390fd5b3373ffffffffffffffffffffffffffffffffffffffff168773ffffffffffffffffffffffffffffffffffffffff16636352211e886040518263ffffffff1660e01b815260040161156a9190612384565b602060405180830381865afa158015611587573d6000803e3d6000fd5b505050506040513d601f19601f820116820180604052508101906115ab91906123b4565b73ffffffffffffffffffffffffffffffffffffffff1614611601576040517f08c379a00000000000000000000000000000000000000000000000000000000081526004016115f890612465565b60405180910390fd5b6002543414611645576040517f08c379a000000000000000000000000000000000000000000000000000000000815260040161163c90612943565b60405180910390fd5b60008511611688576040517f08c379a000000000000000000000000000000000000000000000000000000000815260040161167f906124d1565b60405180910390fd5b600160009054906101000a900473ffffffffffffffffffffffffffffffffffffffff1673ffffffffffffffffffffffffffffffffffffffff166108fc6002549081150290604051600060405180830381858888f193505050501580156116f2573d6000803e3d6000fd5b506040518060c001604052803373ffffffffffffffffffffffffffffffffffffffff168152602001600073ffffffffffffffffffffffffffffffffffffffff1681526020018873ffffffffffffffffffffffffffffffffffffffff1681526020018781526020018681526020016000815250600460008973ffffffffffffffffffffffffffffffffffffffff1673ffffffffffffffffffffffffffffffffffffffff168152602001908152602001600020600088815260200190815260200160002060008201518160000160006101000a81548173ffffffffffffffffffffffffffffffffffffffff021916908373ffffffffffffffffffffffffffffffffffffffff16021790555060208201518160010160006101000a81548173ffffffffffffffffffffffffffffffffffffffff021916908373ffffffffffffffffffffffffffffffffffffffff16021790555060408201518160020160006101000a81548173ffffffffffffffffffffffffffffffffffffffff021916908373ffffffffffffffffffffffffffffffffffffffff160217905550606082015181600301556080820151816004015560a082015181600501559050506118f2600560008973ffffffffffffffffffffffffffffffffffffffff1673ffffffffffffffffffffffffffffffffffffffff16815260200190815260200160002087611e9f565b506118fe600688611eb9565b508673ffffffffffffffffffffffffffffffffffffffff16600073ffffffffffffffffffffffffffffffffffffffff168873ffffffffffffffffffffffffffffffffffffffff16636352211e896040518263ffffffff1660e01b81526004016119679190612384565b602060405180830381865afa158015611984573d6000803e3d6000fd5b505050506040513d601f19601f820116820180604052508101906119a891906123b4565b73ffffffffffffffffffffffffffffffffffffffff167faf52e9d89a64bb9dec8228f11a14d277ed84b62f248715f1798456fa43727839898960006040516119f2939291906129a8565b60405180910390a46040518060400160405280601781526020017f4e4654205375636365737366756c6c79206c69737465640000000000000000008152509350505050611a3d611d11565b9392505050565b600080600090508273ffffffffffffffffffffffffffffffffffffffff166301ffc9a77f80ac58cd000000000000000000000000000000000000000000000000000000006040518263ffffffff1660e01b8152600401611aa49190612a1a565b602060405180830381865afa925050508015611ade57506040513d601f19601f82011682018060405250810190611adb9190612a61565b60015b611aec576000915050611af5565b80915050809150505b919050565b6000806000905060008373ffffffffffffffffffffffffffffffffffffffff166301ffc9a77fad092b5c000000000000000000000000000000000000000000000000000000006040518263ffffffff1660e01b8152600401611b5c9190612a1a565b602060405180830381865afa925050508015611b9657506040513d601f19601f82011682018060405250810190611b939190612a61565b60015b611ba557600092505050611c5e565b809250508373ffffffffffffffffffffffffffffffffffffffff166301ffc9a77f80ac58cd000000000000000000000000000000000000000000000000000000006040518263ffffffff1660e01b8152600401611c029190612a1a565b602060405180830381865afa925050508015611c3c57506040513d601f19601f82011682018060405250810190611c399190612a61565b60015b611c4b57600092505050611c5e565b80915050818015611c595750805b925050505b919050565b600260005403611ca8576040517f08c379a0000000000000000000000000000000000000000000000000000000008152600401611c9f90612ada565b60405180910390fd5b6002600081905550565b6000611cc4836000018360001b611ee9565b905092915050565b6000611cda82600001611ffd565b9050919050565b6000611d09836000018373ffffffffffffffffffffffffffffffffffffffff1660001b611ee9565b905092915050565b6001600081905550565b6000808390503073ffffffffffffffffffffffffffffffffffffffff168173ffffffffffffffffffffffffffffffffffffffff1663081812fc856040518263ffffffff1660e01b8152600401611d719190612384565b602060405180830381865afa158015611d8e573d6000803e3d6000fd5b505050506040513d601f19601f82011682018060405250810190611db291906123b4565b73ffffffffffffffffffffffffffffffffffffffff1614611dd7576000915050611ddd565b60019150505b92915050565b6000611dee83611afa565b15611e9457600083905060008173ffffffffffffffffffffffffffffffffffffffff16638fc88c48856040518263ffffffff1660e01b8152600401611e339190612384565b602060405180830381865afa158015611e50573d6000803e3d6000fd5b505050506040513d601f19601f82011682018060405250810190611e749190612b0f565b905080421015611e8957600092505050611e99565b600192505050611e99565b600190505b92915050565b6000611eb1836000018360001b61200e565b905092915050565b6000611ee1836000018373ffffffffffffffffffffffffffffffffffffffff1660001b61200e565b905092915050565b60008083600101600084815260200190815260200160002054905060008114611ff1576000600182611f1b9190612b3c565b9050600060018660000180549050611f339190612b3c565b9050818114611fa2576000866000018281548110611f5457611f53612b70565b5b9060005260206000200154905080876000018481548110611f7857611f77612b70565b5b90600052602060002001819055508387600101600083815260200190815260200160002081905550505b85600001805480611fb657611fb5612b9f565b5b600190038181906000526020600020016000905590558560010160008681526020019081526020016000206000905560019350505050611ff7565b60009150505b92915050565b600081600001805490509050919050565b600061201a838361207e565b612073578260000182908060018154018082558091505060019003906000526020600020016000909190919091505582600001805490508360010160008481526020019081526020016000208190555060019050612078565b600090505b92915050565b600080836001016000848152602001908152602001600020541415905092915050565b600080fd5b600073ffffffffffffffffffffffffffffffffffffffff82169050919050565b60006120d1826120a6565b9050919050565b6120e1816120c6565b81146120ec57600080fd5b50565b6000813590506120fe816120d8565b92915050565b6000819050919050565b61211781612104565b811461212257600080fd5b50565b6000813590506121348161210e565b92915050565b60008060408385031215612151576121506120a1565b5b600061215f858286016120ef565b925050602061217085828601612125565b9150509250929050565b600081519050919050565b600082825260208201905092915050565b60005b838110156121b4578082015181840152602081019050612199565b60008484015250505050565b6000601f19601f8301169050919050565b60006121dc8261217a565b6121e68185612185565b93506121f6818560208601612196565b6121ff816121c0565b840191505092915050565b6000602082019050818103600083015261222481846121d1565b905092915050565b600080600060608486031215612245576122446120a1565b5b6000612253868287016120ef565b935050602061226486828701612125565b925050604061227586828701612125565b9150509250925092565b600067ffffffffffffffff82169050919050565b61229c8161227f565b81146122a757600080fd5b50565b6000813590506122b981612293565b92915050565b6000806000606084860312156122d8576122d76120a1565b5b60006122e6868287016120ef565b93505060206122f786828701612125565b9250506040612308868287016122aa565b9150509250925092565b600060208284031215612328576123276120a1565b5b6000612336848285016120ef565b91505092915050565b60008115159050919050565b6123548161233f565b82525050565b600060208201905061236f600083018461234b565b92915050565b61237e81612104565b82525050565b60006020820190506123996000830184612375565b92915050565b6000815190506123ae816120d8565b92915050565b6000602082840312156123ca576123c96120a1565b5b60006123d88482850161239f565b91505092915050565b6123ea816120c6565b82525050565b600060408201905061240560008301856123e1565b6124126020830184612375565b9392505050565b7f4e6f74206f776e6572206f66206e667400000000000000000000000000000000600082015250565b600061244f601083612185565b915061245a82612419565b602082019050919050565b6000602082019050818103600083015261247e81612442565b9050919050565b7f50726963652073686f756c642062652067726561746572207468616e20300000600082015250565b60006124bb601e83612185565b91506124c682612485565b602082019050919050565b600060208201905081810360008301526124ea816124ae565b9050919050565b60006060820190506125066000830186612375565b6125136020830185612375565b6125206040830184612375565b949350505050565b7f4d61726b6574706c616365206973206e6f74206170726f766564000000000000600082015250565b600061255e601a83612185565b915061256982612528565b602082019050919050565b6000602082019050818103600083015261258d81612551565b9050919050565b7f4d6178696d756d206f662031302072656e74616c20646179732061726520616c60008201527f6c6f776564000000000000000000000000000000000000000000000000000000602082015250565b60006125f0602583612185565b91506125fb82612594565b604082019050919050565b6000602082019050818103600083015261261f816125e3565b9050919050565b7f4e465420416c72656164792072656e7465640000000000000000000000000000600082015250565b600061265c601283612185565b915061266782612626565b602082019050919050565b6000602082019050818103600083015261268b8161264f565b9050919050565b7f4e487b7100000000000000000000000000000000000000000000000000000000600052601160045260246000fd5b60006126cc82612104565b91506126d783612104565b92508282026126e581612104565b915082820484148315176126fc576126fb612692565b5b5092915050565b7f4e6f7420656e6f75676820657468657220746f20636f7665722072656e74616c60008201527f20706572696f6400000000000000000000000000000000000000000000000000602082015250565b600061275f602783612185565b915061276a82612703565b604082019050919050565b6000602082019050818103600083015261278e81612752565b9050919050565b60006127a08261227f565b91506127ab8361227f565b92508282026127b98161227f565b91508082146127cb576127ca612692565b5b5092915050565b60006127dd8261227f565b91506127e88361227f565b9250828201905067ffffffffffffffff81111561280857612807612692565b5b92915050565b6128178161227f565b82525050565b60006060820190506128326000830186612375565b61283f60208301856123e1565b61284c604083018461280e565b949350505050565b60006060820190506128696000830186612375565b612876602083018561280e565b6128836040830184612375565b949350505050565b7f436f6e7472616374206973206e6f7420616e2045524334393037000000000000600082015250565b60006128c1601a83612185565b91506128cc8261288b565b602082019050919050565b600060208201905081810360008301526128f0816128b4565b9050919050565b7f4e6f7420656e6f75676820657468657220666f72206c697374696e6720666565600082015250565b600061292d602083612185565b9150612938826128f7565b602082019050919050565b6000602082019050818103600083015261295c81612920565b9050919050565b6000819050919050565b6000819050919050565b600061299261298d61298884612963565b61296d565b612104565b9050919050565b6129a281612977565b82525050565b60006060820190506129bd6000830186612375565b6129ca6020830185612375565b6129d76040830184612999565b949350505050565b60007fffffffff0000000000000000000000000000000000000000000000000000000082169050919050565b612a14816129df565b82525050565b6000602082019050612a2f6000830184612a0b565b92915050565b612a3e8161233f565b8114612a4957600080fd5b50565b600081519050612a5b81612a35565b92915050565b600060208284031215612a7757612a766120a1565b5b6000612a8584828501612a4c565b91505092915050565b7f5265656e7472616e637947756172643a207265656e7472616e742063616c6c00600082015250565b6000612ac4601f83612185565b9150612acf82612a8e565b602082019050919050565b60006020820190508181036000830152612af381612ab7565b9050919050565b600081519050612b098161210e565b92915050565b600060208284031215612b2557612b246120a1565b5b6000612b3384828501612afa565b91505092915050565b6000612b4782612104565b9150612b5283612104565b9250828203905081811115612b6a57612b69612692565b5b92915050565b7f4e487b7100000000000000000000000000000000000000000000000000000000600052603260045260246000fd5b7f4e487b7100000000000000000000000000000000000000000000000000000000600052603160045260246000fdfea26469706673582212206d08a2814ba440eb3bdd97ed2f073bb637c11117db64f0099a269016a7638ad764736f6c63430008110033",
  "linkReferences": {},
  "deployedLinkReferences": {}
}