{
  "_format": "hh-sol-artifact-1",
  "contractName": "AvianSellExchange",
  "sourceName": "contracts/AvianSellExchange.sol",
  "abi": [
    {
      "inputs": [],
      "stateMutability": "nonpayable",
      "type": "constructor"
    },
    {
      "inputs": [
        {
          "internalType": "address",
          "name": "nftAddress",
          "type": "address"
        },
        {
          "internalType": "uint256",
          "name": "tokenId",
          "type": "uint256"
        }
      ],
      "name": "AlreadyListed",
      "type": "error"
    },
    {
      "inputs": [],
      "name": "NoProceeds",
      "type": "error"
    },
    {
      "inputs": [],
      "name": "NotApprovedForMarketplace",
      "type": "error"
    },
    {
      "inputs": [
        {
          "internalType": "address",
          "name": "nftAddress",
          "type": "address"
        },
        {
          "internalType": "uint256",
          "name": "tokenId",
          "type": "uint256"
        }
      ],
      "name": "NotListed",
      "type": "error"
    },
    {
      "inputs": [],
      "name": "NotOwner",
      "type": "error"
    },
    {
      "inputs": [
        {
          "internalType": "address",
          "name": "nftAddress",
          "type": "address"
        },
        {
          "internalType": "uint256",
          "name": "tokenId",
          "type": "uint256"
        },
        {
          "internalType": "uint256",
          "name": "price",
          "type": "uint256"
        }
      ],
      "name": "PriceNotMet",
      "type": "error"
    },
    {
      "anonymous": false,
      "inputs": [
        {
          "indexed": true,
          "internalType": "address",
          "name": "buyer",
          "type": "address"
        },
        {
          "indexed": true,
          "internalType": "address",
          "name": "nftAddress",
          "type": "address"
        },
        {
          "indexed": true,
          "internalType": "uint256",
          "name": "tokenId",
          "type": "uint256"
        },
        {
          "indexed": false,
          "internalType": "uint256",
          "name": "price",
          "type": "uint256"
        }
      ],
      "name": "ItemBought",
      "type": "event"
    },
    {
      "anonymous": false,
      "inputs": [
        {
          "indexed": true,
          "internalType": "address",
          "name": "seller",
          "type": "address"
        },
        {
          "indexed": true,
          "internalType": "address",
          "name": "nftAddress",
          "type": "address"
        },
        {
          "indexed": true,
          "internalType": "uint256",
          "name": "tokenId",
          "type": "uint256"
        }
      ],
      "name": "ItemCanceled",
      "type": "event"
    },
    {
      "anonymous": false,
      "inputs": [
        {
          "indexed": true,
          "internalType": "address",
          "name": "seller",
          "type": "address"
        },
        {
          "indexed": true,
          "internalType": "address",
          "name": "nftAddress",
          "type": "address"
        },
        {
          "indexed": true,
          "internalType": "uint256",
          "name": "tokenId",
          "type": "uint256"
        },
        {
          "indexed": false,
          "internalType": "uint256",
          "name": "price",
          "type": "uint256"
        }
      ],
      "name": "ItemListed",
      "type": "event"
    },
    {
      "inputs": [
        {
          "internalType": "address",
          "name": "nftAddress",
          "type": "address"
        },
        {
          "internalType": "uint256",
          "name": "tokenId",
          "type": "uint256"
        }
      ],
      "name": "buyItem",
      "outputs": [
        {
          "internalType": "string",
          "name": "",
          "type": "string"
        }
      ],
      "stateMutability": "payable",
      "type": "function"
    },
    {
      "inputs": [
        {
          "internalType": "address",
          "name": "nftAddress",
          "type": "address"
        },
        {
          "internalType": "uint256",
          "name": "tokenId",
          "type": "uint256"
        }
      ],
      "name": "cancelListing",
      "outputs": [],
      "stateMutability": "nonpayable",
      "type": "function"
    },
    {
      "inputs": [
        {
          "internalType": "address",
          "name": "nftAddress",
          "type": "address"
        },
        {
          "internalType": "uint256",
          "name": "tokenId",
          "type": "uint256"
        }
      ],
      "name": "getASListing",
      "outputs": [
        {
          "components": [
            {
              "internalType": "address",
              "name": "owner",
              "type": "address"
            },
            {
              "internalType": "address",
              "name": "nftContract",
              "type": "address"
            },
            {
              "internalType": "uint256",
              "name": "tokenId",
              "type": "uint256"
            },
            {
              "internalType": "uint256",
              "name": "price",
              "type": "uint256"
            }
          ],
          "internalType": "struct AvianSellExchange.Listing_sell",
          "name": "",
          "type": "tuple"
        }
      ],
      "stateMutability": "view",
      "type": "function"
    },
    {
      "inputs": [
        {
          "internalType": "address",
          "name": "seller",
          "type": "address"
        }
      ],
      "name": "getProceeds",
      "outputs": [
        {
          "internalType": "uint256",
          "name": "",
          "type": "uint256"
        }
      ],
      "stateMutability": "view",
      "type": "function"
    },
    {
      "inputs": [
        {
          "internalType": "address",
          "name": "nftAddress",
          "type": "address"
        }
      ],
      "name": "getSListedAdddressTokens",
      "outputs": [
        {
          "internalType": "uint256[]",
          "name": "",
          "type": "uint256[]"
        }
      ],
      "stateMutability": "view",
      "type": "function"
    },
    {
      "inputs": [],
      "name": "getSListedAdddresses",
      "outputs": [
        {
          "internalType": "address[]",
          "name": "",
          "type": "address[]"
        }
      ],
      "stateMutability": "view",
      "type": "function"
    },
    {
      "inputs": [],
      "name": "getSellListings",
      "outputs": [
        {
          "components": [
            {
              "internalType": "address",
              "name": "owner",
              "type": "address"
            },
            {
              "internalType": "address",
              "name": "nftContract",
              "type": "address"
            },
            {
              "internalType": "uint256",
              "name": "tokenId",
              "type": "uint256"
            },
            {
              "internalType": "uint256",
              "name": "price",
              "type": "uint256"
            }
          ],
          "internalType": "struct AvianSellExchange.Listing_sell[]",
          "name": "",
          "type": "tuple[]"
        }
      ],
      "stateMutability": "view",
      "type": "function"
    },
    {
      "inputs": [
        {
          "internalType": "address",
          "name": "nftContract",
          "type": "address"
        }
      ],
      "name": "isNFT",
      "outputs": [
        {
          "internalType": "bool",
          "name": "",
          "type": "bool"
        }
      ],
      "stateMutability": "view",
      "type": "function"
    },
    {
      "inputs": [
        {
          "internalType": "address",
          "name": "nftAddress",
          "type": "address"
        },
        {
          "internalType": "uint256",
          "name": "tokenId",
          "type": "uint256"
        },
        {
          "internalType": "uint256",
          "name": "price",
          "type": "uint256"
        }
      ],
      "name": "listItem",
      "outputs": [
        {
          "internalType": "string",
          "name": "",
          "type": "string"
        }
      ],
      "stateMutability": "nonpayable",
      "type": "function"
    },
    {
      "inputs": [
        {
          "internalType": "address",
          "name": "nftAddress",
          "type": "address"
        },
        {
          "internalType": "uint256",
          "name": "tokenId",
          "type": "uint256"
        },
        {
          "internalType": "uint256",
          "name": "newPrice",
          "type": "uint256"
        }
      ],
      "name": "updateListing",
      "outputs": [
        {
          "internalType": "string",
          "name": "",
          "type": "string"
        }
      ],
      "stateMutability": "nonpayable",
      "type": "function"
    },
    {
      "inputs": [],
      "name": "withdrawProceeds",
      "outputs": [
        {
          "internalType": "string",
          "name": "",
          "type": "string"
        }
      ],
      "stateMutability": "nonpayable",
      "type": "function"
    }
  ],
  "bytecode": "0x6080604052662386f26fc1000060025534801561001b57600080fd5b50600160008190555033600160006101000a81548173ffffffffffffffffffffffffffffffffffffffff021916908373ffffffffffffffffffffffffffffffffffffffff160217905550612d88806100746000396000f3fe60806040526004361061009c5760003560e01c80639f37092a116100645780639f37092a1461019c578063b2ddee06146101cc578063b31b85c9146101f5578063be58725114610232578063cc6b11b11461026f578063f772adf1146102ac5761009c565b806330cfeda9146100a1578063341a0b8a146100de57806389bfd38f146101095780639038e69314610146578063995e578b14610171575b600080fd5b3480156100ad57600080fd5b506100c860048036038101906100c391906121ad565b6102e9565b6040516100d591906121f3565b60405180910390f35b3480156100ea57600080fd5b506100f3610332565b60405161010091906122cc565b60405180910390f35b34801561011557600080fd5b50610130600480360381019061012b919061231a565b610349565b60405161013d91906123fd565b60405180910390f35b34801561015257600080fd5b5061015b61093a565b60405161016891906123fd565b60405180910390f35b34801561017d57600080fd5b50610186610acb565b6040516101939190612532565b60405180910390f35b6101b660048036038101906101b19190612554565b610d53565b6040516101c391906123fd565b60405180910390f35b3480156101d857600080fd5b506101f360048036038101906101ee9190612554565b611319565b005b34801561020157600080fd5b5061021c600480360381019061021791906121ad565b611736565b60405161022991906125af565b60405180910390f35b34801561023e57600080fd5b50610259600480360381019061025491906121ad565b6117ec565b6040516102669190612679565b60405180910390f35b34801561027b57600080fd5b5061029660048036038101906102919190612554565b611842565b6040516102a391906126f0565b60405180910390f35b3480156102b857600080fd5b506102d360048036038101906102ce919061231a565b61196d565b6040516102e091906123fd565b60405180910390f35b6000600460008373ffffffffffffffffffffffffffffffffffffffff1673ffffffffffffffffffffffffffffffffffffffff168152602001908152602001600020549050919050565b606060006103406006611d1e565b90508091505090565b606083836000600360008473ffffffffffffffffffffffffffffffffffffffff1673ffffffffffffffffffffffffffffffffffffffff16815260200190815260200160002060008381526020019081526020016000206040518060800160405290816000820160009054906101000a900473ffffffffffffffffffffffffffffffffffffffff1673ffffffffffffffffffffffffffffffffffffffff1673ffffffffffffffffffffffffffffffffffffffff1681526020016001820160009054906101000a900473ffffffffffffffffffffffffffffffffffffffff1673ffffffffffffffffffffffffffffffffffffffff1673ffffffffffffffffffffffffffffffffffffffff1681526020016002820154815260200160038201548152505090506000816060015111156104b85782826040517f4a5568d50000000000000000000000000000000000000000000000000000000081526004016104af92919061271a565b60405180910390fd5b6104c187611736565b610500576040517f08c379a00000000000000000000000000000000000000000000000000000000081526004016104f79061278f565b60405180910390fd5b3373ffffffffffffffffffffffffffffffffffffffff168773ffffffffffffffffffffffffffffffffffffffff16636352211e886040518263ffffffff1660e01b815260040161055091906121f3565b602060405180830381865afa15801561056d573d6000803e3d6000fd5b505050506040513d601f19601f8201168201806040525081019061059191906127c4565b73ffffffffffffffffffffffffffffffffffffffff16146105e7576040517f08c379a00000000000000000000000000000000000000000000000000000000081526004016105de9061283d565b60405180910390fd5b6000851161062a576040517f08c379a0000000000000000000000000000000000000000000000000000000008152600401610621906128cf565b60405180910390fd5b60008790503073ffffffffffffffffffffffffffffffffffffffff168173ffffffffffffffffffffffffffffffffffffffff1663081812fc896040518263ffffffff1660e01b815260040161067f91906121f3565b602060405180830381865afa15801561069c573d6000803e3d6000fd5b505050506040513d601f19601f820116820180604052508101906106c091906127c4565b73ffffffffffffffffffffffffffffffffffffffff161461070d576040517f4be3a2c500000000000000000000000000000000000000000000000000000000815260040160405180910390fd5b60405180608001604052803373ffffffffffffffffffffffffffffffffffffffff1681526020018973ffffffffffffffffffffffffffffffffffffffff16815260200188815260200187815250600360008a73ffffffffffffffffffffffffffffffffffffffff1673ffffffffffffffffffffffffffffffffffffffff168152602001908152602001600020600089815260200190815260200160002060008201518160000160006101000a81548173ffffffffffffffffffffffffffffffffffffffff021916908373ffffffffffffffffffffffffffffffffffffffff16021790555060208201518160010160006101000a81548173ffffffffffffffffffffffffffffffffffffffff021916908373ffffffffffffffffffffffffffffffffffffffff16021790555060408201518160020155606082015181600301559050506108596008611d3f565b6108a1600560008a73ffffffffffffffffffffffffffffffffffffffff1673ffffffffffffffffffffffffffffffffffffffff16815260200190815260200160002088611d55565b506108ad600689611d6f565b50868873ffffffffffffffffffffffffffffffffffffffff163373ffffffffffffffffffffffffffffffffffffffff167fd547e933094f12a9159076970143ebe73234e64480317844b0dcb36117116de48960405161090c91906121f3565b60405180910390a46040518060600160405280602b8152602001612d28602b91399450505050509392505050565b60606000600460003373ffffffffffffffffffffffffffffffffffffffff1673ffffffffffffffffffffffffffffffffffffffff168152602001908152602001600020549050600081116109ba576040517fc4d8fa8700000000000000000000000000000000000000000000000000000000815260040160405180910390fd5b6000600460003373ffffffffffffffffffffffffffffffffffffffff1673ffffffffffffffffffffffffffffffffffffffff1681526020019081526020016000208190555060003373ffffffffffffffffffffffffffffffffffffffff1682604051610a2590612920565b60006040518083038185875af1925050503d8060008114610a62576040519150601f19603f3d011682016040523d82523d6000602084013e610a67565b606091505b5050905080610aab576040517f08c379a0000000000000000000000000000000000000000000000000000000008152600401610aa290612981565b60405180910390fd5b604051806060016040528060258152602001612d03602591399250505090565b60606000610ad96008611d9f565b67ffffffffffffffff811115610af257610af16129a1565b5b604051908082528060200260200182016040528015610b2b57816020015b610b186120f6565b815260200190600190039081610b105790505b509050600080610b3b6006611d1e565b905060005b8151811015610d49576000828281518110610b5e57610b5d6129d0565b5b602002602001015190506000610bb1600560008473ffffffffffffffffffffffffffffffffffffffff1673ffffffffffffffffffffffffffffffffffffffff168152602001908152602001600020611dad565b905060005b8151811015610d3357600360008473ffffffffffffffffffffffffffffffffffffffff1673ffffffffffffffffffffffffffffffffffffffff1681526020019081526020016000206000838381518110610c1357610c126129d0565b5b602002602001015181526020019081526020016000206040518060800160405290816000820160009054906101000a900473ffffffffffffffffffffffffffffffffffffffff1673ffffffffffffffffffffffffffffffffffffffff1673ffffffffffffffffffffffffffffffffffffffff1681526020016001820160009054906101000a900473ffffffffffffffffffffffffffffffffffffffff1673ffffffffffffffffffffffffffffffffffffffff1673ffffffffffffffffffffffffffffffffffffffff16815260200160028201548152602001600382015481525050878781518110610d0757610d066129d0565b5b60200260200101819052508580610d1d90612a2e565b9650508080610d2b90612a2e565b915050610bb6565b5050508080610d4190612a2e565b915050610b40565b5082935050505090565b606082826000600360008473ffffffffffffffffffffffffffffffffffffffff1673ffffffffffffffffffffffffffffffffffffffff16815260200190815260200160002060008381526020019081526020016000206040518060800160405290816000820160009054906101000a900473ffffffffffffffffffffffffffffffffffffffff1673ffffffffffffffffffffffffffffffffffffffff1673ffffffffffffffffffffffffffffffffffffffff1681526020016001820160009054906101000a900473ffffffffffffffffffffffffffffffffffffffff1673ffffffffffffffffffffffffffffffffffffffff1673ffffffffffffffffffffffffffffffffffffffff1681526020016002820154815260200160038201548152505090506000816060015111610ec15782826040517f6831488c000000000000000000000000000000000000000000000000000000008152600401610eb892919061271a565b60405180910390fd5b610ec9611dce565b6000600360008873ffffffffffffffffffffffffffffffffffffffff1673ffffffffffffffffffffffffffffffffffffffff16815260200190815260200160002060008781526020019081526020016000206040518060800160405290816000820160009054906101000a900473ffffffffffffffffffffffffffffffffffffffff1673ffffffffffffffffffffffffffffffffffffffff1673ffffffffffffffffffffffffffffffffffffffff1681526020016001820160009054906101000a900473ffffffffffffffffffffffffffffffffffffffff1673ffffffffffffffffffffffffffffffffffffffff1673ffffffffffffffffffffffffffffffffffffffff168152602001600282015481526020016003820154815250509050806060015134101561103957868682606001516040517f7c93456500000000000000000000000000000000000000000000000000000000815260040161103093929190612a76565b60405180910390fd5b3460046000836000015173ffffffffffffffffffffffffffffffffffffffff1673ffffffffffffffffffffffffffffffffffffffff168152602001908152602001600020600082825461108c9190612aad565b92505081905550600360008873ffffffffffffffffffffffffffffffffffffffff1673ffffffffffffffffffffffffffffffffffffffff1681526020019081526020016000206000878152602001908152602001600020600080820160006101000a81549073ffffffffffffffffffffffffffffffffffffffff02191690556001820160006101000a81549073ffffffffffffffffffffffffffffffffffffffff021916905560028201600090556003820160009055505061118c600560008973ffffffffffffffffffffffffffffffffffffffff1673ffffffffffffffffffffffffffffffffffffffff16815260200190815260200160002087611e1d565b5060006111d6600560008a73ffffffffffffffffffffffffffffffffffffffff1673ffffffffffffffffffffffffffffffffffffffff168152602001908152602001600020611e37565b036111e8576111e6600688611e4c565b505b6111f26008611e7c565b8673ffffffffffffffffffffffffffffffffffffffff166342842e0e826000015133896040518463ffffffff1660e01b815260040161123393929190612ae1565b600060405180830381600087803b15801561124d57600080fd5b505af1158015611261573d6000803e3d6000fd5b50505050858773ffffffffffffffffffffffffffffffffffffffff163373ffffffffffffffffffffffffffffffffffffffff167f263223b1dd81e51054a4e6f791d45a4a1ddb4aadcd93a2dfd892615c3fdac18784606001516040516112c791906121f3565b60405180910390a46040518060400160405280601781526020017f4e4654207375636365737366756c6c7920426f75676874000000000000000000815250945050611310611ed8565b50505092915050565b818133600083905060008173ffffffffffffffffffffffffffffffffffffffff16636352211e856040518263ffffffff1660e01b815260040161135c91906121f3565b602060405180830381865afa158015611379573d6000803e3d6000fd5b505050506040513d601f19601f8201168201806040525081019061139d91906127c4565b90508073ffffffffffffffffffffffffffffffffffffffff168373ffffffffffffffffffffffffffffffffffffffff1614611404576040517f30cd747100000000000000000000000000000000000000000000000000000000815260040160405180910390fd5b86866000600360008473ffffffffffffffffffffffffffffffffffffffff1673ffffffffffffffffffffffffffffffffffffffff16815260200190815260200160002060008381526020019081526020016000206040518060800160405290816000820160009054906101000a900473ffffffffffffffffffffffffffffffffffffffff1673ffffffffffffffffffffffffffffffffffffffff1673ffffffffffffffffffffffffffffffffffffffff1681526020016001820160009054906101000a900473ffffffffffffffffffffffffffffffffffffffff1673ffffffffffffffffffffffffffffffffffffffff1673ffffffffffffffffffffffffffffffffffffffff16815260200160028201548152602001600382015481525050905060008160600151116115705782826040517f6831488c00000000000000000000000000000000000000000000000000000000815260040161156792919061271a565b60405180910390fd5b600360008b73ffffffffffffffffffffffffffffffffffffffff1673ffffffffffffffffffffffffffffffffffffffff16815260200190815260200160002060008a8152602001908152602001600020600080820160006101000a81549073ffffffffffffffffffffffffffffffffffffffff02191690556001820160006101000a81549073ffffffffffffffffffffffffffffffffffffffff0219169055600282016000905560038201600090555050611669600560008c73ffffffffffffffffffffffffffffffffffffffff1673ffffffffffffffffffffffffffffffffffffffff1681526020019081526020016000208a611e1d565b5060006116b3600560008d73ffffffffffffffffffffffffffffffffffffffff1673ffffffffffffffffffffffffffffffffffffffff168152602001908152602001600020611e37565b036116c5576116c360068b611e4c565b505b6116cf6008611e7c565b888a73ffffffffffffffffffffffffffffffffffffffff163373ffffffffffffffffffffffffffffffffffffffff167f9ba1a3cb55ce8d63d072a886f94d2a744f50cddf82128e897d0661f5ec62315860405160405180910390a450505050505050505050565b600080600090508273ffffffffffffffffffffffffffffffffffffffff166301ffc9a77f80ac58cd000000000000000000000000000000000000000000000000000000006040518263ffffffff1660e01b81526004016117969190612b53565b602060405180830381865afa9250505080156117d057506040513d601f19601f820116820180604052508101906117cd9190612b9a565b60015b6117de5760009150506117e7565b80915050809150505b919050565b60606000611837600560008573ffffffffffffffffffffffffffffffffffffffff1673ffffffffffffffffffffffffffffffffffffffff168152602001908152602001600020611dad565b905080915050919050565b61184a6120f6565b600360008473ffffffffffffffffffffffffffffffffffffffff1673ffffffffffffffffffffffffffffffffffffffff16815260200190815260200160002060008381526020019081526020016000206040518060800160405290816000820160009054906101000a900473ffffffffffffffffffffffffffffffffffffffff1673ffffffffffffffffffffffffffffffffffffffff1673ffffffffffffffffffffffffffffffffffffffff1681526020016001820160009054906101000a900473ffffffffffffffffffffffffffffffffffffffff1673ffffffffffffffffffffffffffffffffffffffff1673ffffffffffffffffffffffffffffffffffffffff16815260200160028201548152602001600382015481525050905092915050565b606083836000600360008473ffffffffffffffffffffffffffffffffffffffff1673ffffffffffffffffffffffffffffffffffffffff16815260200190815260200160002060008381526020019081526020016000206040518060800160405290816000820160009054906101000a900473ffffffffffffffffffffffffffffffffffffffff1673ffffffffffffffffffffffffffffffffffffffff1673ffffffffffffffffffffffffffffffffffffffff1681526020016001820160009054906101000a900473ffffffffffffffffffffffffffffffffffffffff1673ffffffffffffffffffffffffffffffffffffffff1673ffffffffffffffffffffffffffffffffffffffff1681526020016002820154815260200160038201548152505090506000816060015111611adb5782826040517f6831488c000000000000000000000000000000000000000000000000000000008152600401611ad292919061271a565b60405180910390fd5b611ae3611dce565b868633600083905060008173ffffffffffffffffffffffffffffffffffffffff16636352211e856040518263ffffffff1660e01b8152600401611b2691906121f3565b602060405180830381865afa158015611b43573d6000803e3d6000fd5b505050506040513d601f19601f82011682018060405250810190611b6791906127c4565b90508073ffffffffffffffffffffffffffffffffffffffff168373ffffffffffffffffffffffffffffffffffffffff1614611bce576040517f30cd747100000000000000000000000000000000000000000000000000000000815260040160405180910390fd5b60008a11611c11576040517f08c379a0000000000000000000000000000000000000000000000000000000008152600401611c08906128cf565b60405180910390fd5b89600360008e73ffffffffffffffffffffffffffffffffffffffff1673ffffffffffffffffffffffffffffffffffffffff16815260200190815260200160002060008d8152602001908152602001600020600301819055508a8c73ffffffffffffffffffffffffffffffffffffffff163373ffffffffffffffffffffffffffffffffffffffff167fd547e933094f12a9159076970143ebe73234e64480317844b0dcb36117116de48d604051611cc791906121f3565b60405180910390a46040518060400160405280602081526020017f5375636365737366756c6c79207570646174656420746865206c697374696e6781525098505050505050611d14611ed8565b5050509392505050565b60606000611d2e83600001611ee2565b905060608190508092505050919050565b6001816000016000828254019250508190555050565b6000611d67836000018360001b611f3e565b905092915050565b6000611d97836000018373ffffffffffffffffffffffffffffffffffffffff1660001b611f3e565b905092915050565b600081600001549050919050565b60606000611dbd83600001611ee2565b905060608190508092505050919050565b600260005403611e13576040517f08c379a0000000000000000000000000000000000000000000000000000000008152600401611e0a90612c13565b60405180910390fd5b6002600081905550565b6000611e2f836000018360001b611fae565b905092915050565b6000611e45826000016120c2565b9050919050565b6000611e74836000018373ffffffffffffffffffffffffffffffffffffffff1660001b611fae565b905092915050565b60008160000154905060008111611ec8576040517f08c379a0000000000000000000000000000000000000000000000000000000008152600401611ebf90612c7f565b60405180910390fd5b6001810382600001819055505050565b6001600081905550565b606081600001805480602002602001604051908101604052809291908181526020018280548015611f3257602002820191906000526020600020905b815481526020019060010190808311611f1e575b50505050509050919050565b6000611f4a83836120d3565b611fa3578260000182908060018154018082558091505060019003906000526020600020016000909190919091505582600001805490508360010160008481526020019081526020016000208190555060019050611fa8565b600090505b92915050565b600080836001016000848152602001908152602001600020549050600081146120b6576000600182611fe09190612c9f565b9050600060018660000180549050611ff89190612c9f565b9050818114612067576000866000018281548110612019576120186129d0565b5b906000526020600020015490508087600001848154811061203d5761203c6129d0565b5b90600052602060002001819055508387600101600083815260200190815260200160002081905550505b8560000180548061207b5761207a612cd3565b5b6001900381819060005260206000200160009055905585600101600086815260200190815260200160002060009055600193505050506120bc565b60009150505b92915050565b600081600001805490509050919050565b600080836001016000848152602001908152602001600020541415905092915050565b6040518060800160405280600073ffffffffffffffffffffffffffffffffffffffff168152602001600073ffffffffffffffffffffffffffffffffffffffff16815260200160008152602001600081525090565b600080fd5b600073ffffffffffffffffffffffffffffffffffffffff82169050919050565b600061217a8261214f565b9050919050565b61218a8161216f565b811461219557600080fd5b50565b6000813590506121a781612181565b92915050565b6000602082840312156121c3576121c261214a565b5b60006121d184828501612198565b91505092915050565b6000819050919050565b6121ed816121da565b82525050565b600060208201905061220860008301846121e4565b92915050565b600081519050919050565b600082825260208201905092915050565b6000819050602082019050919050565b6122438161216f565b82525050565b6000612255838361223a565b60208301905092915050565b6000602082019050919050565b60006122798261220e565b6122838185612219565b935061228e8361222a565b8060005b838110156122bf5781516122a68882612249565b97506122b183612261565b925050600181019050612292565b5085935050505092915050565b600060208201905081810360008301526122e6818461226e565b905092915050565b6122f7816121da565b811461230257600080fd5b50565b600081359050612314816122ee565b92915050565b6000806000606084860312156123335761233261214a565b5b600061234186828701612198565b935050602061235286828701612305565b925050604061236386828701612305565b9150509250925092565b600081519050919050565b600082825260208201905092915050565b60005b838110156123a757808201518184015260208101905061238c565b60008484015250505050565b6000601f19601f8301169050919050565b60006123cf8261236d565b6123d98185612378565b93506123e9818560208601612389565b6123f2816123b3565b840191505092915050565b6000602082019050818103600083015261241781846123c4565b905092915050565b600081519050919050565b600082825260208201905092915050565b6000819050602082019050919050565b612454816121da565b82525050565b608082016000820151612470600085018261223a565b506020820151612483602085018261223a565b506040820151612496604085018261244b565b5060608201516124a9606085018261244b565b50505050565b60006124bb838361245a565b60808301905092915050565b6000602082019050919050565b60006124df8261241f565b6124e9818561242a565b93506124f48361243b565b8060005b8381101561252557815161250c88826124af565b9750612517836124c7565b9250506001810190506124f8565b5085935050505092915050565b6000602082019050818103600083015261254c81846124d4565b905092915050565b6000806040838503121561256b5761256a61214a565b5b600061257985828601612198565b925050602061258a85828601612305565b9150509250929050565b60008115159050919050565b6125a981612594565b82525050565b60006020820190506125c460008301846125a0565b92915050565b600081519050919050565b600082825260208201905092915050565b6000819050602082019050919050565b6000612602838361244b565b60208301905092915050565b6000602082019050919050565b6000612626826125ca565b61263081856125d5565b935061263b836125e6565b8060005b8381101561266c57815161265388826125f6565b975061265e8361260e565b92505060018101905061263f565b5085935050505092915050565b60006020820190508181036000830152612693818461261b565b905092915050565b6080820160008201516126b1600085018261223a565b5060208201516126c4602085018261223a565b5060408201516126d7604085018261244b565b5060608201516126ea606085018261244b565b50505050565b6000608082019050612705600083018461269b565b92915050565b6127148161216f565b82525050565b600060408201905061272f600083018561270b565b61273c60208301846121e4565b9392505050565b7f436f6e7472616374206973206e6f7420616e2045524337323100000000000000600082015250565b6000612779601983612378565b915061278482612743565b602082019050919050565b600060208201905081810360008301526127a88161276c565b9050919050565b6000815190506127be81612181565b92915050565b6000602082840312156127da576127d961214a565b5b60006127e8848285016127af565b91505092915050565b7f4e6f74206f776e6572206f66206e667400000000000000000000000000000000600082015250565b6000612827601083612378565b9150612832826127f1565b602082019050919050565b600060208201905081810360008301526128568161281a565b9050919050565b7f6c697374696e672070726963652073686f756c6420626520677265617465722060008201527f7468616e20300000000000000000000000000000000000000000000000000000602082015250565b60006128b9602683612378565b91506128c48261285d565b604082019050919050565b600060208201905081810360008301526128e8816128ac565b9050919050565b600081905092915050565b50565b600061290a6000836128ef565b9150612915826128fa565b600082019050919050565b600061292b826128fd565b9150819050919050565b7f5472616e73666572206661696c65640000000000000000000000000000000000600082015250565b600061296b600f83612378565b915061297682612935565b602082019050919050565b6000602082019050818103600083015261299a8161295e565b9050919050565b7f4e487b7100000000000000000000000000000000000000000000000000000000600052604160045260246000fd5b7f4e487b7100000000000000000000000000000000000000000000000000000000600052603260045260246000fd5b7f4e487b7100000000000000000000000000000000000000000000000000000000600052601160045260246000fd5b6000612a39826121da565b91507fffffffffffffffffffffffffffffffffffffffffffffffffffffffffffffffff8203612a6b57612a6a6129ff565b5b600182019050919050565b6000606082019050612a8b600083018661270b565b612a9860208301856121e4565b612aa560408301846121e4565b949350505050565b6000612ab8826121da565b9150612ac3836121da565b9250828201905080821115612adb57612ada6129ff565b5b92915050565b6000606082019050612af6600083018661270b565b612b03602083018561270b565b612b1060408301846121e4565b949350505050565b60007fffffffff0000000000000000000000000000000000000000000000000000000082169050919050565b612b4d81612b18565b82525050565b6000602082019050612b686000830184612b44565b92915050565b612b7781612594565b8114612b8257600080fd5b50565b600081519050612b9481612b6e565b92915050565b600060208284031215612bb057612baf61214a565b5b6000612bbe84828501612b85565b91505092915050565b7f5265656e7472616e637947756172643a207265656e7472616e742063616c6c00600082015250565b6000612bfd601f83612378565b9150612c0882612bc7565b602082019050919050565b60006020820190508181036000830152612c2c81612bf0565b9050919050565b7f436f756e7465723a2064656372656d656e74206f766572666c6f770000000000600082015250565b6000612c69601b83612378565b9150612c7482612c33565b602082019050919050565b60006020820190508181036000830152612c9881612c5c565b9050919050565b6000612caa826121da565b9150612cb5836121da565b9250828203905081811115612ccd57612ccc6129ff565b5b92915050565b7f4e487b7100000000000000000000000000000000000000000000000000000000600052603160045260246000fdfe5375636365737366756c6c79207472616e73666572726564207468652070726f63656564734e4654204c6973746564207375636365737366756c6c7920666f7220757072696768742073656c6c696e67a2646970667358221220b9bf48fb8dd772d3e3d36f90aaab73c876268ab1d419d45e79626375120dda0e64736f6c63430008110033",
  "linkReferences": {},
  "deployedLinkReferences": {}
}