{
  "_format": "hh-sol-artifact-1",
  "contractName": "AvianSellExchange",
  "sourceName": "contracts/AvianSellExchange.sol",
  "abi": [
    {
      "inputs": [],
      "stateMutability": "nonpayable",
      "type": "constructor"
    },
    {
      "inputs": [
        {
          "internalType": "address",
          "name": "nftAddress",
          "type": "address"
        },
        {
          "internalType": "uint256",
          "name": "tokenId",
          "type": "uint256"
        }
      ],
      "name": "AlreadyListed",
      "type": "error"
    },
    {
      "inputs": [],
      "name": "NoProceeds",
      "type": "error"
    },
    {
      "inputs": [
        {
          "internalType": "address",
          "name": "nftAddress",
          "type": "address"
        },
        {
          "internalType": "uint256",
          "name": "tokenId",
          "type": "uint256"
        }
      ],
      "name": "NotListed",
      "type": "error"
    },
    {
      "inputs": [],
      "name": "NotOwner",
      "type": "error"
    },
    {
      "inputs": [
        {
          "internalType": "address",
          "name": "nftAddress",
          "type": "address"
        },
        {
          "internalType": "uint256",
          "name": "tokenId",
          "type": "uint256"
        },
        {
          "internalType": "uint256",
          "name": "price",
          "type": "uint256"
        }
      ],
      "name": "PriceNotMet",
      "type": "error"
    },
    {
      "anonymous": false,
      "inputs": [
        {
          "indexed": true,
          "internalType": "address",
          "name": "buyer",
          "type": "address"
        },
        {
          "indexed": true,
          "internalType": "address",
          "name": "nftAddress",
          "type": "address"
        },
        {
          "indexed": true,
          "internalType": "uint256",
          "name": "tokenId",
          "type": "uint256"
        },
        {
          "indexed": false,
          "internalType": "uint256",
          "name": "price",
          "type": "uint256"
        }
      ],
      "name": "ItemBought",
      "type": "event"
    },
    {
      "anonymous": false,
      "inputs": [
        {
          "indexed": true,
          "internalType": "address",
          "name": "seller",
          "type": "address"
        },
        {
          "indexed": true,
          "internalType": "address",
          "name": "nftAddress",
          "type": "address"
        },
        {
          "indexed": true,
          "internalType": "uint256",
          "name": "tokenId",
          "type": "uint256"
        }
      ],
      "name": "ItemCanceled",
      "type": "event"
    },
    {
      "anonymous": false,
      "inputs": [
        {
          "indexed": true,
          "internalType": "address",
          "name": "seller",
          "type": "address"
        },
        {
          "indexed": true,
          "internalType": "address",
          "name": "nftAddress",
          "type": "address"
        },
        {
          "indexed": true,
          "internalType": "uint256",
          "name": "tokenId",
          "type": "uint256"
        },
        {
          "indexed": false,
          "internalType": "uint256",
          "name": "price",
          "type": "uint256"
        }
      ],
      "name": "ItemListed",
      "type": "event"
    },
    {
      "inputs": [
        {
          "internalType": "address",
          "name": "nftAddress",
          "type": "address"
        },
        {
          "internalType": "uint256",
          "name": "tokenId",
          "type": "uint256"
        }
      ],
      "name": "buyItem",
      "outputs": [
        {
          "internalType": "string",
          "name": "",
          "type": "string"
        }
      ],
      "stateMutability": "payable",
      "type": "function"
    },
    {
      "inputs": [
        {
          "internalType": "address",
          "name": "nftAddress",
          "type": "address"
        },
        {
          "internalType": "uint256",
          "name": "tokenId",
          "type": "uint256"
        }
      ],
      "name": "cancelListing",
      "outputs": [
        {
          "internalType": "string",
          "name": "",
          "type": "string"
        }
      ],
      "stateMutability": "nonpayable",
      "type": "function"
    },
    {
      "inputs": [
        {
          "internalType": "address",
          "name": "nftContract",
          "type": "address"
        }
      ],
      "name": "isNFT",
      "outputs": [
        {
          "internalType": "bool",
          "name": "",
          "type": "bool"
        }
      ],
      "stateMutability": "view",
      "type": "function"
    },
    {
      "inputs": [
        {
          "internalType": "address",
          "name": "nftContract",
          "type": "address"
        }
      ],
      "name": "isRentableNFT",
      "outputs": [
        {
          "internalType": "bool",
          "name": "",
          "type": "bool"
        }
      ],
      "stateMutability": "view",
      "type": "function"
    },
    {
      "inputs": [
        {
          "internalType": "address",
          "name": "nftAddress",
          "type": "address"
        },
        {
          "internalType": "uint256",
          "name": "tokenId",
          "type": "uint256"
        },
        {
          "internalType": "uint256",
          "name": "price",
          "type": "uint256"
        }
      ],
      "name": "listItem",
      "outputs": [
        {
          "internalType": "string",
          "name": "",
          "type": "string"
        }
      ],
      "stateMutability": "nonpayable",
      "type": "function"
    },
    {
      "inputs": [
        {
          "internalType": "address",
          "name": "nftAddress",
          "type": "address"
        },
        {
          "internalType": "uint256",
          "name": "tokenId",
          "type": "uint256"
        },
        {
          "internalType": "uint256",
          "name": "newPrice",
          "type": "uint256"
        }
      ],
      "name": "updateListing",
      "outputs": [
        {
          "internalType": "string",
          "name": "",
          "type": "string"
        }
      ],
      "stateMutability": "nonpayable",
      "type": "function"
    },
    {
      "inputs": [],
      "name": "withdrawProceeds",
      "outputs": [
        {
          "internalType": "string",
          "name": "",
          "type": "string"
        }
      ],
      "stateMutability": "nonpayable",
      "type": "function"
    }
  ],
  "bytecode": "0x6080604052662386f26fc1000060025534801561001b57600080fd5b50600160008190555033600160006101000a81548173ffffffffffffffffffffffffffffffffffffffff021916908373ffffffffffffffffffffffffffffffffffffffff1602179055506126a8806100746000396000f3fe6080604052600436106100705760003560e01c8063b2ddee061161004e578063b2ddee061461010d578063b31b85c91461014a578063e9a6f4f614610187578063f772adf1146101c457610070565b806389bfd38f146100755780639038e693146100b25780639f37092a146100dd575b600080fd5b34801561008157600080fd5b5061009c60048036038101906100979190611e22565b610201565b6040516100a99190611f05565b60405180910390f35b3480156100be57600080fd5b506100c761074d565b6040516100d49190611f05565b60405180910390f35b6100f760048036038101906100f29190611f27565b6108de565b6040516101049190611f05565b60405180910390f35b34801561011957600080fd5b50610134600480360381019061012f9190611f27565b610f2c565b6040516101419190611f05565b60405180910390f35b34801561015657600080fd5b50610171600480360381019061016c9190611f67565b61137b565b60405161017e9190611faf565b60405180910390f35b34801561019357600080fd5b506101ae60048036038101906101a99190611f67565b611431565b6040516101bb9190611faf565b60405180910390f35b3480156101d057600080fd5b506101eb60048036038101906101e69190611e22565b61159a565b6040516101f89190611f05565b60405180910390f35b606083836000600360008473ffffffffffffffffffffffffffffffffffffffff1673ffffffffffffffffffffffffffffffffffffffff16815260200190815260200160002060008381526020019081526020016000206040518060800160405290816000820160009054906101000a900473ffffffffffffffffffffffffffffffffffffffff1673ffffffffffffffffffffffffffffffffffffffff1673ffffffffffffffffffffffffffffffffffffffff1681526020016001820160009054906101000a900473ffffffffffffffffffffffffffffffffffffffff1673ffffffffffffffffffffffffffffffffffffffff1673ffffffffffffffffffffffffffffffffffffffff1681526020016002820154815260200160038201548152505090506000816060015111156103705782826040517f4a5568d5000000000000000000000000000000000000000000000000000000008152600401610367929190611fe8565b60405180910390fd5b61037a878761194b565b6103b9576040517f08c379a00000000000000000000000000000000000000000000000000000000081526004016103b09061205d565b60405180910390fd5b6103c28761137b565b610401576040517f08c379a00000000000000000000000000000000000000000000000000000000081526004016103f8906120c9565b60405180910390fd5b3373ffffffffffffffffffffffffffffffffffffffff168773ffffffffffffffffffffffffffffffffffffffff16636352211e886040518263ffffffff1660e01b815260040161045191906120e9565b602060405180830381865afa15801561046e573d6000803e3d6000fd5b505050506040513d601f19601f820116820180604052508101906104929190612119565b73ffffffffffffffffffffffffffffffffffffffff16146104e8576040517f08c379a00000000000000000000000000000000000000000000000000000000081526004016104df90612192565b60405180910390fd5b6000851161052b576040517f08c379a000000000000000000000000000000000000000000000000000000000815260040161052290612224565b60405180910390fd5b60405180608001604052803373ffffffffffffffffffffffffffffffffffffffff1681526020018873ffffffffffffffffffffffffffffffffffffffff16815260200187815260200186815250600360008973ffffffffffffffffffffffffffffffffffffffff1673ffffffffffffffffffffffffffffffffffffffff168152602001908152602001600020600088815260200190815260200160002060008201518160000160006101000a81548173ffffffffffffffffffffffffffffffffffffffff021916908373ffffffffffffffffffffffffffffffffffffffff16021790555060208201518160010160006101000a81548173ffffffffffffffffffffffffffffffffffffffff021916908373ffffffffffffffffffffffffffffffffffffffff16021790555060408201518160020155606082015181600301559050506106b5600560008973ffffffffffffffffffffffffffffffffffffffff1673ffffffffffffffffffffffffffffffffffffffff16815260200190815260200160002087611a13565b506106c1600688611a2d565b50858773ffffffffffffffffffffffffffffffffffffffff163373ffffffffffffffffffffffffffffffffffffffff167fd547e933094f12a9159076970143ebe73234e64480317844b0dcb36117116de48860405161072091906120e9565b60405180910390a46040518060600160405280602b8152602001612648602b913993505050509392505050565b60606000600460003373ffffffffffffffffffffffffffffffffffffffff1673ffffffffffffffffffffffffffffffffffffffff168152602001908152602001600020549050600081116107cd576040517fc4d8fa8700000000000000000000000000000000000000000000000000000000815260040160405180910390fd5b6000600460003373ffffffffffffffffffffffffffffffffffffffff1673ffffffffffffffffffffffffffffffffffffffff1681526020019081526020016000208190555060003373ffffffffffffffffffffffffffffffffffffffff168260405161083890612275565b60006040518083038185875af1925050503d8060008114610875576040519150601f19603f3d011682016040523d82523d6000602084013e61087a565b606091505b50509050806108be576040517f08c379a00000000000000000000000000000000000000000000000000000000081526004016108b5906122d6565b60405180910390fd5b604051806060016040528060258152602001612623602591399250505090565b606082826000600360008473ffffffffffffffffffffffffffffffffffffffff1673ffffffffffffffffffffffffffffffffffffffff16815260200190815260200160002060008381526020019081526020016000206040518060800160405290816000820160009054906101000a900473ffffffffffffffffffffffffffffffffffffffff1673ffffffffffffffffffffffffffffffffffffffff1673ffffffffffffffffffffffffffffffffffffffff1681526020016001820160009054906101000a900473ffffffffffffffffffffffffffffffffffffffff1673ffffffffffffffffffffffffffffffffffffffff1673ffffffffffffffffffffffffffffffffffffffff1681526020016002820154815260200160038201548152505090506000816060015111610a4c5782826040517f6831488c000000000000000000000000000000000000000000000000000000008152600401610a43929190611fe8565b60405180910390fd5b610a54611a5d565b610a5e868661194b565b610a9d576040517f08c379a0000000000000000000000000000000000000000000000000000000008152600401610a949061205d565b60405180910390fd5b610aa78686611aac565b610ae6576040517f08c379a0000000000000000000000000000000000000000000000000000000008152600401610add90612342565b60405180910390fd5b6000600360008873ffffffffffffffffffffffffffffffffffffffff1673ffffffffffffffffffffffffffffffffffffffff16815260200190815260200160002060008781526020019081526020016000206040518060800160405290816000820160009054906101000a900473ffffffffffffffffffffffffffffffffffffffff1673ffffffffffffffffffffffffffffffffffffffff1673ffffffffffffffffffffffffffffffffffffffff1681526020016001820160009054906101000a900473ffffffffffffffffffffffffffffffffffffffff1673ffffffffffffffffffffffffffffffffffffffff1673ffffffffffffffffffffffffffffffffffffffff1681526020016002820154815260200160038201548152505090508060600151341015610c5657868682606001516040517f7c934565000000000000000000000000000000000000000000000000000000008152600401610c4d93929190612362565b60405180910390fd5b3460046000836000015173ffffffffffffffffffffffffffffffffffffffff1673ffffffffffffffffffffffffffffffffffffffff1681526020019081526020016000206000828254610ca991906123c8565b92505081905550600360008873ffffffffffffffffffffffffffffffffffffffff1673ffffffffffffffffffffffffffffffffffffffff1681526020019081526020016000206000878152602001908152602001600020600080820160006101000a81549073ffffffffffffffffffffffffffffffffffffffff02191690556001820160006101000a81549073ffffffffffffffffffffffffffffffffffffffff0219169055600282016000905560038201600090555050610da9600560008973ffffffffffffffffffffffffffffffffffffffff1673ffffffffffffffffffffffffffffffffffffffff16815260200190815260200160002087611b68565b506000610df3600560008a73ffffffffffffffffffffffffffffffffffffffff1673ffffffffffffffffffffffffffffffffffffffff168152602001908152602001600020611b82565b03610e0557610e03600688611b97565b505b8673ffffffffffffffffffffffffffffffffffffffff166342842e0e826000015133896040518463ffffffff1660e01b8152600401610e46939291906123fc565b600060405180830381600087803b158015610e6057600080fd5b505af1158015610e74573d6000803e3d6000fd5b50505050858773ffffffffffffffffffffffffffffffffffffffff163373ffffffffffffffffffffffffffffffffffffffff167f263223b1dd81e51054a4e6f791d45a4a1ddb4aadcd93a2dfd892615c3fdac1878460600151604051610eda91906120e9565b60405180910390a46040518060400160405280601781526020017f4e4654207375636365737366756c6c7920426f75676874000000000000000000815250945050610f23611bc7565b50505092915050565b6060828233600083905060008173ffffffffffffffffffffffffffffffffffffffff16636352211e856040518263ffffffff1660e01b8152600401610f7191906120e9565b602060405180830381865afa158015610f8e573d6000803e3d6000fd5b505050506040513d601f19601f82011682018060405250810190610fb29190612119565b90508073ffffffffffffffffffffffffffffffffffffffff168373ffffffffffffffffffffffffffffffffffffffff1614611019576040517f30cd747100000000000000000000000000000000000000000000000000000000815260040160405180910390fd5b87876000600360008473ffffffffffffffffffffffffffffffffffffffff1673ffffffffffffffffffffffffffffffffffffffff16815260200190815260200160002060008381526020019081526020016000206040518060800160405290816000820160009054906101000a900473ffffffffffffffffffffffffffffffffffffffff1673ffffffffffffffffffffffffffffffffffffffff1673ffffffffffffffffffffffffffffffffffffffff1681526020016001820160009054906101000a900473ffffffffffffffffffffffffffffffffffffffff1673ffffffffffffffffffffffffffffffffffffffff1673ffffffffffffffffffffffffffffffffffffffff16815260200160028201548152602001600382015481525050905060008160600151116111855782826040517f6831488c00000000000000000000000000000000000000000000000000000000815260040161117c929190611fe8565b60405180910390fd5b600360008c73ffffffffffffffffffffffffffffffffffffffff1673ffffffffffffffffffffffffffffffffffffffff16815260200190815260200160002060008b8152602001908152602001600020600080820160006101000a81549073ffffffffffffffffffffffffffffffffffffffff02191690556001820160006101000a81549073ffffffffffffffffffffffffffffffffffffffff021916905560028201600090556003820160009055505061127e600560008d73ffffffffffffffffffffffffffffffffffffffff1673ffffffffffffffffffffffffffffffffffffffff1681526020019081526020016000208b611b68565b5060006112c8600560008e73ffffffffffffffffffffffffffffffffffffffff1673ffffffffffffffffffffffffffffffffffffffff168152602001908152602001600020611b82565b036112da576112d860068c611b97565b505b898b73ffffffffffffffffffffffffffffffffffffffff163373ffffffffffffffffffffffffffffffffffffffff167f9ba1a3cb55ce8d63d072a886f94d2a744f50cddf82128e897d0661f5ec62315860405160405180910390a46040518060400160405280601981526020017f4e465420756e6c6973746564207375636365737366756c6c79000000000000008152509850505050505050505092915050565b600080600090508273ffffffffffffffffffffffffffffffffffffffff166301ffc9a77f80ac58cd000000000000000000000000000000000000000000000000000000006040518263ffffffff1660e01b81526004016113db919061246e565b602060405180830381865afa92505050801561141557506040513d601f19601f8201168201806040525081019061141291906124b5565b60015b61142357600091505061142c565b80915050809150505b919050565b6000806000905060008373ffffffffffffffffffffffffffffffffffffffff166301ffc9a77fad092b5c000000000000000000000000000000000000000000000000000000006040518263ffffffff1660e01b8152600401611493919061246e565b602060405180830381865afa9250505080156114cd57506040513d601f19601f820116820180604052508101906114ca91906124b5565b60015b6114dc57600092505050611595565b809250508373ffffffffffffffffffffffffffffffffffffffff166301ffc9a77f80ac58cd000000000000000000000000000000000000000000000000000000006040518263ffffffff1660e01b8152600401611539919061246e565b602060405180830381865afa92505050801561157357506040513d601f19601f8201168201806040525081019061157091906124b5565b60015b61158257600092505050611595565b809150508180156115905750805b925050505b919050565b606083836000600360008473ffffffffffffffffffffffffffffffffffffffff1673ffffffffffffffffffffffffffffffffffffffff16815260200190815260200160002060008381526020019081526020016000206040518060800160405290816000820160009054906101000a900473ffffffffffffffffffffffffffffffffffffffff1673ffffffffffffffffffffffffffffffffffffffff1673ffffffffffffffffffffffffffffffffffffffff1681526020016001820160009054906101000a900473ffffffffffffffffffffffffffffffffffffffff1673ffffffffffffffffffffffffffffffffffffffff1673ffffffffffffffffffffffffffffffffffffffff16815260200160028201548152602001600382015481525050905060008160600151116117085782826040517f6831488c0000000000000000000000000000000000000000000000000000000081526004016116ff929190611fe8565b60405180910390fd5b611710611a5d565b868633600083905060008173ffffffffffffffffffffffffffffffffffffffff16636352211e856040518263ffffffff1660e01b815260040161175391906120e9565b602060405180830381865afa158015611770573d6000803e3d6000fd5b505050506040513d601f19601f820116820180604052508101906117949190612119565b90508073ffffffffffffffffffffffffffffffffffffffff168373ffffffffffffffffffffffffffffffffffffffff16146117fb576040517f30cd747100000000000000000000000000000000000000000000000000000000815260040160405180910390fd5b60008a1161183e576040517f08c379a000000000000000000000000000000000000000000000000000000000815260040161183590612224565b60405180910390fd5b89600360008e73ffffffffffffffffffffffffffffffffffffffff1673ffffffffffffffffffffffffffffffffffffffff16815260200190815260200160002060008d8152602001908152602001600020600301819055508a8c73ffffffffffffffffffffffffffffffffffffffff163373ffffffffffffffffffffffffffffffffffffffff167fd547e933094f12a9159076970143ebe73234e64480317844b0dcb36117116de48d6040516118f491906120e9565b60405180910390a46040518060400160405280602081526020017f5375636365737366756c6c79207570646174656420746865206c697374696e6781525098505050505050611941611bc7565b5050509392505050565b6000808390503073ffffffffffffffffffffffffffffffffffffffff168173ffffffffffffffffffffffffffffffffffffffff1663081812fc856040518263ffffffff1660e01b81526004016119a191906120e9565b602060405180830381865afa1580156119be573d6000803e3d6000fd5b505050506040513d601f19601f820116820180604052508101906119e29190612119565b73ffffffffffffffffffffffffffffffffffffffff1614611a07576000915050611a0d565b60019150505b92915050565b6000611a25836000018360001b611bd1565b905092915050565b6000611a55836000018373ffffffffffffffffffffffffffffffffffffffff1660001b611bd1565b905092915050565b600260005403611aa2576040517f08c379a0000000000000000000000000000000000000000000000000000000008152600401611a999061252e565b60405180910390fd5b6002600081905550565b6000611ab783611431565b15611b5d57600083905060008173ffffffffffffffffffffffffffffffffffffffff16638fc88c48856040518263ffffffff1660e01b8152600401611afc91906120e9565b602060405180830381865afa158015611b19573d6000803e3d6000fd5b505050506040513d601f19601f82011682018060405250810190611b3d9190612563565b905080421015611b5257600092505050611b62565b600192505050611b62565b600190505b92915050565b6000611b7a836000018360001b611c41565b905092915050565b6000611b9082600001611d55565b9050919050565b6000611bbf836000018373ffffffffffffffffffffffffffffffffffffffff1660001b611c41565b905092915050565b6001600081905550565b6000611bdd8383611d66565b611c36578260000182908060018154018082558091505060019003906000526020600020016000909190919091505582600001805490508360010160008481526020019081526020016000208190555060019050611c3b565b600090505b92915050565b60008083600101600084815260200190815260200160002054905060008114611d49576000600182611c739190612590565b9050600060018660000180549050611c8b9190612590565b9050818114611cfa576000866000018281548110611cac57611cab6125c4565b5b9060005260206000200154905080876000018481548110611cd057611ccf6125c4565b5b90600052602060002001819055508387600101600083815260200190815260200160002081905550505b85600001805480611d0e57611d0d6125f3565b5b600190038181906000526020600020016000905590558560010160008681526020019081526020016000206000905560019350505050611d4f565b60009150505b92915050565b600081600001805490509050919050565b600080836001016000848152602001908152602001600020541415905092915050565b600080fd5b600073ffffffffffffffffffffffffffffffffffffffff82169050919050565b6000611db982611d8e565b9050919050565b611dc981611dae565b8114611dd457600080fd5b50565b600081359050611de681611dc0565b92915050565b6000819050919050565b611dff81611dec565b8114611e0a57600080fd5b50565b600081359050611e1c81611df6565b92915050565b600080600060608486031215611e3b57611e3a611d89565b5b6000611e4986828701611dd7565b9350506020611e5a86828701611e0d565b9250506040611e6b86828701611e0d565b9150509250925092565b600081519050919050565b600082825260208201905092915050565b60005b83811015611eaf578082015181840152602081019050611e94565b60008484015250505050565b6000601f19601f8301169050919050565b6000611ed782611e75565b611ee18185611e80565b9350611ef1818560208601611e91565b611efa81611ebb565b840191505092915050565b60006020820190508181036000830152611f1f8184611ecc565b905092915050565b60008060408385031215611f3e57611f3d611d89565b5b6000611f4c85828601611dd7565b9250506020611f5d85828601611e0d565b9150509250929050565b600060208284031215611f7d57611f7c611d89565b5b6000611f8b84828501611dd7565b91505092915050565b60008115159050919050565b611fa981611f94565b82525050565b6000602082019050611fc46000830184611fa0565b92915050565b611fd381611dae565b82525050565b611fe281611dec565b82525050565b6000604082019050611ffd6000830185611fca565b61200a6020830184611fd9565b9392505050565b7f4d61726b6574706c616365206973206e6f74206170726f766564000000000000600082015250565b6000612047601a83611e80565b915061205282612011565b602082019050919050565b600060208201905081810360008301526120768161203a565b9050919050565b7f436f6e7472616374206973206e6f7420616e2045524337323100000000000000600082015250565b60006120b3601983611e80565b91506120be8261207d565b602082019050919050565b600060208201905081810360008301526120e2816120a6565b9050919050565b60006020820190506120fe6000830184611fd9565b92915050565b60008151905061211381611dc0565b92915050565b60006020828403121561212f5761212e611d89565b5b600061213d84828501612104565b91505092915050565b7f4e6f74206f776e6572206f66206e667400000000000000000000000000000000600082015250565b600061217c601083611e80565b915061218782612146565b602082019050919050565b600060208201905081810360008301526121ab8161216f565b9050919050565b7f6c697374696e672070726963652073686f756c6420626520677265617465722060008201527f7468616e20300000000000000000000000000000000000000000000000000000602082015250565b600061220e602683611e80565b9150612219826121b2565b604082019050919050565b6000602082019050818103600083015261223d81612201565b9050919050565b600081905092915050565b50565b600061225f600083612244565b915061226a8261224f565b600082019050919050565b600061228082612252565b9150819050919050565b7f5472616e73666572206661696c65640000000000000000000000000000000000600082015250565b60006122c0600f83611e80565b91506122cb8261228a565b602082019050919050565b600060208201905081810360008301526122ef816122b3565b9050919050565b7f4e465420416c72656164792072656e7465640000000000000000000000000000600082015250565b600061232c601283611e80565b9150612337826122f6565b602082019050919050565b6000602082019050818103600083015261235b8161231f565b9050919050565b60006060820190506123776000830186611fca565b6123846020830185611fd9565b6123916040830184611fd9565b949350505050565b7f4e487b7100000000000000000000000000000000000000000000000000000000600052601160045260246000fd5b60006123d382611dec565b91506123de83611dec565b92508282019050808211156123f6576123f5612399565b5b92915050565b60006060820190506124116000830186611fca565b61241e6020830185611fca565b61242b6040830184611fd9565b949350505050565b60007fffffffff0000000000000000000000000000000000000000000000000000000082169050919050565b61246881612433565b82525050565b6000602082019050612483600083018461245f565b92915050565b61249281611f94565b811461249d57600080fd5b50565b6000815190506124af81612489565b92915050565b6000602082840312156124cb576124ca611d89565b5b60006124d9848285016124a0565b91505092915050565b7f5265656e7472616e637947756172643a207265656e7472616e742063616c6c00600082015250565b6000612518601f83611e80565b9150612523826124e2565b602082019050919050565b600060208201905081810360008301526125478161250b565b9050919050565b60008151905061255d81611df6565b92915050565b60006020828403121561257957612578611d89565b5b60006125878482850161254e565b91505092915050565b600061259b82611dec565b91506125a683611dec565b92508282039050818111156125be576125bd612399565b5b92915050565b7f4e487b7100000000000000000000000000000000000000000000000000000000600052603260045260246000fd5b7f4e487b7100000000000000000000000000000000000000000000000000000000600052603160045260246000fdfe5375636365737366756c6c79207472616e73666572726564207468652070726f63656564734e4654204c6973746564207375636365737366756c6c7920666f7220757072696768742073656c6c696e67a2646970667358221220a26fdbe5978c243fefd40d409241eb50d42498e92f60254c79eaa3b7b441a1a464736f6c63430008110033",
  "linkReferences": {},
  "deployedLinkReferences": {}
}