{
  "_format": "hh-sol-artifact-1",
  "contractName": "AvianSellExchange",
  "sourceName": "contracts/AvianSellExchange.sol",
  "abi": [
    {
      "inputs": [],
      "stateMutability": "nonpayable",
      "type": "constructor"
    },
    {
      "inputs": [
        {
          "internalType": "address",
          "name": "nftAddress",
          "type": "address"
        },
        {
          "internalType": "uint256",
          "name": "tokenId",
          "type": "uint256"
        }
      ],
      "name": "AlreadyListed",
      "type": "error"
    },
    {
      "inputs": [],
      "name": "NoProceeds",
      "type": "error"
    },
    {
      "inputs": [],
      "name": "NotApprovedForMarketplace",
      "type": "error"
    },
    {
      "inputs": [
        {
          "internalType": "address",
          "name": "nftAddress",
          "type": "address"
        },
        {
          "internalType": "uint256",
          "name": "tokenId",
          "type": "uint256"
        }
      ],
      "name": "NotListed",
      "type": "error"
    },
    {
      "inputs": [],
      "name": "NotOwner",
      "type": "error"
    },
    {
      "inputs": [
        {
          "internalType": "address",
          "name": "nftAddress",
          "type": "address"
        },
        {
          "internalType": "uint256",
          "name": "tokenId",
          "type": "uint256"
        },
        {
          "internalType": "uint256",
          "name": "price",
          "type": "uint256"
        }
      ],
      "name": "PriceNotMet",
      "type": "error"
    },
    {
      "anonymous": false,
      "inputs": [
        {
          "indexed": true,
          "internalType": "address",
          "name": "buyer",
          "type": "address"
        },
        {
          "indexed": true,
          "internalType": "address",
          "name": "nftAddress",
          "type": "address"
        },
        {
          "indexed": true,
          "internalType": "uint256",
          "name": "tokenId",
          "type": "uint256"
        },
        {
          "indexed": false,
          "internalType": "uint256",
          "name": "price",
          "type": "uint256"
        }
      ],
      "name": "ItemBought",
      "type": "event"
    },
    {
      "anonymous": false,
      "inputs": [
        {
          "indexed": true,
          "internalType": "address",
          "name": "seller",
          "type": "address"
        },
        {
          "indexed": true,
          "internalType": "address",
          "name": "nftAddress",
          "type": "address"
        },
        {
          "indexed": true,
          "internalType": "uint256",
          "name": "tokenId",
          "type": "uint256"
        }
      ],
      "name": "ItemCanceled",
      "type": "event"
    },
    {
      "anonymous": false,
      "inputs": [
        {
          "indexed": true,
          "internalType": "address",
          "name": "seller",
          "type": "address"
        },
        {
          "indexed": true,
          "internalType": "address",
          "name": "nftAddress",
          "type": "address"
        },
        {
          "indexed": true,
          "internalType": "uint256",
          "name": "tokenId",
          "type": "uint256"
        },
        {
          "indexed": false,
          "internalType": "uint256",
          "name": "price",
          "type": "uint256"
        }
      ],
      "name": "ItemListed",
      "type": "event"
    },
    {
      "inputs": [
        {
          "internalType": "address",
          "name": "nftAddress",
          "type": "address"
        },
        {
          "internalType": "uint256",
          "name": "tokenId",
          "type": "uint256"
        }
      ],
      "name": "buyItem",
      "outputs": [],
      "stateMutability": "payable",
      "type": "function"
    },
    {
      "inputs": [
        {
          "internalType": "address",
          "name": "nftAddress",
          "type": "address"
        },
        {
          "internalType": "uint256",
          "name": "tokenId",
          "type": "uint256"
        }
      ],
      "name": "cancelListing",
      "outputs": [],
      "stateMutability": "nonpayable",
      "type": "function"
    },
    {
      "inputs": [
        {
          "internalType": "address",
          "name": "nftAddress",
          "type": "address"
        },
        {
          "internalType": "uint256",
          "name": "tokenId",
          "type": "uint256"
        }
      ],
      "name": "getASListing",
      "outputs": [
        {
          "components": [
            {
              "internalType": "address",
              "name": "owner",
              "type": "address"
            },
            {
              "internalType": "address",
              "name": "nftContract",
              "type": "address"
            },
            {
              "internalType": "uint256",
              "name": "tokenId",
              "type": "uint256"
            },
            {
              "internalType": "uint256",
              "name": "price",
              "type": "uint256"
            }
          ],
          "internalType": "struct AvianSellExchange.Listing_sell",
          "name": "",
          "type": "tuple"
        }
      ],
      "stateMutability": "view",
      "type": "function"
    },
    {
      "inputs": [
        {
          "internalType": "address",
          "name": "seller",
          "type": "address"
        }
      ],
      "name": "getProceeds",
      "outputs": [
        {
          "internalType": "uint256",
          "name": "",
          "type": "uint256"
        }
      ],
      "stateMutability": "view",
      "type": "function"
    },
    {
      "inputs": [
        {
          "internalType": "address",
          "name": "nftAddress",
          "type": "address"
        }
      ],
      "name": "getSListedAdddressTokens",
      "outputs": [
        {
          "internalType": "uint256[]",
          "name": "",
          "type": "uint256[]"
        }
      ],
      "stateMutability": "view",
      "type": "function"
    },
    {
      "inputs": [],
      "name": "getSListedAdddresses",
      "outputs": [
        {
          "internalType": "address[]",
          "name": "",
          "type": "address[]"
        }
      ],
      "stateMutability": "view",
      "type": "function"
    },
    {
      "inputs": [],
      "name": "getSellListings",
      "outputs": [
        {
          "components": [
            {
              "internalType": "address",
              "name": "owner",
              "type": "address"
            },
            {
              "internalType": "address",
              "name": "nftContract",
              "type": "address"
            },
            {
              "internalType": "uint256",
              "name": "tokenId",
              "type": "uint256"
            },
            {
              "internalType": "uint256",
              "name": "price",
              "type": "uint256"
            }
          ],
          "internalType": "struct AvianSellExchange.Listing_sell[]",
          "name": "",
          "type": "tuple[]"
        }
      ],
      "stateMutability": "view",
      "type": "function"
    },
    {
      "inputs": [
        {
          "internalType": "address",
          "name": "nftContract",
          "type": "address"
        }
      ],
      "name": "isNFT",
      "outputs": [
        {
          "internalType": "bool",
          "name": "",
          "type": "bool"
        }
      ],
      "stateMutability": "view",
      "type": "function"
    },
    {
      "inputs": [
        {
          "internalType": "address",
          "name": "nftAddress",
          "type": "address"
        },
        {
          "internalType": "uint256",
          "name": "tokenId",
          "type": "uint256"
        },
        {
          "internalType": "uint256",
          "name": "price",
          "type": "uint256"
        }
      ],
      "name": "listItem",
      "outputs": [],
      "stateMutability": "nonpayable",
      "type": "function"
    },
    {
      "inputs": [
        {
          "internalType": "address",
          "name": "nftAddress",
          "type": "address"
        },
        {
          "internalType": "uint256",
          "name": "tokenId",
          "type": "uint256"
        },
        {
          "internalType": "uint256",
          "name": "newPrice",
          "type": "uint256"
        }
      ],
      "name": "updateListing",
      "outputs": [],
      "stateMutability": "nonpayable",
      "type": "function"
    },
    {
      "inputs": [],
      "name": "withdrawProceeds",
      "outputs": [],
      "stateMutability": "nonpayable",
      "type": "function"
    }
  ],
  "bytecode": "0x6080604052662386f26fc1000060025534801561001b57600080fd5b50600160008190555033600160006101000a81548173ffffffffffffffffffffffffffffffffffffffff021916908373ffffffffffffffffffffffffffffffffffffffff160217905550612b92806100746000396000f3fe60806040526004361061009c5760003560e01c80639f37092a116100645780639f37092a14610174578063b2ddee0614610190578063b31b85c9146101b9578063be587251146101f6578063cc6b11b114610233578063f772adf1146102705761009c565b806330cfeda9146100a1578063341a0b8a146100de57806389bfd38f146101095780639038e69314610132578063995e578b14610149575b600080fd5b3480156100ad57600080fd5b506100c860048036038101906100c391906120a8565b610299565b6040516100d591906120ee565b60405180910390f35b3480156100ea57600080fd5b506100f36102e2565b60405161010091906121c7565b60405180910390f35b34801561011557600080fd5b50610130600480360381019061012b9190612215565b6102f9565b005b34801561013e57600080fd5b506101476108cb565b005b34801561015557600080fd5b5061015e610a3e565b60405161016b919061237b565b60405180910390f35b61018e6004803603810190610189919061239d565b610cc6565b005b34801561019c57600080fd5b506101b760048036038101906101b2919061239d565b611250565b005b3480156101c557600080fd5b506101e060048036038101906101db91906120a8565b61166d565b6040516101ed91906123f8565b60405180910390f35b34801561020257600080fd5b5061021d600480360381019061021891906120a8565b611723565b60405161022a91906124c2565b60405180910390f35b34801561023f57600080fd5b5061025a6004803603810190610255919061239d565b611779565b6040516102679190612539565b60405180910390f35b34801561027c57600080fd5b5061029760048036038101906102929190612215565b6118a4565b005b6000600460008373ffffffffffffffffffffffffffffffffffffffff1673ffffffffffffffffffffffffffffffffffffffff168152602001908152602001600020549050919050565b606060006102f06006611c19565b90508091505090565b82826000600360008473ffffffffffffffffffffffffffffffffffffffff1673ffffffffffffffffffffffffffffffffffffffff16815260200190815260200160002060008381526020019081526020016000206040518060800160405290816000820160009054906101000a900473ffffffffffffffffffffffffffffffffffffffff1673ffffffffffffffffffffffffffffffffffffffff1673ffffffffffffffffffffffffffffffffffffffff1681526020016001820160009054906101000a900473ffffffffffffffffffffffffffffffffffffffff1673ffffffffffffffffffffffffffffffffffffffff1673ffffffffffffffffffffffffffffffffffffffff1681526020016002820154815260200160038201548152505090506000816060015111156104665782826040517f4a5568d500000000000000000000000000000000000000000000000000000000815260040161045d929190612563565b60405180910390fd5b61046f8661166d565b6104ae576040517f08c379a00000000000000000000000000000000000000000000000000000000081526004016104a5906125e9565b60405180910390fd5b3373ffffffffffffffffffffffffffffffffffffffff168673ffffffffffffffffffffffffffffffffffffffff16636352211e876040518263ffffffff1660e01b81526004016104fe91906120ee565b602060405180830381865afa15801561051b573d6000803e3d6000fd5b505050506040513d601f19601f8201168201806040525081019061053f919061261e565b73ffffffffffffffffffffffffffffffffffffffff1614610595576040517f08c379a000000000000000000000000000000000000000000000000000000000815260040161058c90612697565b60405180910390fd5b600084116105d8576040517f08c379a00000000000000000000000000000000000000000000000000000000081526004016105cf90612729565b60405180910390fd5b60008690503073ffffffffffffffffffffffffffffffffffffffff168173ffffffffffffffffffffffffffffffffffffffff1663081812fc886040518263ffffffff1660e01b815260040161062d91906120ee565b602060405180830381865afa15801561064a573d6000803e3d6000fd5b505050506040513d601f19601f8201168201806040525081019061066e919061261e565b73ffffffffffffffffffffffffffffffffffffffff16146106bb576040517f4be3a2c500000000000000000000000000000000000000000000000000000000815260040160405180910390fd5b60405180608001604052803373ffffffffffffffffffffffffffffffffffffffff1681526020018873ffffffffffffffffffffffffffffffffffffffff16815260200187815260200186815250600360008973ffffffffffffffffffffffffffffffffffffffff1673ffffffffffffffffffffffffffffffffffffffff168152602001908152602001600020600088815260200190815260200160002060008201518160000160006101000a81548173ffffffffffffffffffffffffffffffffffffffff021916908373ffffffffffffffffffffffffffffffffffffffff16021790555060208201518160010160006101000a81548173ffffffffffffffffffffffffffffffffffffffff021916908373ffffffffffffffffffffffffffffffffffffffff16021790555060408201518160020155606082015181600301559050506108076008611c3a565b61084f600560008973ffffffffffffffffffffffffffffffffffffffff1673ffffffffffffffffffffffffffffffffffffffff16815260200190815260200160002087611c50565b5061085b600688611c6a565b50858773ffffffffffffffffffffffffffffffffffffffff163373ffffffffffffffffffffffffffffffffffffffff167fd547e933094f12a9159076970143ebe73234e64480317844b0dcb36117116de4886040516108ba91906120ee565b60405180910390a450505050505050565b6000600460003373ffffffffffffffffffffffffffffffffffffffff1673ffffffffffffffffffffffffffffffffffffffff16815260200190815260200160002054905060008111610949576040517fc4d8fa8700000000000000000000000000000000000000000000000000000000815260040160405180910390fd5b6000600460003373ffffffffffffffffffffffffffffffffffffffff1673ffffffffffffffffffffffffffffffffffffffff1681526020019081526020016000208190555060003373ffffffffffffffffffffffffffffffffffffffff16826040516109b49061277a565b60006040518083038185875af1925050503d80600081146109f1576040519150601f19603f3d011682016040523d82523d6000602084013e6109f6565b606091505b5050905080610a3a576040517f08c379a0000000000000000000000000000000000000000000000000000000008152600401610a31906127db565b60405180910390fd5b5050565b60606000610a4c6008611c9a565b67ffffffffffffffff811115610a6557610a646127fb565b5b604051908082528060200260200182016040528015610a9e57816020015b610a8b611ff1565b815260200190600190039081610a835790505b509050600080610aae6006611c19565b905060005b8151811015610cbc576000828281518110610ad157610ad061282a565b5b602002602001015190506000610b24600560008473ffffffffffffffffffffffffffffffffffffffff1673ffffffffffffffffffffffffffffffffffffffff168152602001908152602001600020611ca8565b905060005b8151811015610ca657600360008473ffffffffffffffffffffffffffffffffffffffff1673ffffffffffffffffffffffffffffffffffffffff1681526020019081526020016000206000838381518110610b8657610b8561282a565b5b602002602001015181526020019081526020016000206040518060800160405290816000820160009054906101000a900473ffffffffffffffffffffffffffffffffffffffff1673ffffffffffffffffffffffffffffffffffffffff1673ffffffffffffffffffffffffffffffffffffffff1681526020016001820160009054906101000a900473ffffffffffffffffffffffffffffffffffffffff1673ffffffffffffffffffffffffffffffffffffffff1673ffffffffffffffffffffffffffffffffffffffff16815260200160028201548152602001600382015481525050878781518110610c7a57610c7961282a565b5b60200260200101819052508580610c9090612888565b9650508080610c9e90612888565b915050610b29565b5050508080610cb490612888565b915050610ab3565b5082935050505090565b81816000600360008473ffffffffffffffffffffffffffffffffffffffff1673ffffffffffffffffffffffffffffffffffffffff16815260200190815260200160002060008381526020019081526020016000206040518060800160405290816000820160009054906101000a900473ffffffffffffffffffffffffffffffffffffffff1673ffffffffffffffffffffffffffffffffffffffff1673ffffffffffffffffffffffffffffffffffffffff1681526020016001820160009054906101000a900473ffffffffffffffffffffffffffffffffffffffff1673ffffffffffffffffffffffffffffffffffffffff1673ffffffffffffffffffffffffffffffffffffffff1681526020016002820154815260200160038201548152505090506000816060015111610e325782826040517f6831488c000000000000000000000000000000000000000000000000000000008152600401610e29929190612563565b60405180910390fd5b610e3a611cc9565b6000600360008773ffffffffffffffffffffffffffffffffffffffff1673ffffffffffffffffffffffffffffffffffffffff16815260200190815260200160002060008681526020019081526020016000206040518060800160405290816000820160009054906101000a900473ffffffffffffffffffffffffffffffffffffffff1673ffffffffffffffffffffffffffffffffffffffff1673ffffffffffffffffffffffffffffffffffffffff1681526020016001820160009054906101000a900473ffffffffffffffffffffffffffffffffffffffff1673ffffffffffffffffffffffffffffffffffffffff1673ffffffffffffffffffffffffffffffffffffffff1681526020016002820154815260200160038201548152505090508060600151341015610faa57858582606001516040517f7c934565000000000000000000000000000000000000000000000000000000008152600401610fa1939291906128d0565b60405180910390fd5b3460046000836000015173ffffffffffffffffffffffffffffffffffffffff1673ffffffffffffffffffffffffffffffffffffffff1681526020019081526020016000206000828254610ffd9190612907565b92505081905550600360008773ffffffffffffffffffffffffffffffffffffffff1673ffffffffffffffffffffffffffffffffffffffff1681526020019081526020016000206000868152602001908152602001600020600080820160006101000a81549073ffffffffffffffffffffffffffffffffffffffff02191690556001820160006101000a81549073ffffffffffffffffffffffffffffffffffffffff02191690556002820160009055600382016000905550506110fd600560008873ffffffffffffffffffffffffffffffffffffffff1673ffffffffffffffffffffffffffffffffffffffff16815260200190815260200160002086611d18565b506000611147600560008973ffffffffffffffffffffffffffffffffffffffff1673ffffffffffffffffffffffffffffffffffffffff168152602001908152602001600020611d32565b0361115957611157600687611d47565b505b6111636008611d77565b8573ffffffffffffffffffffffffffffffffffffffff166342842e0e826000015133886040518463ffffffff1660e01b81526004016111a49392919061293b565b600060405180830381600087803b1580156111be57600080fd5b505af11580156111d2573d6000803e3d6000fd5b50505050848673ffffffffffffffffffffffffffffffffffffffff163373ffffffffffffffffffffffffffffffffffffffff167f263223b1dd81e51054a4e6f791d45a4a1ddb4aadcd93a2dfd892615c3fdac187846060015160405161123891906120ee565b60405180910390a450611249611dd3565b5050505050565b818133600083905060008173ffffffffffffffffffffffffffffffffffffffff16636352211e856040518263ffffffff1660e01b815260040161129391906120ee565b602060405180830381865afa1580156112b0573d6000803e3d6000fd5b505050506040513d601f19601f820116820180604052508101906112d4919061261e565b90508073ffffffffffffffffffffffffffffffffffffffff168373ffffffffffffffffffffffffffffffffffffffff161461133b576040517f30cd747100000000000000000000000000000000000000000000000000000000815260040160405180910390fd5b86866000600360008473ffffffffffffffffffffffffffffffffffffffff1673ffffffffffffffffffffffffffffffffffffffff16815260200190815260200160002060008381526020019081526020016000206040518060800160405290816000820160009054906101000a900473ffffffffffffffffffffffffffffffffffffffff1673ffffffffffffffffffffffffffffffffffffffff1673ffffffffffffffffffffffffffffffffffffffff1681526020016001820160009054906101000a900473ffffffffffffffffffffffffffffffffffffffff1673ffffffffffffffffffffffffffffffffffffffff1673ffffffffffffffffffffffffffffffffffffffff16815260200160028201548152602001600382015481525050905060008160600151116114a75782826040517f6831488c00000000000000000000000000000000000000000000000000000000815260040161149e929190612563565b60405180910390fd5b600360008b73ffffffffffffffffffffffffffffffffffffffff1673ffffffffffffffffffffffffffffffffffffffff16815260200190815260200160002060008a8152602001908152602001600020600080820160006101000a81549073ffffffffffffffffffffffffffffffffffffffff02191690556001820160006101000a81549073ffffffffffffffffffffffffffffffffffffffff02191690556002820160009055600382016000905550506115a0600560008c73ffffffffffffffffffffffffffffffffffffffff1673ffffffffffffffffffffffffffffffffffffffff1681526020019081526020016000208a611d18565b5060006115ea600560008d73ffffffffffffffffffffffffffffffffffffffff1673ffffffffffffffffffffffffffffffffffffffff168152602001908152602001600020611d32565b036115fc576115fa60068b611d47565b505b6116066008611d77565b888a73ffffffffffffffffffffffffffffffffffffffff163373ffffffffffffffffffffffffffffffffffffffff167f9ba1a3cb55ce8d63d072a886f94d2a744f50cddf82128e897d0661f5ec62315860405160405180910390a450505050505050505050565b600080600090508273ffffffffffffffffffffffffffffffffffffffff166301ffc9a77f80ac58cd000000000000000000000000000000000000000000000000000000006040518263ffffffff1660e01b81526004016116cd91906129ad565b602060405180830381865afa92505050801561170757506040513d601f19601f8201168201806040525081019061170491906129f4565b60015b61171557600091505061171e565b80915050809150505b919050565b6060600061176e600560008573ffffffffffffffffffffffffffffffffffffffff1673ffffffffffffffffffffffffffffffffffffffff168152602001908152602001600020611ca8565b905080915050919050565b611781611ff1565b600360008473ffffffffffffffffffffffffffffffffffffffff1673ffffffffffffffffffffffffffffffffffffffff16815260200190815260200160002060008381526020019081526020016000206040518060800160405290816000820160009054906101000a900473ffffffffffffffffffffffffffffffffffffffff1673ffffffffffffffffffffffffffffffffffffffff1673ffffffffffffffffffffffffffffffffffffffff1681526020016001820160009054906101000a900473ffffffffffffffffffffffffffffffffffffffff1673ffffffffffffffffffffffffffffffffffffffff1673ffffffffffffffffffffffffffffffffffffffff16815260200160028201548152602001600382015481525050905092915050565b82826000600360008473ffffffffffffffffffffffffffffffffffffffff1673ffffffffffffffffffffffffffffffffffffffff16815260200190815260200160002060008381526020019081526020016000206040518060800160405290816000820160009054906101000a900473ffffffffffffffffffffffffffffffffffffffff1673ffffffffffffffffffffffffffffffffffffffff1673ffffffffffffffffffffffffffffffffffffffff1681526020016001820160009054906101000a900473ffffffffffffffffffffffffffffffffffffffff1673ffffffffffffffffffffffffffffffffffffffff1673ffffffffffffffffffffffffffffffffffffffff1681526020016002820154815260200160038201548152505090506000816060015111611a105782826040517f6831488c000000000000000000000000000000000000000000000000000000008152600401611a07929190612563565b60405180910390fd5b611a18611cc9565b858533600083905060008173ffffffffffffffffffffffffffffffffffffffff16636352211e856040518263ffffffff1660e01b8152600401611a5b91906120ee565b602060405180830381865afa158015611a78573d6000803e3d6000fd5b505050506040513d601f19601f82011682018060405250810190611a9c919061261e565b90508073ffffffffffffffffffffffffffffffffffffffff168373ffffffffffffffffffffffffffffffffffffffff1614611b03576040517f30cd747100000000000000000000000000000000000000000000000000000000815260040160405180910390fd5b60008911611b46576040517f08c379a0000000000000000000000000000000000000000000000000000000008152600401611b3d90612729565b60405180910390fd5b88600360008d73ffffffffffffffffffffffffffffffffffffffff1673ffffffffffffffffffffffffffffffffffffffff16815260200190815260200160002060008c815260200190815260200160002060030181905550898b73ffffffffffffffffffffffffffffffffffffffff163373ffffffffffffffffffffffffffffffffffffffff167fd547e933094f12a9159076970143ebe73234e64480317844b0dcb36117116de48c604051611bfc91906120ee565b60405180910390a45050505050611c11611dd3565b505050505050565b60606000611c2983600001611ddd565b905060608190508092505050919050565b6001816000016000828254019250508190555050565b6000611c62836000018360001b611e39565b905092915050565b6000611c92836000018373ffffffffffffffffffffffffffffffffffffffff1660001b611e39565b905092915050565b600081600001549050919050565b60606000611cb883600001611ddd565b905060608190508092505050919050565b600260005403611d0e576040517f08c379a0000000000000000000000000000000000000000000000000000000008152600401611d0590612a6d565b60405180910390fd5b6002600081905550565b6000611d2a836000018360001b611ea9565b905092915050565b6000611d4082600001611fbd565b9050919050565b6000611d6f836000018373ffffffffffffffffffffffffffffffffffffffff1660001b611ea9565b905092915050565b60008160000154905060008111611dc3576040517f08c379a0000000000000000000000000000000000000000000000000000000008152600401611dba90612ad9565b60405180910390fd5b6001810382600001819055505050565b6001600081905550565b606081600001805480602002602001604051908101604052809291908181526020018280548015611e2d57602002820191906000526020600020905b815481526020019060010190808311611e19575b50505050509050919050565b6000611e458383611fce565b611e9e578260000182908060018154018082558091505060019003906000526020600020016000909190919091505582600001805490508360010160008481526020019081526020016000208190555060019050611ea3565b600090505b92915050565b60008083600101600084815260200190815260200160002054905060008114611fb1576000600182611edb9190612af9565b9050600060018660000180549050611ef39190612af9565b9050818114611f62576000866000018281548110611f1457611f1361282a565b5b9060005260206000200154905080876000018481548110611f3857611f3761282a565b5b90600052602060002001819055508387600101600083815260200190815260200160002081905550505b85600001805480611f7657611f75612b2d565b5b600190038181906000526020600020016000905590558560010160008681526020019081526020016000206000905560019350505050611fb7565b60009150505b92915050565b600081600001805490509050919050565b600080836001016000848152602001908152602001600020541415905092915050565b6040518060800160405280600073ffffffffffffffffffffffffffffffffffffffff168152602001600073ffffffffffffffffffffffffffffffffffffffff16815260200160008152602001600081525090565b600080fd5b600073ffffffffffffffffffffffffffffffffffffffff82169050919050565b60006120758261204a565b9050919050565b6120858161206a565b811461209057600080fd5b50565b6000813590506120a28161207c565b92915050565b6000602082840312156120be576120bd612045565b5b60006120cc84828501612093565b91505092915050565b6000819050919050565b6120e8816120d5565b82525050565b600060208201905061210360008301846120df565b92915050565b600081519050919050565b600082825260208201905092915050565b6000819050602082019050919050565b61213e8161206a565b82525050565b60006121508383612135565b60208301905092915050565b6000602082019050919050565b600061217482612109565b61217e8185612114565b935061218983612125565b8060005b838110156121ba5781516121a18882612144565b97506121ac8361215c565b92505060018101905061218d565b5085935050505092915050565b600060208201905081810360008301526121e18184612169565b905092915050565b6121f2816120d5565b81146121fd57600080fd5b50565b60008135905061220f816121e9565b92915050565b60008060006060848603121561222e5761222d612045565b5b600061223c86828701612093565b935050602061224d86828701612200565b925050604061225e86828701612200565b9150509250925092565b600081519050919050565b600082825260208201905092915050565b6000819050602082019050919050565b61229d816120d5565b82525050565b6080820160008201516122b96000850182612135565b5060208201516122cc6020850182612135565b5060408201516122df6040850182612294565b5060608201516122f26060850182612294565b50505050565b600061230483836122a3565b60808301905092915050565b6000602082019050919050565b600061232882612268565b6123328185612273565b935061233d83612284565b8060005b8381101561236e57815161235588826122f8565b975061236083612310565b925050600181019050612341565b5085935050505092915050565b60006020820190508181036000830152612395818461231d565b905092915050565b600080604083850312156123b4576123b3612045565b5b60006123c285828601612093565b92505060206123d385828601612200565b9150509250929050565b60008115159050919050565b6123f2816123dd565b82525050565b600060208201905061240d60008301846123e9565b92915050565b600081519050919050565b600082825260208201905092915050565b6000819050602082019050919050565b600061244b8383612294565b60208301905092915050565b6000602082019050919050565b600061246f82612413565b612479818561241e565b93506124848361242f565b8060005b838110156124b557815161249c888261243f565b97506124a783612457565b925050600181019050612488565b5085935050505092915050565b600060208201905081810360008301526124dc8184612464565b905092915050565b6080820160008201516124fa6000850182612135565b50602082015161250d6020850182612135565b5060408201516125206040850182612294565b5060608201516125336060850182612294565b50505050565b600060808201905061254e60008301846124e4565b92915050565b61255d8161206a565b82525050565b60006040820190506125786000830185612554565b61258560208301846120df565b9392505050565b600082825260208201905092915050565b7f436f6e7472616374206973206e6f7420616e2045524337323100000000000000600082015250565b60006125d360198361258c565b91506125de8261259d565b602082019050919050565b60006020820190508181036000830152612602816125c6565b9050919050565b6000815190506126188161207c565b92915050565b60006020828403121561263457612633612045565b5b600061264284828501612609565b91505092915050565b7f4e6f74206f776e6572206f66206e667400000000000000000000000000000000600082015250565b600061268160108361258c565b915061268c8261264b565b602082019050919050565b600060208201905081810360008301526126b081612674565b9050919050565b7f6c697374696e672070726963652073686f756c6420626520677265617465722060008201527f7468616e20300000000000000000000000000000000000000000000000000000602082015250565b600061271360268361258c565b915061271e826126b7565b604082019050919050565b6000602082019050818103600083015261274281612706565b9050919050565b600081905092915050565b50565b6000612764600083612749565b915061276f82612754565b600082019050919050565b600061278582612757565b9150819050919050565b7f5472616e73666572206661696c65640000000000000000000000000000000000600082015250565b60006127c5600f8361258c565b91506127d08261278f565b602082019050919050565b600060208201905081810360008301526127f4816127b8565b9050919050565b7f4e487b7100000000000000000000000000000000000000000000000000000000600052604160045260246000fd5b7f4e487b7100000000000000000000000000000000000000000000000000000000600052603260045260246000fd5b7f4e487b7100000000000000000000000000000000000000000000000000000000600052601160045260246000fd5b6000612893826120d5565b91507fffffffffffffffffffffffffffffffffffffffffffffffffffffffffffffffff82036128c5576128c4612859565b5b600182019050919050565b60006060820190506128e56000830186612554565b6128f260208301856120df565b6128ff60408301846120df565b949350505050565b6000612912826120d5565b915061291d836120d5565b925082820190508082111561293557612934612859565b5b92915050565b60006060820190506129506000830186612554565b61295d6020830185612554565b61296a60408301846120df565b949350505050565b60007fffffffff0000000000000000000000000000000000000000000000000000000082169050919050565b6129a781612972565b82525050565b60006020820190506129c2600083018461299e565b92915050565b6129d1816123dd565b81146129dc57600080fd5b50565b6000815190506129ee816129c8565b92915050565b600060208284031215612a0a57612a09612045565b5b6000612a18848285016129df565b91505092915050565b7f5265656e7472616e637947756172643a207265656e7472616e742063616c6c00600082015250565b6000612a57601f8361258c565b9150612a6282612a21565b602082019050919050565b60006020820190508181036000830152612a8681612a4a565b9050919050565b7f436f756e7465723a2064656372656d656e74206f766572666c6f770000000000600082015250565b6000612ac3601b8361258c565b9150612ace82612a8d565b602082019050919050565b60006020820190508181036000830152612af281612ab6565b9050919050565b6000612b04826120d5565b9150612b0f836120d5565b9250828203905081811115612b2757612b26612859565b5b92915050565b7f4e487b7100000000000000000000000000000000000000000000000000000000600052603160045260246000fdfea2646970667358221220467a3fbd9a7bd0e8b54ffe68b0f739ee48459f205e613ea66cd788133f8ba47164736f6c63430008110033",
  "linkReferences": {},
  "deployedLinkReferences": {}
}