{
  "_format": "hh-sol-artifact-1",
  "contractName": "AvianSellExchange",
  "sourceName": "contracts/AvianSellExchange.sol",
  "abi": [
    {
      "inputs": [],
      "stateMutability": "nonpayable",
      "type": "constructor"
    },
    {
      "inputs": [
        {
          "internalType": "address",
          "name": "nftAddress",
          "type": "address"
        },
        {
          "internalType": "uint256",
          "name": "tokenId",
          "type": "uint256"
        }
      ],
      "name": "AlreadyListed",
      "type": "error"
    },
    {
      "inputs": [],
      "name": "NoProceeds",
      "type": "error"
    },
    {
      "inputs": [],
      "name": "NotApprovedForMarketplace",
      "type": "error"
    },
    {
      "inputs": [
        {
          "internalType": "address",
          "name": "nftAddress",
          "type": "address"
        },
        {
          "internalType": "uint256",
          "name": "tokenId",
          "type": "uint256"
        }
      ],
      "name": "NotListed",
      "type": "error"
    },
    {
      "inputs": [],
      "name": "NotOwner",
      "type": "error"
    },
    {
      "inputs": [
        {
          "internalType": "address",
          "name": "nftAddress",
          "type": "address"
        },
        {
          "internalType": "uint256",
          "name": "tokenId",
          "type": "uint256"
        },
        {
          "internalType": "uint256",
          "name": "price",
          "type": "uint256"
        }
      ],
      "name": "PriceNotMet",
      "type": "error"
    },
    {
      "anonymous": false,
      "inputs": [
        {
          "indexed": true,
          "internalType": "address",
          "name": "buyer",
          "type": "address"
        },
        {
          "indexed": true,
          "internalType": "address",
          "name": "nftAddress",
          "type": "address"
        },
        {
          "indexed": true,
          "internalType": "uint256",
          "name": "tokenId",
          "type": "uint256"
        },
        {
          "indexed": false,
          "internalType": "uint256",
          "name": "price",
          "type": "uint256"
        }
      ],
      "name": "ItemBought",
      "type": "event"
    },
    {
      "anonymous": false,
      "inputs": [
        {
          "indexed": true,
          "internalType": "address",
          "name": "seller",
          "type": "address"
        },
        {
          "indexed": true,
          "internalType": "address",
          "name": "nftAddress",
          "type": "address"
        },
        {
          "indexed": true,
          "internalType": "uint256",
          "name": "tokenId",
          "type": "uint256"
        }
      ],
      "name": "ItemCanceled",
      "type": "event"
    },
    {
      "anonymous": false,
      "inputs": [
        {
          "indexed": true,
          "internalType": "address",
          "name": "seller",
          "type": "address"
        },
        {
          "indexed": true,
          "internalType": "address",
          "name": "nftAddress",
          "type": "address"
        },
        {
          "indexed": true,
          "internalType": "uint256",
          "name": "tokenId",
          "type": "uint256"
        },
        {
          "indexed": false,
          "internalType": "uint256",
          "name": "price",
          "type": "uint256"
        }
      ],
      "name": "ItemListed",
      "type": "event"
    },
    {
      "inputs": [
        {
          "internalType": "address",
          "name": "nftAddress",
          "type": "address"
        },
        {
          "internalType": "uint256",
          "name": "tokenId",
          "type": "uint256"
        }
      ],
      "name": "buyItem",
      "outputs": [
        {
          "internalType": "string",
          "name": "",
          "type": "string"
        }
      ],
      "stateMutability": "payable",
      "type": "function"
    },
    {
      "inputs": [
        {
          "internalType": "address",
          "name": "nftAddress",
          "type": "address"
        },
        {
          "internalType": "uint256",
          "name": "tokenId",
          "type": "uint256"
        }
      ],
      "name": "cancelListing",
      "outputs": [
        {
          "internalType": "string",
          "name": "",
          "type": "string"
        }
      ],
      "stateMutability": "nonpayable",
      "type": "function"
    },
    {
      "inputs": [
        {
          "internalType": "address",
          "name": "nftContract",
          "type": "address"
        }
      ],
      "name": "isNFT",
      "outputs": [
        {
          "internalType": "bool",
          "name": "",
          "type": "bool"
        }
      ],
      "stateMutability": "view",
      "type": "function"
    },
    {
      "inputs": [
        {
          "internalType": "address",
          "name": "nftAddress",
          "type": "address"
        },
        {
          "internalType": "uint256",
          "name": "tokenId",
          "type": "uint256"
        },
        {
          "internalType": "uint256",
          "name": "price",
          "type": "uint256"
        }
      ],
      "name": "listItem",
      "outputs": [
        {
          "internalType": "string",
          "name": "",
          "type": "string"
        }
      ],
      "stateMutability": "nonpayable",
      "type": "function"
    },
    {
      "inputs": [
        {
          "internalType": "address",
          "name": "nftAddress",
          "type": "address"
        },
        {
          "internalType": "uint256",
          "name": "tokenId",
          "type": "uint256"
        },
        {
          "internalType": "uint256",
          "name": "newPrice",
          "type": "uint256"
        }
      ],
      "name": "updateListing",
      "outputs": [
        {
          "internalType": "string",
          "name": "",
          "type": "string"
        }
      ],
      "stateMutability": "nonpayable",
      "type": "function"
    },
    {
      "inputs": [],
      "name": "withdrawProceeds",
      "outputs": [
        {
          "internalType": "string",
          "name": "",
          "type": "string"
        }
      ],
      "stateMutability": "nonpayable",
      "type": "function"
    }
  ],
  "bytecode": "0x6080604052662386f26fc1000060025534801561001b57600080fd5b50600160008190555033600160006101000a81548173ffffffffffffffffffffffffffffffffffffffff021916908373ffffffffffffffffffffffffffffffffffffffff160217905550612432806100746000396000f3fe6080604052600436106100555760003560e01c806389bfd38f1461005a5780639038e693146100975780639f37092a146100c2578063b2ddee06146100f2578063b31b85c91461012f578063f772adf11461016c575b600080fd5b34801561006657600080fd5b50610081600480360381019061007c9190611c5a565b6101a9565b60405161008e9190611d3d565b60405180910390f35b3480156100a357600080fd5b506100ac61079a565b6040516100b99190611d3d565b60405180910390f35b6100dc60048036038101906100d79190611d5f565b61092b565b6040516100e99190611d3d565b60405180910390f35b3480156100fe57600080fd5b5061011960048036038101906101149190611d5f565b610fd5565b6040516101269190611d3d565b60405180910390f35b34801561013b57600080fd5b5061015660048036038101906101519190611d9f565b61142e565b6040516101639190611de7565b60405180910390f35b34801561017857600080fd5b50610193600480360381019061018e9190611c5a565b6114e4565b6040516101a09190611d3d565b60405180910390f35b606083836000600360008473ffffffffffffffffffffffffffffffffffffffff1673ffffffffffffffffffffffffffffffffffffffff16815260200190815260200160002060008381526020019081526020016000206040518060800160405290816000820160009054906101000a900473ffffffffffffffffffffffffffffffffffffffff1673ffffffffffffffffffffffffffffffffffffffff1673ffffffffffffffffffffffffffffffffffffffff1681526020016001820160009054906101000a900473ffffffffffffffffffffffffffffffffffffffff1673ffffffffffffffffffffffffffffffffffffffff1673ffffffffffffffffffffffffffffffffffffffff1681526020016002820154815260200160038201548152505090506000816060015111156103185782826040517f4a5568d500000000000000000000000000000000000000000000000000000000815260040161030f929190611e20565b60405180910390fd5b6103218761142e565b610360576040517f08c379a000000000000000000000000000000000000000000000000000000000815260040161035790611e95565b60405180910390fd5b3373ffffffffffffffffffffffffffffffffffffffff168773ffffffffffffffffffffffffffffffffffffffff16636352211e886040518263ffffffff1660e01b81526004016103b09190611eb5565b602060405180830381865afa1580156103cd573d6000803e3d6000fd5b505050506040513d601f19601f820116820180604052508101906103f19190611ee5565b73ffffffffffffffffffffffffffffffffffffffff1614610447576040517f08c379a000000000000000000000000000000000000000000000000000000000815260040161043e90611f5e565b60405180910390fd5b6000851161048a576040517f08c379a000000000000000000000000000000000000000000000000000000000815260040161048190611ff0565b60405180910390fd5b60008790503073ffffffffffffffffffffffffffffffffffffffff168173ffffffffffffffffffffffffffffffffffffffff1663081812fc896040518263ffffffff1660e01b81526004016104df9190611eb5565b602060405180830381865afa1580156104fc573d6000803e3d6000fd5b505050506040513d601f19601f820116820180604052508101906105209190611ee5565b73ffffffffffffffffffffffffffffffffffffffff161461056d576040517f4be3a2c500000000000000000000000000000000000000000000000000000000815260040160405180910390fd5b60405180608001604052803373ffffffffffffffffffffffffffffffffffffffff1681526020018973ffffffffffffffffffffffffffffffffffffffff16815260200188815260200187815250600360008a73ffffffffffffffffffffffffffffffffffffffff1673ffffffffffffffffffffffffffffffffffffffff168152602001908152602001600020600089815260200190815260200160002060008201518160000160006101000a81548173ffffffffffffffffffffffffffffffffffffffff021916908373ffffffffffffffffffffffffffffffffffffffff16021790555060208201518160010160006101000a81548173ffffffffffffffffffffffffffffffffffffffff021916908373ffffffffffffffffffffffffffffffffffffffff16021790555060408201518160020155606082015181600301559050506106b96008611895565b610701600560008a73ffffffffffffffffffffffffffffffffffffffff1673ffffffffffffffffffffffffffffffffffffffff168152602001908152602001600020886118ab565b5061070d6006896118c5565b50868873ffffffffffffffffffffffffffffffffffffffff163373ffffffffffffffffffffffffffffffffffffffff167fd547e933094f12a9159076970143ebe73234e64480317844b0dcb36117116de48960405161076c9190611eb5565b60405180910390a46040518060600160405280602b81526020016123d2602b91399450505050509392505050565b60606000600460003373ffffffffffffffffffffffffffffffffffffffff1673ffffffffffffffffffffffffffffffffffffffff1681526020019081526020016000205490506000811161081a576040517fc4d8fa8700000000000000000000000000000000000000000000000000000000815260040160405180910390fd5b6000600460003373ffffffffffffffffffffffffffffffffffffffff1673ffffffffffffffffffffffffffffffffffffffff1681526020019081526020016000208190555060003373ffffffffffffffffffffffffffffffffffffffff168260405161088590612041565b60006040518083038185875af1925050503d80600081146108c2576040519150601f19603f3d011682016040523d82523d6000602084013e6108c7565b606091505b505090508061090b576040517f08c379a0000000000000000000000000000000000000000000000000000000008152600401610902906120a2565b60405180910390fd5b6040518060600160405280602581526020016123ad602591399250505090565b606082826000600360008473ffffffffffffffffffffffffffffffffffffffff1673ffffffffffffffffffffffffffffffffffffffff16815260200190815260200160002060008381526020019081526020016000206040518060800160405290816000820160009054906101000a900473ffffffffffffffffffffffffffffffffffffffff1673ffffffffffffffffffffffffffffffffffffffff1673ffffffffffffffffffffffffffffffffffffffff1681526020016001820160009054906101000a900473ffffffffffffffffffffffffffffffffffffffff1673ffffffffffffffffffffffffffffffffffffffff1673ffffffffffffffffffffffffffffffffffffffff1681526020016002820154815260200160038201548152505090506000816060015111610a995782826040517f6831488c000000000000000000000000000000000000000000000000000000008152600401610a90929190611e20565b60405180910390fd5b610aa16118f5565b60008690503073ffffffffffffffffffffffffffffffffffffffff168173ffffffffffffffffffffffffffffffffffffffff1663081812fc886040518263ffffffff1660e01b8152600401610af69190611eb5565b602060405180830381865afa158015610b13573d6000803e3d6000fd5b505050506040513d601f19601f82011682018060405250810190610b379190611ee5565b73ffffffffffffffffffffffffffffffffffffffff1614610b84576040517f4be3a2c500000000000000000000000000000000000000000000000000000000815260040160405180910390fd5b6000600360008973ffffffffffffffffffffffffffffffffffffffff1673ffffffffffffffffffffffffffffffffffffffff16815260200190815260200160002060008881526020019081526020016000206040518060800160405290816000820160009054906101000a900473ffffffffffffffffffffffffffffffffffffffff1673ffffffffffffffffffffffffffffffffffffffff1673ffffffffffffffffffffffffffffffffffffffff1681526020016001820160009054906101000a900473ffffffffffffffffffffffffffffffffffffffff1673ffffffffffffffffffffffffffffffffffffffff1673ffffffffffffffffffffffffffffffffffffffff1681526020016002820154815260200160038201548152505090508060600151341015610cf457878782606001516040517f7c934565000000000000000000000000000000000000000000000000000000008152600401610ceb939291906120c2565b60405180910390fd5b3460046000836000015173ffffffffffffffffffffffffffffffffffffffff1673ffffffffffffffffffffffffffffffffffffffff1681526020019081526020016000206000828254610d479190612128565b92505081905550600360008973ffffffffffffffffffffffffffffffffffffffff1673ffffffffffffffffffffffffffffffffffffffff1681526020019081526020016000206000888152602001908152602001600020600080820160006101000a81549073ffffffffffffffffffffffffffffffffffffffff02191690556001820160006101000a81549073ffffffffffffffffffffffffffffffffffffffff0219169055600282016000905560038201600090555050610e47600560008a73ffffffffffffffffffffffffffffffffffffffff1673ffffffffffffffffffffffffffffffffffffffff16815260200190815260200160002088611944565b506000610e91600560008b73ffffffffffffffffffffffffffffffffffffffff1673ffffffffffffffffffffffffffffffffffffffff16815260200190815260200160002061195e565b03610ea357610ea1600689611973565b505b610ead60086119a3565b8773ffffffffffffffffffffffffffffffffffffffff166342842e0e8260000151338a6040518463ffffffff1660e01b8152600401610eee9392919061215c565b600060405180830381600087803b158015610f0857600080fd5b505af1158015610f1c573d6000803e3d6000fd5b50505050868873ffffffffffffffffffffffffffffffffffffffff163373ffffffffffffffffffffffffffffffffffffffff167f263223b1dd81e51054a4e6f791d45a4a1ddb4aadcd93a2dfd892615c3fdac1878460600151604051610f829190611eb5565b60405180910390a46040518060400160405280601781526020017f4e4654207375636365737366756c6c7920426f7567687400000000000000000081525095505050610fcc6119ff565b50505092915050565b6060828233600083905060008173ffffffffffffffffffffffffffffffffffffffff16636352211e856040518263ffffffff1660e01b815260040161101a9190611eb5565b602060405180830381865afa158015611037573d6000803e3d6000fd5b505050506040513d601f19601f8201168201806040525081019061105b9190611ee5565b90508073ffffffffffffffffffffffffffffffffffffffff168373ffffffffffffffffffffffffffffffffffffffff16146110c2576040517f30cd747100000000000000000000000000000000000000000000000000000000815260040160405180910390fd5b87876000600360008473ffffffffffffffffffffffffffffffffffffffff1673ffffffffffffffffffffffffffffffffffffffff16815260200190815260200160002060008381526020019081526020016000206040518060800160405290816000820160009054906101000a900473ffffffffffffffffffffffffffffffffffffffff1673ffffffffffffffffffffffffffffffffffffffff1673ffffffffffffffffffffffffffffffffffffffff1681526020016001820160009054906101000a900473ffffffffffffffffffffffffffffffffffffffff1673ffffffffffffffffffffffffffffffffffffffff1673ffffffffffffffffffffffffffffffffffffffff168152602001600282015481526020016003820154815250509050600081606001511161122e5782826040517f6831488c000000000000000000000000000000000000000000000000000000008152600401611225929190611e20565b60405180910390fd5b600360008c73ffffffffffffffffffffffffffffffffffffffff1673ffffffffffffffffffffffffffffffffffffffff16815260200190815260200160002060008b8152602001908152602001600020600080820160006101000a81549073ffffffffffffffffffffffffffffffffffffffff02191690556001820160006101000a81549073ffffffffffffffffffffffffffffffffffffffff0219169055600282016000905560038201600090555050611327600560008d73ffffffffffffffffffffffffffffffffffffffff1673ffffffffffffffffffffffffffffffffffffffff1681526020019081526020016000208b611944565b506000611371600560008e73ffffffffffffffffffffffffffffffffffffffff1673ffffffffffffffffffffffffffffffffffffffff16815260200190815260200160002061195e565b036113835761138160068c611973565b505b61138d60086119a3565b898b73ffffffffffffffffffffffffffffffffffffffff163373ffffffffffffffffffffffffffffffffffffffff167f9ba1a3cb55ce8d63d072a886f94d2a744f50cddf82128e897d0661f5ec62315860405160405180910390a46040518060400160405280601981526020017f4e465420756e6c6973746564207375636365737366756c6c79000000000000008152509850505050505050505092915050565b600080600090508273ffffffffffffffffffffffffffffffffffffffff166301ffc9a77f80ac58cd000000000000000000000000000000000000000000000000000000006040518263ffffffff1660e01b815260040161148e91906121ce565b602060405180830381865afa9250505080156114c857506040513d601f19601f820116820180604052508101906114c59190612215565b60015b6114d65760009150506114df565b80915050809150505b919050565b606083836000600360008473ffffffffffffffffffffffffffffffffffffffff1673ffffffffffffffffffffffffffffffffffffffff16815260200190815260200160002060008381526020019081526020016000206040518060800160405290816000820160009054906101000a900473ffffffffffffffffffffffffffffffffffffffff1673ffffffffffffffffffffffffffffffffffffffff1673ffffffffffffffffffffffffffffffffffffffff1681526020016001820160009054906101000a900473ffffffffffffffffffffffffffffffffffffffff1673ffffffffffffffffffffffffffffffffffffffff1673ffffffffffffffffffffffffffffffffffffffff16815260200160028201548152602001600382015481525050905060008160600151116116525782826040517f6831488c000000000000000000000000000000000000000000000000000000008152600401611649929190611e20565b60405180910390fd5b61165a6118f5565b868633600083905060008173ffffffffffffffffffffffffffffffffffffffff16636352211e856040518263ffffffff1660e01b815260040161169d9190611eb5565b602060405180830381865afa1580156116ba573d6000803e3d6000fd5b505050506040513d601f19601f820116820180604052508101906116de9190611ee5565b90508073ffffffffffffffffffffffffffffffffffffffff168373ffffffffffffffffffffffffffffffffffffffff1614611745576040517f30cd747100000000000000000000000000000000000000000000000000000000815260040160405180910390fd5b60008a11611788576040517f08c379a000000000000000000000000000000000000000000000000000000000815260040161177f90611ff0565b60405180910390fd5b89600360008e73ffffffffffffffffffffffffffffffffffffffff1673ffffffffffffffffffffffffffffffffffffffff16815260200190815260200160002060008d8152602001908152602001600020600301819055508a8c73ffffffffffffffffffffffffffffffffffffffff163373ffffffffffffffffffffffffffffffffffffffff167fd547e933094f12a9159076970143ebe73234e64480317844b0dcb36117116de48d60405161183e9190611eb5565b60405180910390a46040518060400160405280602081526020017f5375636365737366756c6c79207570646174656420746865206c697374696e678152509850505050505061188b6119ff565b5050509392505050565b6001816000016000828254019250508190555050565b60006118bd836000018360001b611a09565b905092915050565b60006118ed836000018373ffffffffffffffffffffffffffffffffffffffff1660001b611a09565b905092915050565b60026000540361193a576040517f08c379a00000000000000000000000000000000000000000000000000000000081526004016119319061228e565b60405180910390fd5b6002600081905550565b6000611956836000018360001b611a79565b905092915050565b600061196c82600001611b8d565b9050919050565b600061199b836000018373ffffffffffffffffffffffffffffffffffffffff1660001b611a79565b905092915050565b600081600001549050600081116119ef576040517f08c379a00000000000000000000000000000000000000000000000000000000081526004016119e6906122fa565b60405180910390fd5b6001810382600001819055505050565b6001600081905550565b6000611a158383611b9e565b611a6e578260000182908060018154018082558091505060019003906000526020600020016000909190919091505582600001805490508360010160008481526020019081526020016000208190555060019050611a73565b600090505b92915050565b60008083600101600084815260200190815260200160002054905060008114611b81576000600182611aab919061231a565b9050600060018660000180549050611ac3919061231a565b9050818114611b32576000866000018281548110611ae457611ae361234e565b5b9060005260206000200154905080876000018481548110611b0857611b0761234e565b5b90600052602060002001819055508387600101600083815260200190815260200160002081905550505b85600001805480611b4657611b4561237d565b5b600190038181906000526020600020016000905590558560010160008681526020019081526020016000206000905560019350505050611b87565b60009150505b92915050565b600081600001805490509050919050565b600080836001016000848152602001908152602001600020541415905092915050565b600080fd5b600073ffffffffffffffffffffffffffffffffffffffff82169050919050565b6000611bf182611bc6565b9050919050565b611c0181611be6565b8114611c0c57600080fd5b50565b600081359050611c1e81611bf8565b92915050565b6000819050919050565b611c3781611c24565b8114611c4257600080fd5b50565b600081359050611c5481611c2e565b92915050565b600080600060608486031215611c7357611c72611bc1565b5b6000611c8186828701611c0f565b9350506020611c9286828701611c45565b9250506040611ca386828701611c45565b9150509250925092565b600081519050919050565b600082825260208201905092915050565b60005b83811015611ce7578082015181840152602081019050611ccc565b60008484015250505050565b6000601f19601f8301169050919050565b6000611d0f82611cad565b611d198185611cb8565b9350611d29818560208601611cc9565b611d3281611cf3565b840191505092915050565b60006020820190508181036000830152611d578184611d04565b905092915050565b60008060408385031215611d7657611d75611bc1565b5b6000611d8485828601611c0f565b9250506020611d9585828601611c45565b9150509250929050565b600060208284031215611db557611db4611bc1565b5b6000611dc384828501611c0f565b91505092915050565b60008115159050919050565b611de181611dcc565b82525050565b6000602082019050611dfc6000830184611dd8565b92915050565b611e0b81611be6565b82525050565b611e1a81611c24565b82525050565b6000604082019050611e356000830185611e02565b611e426020830184611e11565b9392505050565b7f436f6e7472616374206973206e6f7420616e2045524337323100000000000000600082015250565b6000611e7f601983611cb8565b9150611e8a82611e49565b602082019050919050565b60006020820190508181036000830152611eae81611e72565b9050919050565b6000602082019050611eca6000830184611e11565b92915050565b600081519050611edf81611bf8565b92915050565b600060208284031215611efb57611efa611bc1565b5b6000611f0984828501611ed0565b91505092915050565b7f4e6f74206f776e6572206f66206e667400000000000000000000000000000000600082015250565b6000611f48601083611cb8565b9150611f5382611f12565b602082019050919050565b60006020820190508181036000830152611f7781611f3b565b9050919050565b7f6c697374696e672070726963652073686f756c6420626520677265617465722060008201527f7468616e20300000000000000000000000000000000000000000000000000000602082015250565b6000611fda602683611cb8565b9150611fe582611f7e565b604082019050919050565b6000602082019050818103600083015261200981611fcd565b9050919050565b600081905092915050565b50565b600061202b600083612010565b91506120368261201b565b600082019050919050565b600061204c8261201e565b9150819050919050565b7f5472616e73666572206661696c65640000000000000000000000000000000000600082015250565b600061208c600f83611cb8565b915061209782612056565b602082019050919050565b600060208201905081810360008301526120bb8161207f565b9050919050565b60006060820190506120d76000830186611e02565b6120e46020830185611e11565b6120f16040830184611e11565b949350505050565b7f4e487b7100000000000000000000000000000000000000000000000000000000600052601160045260246000fd5b600061213382611c24565b915061213e83611c24565b9250828201905080821115612156576121556120f9565b5b92915050565b60006060820190506121716000830186611e02565b61217e6020830185611e02565b61218b6040830184611e11565b949350505050565b60007fffffffff0000000000000000000000000000000000000000000000000000000082169050919050565b6121c881612193565b82525050565b60006020820190506121e360008301846121bf565b92915050565b6121f281611dcc565b81146121fd57600080fd5b50565b60008151905061220f816121e9565b92915050565b60006020828403121561222b5761222a611bc1565b5b600061223984828501612200565b91505092915050565b7f5265656e7472616e637947756172643a207265656e7472616e742063616c6c00600082015250565b6000612278601f83611cb8565b915061228382612242565b602082019050919050565b600060208201905081810360008301526122a78161226b565b9050919050565b7f436f756e7465723a2064656372656d656e74206f766572666c6f770000000000600082015250565b60006122e4601b83611cb8565b91506122ef826122ae565b602082019050919050565b60006020820190508181036000830152612313816122d7565b9050919050565b600061232582611c24565b915061233083611c24565b9250828203905081811115612348576123476120f9565b5b92915050565b7f4e487b7100000000000000000000000000000000000000000000000000000000600052603260045260246000fd5b7f4e487b7100000000000000000000000000000000000000000000000000000000600052603160045260246000fdfe5375636365737366756c6c79207472616e73666572726564207468652070726f63656564734e4654204c6973746564207375636365737366756c6c7920666f7220757072696768742073656c6c696e67a264697066735822122099d4af9f78cf47b3c36ab59a3cf617eb1cca680661ad1f393a8f849a34ee6d6664736f6c63430008110033",
  "linkReferences": {},
  "deployedLinkReferences": {}
}