{
  "_format": "hh-sol-artifact-1",
  "contractName": "ASE_Proxy",
  "sourceName": "contracts/ASEProxy.sol",
  "abi": [
    {
      "inputs": [
        {
          "internalType": "address",
          "name": "_implContract",
          "type": "address"
        }
      ],
      "stateMutability": "nonpayable",
      "type": "constructor"
    },
    {
      "anonymous": false,
      "inputs": [
        {
          "indexed": true,
          "internalType": "address",
          "name": "marketowner",
          "type": "address"
        },
        {
          "indexed": true,
          "internalType": "address",
          "name": "newImplAddrs",
          "type": "address"
        }
      ],
      "name": "ImplUpgrade",
      "type": "event"
    },
    {
      "anonymous": false,
      "inputs": [
        {
          "indexed": true,
          "internalType": "address",
          "name": "buyer",
          "type": "address"
        },
        {
          "indexed": true,
          "internalType": "address",
          "name": "nftAddress",
          "type": "address"
        },
        {
          "indexed": true,
          "internalType": "uint256",
          "name": "tokenId",
          "type": "uint256"
        },
        {
          "indexed": false,
          "internalType": "uint256",
          "name": "price",
          "type": "uint256"
        }
      ],
      "name": "ItemBought",
      "type": "event"
    },
    {
      "anonymous": false,
      "inputs": [
        {
          "indexed": true,
          "internalType": "address",
          "name": "seller",
          "type": "address"
        },
        {
          "indexed": true,
          "internalType": "address",
          "name": "nftAddress",
          "type": "address"
        },
        {
          "indexed": true,
          "internalType": "uint256",
          "name": "tokenId",
          "type": "uint256"
        }
      ],
      "name": "ItemCanceled",
      "type": "event"
    },
    {
      "anonymous": false,
      "inputs": [
        {
          "indexed": true,
          "internalType": "address",
          "name": "seller",
          "type": "address"
        },
        {
          "indexed": true,
          "internalType": "address",
          "name": "nftAddress",
          "type": "address"
        },
        {
          "indexed": true,
          "internalType": "uint256",
          "name": "tokenId",
          "type": "uint256"
        },
        {
          "indexed": false,
          "internalType": "uint256",
          "name": "price",
          "type": "uint256"
        }
      ],
      "name": "ItemListed",
      "type": "event"
    },
    {
      "inputs": [
        {
          "internalType": "address",
          "name": "nftAddress",
          "type": "address"
        },
        {
          "internalType": "uint256",
          "name": "tokenId",
          "type": "uint256"
        }
      ],
      "name": "buyItem",
      "outputs": [
        {
          "internalType": "string",
          "name": "",
          "type": "string"
        }
      ],
      "stateMutability": "payable",
      "type": "function"
    },
    {
      "inputs": [
        {
          "internalType": "address",
          "name": "nftAddress",
          "type": "address"
        },
        {
          "internalType": "uint256",
          "name": "tokenId",
          "type": "uint256"
        }
      ],
      "name": "cancelListing",
      "outputs": [
        {
          "internalType": "string",
          "name": "",
          "type": "string"
        }
      ],
      "stateMutability": "nonpayable",
      "type": "function"
    },
    {
      "inputs": [
        {
          "internalType": "address",
          "name": "nftAddress",
          "type": "address"
        },
        {
          "internalType": "uint256",
          "name": "tokenId",
          "type": "uint256"
        }
      ],
      "name": "getASListing",
      "outputs": [
        {
          "components": [
            {
              "internalType": "address",
              "name": "owner",
              "type": "address"
            },
            {
              "internalType": "address",
              "name": "nftContract",
              "type": "address"
            },
            {
              "internalType": "uint256",
              "name": "tokenId",
              "type": "uint256"
            },
            {
              "internalType": "uint256",
              "name": "price",
              "type": "uint256"
            }
          ],
          "internalType": "struct ASE_Proxy.Listing_sell",
          "name": "",
          "type": "tuple"
        }
      ],
      "stateMutability": "view",
      "type": "function"
    },
    {
      "inputs": [],
      "name": "getImplAddrs",
      "outputs": [
        {
          "internalType": "address",
          "name": "",
          "type": "address"
        }
      ],
      "stateMutability": "view",
      "type": "function"
    },
    {
      "inputs": [
        {
          "internalType": "address",
          "name": "seller",
          "type": "address"
        }
      ],
      "name": "getProceeds",
      "outputs": [
        {
          "internalType": "uint256",
          "name": "",
          "type": "uint256"
        }
      ],
      "stateMutability": "view",
      "type": "function"
    },
    {
      "inputs": [
        {
          "internalType": "address",
          "name": "nftAddress",
          "type": "address"
        }
      ],
      "name": "getSListedAdddressTokens",
      "outputs": [
        {
          "internalType": "uint256[]",
          "name": "",
          "type": "uint256[]"
        }
      ],
      "stateMutability": "view",
      "type": "function"
    },
    {
      "inputs": [],
      "name": "getSListedAdddresses",
      "outputs": [
        {
          "internalType": "address[]",
          "name": "",
          "type": "address[]"
        }
      ],
      "stateMutability": "view",
      "type": "function"
    },
    {
      "inputs": [],
      "name": "getSellListings",
      "outputs": [
        {
          "components": [
            {
              "internalType": "address",
              "name": "owner",
              "type": "address"
            },
            {
              "internalType": "address",
              "name": "nftContract",
              "type": "address"
            },
            {
              "internalType": "uint256",
              "name": "tokenId",
              "type": "uint256"
            },
            {
              "internalType": "uint256",
              "name": "price",
              "type": "uint256"
            }
          ],
          "internalType": "struct ASE_Proxy.Listing_sell[]",
          "name": "",
          "type": "tuple[]"
        }
      ],
      "stateMutability": "view",
      "type": "function"
    },
    {
      "inputs": [
        {
          "internalType": "address",
          "name": "nftContract",
          "type": "address"
        }
      ],
      "name": "isNFT",
      "outputs": [
        {
          "internalType": "bool",
          "name": "",
          "type": "bool"
        }
      ],
      "stateMutability": "view",
      "type": "function"
    },
    {
      "inputs": [
        {
          "internalType": "address",
          "name": "nftAddress",
          "type": "address"
        },
        {
          "internalType": "uint256",
          "name": "tokenId",
          "type": "uint256"
        },
        {
          "internalType": "uint256",
          "name": "price",
          "type": "uint256"
        }
      ],
      "name": "listItem",
      "outputs": [
        {
          "internalType": "string",
          "name": "",
          "type": "string"
        }
      ],
      "stateMutability": "nonpayable",
      "type": "function"
    },
    {
      "inputs": [
        {
          "internalType": "address",
          "name": "newImplAddrs",
          "type": "address"
        }
      ],
      "name": "updateImplContract",
      "outputs": [],
      "stateMutability": "nonpayable",
      "type": "function"
    },
    {
      "inputs": [
        {
          "internalType": "address",
          "name": "nftAddress",
          "type": "address"
        },
        {
          "internalType": "uint256",
          "name": "tokenId",
          "type": "uint256"
        },
        {
          "internalType": "uint256",
          "name": "newPrice",
          "type": "uint256"
        }
      ],
      "name": "updateListing",
      "outputs": [
        {
          "internalType": "string",
          "name": "",
          "type": "string"
        }
      ],
      "stateMutability": "nonpayable",
      "type": "function"
    },
    {
      "inputs": [],
      "name": "withdrawProceeds",
      "outputs": [
        {
          "internalType": "string",
          "name": "",
          "type": "string"
        }
      ],
      "stateMutability": "nonpayable",
      "type": "function"
    }
  ],
  "bytecode": "0x6080604052662386f26fc100006002553480156200001c57600080fd5b5060405162001fa238038062001fa283398181016040528101906200004291906200013d565b600160008190555033600160006101000a81548173ffffffffffffffffffffffffffffffffffffffff021916908373ffffffffffffffffffffffffffffffffffffffff16021790555080600960006101000a81548173ffffffffffffffffffffffffffffffffffffffff021916908373ffffffffffffffffffffffffffffffffffffffff160217905550506200016f565b600080fd5b600073ffffffffffffffffffffffffffffffffffffffff82169050919050565b60006200010582620000d8565b9050919050565b6200011781620000f8565b81146200012357600080fd5b50565b60008151905062000137816200010c565b92915050565b600060208284031215620001565762000155620000d3565b5b6000620001668482850162000126565b91505092915050565b611e23806200017f6000396000f3fe6080604052600436106100c25760003560e01c8063995e578b1161007f578063b31b85c911610059578063b31b85c914610283578063be587251146102c0578063cc6b11b1146102fd578063f772adf11461033a576100c2565b8063995e578b146101eb5780639f37092a14610216578063b2ddee0614610246576100c2565b806330cfeda9146100c7578063341a0b8a146101045780636ae012c81461012f5780638524528f1461015a57806389bfd38f146101835780639038e693146101c0575b600080fd5b3480156100d357600080fd5b506100ee60048036038101906100e99190611379565b610377565b6040516100fb91906113bf565b60405180910390f35b34801561011057600080fd5b506101196103c0565b6040516101269190611498565b60405180910390f35b34801561013b57600080fd5b506101446103d7565b60405161015191906114c9565b60405180910390f35b34801561016657600080fd5b50610181600480360381019061017c9190611379565b610401565b005b34801561018f57600080fd5b506101aa60048036038101906101a59190611510565b610583565b6040516101b791906115f3565b60405180910390f35b3480156101cc57600080fd5b506101d5610704565b6040516101e291906115f3565b60405180910390f35b3480156101f757600080fd5b50610200610872565b60405161020d9190611728565b60405180910390f35b610230600480360381019061022b919061174a565b610afa565b60405161023d91906115f3565b60405180910390f35b34801561025257600080fd5b5061026d6004803603810190610268919061174a565b610c78565b60405161027a91906115f3565b60405180910390f35b34801561028f57600080fd5b506102aa60048036038101906102a59190611379565b610df6565b6040516102b791906117a5565b60405180910390f35b3480156102cc57600080fd5b506102e760048036038101906102e29190611379565b610eac565b6040516102f4919061186f565b60405180910390f35b34801561030957600080fd5b50610324600480360381019061031f919061174a565b610f02565b60405161033191906118e6565b60405180910390f35b34801561034657600080fd5b50610361600480360381019061035c9190611510565b61102d565b60405161036e91906115f3565b60405180910390f35b6000600460008373ffffffffffffffffffffffffffffffffffffffff1673ffffffffffffffffffffffffffffffffffffffff168152602001908152602001600020549050919050565b606060006103ce60066111ae565b90508091505090565b6000600960009054906101000a900473ffffffffffffffffffffffffffffffffffffffff16905090565b6104096111cf565b600160009054906101000a900473ffffffffffffffffffffffffffffffffffffffff1673ffffffffffffffffffffffffffffffffffffffff163373ffffffffffffffffffffffffffffffffffffffff1614610499576040517f08c379a000000000000000000000000000000000000000000000000000000000815260040161049090611973565b60405180910390fd5b80600960006101000a81548173ffffffffffffffffffffffffffffffffffffffff021916908373ffffffffffffffffffffffffffffffffffffffff160217905550600960009054906101000a900473ffffffffffffffffffffffffffffffffffffffff1673ffffffffffffffffffffffffffffffffffffffff16600160009054906101000a900473ffffffffffffffffffffffffffffffffffffffff1673ffffffffffffffffffffffffffffffffffffffff167f1ed34c9a7b236ee6031785cd9ca32de930e1ae39020c1279886b687a307e7fcb60405160405180910390a361058061121e565b50565b6060600080600960009054906101000a900473ffffffffffffffffffffffffffffffffffffffff1673ffffffffffffffffffffffffffffffffffffffff168686866040516024016105d693929190611993565b6040516020818303038152906040527f89bfd38f000000000000000000000000000000000000000000000000000000007bffffffffffffffffffffffffffffffffffffffffffffffffffffffff19166020820180517bffffffffffffffffffffffffffffffffffffffffffffffffffffffff83818316178352505050506040516106609190611a11565b600060405180830381855af49150503d806000811461069b576040519150601f19603f3d011682016040523d82523d6000602084013e6106a0565b606091505b5091509150816106e5576040517f08c379a00000000000000000000000000000000000000000000000000000000081526004016106dc90611a74565b60405180910390fd5b808060200190518101906106f99190611bba565b925050509392505050565b6060600080600960009054906101000a900473ffffffffffffffffffffffffffffffffffffffff1673ffffffffffffffffffffffffffffffffffffffff166040516024016040516020818303038152906040527f9038e693000000000000000000000000000000000000000000000000000000007bffffffffffffffffffffffffffffffffffffffffffffffffffffffff19166020820180517bffffffffffffffffffffffffffffffffffffffffffffffffffffffff83818316178352505050506040516107d29190611a11565b600060405180830381855af49150503d806000811461080d576040519150601f19603f3d011682016040523d82523d6000602084013e610812565b606091505b509150915081610857576040517f08c379a000000000000000000000000000000000000000000000000000000000815260040161084e90611a74565b60405180910390fd5b8080602001905181019061086b9190611bba565b9250505090565b606060006108806008611228565b67ffffffffffffffff81111561089957610898611a9e565b5b6040519080825280602002602001820160405280156108d257816020015b6108bf6112b3565b8152602001906001900390816108b75790505b5090506000806108e260066111ae565b905060005b8151811015610af057600082828151811061090557610904611c03565b5b602002602001015190506000610958600560008473ffffffffffffffffffffffffffffffffffffffff1673ffffffffffffffffffffffffffffffffffffffff168152602001908152602001600020611236565b905060005b8151811015610ada57600360008473ffffffffffffffffffffffffffffffffffffffff1673ffffffffffffffffffffffffffffffffffffffff16815260200190815260200160002060008383815181106109ba576109b9611c03565b5b602002602001015181526020019081526020016000206040518060800160405290816000820160009054906101000a900473ffffffffffffffffffffffffffffffffffffffff1673ffffffffffffffffffffffffffffffffffffffff1673ffffffffffffffffffffffffffffffffffffffff1681526020016001820160009054906101000a900473ffffffffffffffffffffffffffffffffffffffff1673ffffffffffffffffffffffffffffffffffffffff1673ffffffffffffffffffffffffffffffffffffffff16815260200160028201548152602001600382015481525050878781518110610aae57610aad611c03565b5b60200260200101819052508580610ac490611c61565b9650508080610ad290611c61565b91505061095d565b5050508080610ae890611c61565b9150506108e7565b5082935050505090565b6060600080600960009054906101000a900473ffffffffffffffffffffffffffffffffffffffff1673ffffffffffffffffffffffffffffffffffffffff168585604051602401610b4b929190611ca9565b6040516020818303038152906040527f9f37092a000000000000000000000000000000000000000000000000000000007bffffffffffffffffffffffffffffffffffffffffffffffffffffffff19166020820180517bffffffffffffffffffffffffffffffffffffffffffffffffffffffff8381831617835250505050604051610bd59190611a11565b600060405180830381855af49150503d8060008114610c10576040519150601f19603f3d011682016040523d82523d6000602084013e610c15565b606091505b509150915081610c5a576040517f08c379a0000000000000000000000000000000000000000000000000000000008152600401610c5190611a74565b60405180910390fd5b80806020019051810190610c6e9190611bba565b9250505092915050565b6060600080600960009054906101000a900473ffffffffffffffffffffffffffffffffffffffff1673ffffffffffffffffffffffffffffffffffffffff168585604051602401610cc9929190611ca9565b6040516020818303038152906040527fb2ddee06000000000000000000000000000000000000000000000000000000007bffffffffffffffffffffffffffffffffffffffffffffffffffffffff19166020820180517bffffffffffffffffffffffffffffffffffffffffffffffffffffffff8381831617835250505050604051610d539190611a11565b600060405180830381855af49150503d8060008114610d8e576040519150601f19603f3d011682016040523d82523d6000602084013e610d93565b606091505b509150915081610dd8576040517f08c379a0000000000000000000000000000000000000000000000000000000008152600401610dcf90611a74565b60405180910390fd5b80806020019051810190610dec9190611bba565b9250505092915050565b600080600090508273ffffffffffffffffffffffffffffffffffffffff166301ffc9a77f80ac58cd000000000000000000000000000000000000000000000000000000006040518263ffffffff1660e01b8152600401610e569190611d0d565b602060405180830381865afa925050508015610e9057506040513d601f19601f82011682018060405250810190610e8d9190611d54565b60015b610e9e576000915050610ea7565b80915050809150505b919050565b60606000610ef7600560008573ffffffffffffffffffffffffffffffffffffffff1673ffffffffffffffffffffffffffffffffffffffff168152602001908152602001600020611236565b905080915050919050565b610f0a6112b3565b600360008473ffffffffffffffffffffffffffffffffffffffff1673ffffffffffffffffffffffffffffffffffffffff16815260200190815260200160002060008381526020019081526020016000206040518060800160405290816000820160009054906101000a900473ffffffffffffffffffffffffffffffffffffffff1673ffffffffffffffffffffffffffffffffffffffff1673ffffffffffffffffffffffffffffffffffffffff1681526020016001820160009054906101000a900473ffffffffffffffffffffffffffffffffffffffff1673ffffffffffffffffffffffffffffffffffffffff1673ffffffffffffffffffffffffffffffffffffffff16815260200160028201548152602001600382015481525050905092915050565b6060600080600960009054906101000a900473ffffffffffffffffffffffffffffffffffffffff1673ffffffffffffffffffffffffffffffffffffffff1686868660405160240161108093929190611993565b6040516020818303038152906040527ff772adf1000000000000000000000000000000000000000000000000000000007bffffffffffffffffffffffffffffffffffffffffffffffffffffffff19166020820180517bffffffffffffffffffffffffffffffffffffffffffffffffffffffff838183161783525050505060405161110a9190611a11565b600060405180830381855af49150503d8060008114611145576040519150601f19603f3d011682016040523d82523d6000602084013e61114a565b606091505b50915091508161118f576040517f08c379a000000000000000000000000000000000000000000000000000000000815260040161118690611a74565b60405180910390fd5b808060200190518101906111a39190611bba565b925050509392505050565b606060006111be83600001611257565b905060608190508092505050919050565b600260005403611214576040517f08c379a000000000000000000000000000000000000000000000000000000000815260040161120b90611dcd565b60405180910390fd5b6002600081905550565b6001600081905550565b600081600001549050919050565b6060600061124683600001611257565b905060608190508092505050919050565b6060816000018054806020026020016040519081016040528092919081815260200182805480156112a757602002820191906000526020600020905b815481526020019060010190808311611293575b50505050509050919050565b6040518060800160405280600073ffffffffffffffffffffffffffffffffffffffff168152602001600073ffffffffffffffffffffffffffffffffffffffff16815260200160008152602001600081525090565b6000604051905090565b600080fd5b600080fd5b600073ffffffffffffffffffffffffffffffffffffffff82169050919050565b60006113468261131b565b9050919050565b6113568161133b565b811461136157600080fd5b50565b6000813590506113738161134d565b92915050565b60006020828403121561138f5761138e611311565b5b600061139d84828501611364565b91505092915050565b6000819050919050565b6113b9816113a6565b82525050565b60006020820190506113d460008301846113b0565b92915050565b600081519050919050565b600082825260208201905092915050565b6000819050602082019050919050565b61140f8161133b565b82525050565b60006114218383611406565b60208301905092915050565b6000602082019050919050565b6000611445826113da565b61144f81856113e5565b935061145a836113f6565b8060005b8381101561148b5781516114728882611415565b975061147d8361142d565b92505060018101905061145e565b5085935050505092915050565b600060208201905081810360008301526114b2818461143a565b905092915050565b6114c38161133b565b82525050565b60006020820190506114de60008301846114ba565b92915050565b6114ed816113a6565b81146114f857600080fd5b50565b60008135905061150a816114e4565b92915050565b60008060006060848603121561152957611528611311565b5b600061153786828701611364565b9350506020611548868287016114fb565b9250506040611559868287016114fb565b9150509250925092565b600081519050919050565b600082825260208201905092915050565b60005b8381101561159d578082015181840152602081019050611582565b60008484015250505050565b6000601f19601f8301169050919050565b60006115c582611563565b6115cf818561156e565b93506115df81856020860161157f565b6115e8816115a9565b840191505092915050565b6000602082019050818103600083015261160d81846115ba565b905092915050565b600081519050919050565b600082825260208201905092915050565b6000819050602082019050919050565b61164a816113a6565b82525050565b6080820160008201516116666000850182611406565b5060208201516116796020850182611406565b50604082015161168c6040850182611641565b50606082015161169f6060850182611641565b50505050565b60006116b18383611650565b60808301905092915050565b6000602082019050919050565b60006116d582611615565b6116df8185611620565b93506116ea83611631565b8060005b8381101561171b57815161170288826116a5565b975061170d836116bd565b9250506001810190506116ee565b5085935050505092915050565b6000602082019050818103600083015261174281846116ca565b905092915050565b6000806040838503121561176157611760611311565b5b600061176f85828601611364565b9250506020611780858286016114fb565b9150509250929050565b60008115159050919050565b61179f8161178a565b82525050565b60006020820190506117ba6000830184611796565b92915050565b600081519050919050565b600082825260208201905092915050565b6000819050602082019050919050565b60006117f88383611641565b60208301905092915050565b6000602082019050919050565b600061181c826117c0565b61182681856117cb565b9350611831836117dc565b8060005b8381101561186257815161184988826117ec565b975061185483611804565b925050600181019050611835565b5085935050505092915050565b600060208201905081810360008301526118898184611811565b905092915050565b6080820160008201516118a76000850182611406565b5060208201516118ba6020850182611406565b5060408201516118cd6040850182611641565b5060608201516118e06060850182611641565b50505050565b60006080820190506118fb6000830184611891565b92915050565b7f6d61726b6574706c6163652063616e206f6e6c7920626520757067726164656460008201527f20627920746865206f776e657200000000000000000000000000000000000000602082015250565b600061195d602d8361156e565b915061196882611901565b604082019050919050565b6000602082019050818103600083015261198c81611950565b9050919050565b60006060820190506119a860008301866114ba565b6119b560208301856113b0565b6119c260408301846113b0565b949350505050565b600081519050919050565b600081905092915050565b60006119eb826119ca565b6119f581856119d5565b9350611a0581856020860161157f565b80840191505092915050565b6000611a1d82846119e0565b915081905092915050565b7f7472616e73616374696f6e206661696c65640000000000000000000000000000600082015250565b6000611a5e60128361156e565b9150611a6982611a28565b602082019050919050565b60006020820190508181036000830152611a8d81611a51565b9050919050565b600080fd5b600080fd5b7f4e487b7100000000000000000000000000000000000000000000000000000000600052604160045260246000fd5b611ad6826115a9565b810181811067ffffffffffffffff82111715611af557611af4611a9e565b5b80604052505050565b6000611b08611307565b9050611b148282611acd565b919050565b600067ffffffffffffffff821115611b3457611b33611a9e565b5b611b3d826115a9565b9050602081019050919050565b6000611b5d611b5884611b19565b611afe565b905082815260208101848484011115611b7957611b78611a99565b5b611b8484828561157f565b509392505050565b600082601f830112611ba157611ba0611a94565b5b8151611bb1848260208601611b4a565b91505092915050565b600060208284031215611bd057611bcf611311565b5b600082015167ffffffffffffffff811115611bee57611bed611316565b5b611bfa84828501611b8c565b91505092915050565b7f4e487b7100000000000000000000000000000000000000000000000000000000600052603260045260246000fd5b7f4e487b7100000000000000000000000000000000000000000000000000000000600052601160045260246000fd5b6000611c6c826113a6565b91507fffffffffffffffffffffffffffffffffffffffffffffffffffffffffffffffff8203611c9e57611c9d611c32565b5b600182019050919050565b6000604082019050611cbe60008301856114ba565b611ccb60208301846113b0565b9392505050565b60007fffffffff0000000000000000000000000000000000000000000000000000000082169050919050565b611d0781611cd2565b82525050565b6000602082019050611d226000830184611cfe565b92915050565b611d318161178a565b8114611d3c57600080fd5b50565b600081519050611d4e81611d28565b92915050565b600060208284031215611d6a57611d69611311565b5b6000611d7884828501611d3f565b91505092915050565b7f5265656e7472616e637947756172643a207265656e7472616e742063616c6c00600082015250565b6000611db7601f8361156e565b9150611dc282611d81565b602082019050919050565b60006020820190508181036000830152611de681611daa565b905091905056fea264697066735822122008d241db029173270d8ef7cc094e9b77301d24c8a3b9b4e2d3705b350ed6e7a464736f6c63430008110033",
  "linkReferences": {},
  "deployedLinkReferences": {}
}