{
  "_format": "hh-sol-artifact-1",
  "contractName": "ASE_Proxy",
  "sourceName": "contracts/ASEProxy.sol",
  "abi": [
    {
      "inputs": [
        {
          "internalType": "address",
          "name": "_implContract",
          "type": "address"
        }
      ],
      "stateMutability": "nonpayable",
      "type": "constructor"
    },
    {
      "anonymous": false,
      "inputs": [
        {
          "indexed": true,
          "internalType": "address",
          "name": "marketowner",
          "type": "address"
        },
        {
          "indexed": true,
          "internalType": "address",
          "name": "newImplAddrs",
          "type": "address"
        }
      ],
      "name": "ImplUpgrade",
      "type": "event"
    },
    {
      "anonymous": false,
      "inputs": [
        {
          "indexed": true,
          "internalType": "address",
          "name": "buyer",
          "type": "address"
        },
        {
          "indexed": true,
          "internalType": "address",
          "name": "nftAddress",
          "type": "address"
        },
        {
          "indexed": true,
          "internalType": "uint256",
          "name": "tokenId",
          "type": "uint256"
        },
        {
          "indexed": false,
          "internalType": "uint256",
          "name": "price",
          "type": "uint256"
        }
      ],
      "name": "ItemBought",
      "type": "event"
    },
    {
      "anonymous": false,
      "inputs": [
        {
          "indexed": true,
          "internalType": "address",
          "name": "seller",
          "type": "address"
        },
        {
          "indexed": true,
          "internalType": "address",
          "name": "nftAddress",
          "type": "address"
        },
        {
          "indexed": true,
          "internalType": "uint256",
          "name": "tokenId",
          "type": "uint256"
        }
      ],
      "name": "ItemCanceled",
      "type": "event"
    },
    {
      "anonymous": false,
      "inputs": [
        {
          "indexed": true,
          "internalType": "address",
          "name": "seller",
          "type": "address"
        },
        {
          "indexed": true,
          "internalType": "address",
          "name": "nftAddress",
          "type": "address"
        },
        {
          "indexed": true,
          "internalType": "uint256",
          "name": "tokenId",
          "type": "uint256"
        },
        {
          "indexed": false,
          "internalType": "uint256",
          "name": "price",
          "type": "uint256"
        }
      ],
      "name": "ItemListed",
      "type": "event"
    },
    {
      "inputs": [
        {
          "internalType": "address",
          "name": "nftAddress",
          "type": "address"
        },
        {
          "internalType": "uint256",
          "name": "tokenId",
          "type": "uint256"
        }
      ],
      "name": "buyItem",
      "outputs": [
        {
          "internalType": "string",
          "name": "",
          "type": "string"
        }
      ],
      "stateMutability": "payable",
      "type": "function"
    },
    {
      "inputs": [
        {
          "internalType": "address",
          "name": "nftAddress",
          "type": "address"
        },
        {
          "internalType": "uint256",
          "name": "tokenId",
          "type": "uint256"
        }
      ],
      "name": "cancelListing",
      "outputs": [
        {
          "internalType": "string",
          "name": "",
          "type": "string"
        }
      ],
      "stateMutability": "nonpayable",
      "type": "function"
    },
    {
      "inputs": [
        {
          "internalType": "address",
          "name": "nftAddress",
          "type": "address"
        },
        {
          "internalType": "uint256",
          "name": "tokenId",
          "type": "uint256"
        }
      ],
      "name": "getASListing",
      "outputs": [
        {
          "components": [
            {
              "internalType": "address",
              "name": "owner",
              "type": "address"
            },
            {
              "internalType": "address",
              "name": "nftContract",
              "type": "address"
            },
            {
              "internalType": "uint256",
              "name": "tokenId",
              "type": "uint256"
            },
            {
              "internalType": "uint256",
              "name": "price",
              "type": "uint256"
            }
          ],
          "internalType": "struct ASE_Proxy.Listing_sell",
          "name": "",
          "type": "tuple"
        }
      ],
      "stateMutability": "view",
      "type": "function"
    },
    {
      "inputs": [],
      "name": "getImplAddrs",
      "outputs": [
        {
          "internalType": "address",
          "name": "",
          "type": "address"
        }
      ],
      "stateMutability": "view",
      "type": "function"
    },
    {
      "inputs": [
        {
          "internalType": "address",
          "name": "seller",
          "type": "address"
        }
      ],
      "name": "getProceeds",
      "outputs": [
        {
          "internalType": "uint256",
          "name": "",
          "type": "uint256"
        }
      ],
      "stateMutability": "view",
      "type": "function"
    },
    {
      "inputs": [
        {
          "internalType": "address",
          "name": "nftAddress",
          "type": "address"
        }
      ],
      "name": "getSListedAdddressTokens",
      "outputs": [
        {
          "internalType": "uint256[]",
          "name": "",
          "type": "uint256[]"
        }
      ],
      "stateMutability": "view",
      "type": "function"
    },
    {
      "inputs": [],
      "name": "getSListedAdddresses",
      "outputs": [
        {
          "internalType": "address[]",
          "name": "",
          "type": "address[]"
        }
      ],
      "stateMutability": "view",
      "type": "function"
    },
    {
      "inputs": [
        {
          "internalType": "address",
          "name": "nftContract",
          "type": "address"
        }
      ],
      "name": "isNFT",
      "outputs": [
        {
          "internalType": "bool",
          "name": "",
          "type": "bool"
        }
      ],
      "stateMutability": "view",
      "type": "function"
    },
    {
      "inputs": [
        {
          "internalType": "address",
          "name": "nftAddress",
          "type": "address"
        },
        {
          "internalType": "uint256",
          "name": "tokenId",
          "type": "uint256"
        },
        {
          "internalType": "uint256",
          "name": "price",
          "type": "uint256"
        }
      ],
      "name": "listItem",
      "outputs": [
        {
          "internalType": "string",
          "name": "",
          "type": "string"
        }
      ],
      "stateMutability": "nonpayable",
      "type": "function"
    },
    {
      "inputs": [
        {
          "internalType": "address",
          "name": "newImplAddrs",
          "type": "address"
        }
      ],
      "name": "updateImplContract",
      "outputs": [],
      "stateMutability": "nonpayable",
      "type": "function"
    },
    {
      "inputs": [
        {
          "internalType": "address",
          "name": "nftAddress",
          "type": "address"
        },
        {
          "internalType": "uint256",
          "name": "tokenId",
          "type": "uint256"
        },
        {
          "internalType": "uint256",
          "name": "newPrice",
          "type": "uint256"
        }
      ],
      "name": "updateListing",
      "outputs": [
        {
          "internalType": "string",
          "name": "",
          "type": "string"
        }
      ],
      "stateMutability": "nonpayable",
      "type": "function"
    },
    {
      "inputs": [],
      "name": "withdrawProceeds",
      "outputs": [
        {
          "internalType": "string",
          "name": "",
          "type": "string"
        }
      ],
      "stateMutability": "nonpayable",
      "type": "function"
    }
  ],
  "bytecode": "0x6080604052662386f26fc100006002553480156200001c57600080fd5b5060405162001afa38038062001afa83398181016040528101906200004291906200013d565b600160008190555033600160006101000a81548173ffffffffffffffffffffffffffffffffffffffff021916908373ffffffffffffffffffffffffffffffffffffffff16021790555080600960006101000a81548173ffffffffffffffffffffffffffffffffffffffff021916908373ffffffffffffffffffffffffffffffffffffffff160217905550506200016f565b600080fd5b600073ffffffffffffffffffffffffffffffffffffffff82169050919050565b60006200010582620000d8565b9050919050565b6200011781620000f8565b81146200012357600080fd5b50565b60008151905062000137816200010c565b92915050565b600060208284031215620001565762000155620000d3565b5b6000620001668482850162000126565b91505092915050565b61197b806200017f6000396000f3fe6080604052600436106100a75760003560e01c80639f37092a116100645780639f37092a146101d0578063b2ddee0614610200578063b31b85c91461023d578063be5872511461027a578063cc6b11b1146102b7578063f772adf1146102f4576100a7565b806330cfeda9146100ac578063341a0b8a146100e95780636ae012c8146101145780638524528f1461013f57806389bfd38f146101685780639038e693146101a5575b600080fd5b3480156100b857600080fd5b506100d360048036038101906100ce919061109d565b610331565b6040516100e091906110e3565b60405180910390f35b3480156100f557600080fd5b506100fe61037a565b60405161010b91906111bc565b60405180910390f35b34801561012057600080fd5b50610129610391565b60405161013691906111ed565b60405180910390f35b34801561014b57600080fd5b506101666004803603810190610161919061109d565b6103bb565b005b34801561017457600080fd5b5061018f600480360381019061018a9190611234565b61053d565b60405161019c9190611317565b60405180910390f35b3480156101b157600080fd5b506101ba6106be565b6040516101c79190611317565b60405180910390f35b6101ea60048036038101906101e59190611339565b61082c565b6040516101f79190611317565b60405180910390f35b34801561020c57600080fd5b5061022760048036038101906102229190611339565b6109aa565b6040516102349190611317565b60405180910390f35b34801561024957600080fd5b50610264600480360381019061025f919061109d565b610b28565b6040516102719190611394565b60405180910390f35b34801561028657600080fd5b506102a1600480360381019061029c919061109d565b610bde565b6040516102ae919061146d565b60405180910390f35b3480156102c357600080fd5b506102de60048036038101906102d99190611339565b610c34565b6040516102eb91906114e4565b60405180910390f35b34801561030057600080fd5b5061031b60048036038101906103169190611234565b610d5f565b6040516103289190611317565b60405180910390f35b6000600460008373ffffffffffffffffffffffffffffffffffffffff1673ffffffffffffffffffffffffffffffffffffffff168152602001908152602001600020549050919050565b606060006103886006610ee0565b90508091505090565b6000600960009054906101000a900473ffffffffffffffffffffffffffffffffffffffff16905090565b6103c3610f01565b600160009054906101000a900473ffffffffffffffffffffffffffffffffffffffff1673ffffffffffffffffffffffffffffffffffffffff163373ffffffffffffffffffffffffffffffffffffffff1614610453576040517f08c379a000000000000000000000000000000000000000000000000000000000815260040161044a90611571565b60405180910390fd5b80600960006101000a81548173ffffffffffffffffffffffffffffffffffffffff021916908373ffffffffffffffffffffffffffffffffffffffff160217905550600960009054906101000a900473ffffffffffffffffffffffffffffffffffffffff1673ffffffffffffffffffffffffffffffffffffffff16600160009054906101000a900473ffffffffffffffffffffffffffffffffffffffff1673ffffffffffffffffffffffffffffffffffffffff167f1ed34c9a7b236ee6031785cd9ca32de930e1ae39020c1279886b687a307e7fcb60405160405180910390a361053a610f50565b50565b6060600080600960009054906101000a900473ffffffffffffffffffffffffffffffffffffffff1673ffffffffffffffffffffffffffffffffffffffff1686868660405160240161059093929190611591565b6040516020818303038152906040527f89bfd38f000000000000000000000000000000000000000000000000000000007bffffffffffffffffffffffffffffffffffffffffffffffffffffffff19166020820180517bffffffffffffffffffffffffffffffffffffffffffffffffffffffff838183161783525050505060405161061a919061160f565b600060405180830381855af49150503d8060008114610655576040519150601f19603f3d011682016040523d82523d6000602084013e61065a565b606091505b50915091508161069f576040517f08c379a000000000000000000000000000000000000000000000000000000000815260040161069690611672565b60405180910390fd5b808060200190518101906106b391906117b8565b925050509392505050565b6060600080600960009054906101000a900473ffffffffffffffffffffffffffffffffffffffff1673ffffffffffffffffffffffffffffffffffffffff166040516024016040516020818303038152906040527f9038e693000000000000000000000000000000000000000000000000000000007bffffffffffffffffffffffffffffffffffffffffffffffffffffffff19166020820180517bffffffffffffffffffffffffffffffffffffffffffffffffffffffff838183161783525050505060405161078c919061160f565b600060405180830381855af49150503d80600081146107c7576040519150601f19603f3d011682016040523d82523d6000602084013e6107cc565b606091505b509150915081610811576040517f08c379a000000000000000000000000000000000000000000000000000000000815260040161080890611672565b60405180910390fd5b8080602001905181019061082591906117b8565b9250505090565b6060600080600960009054906101000a900473ffffffffffffffffffffffffffffffffffffffff1673ffffffffffffffffffffffffffffffffffffffff16858560405160240161087d929190611801565b6040516020818303038152906040527f9f37092a000000000000000000000000000000000000000000000000000000007bffffffffffffffffffffffffffffffffffffffffffffffffffffffff19166020820180517bffffffffffffffffffffffffffffffffffffffffffffffffffffffff8381831617835250505050604051610907919061160f565b600060405180830381855af49150503d8060008114610942576040519150601f19603f3d011682016040523d82523d6000602084013e610947565b606091505b50915091508161098c576040517f08c379a000000000000000000000000000000000000000000000000000000000815260040161098390611672565b60405180910390fd5b808060200190518101906109a091906117b8565b9250505092915050565b6060600080600960009054906101000a900473ffffffffffffffffffffffffffffffffffffffff1673ffffffffffffffffffffffffffffffffffffffff1685856040516024016109fb929190611801565b6040516020818303038152906040527fb2ddee06000000000000000000000000000000000000000000000000000000007bffffffffffffffffffffffffffffffffffffffffffffffffffffffff19166020820180517bffffffffffffffffffffffffffffffffffffffffffffffffffffffff8381831617835250505050604051610a85919061160f565b600060405180830381855af49150503d8060008114610ac0576040519150601f19603f3d011682016040523d82523d6000602084013e610ac5565b606091505b509150915081610b0a576040517f08c379a0000000000000000000000000000000000000000000000000000000008152600401610b0190611672565b60405180910390fd5b80806020019051810190610b1e91906117b8565b9250505092915050565b600080600090508273ffffffffffffffffffffffffffffffffffffffff166301ffc9a77f80ac58cd000000000000000000000000000000000000000000000000000000006040518263ffffffff1660e01b8152600401610b889190611865565b602060405180830381865afa925050508015610bc257506040513d601f19601f82011682018060405250810190610bbf91906118ac565b60015b610bd0576000915050610bd9565b80915050809150505b919050565b60606000610c29600560008573ffffffffffffffffffffffffffffffffffffffff1673ffffffffffffffffffffffffffffffffffffffff168152602001908152602001600020610f5a565b905080915050919050565b610c3c610fd7565b600360008473ffffffffffffffffffffffffffffffffffffffff1673ffffffffffffffffffffffffffffffffffffffff16815260200190815260200160002060008381526020019081526020016000206040518060800160405290816000820160009054906101000a900473ffffffffffffffffffffffffffffffffffffffff1673ffffffffffffffffffffffffffffffffffffffff1673ffffffffffffffffffffffffffffffffffffffff1681526020016001820160009054906101000a900473ffffffffffffffffffffffffffffffffffffffff1673ffffffffffffffffffffffffffffffffffffffff1673ffffffffffffffffffffffffffffffffffffffff16815260200160028201548152602001600382015481525050905092915050565b6060600080600960009054906101000a900473ffffffffffffffffffffffffffffffffffffffff1673ffffffffffffffffffffffffffffffffffffffff16868686604051602401610db293929190611591565b6040516020818303038152906040527ff772adf1000000000000000000000000000000000000000000000000000000007bffffffffffffffffffffffffffffffffffffffffffffffffffffffff19166020820180517bffffffffffffffffffffffffffffffffffffffffffffffffffffffff8381831617835250505050604051610e3c919061160f565b600060405180830381855af49150503d8060008114610e77576040519150601f19603f3d011682016040523d82523d6000602084013e610e7c565b606091505b509150915081610ec1576040517f08c379a0000000000000000000000000000000000000000000000000000000008152600401610eb890611672565b60405180910390fd5b80806020019051810190610ed591906117b8565b925050509392505050565b60606000610ef083600001610f7b565b905060608190508092505050919050565b600260005403610f46576040517f08c379a0000000000000000000000000000000000000000000000000000000008152600401610f3d90611925565b60405180910390fd5b6002600081905550565b6001600081905550565b60606000610f6a83600001610f7b565b905060608190508092505050919050565b606081600001805480602002602001604051908101604052809291908181526020018280548015610fcb57602002820191906000526020600020905b815481526020019060010190808311610fb7575b50505050509050919050565b6040518060800160405280600073ffffffffffffffffffffffffffffffffffffffff168152602001600073ffffffffffffffffffffffffffffffffffffffff16815260200160008152602001600081525090565b6000604051905090565b600080fd5b600080fd5b600073ffffffffffffffffffffffffffffffffffffffff82169050919050565b600061106a8261103f565b9050919050565b61107a8161105f565b811461108557600080fd5b50565b60008135905061109781611071565b92915050565b6000602082840312156110b3576110b2611035565b5b60006110c184828501611088565b91505092915050565b6000819050919050565b6110dd816110ca565b82525050565b60006020820190506110f860008301846110d4565b92915050565b600081519050919050565b600082825260208201905092915050565b6000819050602082019050919050565b6111338161105f565b82525050565b6000611145838361112a565b60208301905092915050565b6000602082019050919050565b6000611169826110fe565b6111738185611109565b935061117e8361111a565b8060005b838110156111af5781516111968882611139565b97506111a183611151565b925050600181019050611182565b5085935050505092915050565b600060208201905081810360008301526111d6818461115e565b905092915050565b6111e78161105f565b82525050565b600060208201905061120260008301846111de565b92915050565b611211816110ca565b811461121c57600080fd5b50565b60008135905061122e81611208565b92915050565b60008060006060848603121561124d5761124c611035565b5b600061125b86828701611088565b935050602061126c8682870161121f565b925050604061127d8682870161121f565b9150509250925092565b600081519050919050565b600082825260208201905092915050565b60005b838110156112c15780820151818401526020810190506112a6565b60008484015250505050565b6000601f19601f8301169050919050565b60006112e982611287565b6112f38185611292565b93506113038185602086016112a3565b61130c816112cd565b840191505092915050565b6000602082019050818103600083015261133181846112de565b905092915050565b600080604083850312156113505761134f611035565b5b600061135e85828601611088565b925050602061136f8582860161121f565b9150509250929050565b60008115159050919050565b61138e81611379565b82525050565b60006020820190506113a96000830184611385565b92915050565b600081519050919050565b600082825260208201905092915050565b6000819050602082019050919050565b6113e4816110ca565b82525050565b60006113f683836113db565b60208301905092915050565b6000602082019050919050565b600061141a826113af565b61142481856113ba565b935061142f836113cb565b8060005b8381101561146057815161144788826113ea565b975061145283611402565b925050600181019050611433565b5085935050505092915050565b60006020820190508181036000830152611487818461140f565b905092915050565b6080820160008201516114a5600085018261112a565b5060208201516114b8602085018261112a565b5060408201516114cb60408501826113db565b5060608201516114de60608501826113db565b50505050565b60006080820190506114f9600083018461148f565b92915050565b7f6d61726b6574706c6163652063616e206f6e6c7920626520757067726164656460008201527f20627920746865206f776e657200000000000000000000000000000000000000602082015250565b600061155b602d83611292565b9150611566826114ff565b604082019050919050565b6000602082019050818103600083015261158a8161154e565b9050919050565b60006060820190506115a660008301866111de565b6115b360208301856110d4565b6115c060408301846110d4565b949350505050565b600081519050919050565b600081905092915050565b60006115e9826115c8565b6115f381856115d3565b93506116038185602086016112a3565b80840191505092915050565b600061161b82846115de565b915081905092915050565b7f7472616e73616374696f6e206661696c65640000000000000000000000000000600082015250565b600061165c601283611292565b915061166782611626565b602082019050919050565b6000602082019050818103600083015261168b8161164f565b9050919050565b600080fd5b600080fd5b7f4e487b7100000000000000000000000000000000000000000000000000000000600052604160045260246000fd5b6116d4826112cd565b810181811067ffffffffffffffff821117156116f3576116f261169c565b5b80604052505050565b600061170661102b565b905061171282826116cb565b919050565b600067ffffffffffffffff8211156117325761173161169c565b5b61173b826112cd565b9050602081019050919050565b600061175b61175684611717565b6116fc565b90508281526020810184848401111561177757611776611697565b5b6117828482856112a3565b509392505050565b600082601f83011261179f5761179e611692565b5b81516117af848260208601611748565b91505092915050565b6000602082840312156117ce576117cd611035565b5b600082015167ffffffffffffffff8111156117ec576117eb61103a565b5b6117f88482850161178a565b91505092915050565b600060408201905061181660008301856111de565b61182360208301846110d4565b9392505050565b60007fffffffff0000000000000000000000000000000000000000000000000000000082169050919050565b61185f8161182a565b82525050565b600060208201905061187a6000830184611856565b92915050565b61188981611379565b811461189457600080fd5b50565b6000815190506118a681611880565b92915050565b6000602082840312156118c2576118c1611035565b5b60006118d084828501611897565b91505092915050565b7f5265656e7472616e637947756172643a207265656e7472616e742063616c6c00600082015250565b600061190f601f83611292565b915061191a826118d9565b602082019050919050565b6000602082019050818103600083015261193e81611902565b905091905056fea2646970667358221220be6755ec94f77b730ea6611b97d257cd4b6e8024e246bfe8d43765a67e1297a664736f6c63430008110033",
  "linkReferences": {},
  "deployedLinkReferences": {}
}