{
  "_format": "hh-sol-artifact-1",
  "contractName": "ASE_Proxy",
  "sourceName": "contracts/ASEProxy.sol",
  "abi": [
    {
      "inputs": [
        {
          "internalType": "address",
          "name": "_implContract",
          "type": "address"
        },
        {
          "internalType": "address",
          "name": "address1",
          "type": "address"
        },
        {
          "internalType": "address",
          "name": "address2",
          "type": "address"
        }
      ],
      "stateMutability": "nonpayable",
      "type": "constructor"
    },
    {
      "anonymous": false,
      "inputs": [
        {
          "indexed": true,
          "internalType": "address",
          "name": "marketowner",
          "type": "address"
        },
        {
          "indexed": true,
          "internalType": "address",
          "name": "newImplAddrs",
          "type": "address"
        }
      ],
      "name": "ImplUpgrade",
      "type": "event"
    },
    {
      "anonymous": false,
      "inputs": [
        {
          "indexed": true,
          "internalType": "address",
          "name": "buyer",
          "type": "address"
        },
        {
          "indexed": true,
          "internalType": "address",
          "name": "nftAddress",
          "type": "address"
        },
        {
          "indexed": true,
          "internalType": "uint256",
          "name": "tokenId",
          "type": "uint256"
        },
        {
          "indexed": false,
          "internalType": "uint256",
          "name": "price",
          "type": "uint256"
        }
      ],
      "name": "ItemBought",
      "type": "event"
    },
    {
      "anonymous": false,
      "inputs": [
        {
          "indexed": true,
          "internalType": "address",
          "name": "seller",
          "type": "address"
        },
        {
          "indexed": true,
          "internalType": "address",
          "name": "nftAddress",
          "type": "address"
        },
        {
          "indexed": true,
          "internalType": "uint256",
          "name": "tokenId",
          "type": "uint256"
        }
      ],
      "name": "ItemCanceled",
      "type": "event"
    },
    {
      "anonymous": false,
      "inputs": [
        {
          "indexed": true,
          "internalType": "address",
          "name": "seller",
          "type": "address"
        },
        {
          "indexed": true,
          "internalType": "address",
          "name": "nftAddress",
          "type": "address"
        },
        {
          "indexed": true,
          "internalType": "uint256",
          "name": "tokenId",
          "type": "uint256"
        },
        {
          "indexed": false,
          "internalType": "uint256",
          "name": "price",
          "type": "uint256"
        }
      ],
      "name": "ItemListed",
      "type": "event"
    },
    {
      "inputs": [
        {
          "internalType": "address",
          "name": "nftAddress",
          "type": "address"
        },
        {
          "internalType": "uint256",
          "name": "tokenId",
          "type": "uint256"
        }
      ],
      "name": "buyItem",
      "outputs": [
        {
          "internalType": "string",
          "name": "",
          "type": "string"
        }
      ],
      "stateMutability": "payable",
      "type": "function"
    },
    {
      "inputs": [
        {
          "internalType": "address",
          "name": "nftAddress",
          "type": "address"
        },
        {
          "internalType": "uint256",
          "name": "tokenId",
          "type": "uint256"
        }
      ],
      "name": "cancelListing",
      "outputs": [
        {
          "internalType": "string",
          "name": "",
          "type": "string"
        }
      ],
      "stateMutability": "nonpayable",
      "type": "function"
    },
    {
      "inputs": [
        {
          "internalType": "address",
          "name": "cAddress",
          "type": "address"
        }
      ],
      "name": "createVotingProposal",
      "outputs": [],
      "stateMutability": "nonpayable",
      "type": "function"
    },
    {
      "inputs": [
        {
          "internalType": "address",
          "name": "nftAddress",
          "type": "address"
        },
        {
          "internalType": "uint256",
          "name": "tokenId",
          "type": "uint256"
        }
      ],
      "name": "getASListing",
      "outputs": [
        {
          "components": [
            {
              "internalType": "address",
              "name": "owner",
              "type": "address"
            },
            {
              "internalType": "address",
              "name": "nftContract",
              "type": "address"
            },
            {
              "internalType": "uint256",
              "name": "tokenId",
              "type": "uint256"
            },
            {
              "internalType": "uint256",
              "name": "price",
              "type": "uint256"
            }
          ],
          "internalType": "struct ASE_Proxy.Listing_sell",
          "name": "",
          "type": "tuple"
        }
      ],
      "stateMutability": "view",
      "type": "function"
    },
    {
      "inputs": [],
      "name": "getImplAddrs",
      "outputs": [
        {
          "internalType": "address",
          "name": "",
          "type": "address"
        }
      ],
      "stateMutability": "view",
      "type": "function"
    },
    {
      "inputs": [],
      "name": "getProceeds",
      "outputs": [
        {
          "internalType": "uint256",
          "name": "",
          "type": "uint256"
        }
      ],
      "stateMutability": "view",
      "type": "function"
    },
    {
      "inputs": [
        {
          "internalType": "address",
          "name": "nftAddress",
          "type": "address"
        }
      ],
      "name": "getSListedAdddressTokens",
      "outputs": [
        {
          "internalType": "uint256[]",
          "name": "",
          "type": "uint256[]"
        }
      ],
      "stateMutability": "view",
      "type": "function"
    },
    {
      "inputs": [],
      "name": "getSListedAdddresses",
      "outputs": [
        {
          "internalType": "address[]",
          "name": "",
          "type": "address[]"
        }
      ],
      "stateMutability": "view",
      "type": "function"
    },
    {
      "inputs": [
        {
          "internalType": "address",
          "name": "nftContract",
          "type": "address"
        }
      ],
      "name": "isNFT",
      "outputs": [
        {
          "internalType": "bool",
          "name": "",
          "type": "bool"
        }
      ],
      "stateMutability": "view",
      "type": "function"
    },
    {
      "inputs": [],
      "name": "isProposalApproved",
      "outputs": [
        {
          "internalType": "bool",
          "name": "",
          "type": "bool"
        }
      ],
      "stateMutability": "view",
      "type": "function"
    },
    {
      "inputs": [
        {
          "internalType": "address",
          "name": "nftAddress",
          "type": "address"
        },
        {
          "internalType": "uint256",
          "name": "tokenId",
          "type": "uint256"
        },
        {
          "internalType": "uint256",
          "name": "price",
          "type": "uint256"
        }
      ],
      "name": "listItem",
      "outputs": [
        {
          "internalType": "string",
          "name": "",
          "type": "string"
        }
      ],
      "stateMutability": "nonpayable",
      "type": "function"
    },
    {
      "inputs": [],
      "name": "updateImplContract",
      "outputs": [],
      "stateMutability": "nonpayable",
      "type": "function"
    },
    {
      "inputs": [
        {
          "internalType": "address",
          "name": "nftAddress",
          "type": "address"
        },
        {
          "internalType": "uint256",
          "name": "tokenId",
          "type": "uint256"
        },
        {
          "internalType": "uint256",
          "name": "newPrice",
          "type": "uint256"
        }
      ],
      "name": "updateListing",
      "outputs": [
        {
          "internalType": "string",
          "name": "",
          "type": "string"
        }
      ],
      "stateMutability": "nonpayable",
      "type": "function"
    },
    {
      "inputs": [
        {
          "internalType": "bool",
          "name": "supportChanges",
          "type": "bool"
        }
      ],
      "name": "voteOnProposal",
      "outputs": [],
      "stateMutability": "nonpayable",
      "type": "function"
    },
    {
      "inputs": [],
      "name": "withdrawProceeds",
      "outputs": [
        {
          "internalType": "string",
          "name": "",
          "type": "string"
        }
      ],
      "stateMutability": "nonpayable",
      "type": "function"
    }
  ],
  "bytecode": "0x6080604052662386f26fc100006002553480156200001c57600080fd5b50604051620024b3380380620024b38339818101604052810190620000429190620001c1565b600160008190555033600160006101000a81548173ffffffffffffffffffffffffffffffffffffffff021916908373ffffffffffffffffffffffffffffffffffffffff16021790555082600960006101000a81548173ffffffffffffffffffffffffffffffffffffffff021916908373ffffffffffffffffffffffffffffffffffffffff16021790555081600b60006101000a81548173ffffffffffffffffffffffffffffffffffffffff021916908373ffffffffffffffffffffffffffffffffffffffff16021790555080600c60006101000a81548173ffffffffffffffffffffffffffffffffffffffff021916908373ffffffffffffffffffffffffffffffffffffffff1602179055505050506200021d565b600080fd5b600073ffffffffffffffffffffffffffffffffffffffff82169050919050565b600062000189826200015c565b9050919050565b6200019b816200017c565b8114620001a757600080fd5b50565b600081519050620001bb8162000190565b92915050565b600080600060608486031215620001dd57620001dc62000157565b5b6000620001ed86828701620001aa565b93505060206200020086828701620001aa565b92505060406200021386828701620001aa565b9150509250925092565b612286806200022d6000396000f3fe6080604052600436106100e85760003560e01c8063b2ddee061161008a578063e3ccb80911610059578063e3ccb80914610325578063f5fa4d471461034e578063f772adf114610365578063f8e97ef9146103a2576100e8565b8063b2ddee0614610231578063b31b85c91461026e578063be587251146102ab578063cc6b11b1146102e8576100e8565b806389bfd38f116100c657806389bfd38f1461016e5780639038e693146101ab5780639f37092a146101d6578063ae546f7e14610206576100e8565b8063341a0b8a146100ed5780636ae012c81461011857806383bd958714610143575b600080fd5b3480156100f957600080fd5b506101026103cb565b60405161010f919061170b565b60405180910390f35b34801561012457600080fd5b5061012d6103e2565b60405161013a919061173c565b60405180910390f35b34801561014f57600080fd5b5061015861040c565b6040516101659190611770565b60405180910390f35b34801561017a57600080fd5b50610195600480360381019061019091906117f7565b610453565b6040516101a291906118da565b60405180910390f35b3480156101b757600080fd5b506101c06105d4565b6040516101cd91906118da565b60405180910390f35b6101f060048036038101906101eb91906118fc565b610742565b6040516101fd91906118da565b60405180910390f35b34801561021257600080fd5b5061021b6108c0565b6040516102289190611957565b60405180910390f35b34801561023d57600080fd5b50610258600480360381019061025391906118fc565b610913565b60405161026591906118da565b60405180910390f35b34801561027a57600080fd5b5061029560048036038101906102909190611972565b610a91565b6040516102a29190611957565b60405180910390f35b3480156102b757600080fd5b506102d260048036038101906102cd9190611972565b610b47565b6040516102df9190611a5d565b60405180910390f35b3480156102f457600080fd5b5061030f600480360381019061030a91906118fc565b610b9d565b60405161031c9190611ad4565b60405180910390f35b34801561033157600080fd5b5061034c60048036038101906103479190611b1b565b610cc8565b005b34801561035a57600080fd5b50610363610f0a565b005b34801561037157600080fd5b5061038c600480360381019061038791906117f7565b6111a4565b60405161039991906118da565b60405180910390f35b3480156103ae57600080fd5b506103c960048036038101906103c49190611972565b611325565b005b606060006103d960066114b5565b90508091505090565b6000600960009054906101000a900473ffffffffffffffffffffffffffffffffffffffff16905090565b6000600460003373ffffffffffffffffffffffffffffffffffffffff1673ffffffffffffffffffffffffffffffffffffffff16815260200190815260200160002054905090565b6060600080600960009054906101000a900473ffffffffffffffffffffffffffffffffffffffff1673ffffffffffffffffffffffffffffffffffffffff168686866040516024016104a693929190611b48565b6040516020818303038152906040527f89bfd38f000000000000000000000000000000000000000000000000000000007bffffffffffffffffffffffffffffffffffffffffffffffffffffffff19166020820180517bffffffffffffffffffffffffffffffffffffffffffffffffffffffff83818316178352505050506040516105309190611bc6565b600060405180830381855af49150503d806000811461056b576040519150601f19603f3d011682016040523d82523d6000602084013e610570565b606091505b5091509150816105b5576040517f08c379a00000000000000000000000000000000000000000000000000000000081526004016105ac90611c29565b60405180910390fd5b808060200190518101906105c99190611d6f565b925050509392505050565b6060600080600960009054906101000a900473ffffffffffffffffffffffffffffffffffffffff1673ffffffffffffffffffffffffffffffffffffffff166040516024016040516020818303038152906040527f9038e693000000000000000000000000000000000000000000000000000000007bffffffffffffffffffffffffffffffffffffffffffffffffffffffff19166020820180517bffffffffffffffffffffffffffffffffffffffffffffffffffffffff83818316178352505050506040516106a29190611bc6565b600060405180830381855af49150503d80600081146106dd576040519150601f19603f3d011682016040523d82523d6000602084013e6106e2565b606091505b509150915081610727576040517f08c379a000000000000000000000000000000000000000000000000000000000815260040161071e90611c29565b60405180910390fd5b8080602001905181019061073b9190611d6f565b9250505090565b6060600080600960009054906101000a900473ffffffffffffffffffffffffffffffffffffffff1673ffffffffffffffffffffffffffffffffffffffff168585604051602401610793929190611db8565b6040516020818303038152906040527f9f37092a000000000000000000000000000000000000000000000000000000007bffffffffffffffffffffffffffffffffffffffffffffffffffffffff19166020820180517bffffffffffffffffffffffffffffffffffffffffffffffffffffffff838183161783525050505060405161081d9190611bc6565b600060405180830381855af49150503d8060008114610858576040519150601f19603f3d011682016040523d82523d6000602084013e61085d565b606091505b5091509150816108a2576040517f08c379a000000000000000000000000000000000000000000000000000000000815260040161089990611c29565b60405180910390fd5b808060200190518101906108b69190611d6f565b9250505092915050565b600080600a60000160159054906101000a900460ff16600a60000160149054906101000a900460ff166108f39190611e1d565b905060048160ff160361090a576001915050610910565b60009150505b90565b6060600080600960009054906101000a900473ffffffffffffffffffffffffffffffffffffffff1673ffffffffffffffffffffffffffffffffffffffff168585604051602401610964929190611db8565b6040516020818303038152906040527fb2ddee06000000000000000000000000000000000000000000000000000000007bffffffffffffffffffffffffffffffffffffffffffffffffffffffff19166020820180517bffffffffffffffffffffffffffffffffffffffffffffffffffffffff83818316178352505050506040516109ee9190611bc6565b600060405180830381855af49150503d8060008114610a29576040519150601f19603f3d011682016040523d82523d6000602084013e610a2e565b606091505b509150915081610a73576040517f08c379a0000000000000000000000000000000000000000000000000000000008152600401610a6a90611c29565b60405180910390fd5b80806020019051810190610a879190611d6f565b9250505092915050565b600080600090508273ffffffffffffffffffffffffffffffffffffffff166301ffc9a77f80ac58cd000000000000000000000000000000000000000000000000000000006040518263ffffffff1660e01b8152600401610af19190611e8d565b602060405180830381865afa925050508015610b2b57506040513d601f19601f82011682018060405250810190610b289190611ebd565b60015b610b39576000915050610b42565b80915050809150505b919050565b60606000610b92600560008573ffffffffffffffffffffffffffffffffffffffff1673ffffffffffffffffffffffffffffffffffffffff1681526020019081526020016000206114d6565b905080915050919050565b610ba56115c7565b600360008473ffffffffffffffffffffffffffffffffffffffff1673ffffffffffffffffffffffffffffffffffffffff16815260200190815260200160002060008381526020019081526020016000206040518060800160405290816000820160009054906101000a900473ffffffffffffffffffffffffffffffffffffffff1673ffffffffffffffffffffffffffffffffffffffff1673ffffffffffffffffffffffffffffffffffffffff1681526020016001820160009054906101000a900473ffffffffffffffffffffffffffffffffffffffff1673ffffffffffffffffffffffffffffffffffffffff1673ffffffffffffffffffffffffffffffffffffffff16815260200160028201548152602001600382015481525050905092915050565b600b60009054906101000a900473ffffffffffffffffffffffffffffffffffffffff1673ffffffffffffffffffffffffffffffffffffffff163373ffffffffffffffffffffffffffffffffffffffff161480610d715750600c60009054906101000a900473ffffffffffffffffffffffffffffffffffffffff1673ffffffffffffffffffffffffffffffffffffffff163373ffffffffffffffffffffffffffffffffffffffff16145b610db0576040517f08c379a0000000000000000000000000000000000000000000000000000000008152600401610da790611f36565b60405180910390fd5b600b60009054906101000a900473ffffffffffffffffffffffffffffffffffffffff1673ffffffffffffffffffffffffffffffffffffffff163373ffffffffffffffffffffffffffffffffffffffff1603610e88576000600a60000160149054906101000a900460ff1660ff1614610e5d576040517f08c379a0000000000000000000000000000000000000000000000000000000008152600401610e5490611fc8565b60405180910390fd5b610e66816114f7565b600a60000160146101000a81548160ff021916908360ff160217905550610f07565b6000600a60000160159054906101000a900460ff1660ff1614610ee0576040517f08c379a0000000000000000000000000000000000000000000000000000000008152600401610ed790611fc8565b60405180910390fd5b610ee9816114f7565b600a60000160156101000a81548160ff021916908360ff1602179055505b50565b610f12611512565b600160009054906101000a900473ffffffffffffffffffffffffffffffffffffffff1673ffffffffffffffffffffffffffffffffffffffff163373ffffffffffffffffffffffffffffffffffffffff1614610fa2576040517f08c379a0000000000000000000000000000000000000000000000000000000008152600401610f999061205a565b60405180910390fd5b6000600a60000160149054906101000a900460ff1660ff1614158015610fde57506000600a60000160159054906101000a900460ff1660ff1614155b61101d576040517f08c379a0000000000000000000000000000000000000000000000000000000008152600401611014906120c6565b60405180910390fd5b6002600a60000160149054906101000a900460ff1660ff1614801561105757506002600a60000160159054906101000a900460ff1660ff16145b611096576040517f08c379a000000000000000000000000000000000000000000000000000000000815260040161108d90612158565b60405180910390fd5b600a60000160009054906101000a900473ffffffffffffffffffffffffffffffffffffffff16600960006101000a81548173ffffffffffffffffffffffffffffffffffffffff021916908373ffffffffffffffffffffffffffffffffffffffff160217905550600960009054906101000a900473ffffffffffffffffffffffffffffffffffffffff1673ffffffffffffffffffffffffffffffffffffffff16600160009054906101000a900473ffffffffffffffffffffffffffffffffffffffff1673ffffffffffffffffffffffffffffffffffffffff167f1ed34c9a7b236ee6031785cd9ca32de930e1ae39020c1279886b687a307e7fcb60405160405180910390a36111a2611561565b565b6060600080600960009054906101000a900473ffffffffffffffffffffffffffffffffffffffff1673ffffffffffffffffffffffffffffffffffffffff168686866040516024016111f793929190611b48565b6040516020818303038152906040527ff772adf1000000000000000000000000000000000000000000000000000000007bffffffffffffffffffffffffffffffffffffffffffffffffffffffff19166020820180517bffffffffffffffffffffffffffffffffffffffffffffffffffffffff83818316178352505050506040516112819190611bc6565b600060405180830381855af49150503d80600081146112bc576040519150601f19603f3d011682016040523d82523d6000602084013e6112c1565b606091505b509150915081611306576040517f08c379a00000000000000000000000000000000000000000000000000000000081526004016112fd90611c29565b60405180910390fd5b8080602001905181019061131a9190611d6f565b925050509392505050565b600160009054906101000a900473ffffffffffffffffffffffffffffffffffffffff1673ffffffffffffffffffffffffffffffffffffffff163373ffffffffffffffffffffffffffffffffffffffff16146113b5576040517f08c379a00000000000000000000000000000000000000000000000000000000081526004016113ac906121c4565b60405180910390fd5b6000600a60000160149054906101000a900460ff1660ff16141580156113f157506000600a60000160159054906101000a900460ff1660ff1614155b611430576040517f08c379a0000000000000000000000000000000000000000000000000000000008152600401611427906120c6565b60405180910390fd5b80600a60000160006101000a81548173ffffffffffffffffffffffffffffffffffffffff021916908373ffffffffffffffffffffffffffffffffffffffff1602179055506000600a60000160146101000a81548160ff021916908360ff1602179055506000600a60000160156101000a81548160ff021916908360ff16021790555050565b606060006114c58360000161156b565b905060608190508092505050919050565b606060006114e68360000161156b565b905060608190508092505050919050565b60008115611508576002905061150d565b600190505b919050565b600260005403611557576040517f08c379a000000000000000000000000000000000000000000000000000000000815260040161154e90612230565b60405180910390fd5b6002600081905550565b6001600081905550565b6060816000018054806020026020016040519081016040528092919081815260200182805480156115bb57602002820191906000526020600020905b8154815260200190600101908083116115a7575b50505050509050919050565b6040518060800160405280600073ffffffffffffffffffffffffffffffffffffffff168152602001600073ffffffffffffffffffffffffffffffffffffffff16815260200160008152602001600081525090565b600081519050919050565b600082825260208201905092915050565b6000819050602082019050919050565b600073ffffffffffffffffffffffffffffffffffffffff82169050919050565b600061167282611647565b9050919050565b61168281611667565b82525050565b60006116948383611679565b60208301905092915050565b6000602082019050919050565b60006116b88261161b565b6116c28185611626565b93506116cd83611637565b8060005b838110156116fe5781516116e58882611688565b97506116f0836116a0565b9250506001810190506116d1565b5085935050505092915050565b6000602082019050818103600083015261172581846116ad565b905092915050565b61173681611667565b82525050565b6000602082019050611751600083018461172d565b92915050565b6000819050919050565b61176a81611757565b82525050565b60006020820190506117856000830184611761565b92915050565b6000604051905090565b600080fd5b600080fd5b6117a881611667565b81146117b357600080fd5b50565b6000813590506117c58161179f565b92915050565b6117d481611757565b81146117df57600080fd5b50565b6000813590506117f1816117cb565b92915050565b6000806000606084860312156118105761180f611795565b5b600061181e868287016117b6565b935050602061182f868287016117e2565b9250506040611840868287016117e2565b9150509250925092565b600081519050919050565b600082825260208201905092915050565b60005b83811015611884578082015181840152602081019050611869565b60008484015250505050565b6000601f19601f8301169050919050565b60006118ac8261184a565b6118b68185611855565b93506118c6818560208601611866565b6118cf81611890565b840191505092915050565b600060208201905081810360008301526118f481846118a1565b905092915050565b6000806040838503121561191357611912611795565b5b6000611921858286016117b6565b9250506020611932858286016117e2565b9150509250929050565b60008115159050919050565b6119518161193c565b82525050565b600060208201905061196c6000830184611948565b92915050565b60006020828403121561198857611987611795565b5b6000611996848285016117b6565b91505092915050565b600081519050919050565b600082825260208201905092915050565b6000819050602082019050919050565b6119d481611757565b82525050565b60006119e683836119cb565b60208301905092915050565b6000602082019050919050565b6000611a0a8261199f565b611a1481856119aa565b9350611a1f836119bb565b8060005b83811015611a50578151611a3788826119da565b9750611a42836119f2565b925050600181019050611a23565b5085935050505092915050565b60006020820190508181036000830152611a7781846119ff565b905092915050565b608082016000820151611a956000850182611679565b506020820151611aa86020850182611679565b506040820151611abb60408501826119cb565b506060820151611ace60608501826119cb565b50505050565b6000608082019050611ae96000830184611a7f565b92915050565b611af88161193c565b8114611b0357600080fd5b50565b600081359050611b1581611aef565b92915050565b600060208284031215611b3157611b30611795565b5b6000611b3f84828501611b06565b91505092915050565b6000606082019050611b5d600083018661172d565b611b6a6020830185611761565b611b776040830184611761565b949350505050565b600081519050919050565b600081905092915050565b6000611ba082611b7f565b611baa8185611b8a565b9350611bba818560208601611866565b80840191505092915050565b6000611bd28284611b95565b915081905092915050565b7f7472616e73616374696f6e206661696c65640000000000000000000000000000600082015250565b6000611c13601283611855565b9150611c1e82611bdd565b602082019050919050565b60006020820190508181036000830152611c4281611c06565b9050919050565b600080fd5b600080fd5b7f4e487b7100000000000000000000000000000000000000000000000000000000600052604160045260246000fd5b611c8b82611890565b810181811067ffffffffffffffff82111715611caa57611ca9611c53565b5b80604052505050565b6000611cbd61178b565b9050611cc98282611c82565b919050565b600067ffffffffffffffff821115611ce957611ce8611c53565b5b611cf282611890565b9050602081019050919050565b6000611d12611d0d84611cce565b611cb3565b905082815260208101848484011115611d2e57611d2d611c4e565b5b611d39848285611866565b509392505050565b600082601f830112611d5657611d55611c49565b5b8151611d66848260208601611cff565b91505092915050565b600060208284031215611d8557611d84611795565b5b600082015167ffffffffffffffff811115611da357611da261179a565b5b611daf84828501611d41565b91505092915050565b6000604082019050611dcd600083018561172d565b611dda6020830184611761565b9392505050565b600060ff82169050919050565b7f4e487b7100000000000000000000000000000000000000000000000000000000600052601160045260246000fd5b6000611e2882611de1565b9150611e3383611de1565b9250828201905060ff811115611e4c57611e4b611dee565b5b92915050565b60007fffffffff0000000000000000000000000000000000000000000000000000000082169050919050565b611e8781611e52565b82525050565b6000602082019050611ea26000830184611e7e565b92915050565b600081519050611eb781611aef565b92915050565b600060208284031215611ed357611ed2611795565b5b6000611ee184828501611ea8565b91505092915050565b7f4e6f7420617574686f72697a656420746f20766f746500000000000000000000600082015250565b6000611f20601683611855565b9150611f2b82611eea565b602082019050919050565b60006020820190508181036000830152611f4f81611f13565b9050919050565b7f596f75206861766520616c726561647920766f746564206f6e2074686973207060008201527f726f706f73616c00000000000000000000000000000000000000000000000000602082015250565b6000611fb2602783611855565b9150611fbd82611f56565b604082019050919050565b60006020820190508181036000830152611fe181611fa5565b9050919050565b7f6d61726b6574706c6163652063616e206f6e6c7920626520757067726164656460008201527f20627920746865206f776e657200000000000000000000000000000000000000602082015250565b6000612044602d83611855565b915061204f82611fe8565b604082019050919050565b6000602082019050818103600083015261207381612037565b9050919050565b7f566f746572732068617665206e6f7420636f6d706c6574656420766f74696e67600082015250565b60006120b0602083611855565b91506120bb8261207a565b602082019050919050565b600060208201905081810360008301526120df816120a3565b9050919050565b7f566f746572732068617665206e6f7420616772656564206f6e2074686520707260008201527f6f706f73616c0000000000000000000000000000000000000000000000000000602082015250565b6000612142602683611855565b915061214d826120e6565b604082019050919050565b6000602082019050818103600083015261217181612135565b9050919050565b7f596f7520617265206e6f7420746865206d61726b6574206f776e657200000000600082015250565b60006121ae601c83611855565b91506121b982612178565b602082019050919050565b600060208201905081810360008301526121dd816121a1565b9050919050565b7f5265656e7472616e637947756172643a207265656e7472616e742063616c6c00600082015250565b600061221a601f83611855565b9150612225826121e4565b602082019050919050565b600060208201905081810360008301526122498161220d565b905091905056fea2646970667358221220f8e950e0599759ca05004dc0617448999c8e73e5288330a46b1de595cb3de37264736f6c63430008110033",
  "linkReferences": {},
  "deployedLinkReferences": {}
}