{
  "_format": "hh-sol-artifact-1",
  "contractName": "ASE_Proxy",
  "sourceName": "contracts/ASEProxy.sol",
  "abi": [
    {
      "inputs": [
        {
          "internalType": "address",
          "name": "implContract",
          "type": "address"
        },
        {
          "internalType": "address",
          "name": "address1",
          "type": "address"
        },
        {
          "internalType": "address",
          "name": "address2",
          "type": "address"
        }
      ],
      "stateMutability": "nonpayable",
      "type": "constructor"
    },
    {
      "inputs": [],
      "name": "NotOwner",
      "type": "error"
    },
    {
      "anonymous": false,
      "inputs": [
        {
          "indexed": true,
          "internalType": "address",
          "name": "marketowner",
          "type": "address"
        },
        {
          "indexed": true,
          "internalType": "address",
          "name": "newImplAddrs",
          "type": "address"
        }
      ],
      "name": "ImplUpgrade",
      "type": "event"
    },
    {
      "anonymous": false,
      "inputs": [
        {
          "indexed": true,
          "internalType": "address",
          "name": "buyer",
          "type": "address"
        },
        {
          "indexed": true,
          "internalType": "address",
          "name": "nftAddress",
          "type": "address"
        },
        {
          "indexed": true,
          "internalType": "uint256",
          "name": "tokenId",
          "type": "uint256"
        },
        {
          "indexed": false,
          "internalType": "uint256",
          "name": "price",
          "type": "uint256"
        }
      ],
      "name": "ItemBought",
      "type": "event"
    },
    {
      "anonymous": false,
      "inputs": [
        {
          "indexed": true,
          "internalType": "address",
          "name": "seller",
          "type": "address"
        },
        {
          "indexed": true,
          "internalType": "address",
          "name": "nftAddress",
          "type": "address"
        },
        {
          "indexed": true,
          "internalType": "uint256",
          "name": "tokenId",
          "type": "uint256"
        }
      ],
      "name": "ItemCanceled",
      "type": "event"
    },
    {
      "anonymous": false,
      "inputs": [
        {
          "indexed": true,
          "internalType": "address",
          "name": "seller",
          "type": "address"
        },
        {
          "indexed": true,
          "internalType": "address",
          "name": "nftAddress",
          "type": "address"
        },
        {
          "indexed": true,
          "internalType": "uint256",
          "name": "tokenId",
          "type": "uint256"
        },
        {
          "indexed": false,
          "internalType": "uint256",
          "name": "price",
          "type": "uint256"
        }
      ],
      "name": "ItemListed",
      "type": "event"
    },
    {
      "inputs": [
        {
          "internalType": "address",
          "name": "nftAddress",
          "type": "address"
        },
        {
          "internalType": "uint256",
          "name": "tokenId",
          "type": "uint256"
        }
      ],
      "name": "buyItem",
      "outputs": [
        {
          "internalType": "string",
          "name": "",
          "type": "string"
        }
      ],
      "stateMutability": "payable",
      "type": "function"
    },
    {
      "inputs": [
        {
          "internalType": "address",
          "name": "nftAddress",
          "type": "address"
        },
        {
          "internalType": "uint256",
          "name": "tokenId",
          "type": "uint256"
        }
      ],
      "name": "cancelListing",
      "outputs": [
        {
          "internalType": "string",
          "name": "",
          "type": "string"
        }
      ],
      "stateMutability": "nonpayable",
      "type": "function"
    },
    {
      "inputs": [
        {
          "internalType": "address",
          "name": "cAddress",
          "type": "address"
        }
      ],
      "name": "createVotingProposal",
      "outputs": [],
      "stateMutability": "nonpayable",
      "type": "function"
    },
    {
      "inputs": [
        {
          "internalType": "address",
          "name": "nftAddress",
          "type": "address"
        },
        {
          "internalType": "uint256",
          "name": "tokenId",
          "type": "uint256"
        }
      ],
      "name": "getASListing",
      "outputs": [
        {
          "components": [
            {
              "internalType": "address",
              "name": "owner",
              "type": "address"
            },
            {
              "internalType": "address",
              "name": "nftContract",
              "type": "address"
            },
            {
              "internalType": "uint256",
              "name": "tokenId",
              "type": "uint256"
            },
            {
              "internalType": "uint256",
              "name": "price",
              "type": "uint256"
            }
          ],
          "internalType": "struct ASE_Proxy.Listing_sell",
          "name": "",
          "type": "tuple"
        }
      ],
      "stateMutability": "view",
      "type": "function"
    },
    {
      "inputs": [],
      "name": "getImplAddrs",
      "outputs": [
        {
          "internalType": "address",
          "name": "",
          "type": "address"
        }
      ],
      "stateMutability": "view",
      "type": "function"
    },
    {
      "inputs": [],
      "name": "getListingFee",
      "outputs": [
        {
          "internalType": "uint256",
          "name": "",
          "type": "uint256"
        }
      ],
      "stateMutability": "view",
      "type": "function"
    },
    {
      "inputs": [],
      "name": "getProceeds",
      "outputs": [
        {
          "internalType": "uint256",
          "name": "",
          "type": "uint256"
        }
      ],
      "stateMutability": "view",
      "type": "function"
    },
    {
      "inputs": [
        {
          "internalType": "address",
          "name": "nftAddress",
          "type": "address"
        }
      ],
      "name": "getSListedAdddressTokens",
      "outputs": [
        {
          "internalType": "uint256[]",
          "name": "",
          "type": "uint256[]"
        }
      ],
      "stateMutability": "view",
      "type": "function"
    },
    {
      "inputs": [],
      "name": "getSListedAdddresses",
      "outputs": [
        {
          "internalType": "address[]",
          "name": "",
          "type": "address[]"
        }
      ],
      "stateMutability": "view",
      "type": "function"
    },
    {
      "inputs": [
        {
          "internalType": "address",
          "name": "nftContract",
          "type": "address"
        }
      ],
      "name": "isNFT",
      "outputs": [
        {
          "internalType": "bool",
          "name": "",
          "type": "bool"
        }
      ],
      "stateMutability": "view",
      "type": "function"
    },
    {
      "inputs": [],
      "name": "isProposalApproved",
      "outputs": [
        {
          "internalType": "bool",
          "name": "",
          "type": "bool"
        }
      ],
      "stateMutability": "view",
      "type": "function"
    },
    {
      "inputs": [
        {
          "internalType": "address",
          "name": "nftAddress",
          "type": "address"
        },
        {
          "internalType": "uint256",
          "name": "tokenId",
          "type": "uint256"
        },
        {
          "internalType": "uint256",
          "name": "price",
          "type": "uint256"
        }
      ],
      "name": "listItem",
      "outputs": [
        {
          "internalType": "string",
          "name": "",
          "type": "string"
        }
      ],
      "stateMutability": "payable",
      "type": "function"
    },
    {
      "inputs": [],
      "name": "updateImplContract",
      "outputs": [],
      "stateMutability": "nonpayable",
      "type": "function"
    },
    {
      "inputs": [
        {
          "internalType": "address",
          "name": "nftAddress",
          "type": "address"
        },
        {
          "internalType": "uint256",
          "name": "tokenId",
          "type": "uint256"
        },
        {
          "internalType": "uint256",
          "name": "newPrice",
          "type": "uint256"
        }
      ],
      "name": "updateListing",
      "outputs": [
        {
          "internalType": "string",
          "name": "",
          "type": "string"
        }
      ],
      "stateMutability": "nonpayable",
      "type": "function"
    },
    {
      "inputs": [
        {
          "internalType": "bool",
          "name": "supportChanges",
          "type": "bool"
        }
      ],
      "name": "voteOnProposal",
      "outputs": [],
      "stateMutability": "nonpayable",
      "type": "function"
    },
    {
      "inputs": [],
      "name": "withdrawProceeds",
      "outputs": [
        {
          "internalType": "string",
          "name": "",
          "type": "string"
        }
      ],
      "stateMutability": "nonpayable",
      "type": "function"
    }
  ],
  "bytecode": "0x6080604052662386f26fc100006002553480156200001c57600080fd5b506040516200235f3803806200235f8339818101604052810190620000429190620001c1565b600160008190555033600160006101000a81548173ffffffffffffffffffffffffffffffffffffffff021916908373ffffffffffffffffffffffffffffffffffffffff16021790555082600860006101000a81548173ffffffffffffffffffffffffffffffffffffffff021916908373ffffffffffffffffffffffffffffffffffffffff16021790555081600a60006101000a81548173ffffffffffffffffffffffffffffffffffffffff021916908373ffffffffffffffffffffffffffffffffffffffff16021790555080600b60006101000a81548173ffffffffffffffffffffffffffffffffffffffff021916908373ffffffffffffffffffffffffffffffffffffffff1602179055505050506200021d565b600080fd5b600073ffffffffffffffffffffffffffffffffffffffff82169050919050565b600062000189826200015c565b9050919050565b6200019b816200017c565b8114620001a757600080fd5b50565b600081519050620001bb8162000190565b92915050565b600080600060608486031215620001dd57620001dc62000157565b5b6000620001ed86828701620001aa565b93505060206200020086828701620001aa565b92505060406200021386828701620001aa565b9150509250925092565b612132806200022d6000396000f3fe6080604052600436106100f35760003560e01c8063b31b85c91161008a578063e3ccb80911610059578063e3ccb8091461034e578063f5fa4d4714610377578063f772adf11461038e578063f8e97ef9146103cb576100f3565b8063b31b85c91461026c578063b8fe6abe146102a9578063be587251146102d4578063cc6b11b114610311576100f3565b80639038e693116100c65780639038e693146101a95780639f37092a146101d4578063ae546f7e14610204578063b2ddee061461022f576100f3565b8063341a0b8a146100f85780636ae012c81461012357806383bd95871461014e57806389bfd38f14610179575b600080fd5b34801561010457600080fd5b5061010d6103f4565b60405161011a91906116b5565b60405180910390f35b34801561012f57600080fd5b5061013861040b565b60405161014591906116e6565b60405180910390f35b34801561015a57600080fd5b50610163610435565b604051610170919061171a565b60405180910390f35b610193600480360381019061018e91906117a1565b61047c565b6040516101a09190611884565b60405180910390f35b3480156101b557600080fd5b506101be6105fd565b6040516101cb9190611884565b60405180910390f35b6101ee60048036038101906101e991906118a6565b61076b565b6040516101fb9190611884565b60405180910390f35b34801561021057600080fd5b506102196108e9565b6040516102269190611901565b60405180910390f35b34801561023b57600080fd5b50610256600480360381019061025191906118a6565b61093c565b6040516102639190611884565b60405180910390f35b34801561027857600080fd5b50610293600480360381019061028e919061191c565b610aba565b6040516102a09190611901565b60405180910390f35b3480156102b557600080fd5b506102be610b70565b6040516102cb919061171a565b60405180910390f35b3480156102e057600080fd5b506102fb60048036038101906102f6919061191c565b610b7a565b6040516103089190611a07565b60405180910390f35b34801561031d57600080fd5b50610338600480360381019061033391906118a6565b610bd0565b6040516103459190611a7e565b60405180910390f35b34801561035a57600080fd5b5061037560048036038101906103709190611ac5565b610cfb565b005b34801561038357600080fd5b5061038c610f3d565b005b34801561039a57600080fd5b506103b560048036038101906103b091906117a1565b6111d0565b6040516103c29190611884565b60405180910390f35b3480156103d757600080fd5b506103f260048036038101906103ed919061191c565b611351565b005b60606000610402600661145f565b90508091505090565b6000600860009054906101000a900473ffffffffffffffffffffffffffffffffffffffff16905090565b6000600460003373ffffffffffffffffffffffffffffffffffffffff1673ffffffffffffffffffffffffffffffffffffffff16815260200190815260200160002054905090565b6060600080600860009054906101000a900473ffffffffffffffffffffffffffffffffffffffff1673ffffffffffffffffffffffffffffffffffffffff168686866040516024016104cf93929190611af2565b6040516020818303038152906040527f89bfd38f000000000000000000000000000000000000000000000000000000007bffffffffffffffffffffffffffffffffffffffffffffffffffffffff19166020820180517bffffffffffffffffffffffffffffffffffffffffffffffffffffffff83818316178352505050506040516105599190611b70565b600060405180830381855af49150503d8060008114610594576040519150601f19603f3d011682016040523d82523d6000602084013e610599565b606091505b5091509150816105de576040517f08c379a00000000000000000000000000000000000000000000000000000000081526004016105d590611bd3565b60405180910390fd5b808060200190518101906105f29190611d19565b925050509392505050565b6060600080600860009054906101000a900473ffffffffffffffffffffffffffffffffffffffff1673ffffffffffffffffffffffffffffffffffffffff166040516024016040516020818303038152906040527f9038e693000000000000000000000000000000000000000000000000000000007bffffffffffffffffffffffffffffffffffffffffffffffffffffffff19166020820180517bffffffffffffffffffffffffffffffffffffffffffffffffffffffff83818316178352505050506040516106cb9190611b70565b600060405180830381855af49150503d8060008114610706576040519150601f19603f3d011682016040523d82523d6000602084013e61070b565b606091505b509150915081610750576040517f08c379a000000000000000000000000000000000000000000000000000000000815260040161074790611bd3565b60405180910390fd5b808060200190518101906107649190611d19565b9250505090565b6060600080600860009054906101000a900473ffffffffffffffffffffffffffffffffffffffff1673ffffffffffffffffffffffffffffffffffffffff1685856040516024016107bc929190611d62565b6040516020818303038152906040527f9f37092a000000000000000000000000000000000000000000000000000000007bffffffffffffffffffffffffffffffffffffffffffffffffffffffff19166020820180517bffffffffffffffffffffffffffffffffffffffffffffffffffffffff83818316178352505050506040516108469190611b70565b600060405180830381855af49150503d8060008114610881576040519150601f19603f3d011682016040523d82523d6000602084013e610886565b606091505b5091509150816108cb576040517f08c379a00000000000000000000000000000000000000000000000000000000081526004016108c290611bd3565b60405180910390fd5b808060200190518101906108df9190611d19565b9250505092915050565b600080600960000160159054906101000a900460ff16600960000160149054906101000a900460ff1661091c9190611dc7565b905060048160ff1603610933576001915050610939565b60009150505b90565b6060600080600860009054906101000a900473ffffffffffffffffffffffffffffffffffffffff1673ffffffffffffffffffffffffffffffffffffffff16858560405160240161098d929190611d62565b6040516020818303038152906040527fb2ddee06000000000000000000000000000000000000000000000000000000007bffffffffffffffffffffffffffffffffffffffffffffffffffffffff19166020820180517bffffffffffffffffffffffffffffffffffffffffffffffffffffffff8381831617835250505050604051610a179190611b70565b600060405180830381855af49150503d8060008114610a52576040519150601f19603f3d011682016040523d82523d6000602084013e610a57565b606091505b509150915081610a9c576040517f08c379a0000000000000000000000000000000000000000000000000000000008152600401610a9390611bd3565b60405180910390fd5b80806020019051810190610ab09190611d19565b9250505092915050565b600080600090508273ffffffffffffffffffffffffffffffffffffffff166301ffc9a77f80ac58cd000000000000000000000000000000000000000000000000000000006040518263ffffffff1660e01b8152600401610b1a9190611e37565b602060405180830381865afa925050508015610b5457506040513d601f19601f82011682018060405250810190610b519190611e67565b60015b610b62576000915050610b6b565b80915050809150505b919050565b6000600254905090565b60606000610bc5600560008573ffffffffffffffffffffffffffffffffffffffff1673ffffffffffffffffffffffffffffffffffffffff168152602001908152602001600020611480565b905080915050919050565b610bd8611571565b600360008473ffffffffffffffffffffffffffffffffffffffff1673ffffffffffffffffffffffffffffffffffffffff16815260200190815260200160002060008381526020019081526020016000206040518060800160405290816000820160009054906101000a900473ffffffffffffffffffffffffffffffffffffffff1673ffffffffffffffffffffffffffffffffffffffff1673ffffffffffffffffffffffffffffffffffffffff1681526020016001820160009054906101000a900473ffffffffffffffffffffffffffffffffffffffff1673ffffffffffffffffffffffffffffffffffffffff1673ffffffffffffffffffffffffffffffffffffffff16815260200160028201548152602001600382015481525050905092915050565b600a60009054906101000a900473ffffffffffffffffffffffffffffffffffffffff1673ffffffffffffffffffffffffffffffffffffffff163373ffffffffffffffffffffffffffffffffffffffff161480610da45750600b60009054906101000a900473ffffffffffffffffffffffffffffffffffffffff1673ffffffffffffffffffffffffffffffffffffffff163373ffffffffffffffffffffffffffffffffffffffff16145b610de3576040517f08c379a0000000000000000000000000000000000000000000000000000000008152600401610dda90611ee0565b60405180910390fd5b600a60009054906101000a900473ffffffffffffffffffffffffffffffffffffffff1673ffffffffffffffffffffffffffffffffffffffff163373ffffffffffffffffffffffffffffffffffffffff1603610ebb576000600960000160149054906101000a900460ff1660ff1614610e90576040517f08c379a0000000000000000000000000000000000000000000000000000000008152600401610e8790611f72565b60405180910390fd5b610e99816114a1565b600960000160146101000a81548160ff021916908360ff160217905550610f3a565b6000600960000160159054906101000a900460ff1660ff1614610f13576040517f08c379a0000000000000000000000000000000000000000000000000000000008152600401610f0a90611f72565b60405180910390fd5b610f1c816114a1565b600960000160156101000a81548160ff021916908360ff1602179055505b50565b610f456114bc565b338073ffffffffffffffffffffffffffffffffffffffff16600160009054906101000a900473ffffffffffffffffffffffffffffffffffffffff1673ffffffffffffffffffffffffffffffffffffffff1614610fcd576040517f30cd747100000000000000000000000000000000000000000000000000000000815260040160405180910390fd5b6000600960000160149054906101000a900460ff1660ff161415801561100957506000600960000160159054906101000a900460ff1660ff1614155b611048576040517f08c379a000000000000000000000000000000000000000000000000000000000815260040161103f90611fde565b60405180910390fd5b6002600960000160149054906101000a900460ff1660ff1614801561108257506002600960000160159054906101000a900460ff1660ff16145b6110c1576040517f08c379a00000000000000000000000000000000000000000000000000000000081526004016110b890612070565b60405180910390fd5b600960000160009054906101000a900473ffffffffffffffffffffffffffffffffffffffff16600860006101000a81548173ffffffffffffffffffffffffffffffffffffffff021916908373ffffffffffffffffffffffffffffffffffffffff160217905550600860009054906101000a900473ffffffffffffffffffffffffffffffffffffffff1673ffffffffffffffffffffffffffffffffffffffff16600160009054906101000a900473ffffffffffffffffffffffffffffffffffffffff1673ffffffffffffffffffffffffffffffffffffffff167f1ed34c9a7b236ee6031785cd9ca32de930e1ae39020c1279886b687a307e7fcb60405160405180910390a3506111ce61150b565b565b6060600080600860009054906101000a900473ffffffffffffffffffffffffffffffffffffffff1673ffffffffffffffffffffffffffffffffffffffff1686868660405160240161122393929190611af2565b6040516020818303038152906040527ff772adf1000000000000000000000000000000000000000000000000000000007bffffffffffffffffffffffffffffffffffffffffffffffffffffffff19166020820180517bffffffffffffffffffffffffffffffffffffffffffffffffffffffff83818316178352505050506040516112ad9190611b70565b600060405180830381855af49150503d80600081146112e8576040519150601f19603f3d011682016040523d82523d6000602084013e6112ed565b606091505b509150915081611332576040517f08c379a000000000000000000000000000000000000000000000000000000000815260040161132990611bd3565b60405180910390fd5b808060200190518101906113469190611d19565b925050509392505050565b338073ffffffffffffffffffffffffffffffffffffffff16600160009054906101000a900473ffffffffffffffffffffffffffffffffffffffff1673ffffffffffffffffffffffffffffffffffffffff16146113d9576040517f30cd747100000000000000000000000000000000000000000000000000000000815260040160405180910390fd5b81600960000160006101000a81548173ffffffffffffffffffffffffffffffffffffffff021916908373ffffffffffffffffffffffffffffffffffffffff1602179055506000600960000160146101000a81548160ff021916908360ff1602179055506000600960000160156101000a81548160ff021916908360ff1602179055505050565b6060600061146f83600001611515565b905060608190508092505050919050565b6060600061149083600001611515565b905060608190508092505050919050565b600081156114b257600290506114b7565b600190505b919050565b600260005403611501576040517f08c379a00000000000000000000000000000000000000000000000000000000081526004016114f8906120dc565b60405180910390fd5b6002600081905550565b6001600081905550565b60608160000180548060200260200160405190810160405280929190818152602001828054801561156557602002820191906000526020600020905b815481526020019060010190808311611551575b50505050509050919050565b6040518060800160405280600073ffffffffffffffffffffffffffffffffffffffff168152602001600073ffffffffffffffffffffffffffffffffffffffff16815260200160008152602001600081525090565b600081519050919050565b600082825260208201905092915050565b6000819050602082019050919050565b600073ffffffffffffffffffffffffffffffffffffffff82169050919050565b600061161c826115f1565b9050919050565b61162c81611611565b82525050565b600061163e8383611623565b60208301905092915050565b6000602082019050919050565b6000611662826115c5565b61166c81856115d0565b9350611677836115e1565b8060005b838110156116a857815161168f8882611632565b975061169a8361164a565b92505060018101905061167b565b5085935050505092915050565b600060208201905081810360008301526116cf8184611657565b905092915050565b6116e081611611565b82525050565b60006020820190506116fb60008301846116d7565b92915050565b6000819050919050565b61171481611701565b82525050565b600060208201905061172f600083018461170b565b92915050565b6000604051905090565b600080fd5b600080fd5b61175281611611565b811461175d57600080fd5b50565b60008135905061176f81611749565b92915050565b61177e81611701565b811461178957600080fd5b50565b60008135905061179b81611775565b92915050565b6000806000606084860312156117ba576117b961173f565b5b60006117c886828701611760565b93505060206117d98682870161178c565b92505060406117ea8682870161178c565b9150509250925092565b600081519050919050565b600082825260208201905092915050565b60005b8381101561182e578082015181840152602081019050611813565b60008484015250505050565b6000601f19601f8301169050919050565b6000611856826117f4565b61186081856117ff565b9350611870818560208601611810565b6118798161183a565b840191505092915050565b6000602082019050818103600083015261189e818461184b565b905092915050565b600080604083850312156118bd576118bc61173f565b5b60006118cb85828601611760565b92505060206118dc8582860161178c565b9150509250929050565b60008115159050919050565b6118fb816118e6565b82525050565b600060208201905061191660008301846118f2565b92915050565b6000602082840312156119325761193161173f565b5b600061194084828501611760565b91505092915050565b600081519050919050565b600082825260208201905092915050565b6000819050602082019050919050565b61197e81611701565b82525050565b60006119908383611975565b60208301905092915050565b6000602082019050919050565b60006119b482611949565b6119be8185611954565b93506119c983611965565b8060005b838110156119fa5781516119e18882611984565b97506119ec8361199c565b9250506001810190506119cd565b5085935050505092915050565b60006020820190508181036000830152611a2181846119a9565b905092915050565b608082016000820151611a3f6000850182611623565b506020820151611a526020850182611623565b506040820151611a656040850182611975565b506060820151611a786060850182611975565b50505050565b6000608082019050611a936000830184611a29565b92915050565b611aa2816118e6565b8114611aad57600080fd5b50565b600081359050611abf81611a99565b92915050565b600060208284031215611adb57611ada61173f565b5b6000611ae984828501611ab0565b91505092915050565b6000606082019050611b0760008301866116d7565b611b14602083018561170b565b611b21604083018461170b565b949350505050565b600081519050919050565b600081905092915050565b6000611b4a82611b29565b611b548185611b34565b9350611b64818560208601611810565b80840191505092915050565b6000611b7c8284611b3f565b915081905092915050565b7f7472616e73616374696f6e206661696c65640000000000000000000000000000600082015250565b6000611bbd6012836117ff565b9150611bc882611b87565b602082019050919050565b60006020820190508181036000830152611bec81611bb0565b9050919050565b600080fd5b600080fd5b7f4e487b7100000000000000000000000000000000000000000000000000000000600052604160045260246000fd5b611c358261183a565b810181811067ffffffffffffffff82111715611c5457611c53611bfd565b5b80604052505050565b6000611c67611735565b9050611c738282611c2c565b919050565b600067ffffffffffffffff821115611c9357611c92611bfd565b5b611c9c8261183a565b9050602081019050919050565b6000611cbc611cb784611c78565b611c5d565b905082815260208101848484011115611cd857611cd7611bf8565b5b611ce3848285611810565b509392505050565b600082601f830112611d0057611cff611bf3565b5b8151611d10848260208601611ca9565b91505092915050565b600060208284031215611d2f57611d2e61173f565b5b600082015167ffffffffffffffff811115611d4d57611d4c611744565b5b611d5984828501611ceb565b91505092915050565b6000604082019050611d7760008301856116d7565b611d84602083018461170b565b9392505050565b600060ff82169050919050565b7f4e487b7100000000000000000000000000000000000000000000000000000000600052601160045260246000fd5b6000611dd282611d8b565b9150611ddd83611d8b565b9250828201905060ff811115611df657611df5611d98565b5b92915050565b60007fffffffff0000000000000000000000000000000000000000000000000000000082169050919050565b611e3181611dfc565b82525050565b6000602082019050611e4c6000830184611e28565b92915050565b600081519050611e6181611a99565b92915050565b600060208284031215611e7d57611e7c61173f565b5b6000611e8b84828501611e52565b91505092915050565b7f4e6f7420617574686f72697a656420746f20766f746500000000000000000000600082015250565b6000611eca6016836117ff565b9150611ed582611e94565b602082019050919050565b60006020820190508181036000830152611ef981611ebd565b9050919050565b7f596f75206861766520616c726561647920766f746564206f6e2074686973207060008201527f726f706f73616c00000000000000000000000000000000000000000000000000602082015250565b6000611f5c6027836117ff565b9150611f6782611f00565b604082019050919050565b60006020820190508181036000830152611f8b81611f4f565b9050919050565b7f566f746572732068617665206e6f7420636f6d706c6574656420766f74696e67600082015250565b6000611fc86020836117ff565b9150611fd382611f92565b602082019050919050565b60006020820190508181036000830152611ff781611fbb565b9050919050565b7f566f746572732068617665206e6f7420616772656564206f6e2074686520707260008201527f6f706f73616c0000000000000000000000000000000000000000000000000000602082015250565b600061205a6026836117ff565b915061206582611ffe565b604082019050919050565b600060208201905081810360008301526120898161204d565b9050919050565b7f5265656e7472616e637947756172643a207265656e7472616e742063616c6c00600082015250565b60006120c6601f836117ff565b91506120d182612090565b602082019050919050565b600060208201905081810360008301526120f5816120b9565b905091905056fea26469706673582212206137c1b8189a06136f5b419d05de972ffd4da078a27df085b2b6ebc03a3065ed64736f6c63430008110033",
  "linkReferences": {},
  "deployedLinkReferences": {}
}