{
  "_format": "hh-sol-artifact-1",
  "contractName": "AvianInstallment",
  "sourceName": "contracts/AvianInstallment.sol",
  "abi": [
    {
      "inputs": [],
      "stateMutability": "nonpayable",
      "type": "constructor"
    },
    {
      "inputs": [
        {
          "internalType": "address",
          "name": "nftAddress",
          "type": "address"
        },
        {
          "internalType": "uint256",
          "name": "tokenId",
          "type": "uint256"
        }
      ],
      "name": "AlreadyListed",
      "type": "error"
    },
    {
      "inputs": [],
      "name": "NotApprovedForMarketplace",
      "type": "error"
    },
    {
      "inputs": [
        {
          "internalType": "address",
          "name": "nftAddress",
          "type": "address"
        },
        {
          "internalType": "uint256",
          "name": "tokenId",
          "type": "uint256"
        }
      ],
      "name": "NotListed",
      "type": "error"
    },
    {
      "inputs": [],
      "name": "NotOwner",
      "type": "error"
    },
    {
      "anonymous": false,
      "inputs": [
        {
          "indexed": true,
          "internalType": "address",
          "name": "owner",
          "type": "address"
        },
        {
          "indexed": true,
          "internalType": "address",
          "name": "user",
          "type": "address"
        },
        {
          "indexed": true,
          "internalType": "address",
          "name": "nftContract",
          "type": "address"
        },
        {
          "indexed": false,
          "internalType": "uint256",
          "name": "tokenId",
          "type": "uint256"
        },
        {
          "indexed": false,
          "internalType": "uint256",
          "name": "pricePerDay",
          "type": "uint256"
        }
      ],
      "name": "INSNFTListed",
      "type": "event"
    },
    {
      "anonymous": false,
      "inputs": [
        {
          "indexed": true,
          "internalType": "address",
          "name": "owner",
          "type": "address"
        },
        {
          "indexed": true,
          "internalType": "address",
          "name": "user",
          "type": "address"
        },
        {
          "indexed": true,
          "internalType": "address",
          "name": "nftContract",
          "type": "address"
        },
        {
          "indexed": false,
          "internalType": "uint256",
          "name": "tokenId",
          "type": "uint256"
        },
        {
          "indexed": false,
          "internalType": "uint64",
          "name": "expires",
          "type": "uint64"
        },
        {
          "indexed": false,
          "internalType": "uint64",
          "name": "ins_index",
          "type": "uint64"
        },
        {
          "indexed": false,
          "internalType": "uint256",
          "name": "amountIns",
          "type": "uint256"
        },
        {
          "indexed": false,
          "internalType": "uint256",
          "name": "paidIns",
          "type": "uint256"
        }
      ],
      "name": "NFTINSPaid",
      "type": "event"
    },
    {
      "anonymous": false,
      "inputs": [
        {
          "indexed": true,
          "internalType": "address",
          "name": "unlistSender",
          "type": "address"
        },
        {
          "indexed": true,
          "internalType": "address",
          "name": "nftContract",
          "type": "address"
        },
        {
          "indexed": true,
          "internalType": "uint256",
          "name": "tokenId",
          "type": "uint256"
        }
      ],
      "name": "NFTUnlisted",
      "type": "event"
    },
    {
      "inputs": [
        {
          "internalType": "uint256",
          "name": "totalPaid",
          "type": "uint256"
        },
        {
          "internalType": "uint256",
          "name": "installmentCount",
          "type": "uint256"
        },
        {
          "internalType": "uint256",
          "name": "pricePerDay",
          "type": "uint256"
        },
        {
          "internalType": "uint256",
          "name": "installmentIndex",
          "type": "uint256"
        }
      ],
      "name": "calculateInstallment",
      "outputs": [
        {
          "internalType": "uint256",
          "name": "",
          "type": "uint256"
        }
      ],
      "stateMutability": "pure",
      "type": "function"
    },
    {
      "inputs": [
        {
          "internalType": "address",
          "name": "nftAddress",
          "type": "address"
        },
        {
          "internalType": "uint256",
          "name": "tokenId",
          "type": "uint256"
        }
      ],
      "name": "getAInsListing",
      "outputs": [
        {
          "components": [
            {
              "internalType": "address",
              "name": "owner",
              "type": "address"
            },
            {
              "internalType": "address",
              "name": "user",
              "type": "address"
            },
            {
              "internalType": "address",
              "name": "nftContract",
              "type": "address"
            },
            {
              "internalType": "uint256",
              "name": "tokenId",
              "type": "uint256"
            },
            {
              "internalType": "uint256",
              "name": "pricePerDay",
              "type": "uint256"
            },
            {
              "internalType": "uint64",
              "name": "installmentCount",
              "type": "uint64"
            },
            {
              "internalType": "uint64",
              "name": "expires",
              "type": "uint64"
            },
            {
              "internalType": "uint64",
              "name": "installmentIndex",
              "type": "uint64"
            },
            {
              "internalType": "uint256",
              "name": "paidIns",
              "type": "uint256"
            }
          ],
          "internalType": "struct AvianInstallment.Listing_installment",
          "name": "",
          "type": "tuple"
        }
      ],
      "stateMutability": "view",
      "type": "function"
    },
    {
      "inputs": [
        {
          "internalType": "address",
          "name": "nftAddress",
          "type": "address"
        }
      ],
      "name": "getInsListedAdddressTokens",
      "outputs": [
        {
          "internalType": "uint256[]",
          "name": "",
          "type": "uint256[]"
        }
      ],
      "stateMutability": "view",
      "type": "function"
    },
    {
      "inputs": [],
      "name": "getInsListedAdddresses",
      "outputs": [
        {
          "internalType": "address[]",
          "name": "",
          "type": "address[]"
        }
      ],
      "stateMutability": "view",
      "type": "function"
    },
    {
      "inputs": [],
      "name": "getListingFee",
      "outputs": [
        {
          "internalType": "uint256",
          "name": "",
          "type": "uint256"
        }
      ],
      "stateMutability": "view",
      "type": "function"
    },
    {
      "inputs": [
        {
          "internalType": "address",
          "name": "nftAddress",
          "type": "address"
        },
        {
          "internalType": "uint256",
          "name": "tokenId",
          "type": "uint256"
        },
        {
          "internalType": "uint64",
          "name": "installmentCount",
          "type": "uint64"
        }
      ],
      "name": "getNftInstallment",
      "outputs": [
        {
          "internalType": "uint256",
          "name": "",
          "type": "uint256"
        }
      ],
      "stateMutability": "view",
      "type": "function"
    },
    {
      "inputs": [
        {
          "internalType": "address",
          "name": "nftContract",
          "type": "address"
        }
      ],
      "name": "isNFT",
      "outputs": [
        {
          "internalType": "bool",
          "name": "",
          "type": "bool"
        }
      ],
      "stateMutability": "view",
      "type": "function"
    },
    {
      "inputs": [
        {
          "internalType": "address",
          "name": "nftContract",
          "type": "address"
        }
      ],
      "name": "isRentableNFT",
      "outputs": [
        {
          "internalType": "bool",
          "name": "",
          "type": "bool"
        }
      ],
      "stateMutability": "view",
      "type": "function"
    },
    {
      "inputs": [
        {
          "internalType": "address",
          "name": "nftAddress",
          "type": "address"
        },
        {
          "internalType": "uint256",
          "name": "tokenId",
          "type": "uint256"
        },
        {
          "internalType": "uint256",
          "name": "pricePerDay",
          "type": "uint256"
        }
      ],
      "name": "listInsBasedNFT",
      "outputs": [],
      "stateMutability": "payable",
      "type": "function"
    },
    {
      "inputs": [
        {
          "internalType": "address",
          "name": "nftContract",
          "type": "address"
        },
        {
          "internalType": "uint256",
          "name": "tokenId",
          "type": "uint256"
        }
      ],
      "name": "payNFTIns",
      "outputs": [],
      "stateMutability": "payable",
      "type": "function"
    },
    {
      "inputs": [
        {
          "internalType": "address",
          "name": "nftContract",
          "type": "address"
        },
        {
          "internalType": "uint256",
          "name": "tokenId",
          "type": "uint256"
        },
        {
          "internalType": "uint64",
          "name": "numDays",
          "type": "uint64"
        }
      ],
      "name": "rentINSNFT",
      "outputs": [],
      "stateMutability": "payable",
      "type": "function"
    },
    {
      "inputs": [
        {
          "internalType": "address",
          "name": "nftAddress",
          "type": "address"
        },
        {
          "internalType": "uint256",
          "name": "tokenId",
          "type": "uint256"
        }
      ],
      "name": "unlistINSNFT",
      "outputs": [],
      "stateMutability": "nonpayable",
      "type": "function"
    }
  ],
  "bytecode": "0x608060405266038d7ea4c68000600255600a600360006101000a81548167ffffffffffffffff021916908367ffffffffffffffff16021790555034801561004557600080fd5b50600160008190555033600160006101000a81548173ffffffffffffffffffffffffffffffffffffffff021916908373ffffffffffffffffffffffffffffffffffffffff1602179055506137e18061009e6000396000f3fe6080604052600436106100a75760003560e01c8063b8fe6abe11610064578063b8fe6abe146101d3578063c80e712f146101fe578063cebd51451461021a578063d4a55a7414610236578063e9a6f4f614610273578063fa470c8d146102b0576100a7565b80632f4a073a146100ac57806337feab07146100e95780634b30261c146101145780636bf510bf1461013057806393f3324914610159578063b31b85c914610196575b600080fd5b3480156100b857600080fd5b506100d360048036038101906100ce91906127d6565b6102ed565b6040516100e091906128cb565b60405180910390f35b3480156100f557600080fd5b506100fe610343565b60405161010b91906129ab565b60405180910390f35b61012e600480360381019061012991906129f9565b61035a565b005b34801561013c57600080fd5b50610157600480360381019061015291906129f9565b610857565b005b34801561016557600080fd5b50610180600480360381019061017b9190612a79565b610deb565b60405161018d9190612adb565b60405180910390f35b3480156101a257600080fd5b506101bd60048036038101906101b891906127d6565b610eef565b6040516101ca9190612b11565b60405180910390f35b3480156101df57600080fd5b506101e8610fa5565b6040516101f59190612adb565b60405180910390f35b61021860048036038101906102139190612b2c565b610faf565b005b610234600480360381019061022f9190612a79565b611900565b005b34801561024257600080fd5b5061025d600480360381019061025891906129f9565b611e3b565b60405161026a9190612c45565b60405180910390f35b34801561027f57600080fd5b5061029a600480360381019061029591906127d6565b61205d565b6040516102a79190612b11565b60405180910390f35b3480156102bc57600080fd5b506102d760048036038101906102d29190612c61565b6121c6565b6040516102e49190612adb565b60405180910390f35b60606000610338600560008573ffffffffffffffffffffffffffffffffffffffff1673ffffffffffffffffffffffffffffffffffffffff1681526020019081526020016000206122fd565b905080915050919050565b60606000610351600661231e565b90508091505090565b61036261233f565b6000600460008473ffffffffffffffffffffffffffffffffffffffff1673ffffffffffffffffffffffffffffffffffffffff168152602001908152602001600020600083815260200190815260200160002090503373ffffffffffffffffffffffffffffffffffffffff168160010160009054906101000a900473ffffffffffffffffffffffffffffffffffffffff1673ffffffffffffffffffffffffffffffffffffffff1614610448576040517f08c379a000000000000000000000000000000000000000000000000000000000815260040161043f90612d25565b60405180910390fd5b8060050160089054906101000a900467ffffffffffffffff1667ffffffffffffffff1642106104ac576040517f08c379a00000000000000000000000000000000000000000000000000000000081526004016104a390612d91565b60405180910390fd5b6000620151808260050160089054906101000a900467ffffffffffffffff166104d59190612de0565b905060008260050160109054906101000a900467ffffffffffffffff16905060006001826105039190612de0565b9050600061054785600601548660050160009054906101000a900467ffffffffffffffff1667ffffffffffffffff1687600401548567ffffffffffffffff166121c6565b90508034101561058c576040517f08c379a000000000000000000000000000000000000000000000000000000000815260040161058390612e8e565b60405180910390fd5b8460000160009054906101000a900473ffffffffffffffffffffffffffffffffffffffff1673ffffffffffffffffffffffffffffffffffffffff166108fc829081150290604051600060405180830381858888f193505050501580156105f6573d6000803e3d6000fd5b50838560050160086101000a81548167ffffffffffffffff021916908367ffffffffffffffff1602179055508673ffffffffffffffffffffffffffffffffffffffff1663e030565e8733876040518463ffffffff1660e01b815260040161065f93929190612ecc565b600060405180830381600087803b15801561067957600080fd5b505af115801561068d573d6000803e3d6000fd5b5050505060008186600601546106a39190612f03565b90508560050160009054906101000a900467ffffffffffffffff1667ffffffffffffffff168367ffffffffffffffff16036107135760008660050160106101000a81548167ffffffffffffffff021916908367ffffffffffffffff16021790555060008660060181905550610748565b828660050160106101000a81548167ffffffffffffffff021916908367ffffffffffffffff1602179055508086600601819055505b8773ffffffffffffffffffffffffffffffffffffffff163373ffffffffffffffffffffffffffffffffffffffff168973ffffffffffffffffffffffffffffffffffffffff16636352211e8a6040518263ffffffff1660e01b81526004016107af9190612adb565b602060405180830381865afa1580156107cc573d6000803e3d6000fd5b505050506040513d601f19601f820116820180604052508101906107f09190612f4c565b73ffffffffffffffffffffffffffffffffffffffff167fbffba71858e59a3f9bbb8e5792d8ac859e29ecfe86d40bb1dc34e346594542778a8989888860405161083d959493929190612f79565b60405180910390a450505050505061085361238e565b5050565b818133600083905060008173ffffffffffffffffffffffffffffffffffffffff16636352211e856040518263ffffffff1660e01b815260040161089a9190612adb565b602060405180830381865afa1580156108b7573d6000803e3d6000fd5b505050506040513d601f19601f820116820180604052508101906108db9190612f4c565b90508073ffffffffffffffffffffffffffffffffffffffff168373ffffffffffffffffffffffffffffffffffffffff1614610942576040517f30cd747100000000000000000000000000000000000000000000000000000000815260040160405180910390fd5b86866000600460008473ffffffffffffffffffffffffffffffffffffffff1673ffffffffffffffffffffffffffffffffffffffff1681526020019081526020016000206000838152602001908152602001600020604051806101200160405290816000820160009054906101000a900473ffffffffffffffffffffffffffffffffffffffff1673ffffffffffffffffffffffffffffffffffffffff1673ffffffffffffffffffffffffffffffffffffffff1681526020016001820160009054906101000a900473ffffffffffffffffffffffffffffffffffffffff1673ffffffffffffffffffffffffffffffffffffffff1673ffffffffffffffffffffffffffffffffffffffff1681526020016002820160009054906101000a900473ffffffffffffffffffffffffffffffffffffffff1673ffffffffffffffffffffffffffffffffffffffff1673ffffffffffffffffffffffffffffffffffffffff16815260200160038201548152602001600482015481526020016005820160009054906101000a900467ffffffffffffffff1667ffffffffffffffff1667ffffffffffffffff1681526020016005820160089054906101000a900467ffffffffffffffff1667ffffffffffffffff1667ffffffffffffffff1681526020016005820160109054906101000a900467ffffffffffffffff1667ffffffffffffffff1667ffffffffffffffff16815260200160068201548152505090506000816080015111610ba55782826040517f6831488c000000000000000000000000000000000000000000000000000000008152600401610b9c929190612fcc565b60405180910390fd5b610bed600560008c73ffffffffffffffffffffffffffffffffffffffff1673ffffffffffffffffffffffffffffffffffffffff1681526020019081526020016000208a612398565b50600460008b73ffffffffffffffffffffffffffffffffffffffff1673ffffffffffffffffffffffffffffffffffffffff16815260200190815260200160002060008a8152602001908152602001600020600080820160006101000a81549073ffffffffffffffffffffffffffffffffffffffff02191690556001820160006101000a81549073ffffffffffffffffffffffffffffffffffffffff02191690556002820160006101000a81549073ffffffffffffffffffffffffffffffffffffffff0219169055600382016000905560048201600090556005820160006101000a81549067ffffffffffffffff02191690556005820160086101000a81549067ffffffffffffffff02191690556005820160106101000a81549067ffffffffffffffff0219169055600682016000905550506000610d68600560008d73ffffffffffffffffffffffffffffffffffffffff1673ffffffffffffffffffffffffffffffffffffffff1681526020019081526020016000206123b2565b03610d7a57610d7860068b6123c7565b505b610d8460086123f7565b888a73ffffffffffffffffffffffffffffffffffffffff163373ffffffffffffffffffffffffffffffffffffffff167f5e22415fbc0319574562e44217526b07e663891c4338550fe529eac37e9e0cb260405160405180910390a450505050505050505050565b600080600460008673ffffffffffffffffffffffffffffffffffffffff1673ffffffffffffffffffffffffffffffffffffffff1681526020019081526020016000206000858152602001908152602001600020905060008160050160009054906101000a900467ffffffffffffffff1667ffffffffffffffff161115610e87578060050160009054906101000a900467ffffffffffffffff1692505b60008160050160109054906101000a900467ffffffffffffffff1690506000600182610eb39190612de0565b90506000610edf84600601548767ffffffffffffffff1686600401548567ffffffffffffffff166121c6565b9050809450505050509392505050565b600080600090508273ffffffffffffffffffffffffffffffffffffffff166301ffc9a77f80ac58cd000000000000000000000000000000000000000000000000000000006040518263ffffffff1660e01b8152600401610f4f9190613030565b602060405180830381865afa925050508015610f8957506040513d601f19601f82011682018060405250810190610f869190613077565b60015b610f97576000915050610fa0565b80915050809150505b919050565b6000600254905090565b610fb761233f565b82826000600460008473ffffffffffffffffffffffffffffffffffffffff1673ffffffffffffffffffffffffffffffffffffffff1681526020019081526020016000206000838152602001908152602001600020604051806101200160405290816000820160009054906101000a900473ffffffffffffffffffffffffffffffffffffffff1673ffffffffffffffffffffffffffffffffffffffff1673ffffffffffffffffffffffffffffffffffffffff1681526020016001820160009054906101000a900473ffffffffffffffffffffffffffffffffffffffff1673ffffffffffffffffffffffffffffffffffffffff1673ffffffffffffffffffffffffffffffffffffffff1681526020016002820160009054906101000a900473ffffffffffffffffffffffffffffffffffffffff1673ffffffffffffffffffffffffffffffffffffffff1673ffffffffffffffffffffffffffffffffffffffff16815260200160038201548152602001600482015481526020016005820160009054906101000a900467ffffffffffffffff1667ffffffffffffffff1667ffffffffffffffff1681526020016005820160089054906101000a900467ffffffffffffffff1667ffffffffffffffff1667ffffffffffffffff1681526020016005820160109054906101000a900467ffffffffffffffff1667ffffffffffffffff1667ffffffffffffffff168152602001600682015481525050905060008160800151111561121b5782826040517f4a5568d5000000000000000000000000000000000000000000000000000000008152600401611212929190612fcc565b60405180910390fd5b6112248661205d565b611263576040517f08c379a000000000000000000000000000000000000000000000000000000000815260040161125a906130f0565b60405180910390fd5b3373ffffffffffffffffffffffffffffffffffffffff168673ffffffffffffffffffffffffffffffffffffffff16636352211e876040518263ffffffff1660e01b81526004016112b39190612adb565b602060405180830381865afa1580156112d0573d6000803e3d6000fd5b505050506040513d601f19601f820116820180604052508101906112f49190612f4c565b73ffffffffffffffffffffffffffffffffffffffff161461134a576040517f08c379a00000000000000000000000000000000000000000000000000000000081526004016113419061315c565b60405180910390fd5b600254341461138e576040517f08c379a0000000000000000000000000000000000000000000000000000000008152600401611385906131c8565b60405180910390fd5b600084116113d1576040517f08c379a00000000000000000000000000000000000000000000000000000000081526004016113c89061325a565b60405180910390fd5b60008690503073ffffffffffffffffffffffffffffffffffffffff168173ffffffffffffffffffffffffffffffffffffffff1663081812fc886040518263ffffffff1660e01b81526004016114269190612adb565b602060405180830381865afa158015611443573d6000803e3d6000fd5b505050506040513d601f19601f820116820180604052508101906114679190612f4c565b73ffffffffffffffffffffffffffffffffffffffff16146114b4576040517f4be3a2c500000000000000000000000000000000000000000000000000000000815260040160405180910390fd5b600160009054906101000a900473ffffffffffffffffffffffffffffffffffffffff1673ffffffffffffffffffffffffffffffffffffffff166108fc6002549081150290604051600060405180830381858888f1935050505015801561151e573d6000803e3d6000fd5b506040518061012001604052803373ffffffffffffffffffffffffffffffffffffffff168152602001600073ffffffffffffffffffffffffffffffffffffffff1681526020018873ffffffffffffffffffffffffffffffffffffffff168152602001878152602001868152602001600067ffffffffffffffff168152602001600067ffffffffffffffff168152602001600067ffffffffffffffff1681526020016000815250600460008973ffffffffffffffffffffffffffffffffffffffff1673ffffffffffffffffffffffffffffffffffffffff168152602001908152602001600020600088815260200190815260200160002060008201518160000160006101000a81548173ffffffffffffffffffffffffffffffffffffffff021916908373ffffffffffffffffffffffffffffffffffffffff16021790555060208201518160010160006101000a81548173ffffffffffffffffffffffffffffffffffffffff021916908373ffffffffffffffffffffffffffffffffffffffff16021790555060408201518160020160006101000a81548173ffffffffffffffffffffffffffffffffffffffff021916908373ffffffffffffffffffffffffffffffffffffffff160217905550606082015181600301556080820151816004015560a08201518160050160006101000a81548167ffffffffffffffff021916908367ffffffffffffffff16021790555060c08201518160050160086101000a81548167ffffffffffffffff021916908367ffffffffffffffff16021790555060e08201518160050160106101000a81548167ffffffffffffffff021916908367ffffffffffffffff16021790555061010082015181600601559050506117a26008612453565b6117ea600560008973ffffffffffffffffffffffffffffffffffffffff1673ffffffffffffffffffffffffffffffffffffffff16815260200190815260200160002087612469565b506117f6600688612483565b508673ffffffffffffffffffffffffffffffffffffffff16600073ffffffffffffffffffffffffffffffffffffffff168873ffffffffffffffffffffffffffffffffffffffff16636352211e896040518263ffffffff1660e01b815260040161185f9190612adb565b602060405180830381865afa15801561187c573d6000803e3d6000fd5b505050506040513d601f19601f820116820180604052508101906118a09190612f4c565b73ffffffffffffffffffffffffffffffffffffffff167f96104f93007b1903cb7ec11f7eb4cb08e84720170462e648569235ae6ae6c6d089896040516118e792919061327a565b60405180910390a4505050506118fb61238e565b505050565b61190861233f565b600360009054906101000a900467ffffffffffffffff1667ffffffffffffffff168167ffffffffffffffff161115611975576040517f08c379a000000000000000000000000000000000000000000000000000000000815260040161196c90613315565b60405180910390fd5b60018167ffffffffffffffff16116119c2576040517f08c379a00000000000000000000000000000000000000000000000000000000081526004016119b9906133a7565b60405180910390fd5b6000600460008573ffffffffffffffffffffffffffffffffffffffff1673ffffffffffffffffffffffffffffffffffffffff16815260200190815260200160002060008481526020019081526020016000209050600073ffffffffffffffffffffffffffffffffffffffff168160010160009054906101000a900473ffffffffffffffffffffffffffffffffffffffff1673ffffffffffffffffffffffffffffffffffffffff161480611a9657508060050160089054906101000a900467ffffffffffffffff1667ffffffffffffffff1642115b611ad5576040517f08c379a0000000000000000000000000000000000000000000000000000000008152600401611acc90613413565b60405180910390fd5b60006201518042611ae69190612de0565b905060008260050160109054906101000a900467ffffffffffffffff1690506000600182611b149190612de0565b90506000611b4085600601548767ffffffffffffffff1687600401548567ffffffffffffffff166121c6565b905080341015611b85576040517f08c379a0000000000000000000000000000000000000000000000000000000008152600401611b7c90612e8e565b60405180910390fd5b8460000160009054906101000a900473ffffffffffffffffffffffffffffffffffffffff1673ffffffffffffffffffffffffffffffffffffffff166108fc829081150290604051600060405180830381858888f19350505050158015611bef573d6000803e3d6000fd5b508773ffffffffffffffffffffffffffffffffffffffff1663e030565e8833876040518463ffffffff1660e01b8152600401611c2d93929190612ecc565b600060405180830381600087803b158015611c4757600080fd5b505af1158015611c5b573d6000803e3d6000fd5b50505050338560010160006101000a81548173ffffffffffffffffffffffffffffffffffffffff021916908373ffffffffffffffffffffffffffffffffffffffff160217905550838560050160086101000a81548167ffffffffffffffff021916908367ffffffffffffffff160217905550858560050160006101000a81548167ffffffffffffffff021916908367ffffffffffffffff160217905550818560050160106101000a81548167ffffffffffffffff021916908367ffffffffffffffff1602179055508085600601819055508773ffffffffffffffffffffffffffffffffffffffff163373ffffffffffffffffffffffffffffffffffffffff168973ffffffffffffffffffffffffffffffffffffffff16636352211e8a6040518263ffffffff1660e01b8152600401611d939190612adb565b602060405180830381865afa158015611db0573d6000803e3d6000fd5b505050506040513d601f19601f82011682018060405250810190611dd49190612f4c565b73ffffffffffffffffffffffffffffffffffffffff167fbffba71858e59a3f9bbb8e5792d8ac859e29ecfe86d40bb1dc34e346594542778a88888788604051611e21959493929190612f79565b60405180910390a45050505050611e3661238e565b505050565b611e436126c7565b600460008473ffffffffffffffffffffffffffffffffffffffff1673ffffffffffffffffffffffffffffffffffffffff1681526020019081526020016000206000838152602001908152602001600020604051806101200160405290816000820160009054906101000a900473ffffffffffffffffffffffffffffffffffffffff1673ffffffffffffffffffffffffffffffffffffffff1673ffffffffffffffffffffffffffffffffffffffff1681526020016001820160009054906101000a900473ffffffffffffffffffffffffffffffffffffffff1673ffffffffffffffffffffffffffffffffffffffff1673ffffffffffffffffffffffffffffffffffffffff1681526020016002820160009054906101000a900473ffffffffffffffffffffffffffffffffffffffff1673ffffffffffffffffffffffffffffffffffffffff1673ffffffffffffffffffffffffffffffffffffffff16815260200160038201548152602001600482015481526020016005820160009054906101000a900467ffffffffffffffff1667ffffffffffffffff1667ffffffffffffffff1681526020016005820160089054906101000a900467ffffffffffffffff1667ffffffffffffffff1667ffffffffffffffff1681526020016005820160109054906101000a900467ffffffffffffffff1667ffffffffffffffff1667ffffffffffffffff168152602001600682015481525050905092915050565b6000806000905060008373ffffffffffffffffffffffffffffffffffffffff166301ffc9a77fad092b5c000000000000000000000000000000000000000000000000000000006040518263ffffffff1660e01b81526004016120bf9190613030565b602060405180830381865afa9250505080156120f957506040513d601f19601f820116820180604052508101906120f69190613077565b60015b612108576000925050506121c1565b809250508373ffffffffffffffffffffffffffffffffffffffff166301ffc9a77f80ac58cd000000000000000000000000000000000000000000000000000000006040518263ffffffff1660e01b81526004016121659190613030565b602060405180830381865afa92505050801561219f57506040513d601f19601f8201168201806040525081019061219c9190613077565b60015b6121ae576000925050506121c1565b809150508180156121bc5750805b925050505b919050565b60008382111561220b576040517f08c379a0000000000000000000000000000000000000000000000000000000008152600401612202906134a5565b60405180910390fd5b6000821161224e576040517f08c379a000000000000000000000000000000000000000000000000000000000815260040161224590613537565b60405180910390fd5b6000848461225c9190613557565b9050600080600090506000600190505b87811161229457808261227f9190612f03565b9150808061228c90613599565b91505061226c565b50600081846122a39190613610565b9050878610156122d757600186896122bb9190613641565b6122c59190612f03565b816122d09190613557565b92506122ee565b8786036122ed5788846122ea9190613641565b92505b5b82945050505050949350505050565b6060600061230d836000016124b3565b905060608190508092505050919050565b6060600061232e836000016124b3565b905060608190508092505050919050565b600260005403612384576040517f08c379a000000000000000000000000000000000000000000000000000000000815260040161237b906136c1565b60405180910390fd5b6002600081905550565b6001600081905550565b60006123aa836000018360001b61250f565b905092915050565b60006123c082600001612623565b9050919050565b60006123ef836000018373ffffffffffffffffffffffffffffffffffffffff1660001b61250f565b905092915050565b60008160000154905060008111612443576040517f08c379a000000000000000000000000000000000000000000000000000000000815260040161243a9061372d565b60405180910390fd5b6001810382600001819055505050565b6001816000016000828254019250508190555050565b600061247b836000018360001b612634565b905092915050565b60006124ab836000018373ffffffffffffffffffffffffffffffffffffffff1660001b612634565b905092915050565b60608160000180548060200260200160405190810160405280929190818152602001828054801561250357602002820191906000526020600020905b8154815260200190600101908083116124ef575b50505050509050919050565b600080836001016000848152602001908152602001600020549050600081146126175760006001826125419190613641565b90506000600186600001805490506125599190613641565b90508181146125c857600086600001828154811061257a5761257961374d565b5b906000526020600020015490508087600001848154811061259e5761259d61374d565b5b90600052602060002001819055508387600101600083815260200190815260200160002081905550505b856000018054806125dc576125db61377c565b5b60019003818190600052602060002001600090559055856001016000868152602001908152602001600020600090556001935050505061261d565b60009150505b92915050565b600081600001805490509050919050565b600061264083836126a4565b61269957826000018290806001815401808255809150506001900390600052602060002001600090919091909150558260000180549050836001016000848152602001908152602001600020819055506001905061269e565b600090505b92915050565b600080836001016000848152602001908152602001600020541415905092915050565b604051806101200160405280600073ffffffffffffffffffffffffffffffffffffffff168152602001600073ffffffffffffffffffffffffffffffffffffffff168152602001600073ffffffffffffffffffffffffffffffffffffffff1681526020016000815260200160008152602001600067ffffffffffffffff168152602001600067ffffffffffffffff168152602001600067ffffffffffffffff168152602001600081525090565b600080fd5b600073ffffffffffffffffffffffffffffffffffffffff82169050919050565b60006127a382612778565b9050919050565b6127b381612798565b81146127be57600080fd5b50565b6000813590506127d0816127aa565b92915050565b6000602082840312156127ec576127eb612773565b5b60006127fa848285016127c1565b91505092915050565b600081519050919050565b600082825260208201905092915050565b6000819050602082019050919050565b6000819050919050565b6128428161282f565b82525050565b60006128548383612839565b60208301905092915050565b6000602082019050919050565b600061287882612803565b612882818561280e565b935061288d8361281f565b8060005b838110156128be5781516128a58882612848565b97506128b083612860565b925050600181019050612891565b5085935050505092915050565b600060208201905081810360008301526128e5818461286d565b905092915050565b600081519050919050565b600082825260208201905092915050565b6000819050602082019050919050565b61292281612798565b82525050565b60006129348383612919565b60208301905092915050565b6000602082019050919050565b6000612958826128ed565b61296281856128f8565b935061296d83612909565b8060005b8381101561299e5781516129858882612928565b975061299083612940565b925050600181019050612971565b5085935050505092915050565b600060208201905081810360008301526129c5818461294d565b905092915050565b6129d68161282f565b81146129e157600080fd5b50565b6000813590506129f3816129cd565b92915050565b60008060408385031215612a1057612a0f612773565b5b6000612a1e858286016127c1565b9250506020612a2f858286016129e4565b9150509250929050565b600067ffffffffffffffff82169050919050565b612a5681612a39565b8114612a6157600080fd5b50565b600081359050612a7381612a4d565b92915050565b600080600060608486031215612a9257612a91612773565b5b6000612aa0868287016127c1565b9350506020612ab1868287016129e4565b9250506040612ac286828701612a64565b9150509250925092565b612ad58161282f565b82525050565b6000602082019050612af06000830184612acc565b92915050565b60008115159050919050565b612b0b81612af6565b82525050565b6000602082019050612b266000830184612b02565b92915050565b600080600060608486031215612b4557612b44612773565b5b6000612b53868287016127c1565b9350506020612b64868287016129e4565b9250506040612b75868287016129e4565b9150509250925092565b612b8881612a39565b82525050565b61012082016000820151612ba56000850182612919565b506020820151612bb86020850182612919565b506040820151612bcb6040850182612919565b506060820151612bde6060850182612839565b506080820151612bf16080850182612839565b5060a0820151612c0460a0850182612b7f565b5060c0820151612c1760c0850182612b7f565b5060e0820151612c2a60e0850182612b7f565b50610100820151612c3f610100850182612839565b50505050565b600061012082019050612c5b6000830184612b8e565b92915050565b60008060008060808587031215612c7b57612c7a612773565b5b6000612c89878288016129e4565b9450506020612c9a878288016129e4565b9350506040612cab878288016129e4565b9250506060612cbc878288016129e4565b91505092959194509250565b600082825260208201905092915050565b7f596f7520617265206e6f74207468652063757272656e742072656e7465720000600082015250565b6000612d0f601e83612cc8565b9150612d1a82612cd9565b602082019050919050565b60006020820190508181036000830152612d3e81612d02565b9050919050565b7f4e46542065787069726564000000000000000000000000000000000000000000600082015250565b6000612d7b600b83612cc8565b9150612d8682612d45565b602082019050919050565b60006020820190508181036000830152612daa81612d6e565b9050919050565b7f4e487b7100000000000000000000000000000000000000000000000000000000600052601160045260246000fd5b6000612deb82612a39565b9150612df683612a39565b9250828201905067ffffffffffffffff811115612e1657612e15612db1565b5b92915050565b7f4e6f7420656e6f75676820657468657220746f20636f7665722072656e74616c60008201527f20706572696f6400000000000000000000000000000000000000000000000000602082015250565b6000612e78602783612cc8565b9150612e8382612e1c565b604082019050919050565b60006020820190508181036000830152612ea781612e6b565b9050919050565b612eb781612798565b82525050565b612ec681612a39565b82525050565b6000606082019050612ee16000830186612acc565b612eee6020830185612eae565b612efb6040830184612ebd565b949350505050565b6000612f0e8261282f565b9150612f198361282f565b9250828201905080821115612f3157612f30612db1565b5b92915050565b600081519050612f46816127aa565b92915050565b600060208284031215612f6257612f61612773565b5b6000612f7084828501612f37565b91505092915050565b600060a082019050612f8e6000830188612acc565b612f9b6020830187612ebd565b612fa86040830186612ebd565b612fb56060830185612acc565b612fc26080830184612acc565b9695505050505050565b6000604082019050612fe16000830185612eae565b612fee6020830184612acc565b9392505050565b60007fffffffff0000000000000000000000000000000000000000000000000000000082169050919050565b61302a81612ff5565b82525050565b60006020820190506130456000830184613021565b92915050565b61305481612af6565b811461305f57600080fd5b50565b6000815190506130718161304b565b92915050565b60006020828403121561308d5761308c612773565b5b600061309b84828501613062565b91505092915050565b7f436f6e7472616374206973206e6f7420616e2045524334393037000000000000600082015250565b60006130da601a83612cc8565b91506130e5826130a4565b602082019050919050565b60006020820190508181036000830152613109816130cd565b9050919050565b7f4e6f74206f776e6572206f66206e667400000000000000000000000000000000600082015250565b6000613146601083612cc8565b915061315182613110565b602082019050919050565b6000602082019050818103600083015261317581613139565b9050919050565b7f4e6f7420656e6f75676820657468657220666f72206c697374696e6720666565600082015250565b60006131b2602083612cc8565b91506131bd8261317c565b602082019050919050565b600060208201905081810360008301526131e1816131a5565b9050919050565b7f52656e74616c2070726963652073686f756c642062652067726561746572207460008201527f68616e2030000000000000000000000000000000000000000000000000000000602082015250565b6000613244602583612cc8565b915061324f826131e8565b604082019050919050565b6000602082019050818103600083015261327381613237565b9050919050565b600060408201905061328f6000830185612acc565b61329c6020830184612acc565b9392505050565b7f4d6178696d756d206f662031302072656e74616c20646179732061726520616c60008201527f6c6f776564000000000000000000000000000000000000000000000000000000602082015250565b60006132ff602583612cc8565b915061330a826132a3565b604082019050919050565b6000602082019050818103600083015261332e816132f2565b9050919050565b7f4e756d626572206f6620696e7374616c6c6d656e7473206d757374206265206760008201527f726561746572207468616e203100000000000000000000000000000000000000602082015250565b6000613391602d83612cc8565b915061339c82613335565b604082019050919050565b600060208201905081810360008301526133c081613384565b9050919050565b7f4e465420616c72656164792072656e7465640000000000000000000000000000600082015250565b60006133fd601283612cc8565b9150613408826133c7565b602082019050919050565b6000602082019050818103600083015261342c816133f0565b9050919050565b7f496e7374616c6c6d656e7420496e6465782073686f756c64206265206c65737360008201527f6572207468616e2074686520696e7374616c6c6d656e7420636f756e74000000602082015250565b600061348f603d83612cc8565b915061349a82613433565b604082019050919050565b600060208201905081810360008301526134be81613482565b9050919050565b7f496e7374616c6c6d656e7420496e6465782073686f756c64206265206772656160008201527f746572207468616e203000000000000000000000000000000000000000000000602082015250565b6000613521602a83612cc8565b915061352c826134c5565b604082019050919050565b6000602082019050818103600083015261355081613514565b9050919050565b60006135628261282f565b915061356d8361282f565b925082820261357b8161282f565b9150828204841483151761359257613591612db1565b5b5092915050565b60006135a48261282f565b91507fffffffffffffffffffffffffffffffffffffffffffffffffffffffffffffffff82036135d6576135d5612db1565b5b600182019050919050565b7f4e487b7100000000000000000000000000000000000000000000000000000000600052601260045260246000fd5b600061361b8261282f565b91506136268361282f565b925082613636576136356135e1565b5b828204905092915050565b600061364c8261282f565b91506136578361282f565b925082820390508181111561366f5761366e612db1565b5b92915050565b7f5265656e7472616e637947756172643a207265656e7472616e742063616c6c00600082015250565b60006136ab601f83612cc8565b91506136b682613675565b602082019050919050565b600060208201905081810360008301526136da8161369e565b9050919050565b7f436f756e7465723a2064656372656d656e74206f766572666c6f770000000000600082015250565b6000613717601b83612cc8565b9150613722826136e1565b602082019050919050565b600060208201905081810360008301526137468161370a565b9050919050565b7f4e487b7100000000000000000000000000000000000000000000000000000000600052603260045260246000fd5b7f4e487b7100000000000000000000000000000000000000000000000000000000600052603160045260246000fdfea26469706673582212209dee30a908907fead5d241b9800db38a43756f6136202b24fa0de460abc8235964736f6c63430008110033",
  "linkReferences": {},
  "deployedLinkReferences": {}
}