{
  "_format": "hh-sol-artifact-1",
  "contractName": "AvianInstallment",
  "sourceName": "contracts/AvianInstallment.sol",
  "abi": [
    {
      "inputs": [],
      "stateMutability": "nonpayable",
      "type": "constructor"
    },
    {
      "inputs": [
        {
          "internalType": "address",
          "name": "nftAddress",
          "type": "address"
        },
        {
          "internalType": "uint256",
          "name": "tokenId",
          "type": "uint256"
        }
      ],
      "name": "AlreadyListed",
      "type": "error"
    },
    {
      "inputs": [],
      "name": "NotApprovedForMarketplace",
      "type": "error"
    },
    {
      "inputs": [
        {
          "internalType": "address",
          "name": "nftAddress",
          "type": "address"
        },
        {
          "internalType": "uint256",
          "name": "tokenId",
          "type": "uint256"
        }
      ],
      "name": "NotListed",
      "type": "error"
    },
    {
      "inputs": [],
      "name": "NotOwner",
      "type": "error"
    },
    {
      "anonymous": false,
      "inputs": [
        {
          "indexed": true,
          "internalType": "address",
          "name": "owner",
          "type": "address"
        },
        {
          "indexed": true,
          "internalType": "address",
          "name": "user",
          "type": "address"
        },
        {
          "indexed": true,
          "internalType": "address",
          "name": "nftContract",
          "type": "address"
        },
        {
          "indexed": false,
          "internalType": "uint256",
          "name": "tokenId",
          "type": "uint256"
        },
        {
          "indexed": false,
          "internalType": "uint256",
          "name": "pricePerDay",
          "type": "uint256"
        },
        {
          "indexed": false,
          "internalType": "uint256",
          "name": "startDateUNIX",
          "type": "uint256"
        },
        {
          "indexed": false,
          "internalType": "uint256",
          "name": "endDateUNIX",
          "type": "uint256"
        },
        {
          "indexed": false,
          "internalType": "uint256",
          "name": "expires",
          "type": "uint256"
        },
        {
          "indexed": false,
          "internalType": "uint64",
          "name": "installment_count",
          "type": "uint64"
        },
        {
          "indexed": false,
          "internalType": "uint64",
          "name": "installment_index",
          "type": "uint64"
        }
      ],
      "name": "INSNFTListed",
      "type": "event"
    },
    {
      "anonymous": false,
      "inputs": [
        {
          "indexed": true,
          "internalType": "address",
          "name": "owner",
          "type": "address"
        },
        {
          "indexed": true,
          "internalType": "address",
          "name": "user",
          "type": "address"
        },
        {
          "indexed": true,
          "internalType": "address",
          "name": "nftContract",
          "type": "address"
        },
        {
          "indexed": false,
          "internalType": "uint256",
          "name": "tokenId",
          "type": "uint256"
        },
        {
          "indexed": false,
          "internalType": "uint256",
          "name": "startDateUNIX",
          "type": "uint256"
        },
        {
          "indexed": false,
          "internalType": "uint256",
          "name": "endDateUNIX",
          "type": "uint256"
        },
        {
          "indexed": false,
          "internalType": "uint256",
          "name": "expires",
          "type": "uint256"
        },
        {
          "indexed": false,
          "internalType": "uint64",
          "name": "ins_index",
          "type": "uint64"
        },
        {
          "indexed": false,
          "internalType": "uint256",
          "name": "amount",
          "type": "uint256"
        }
      ],
      "name": "NFTINSPaid",
      "type": "event"
    },
    {
      "anonymous": false,
      "inputs": [
        {
          "indexed": true,
          "internalType": "address",
          "name": "unlistSender",
          "type": "address"
        },
        {
          "indexed": true,
          "internalType": "address",
          "name": "nftContract",
          "type": "address"
        },
        {
          "indexed": true,
          "internalType": "uint256",
          "name": "tokenId",
          "type": "uint256"
        },
        {
          "indexed": false,
          "internalType": "uint256",
          "name": "refund",
          "type": "uint256"
        }
      ],
      "name": "NFTUnlisted",
      "type": "event"
    },
    {
      "inputs": [
        {
          "internalType": "uint256",
          "name": "installment_count",
          "type": "uint256"
        },
        {
          "internalType": "uint256",
          "name": "rentalFee",
          "type": "uint256"
        },
        {
          "internalType": "uint256",
          "name": "installment_index",
          "type": "uint256"
        }
      ],
      "name": "calculateInstallment",
      "outputs": [
        {
          "internalType": "uint256",
          "name": "",
          "type": "uint256"
        }
      ],
      "stateMutability": "pure",
      "type": "function"
    },
    {
      "inputs": [
        {
          "internalType": "address",
          "name": "nftAddress",
          "type": "address"
        },
        {
          "internalType": "uint256",
          "name": "tokenId",
          "type": "uint256"
        }
      ],
      "name": "getAINSListing",
      "outputs": [
        {
          "components": [
            {
              "internalType": "address",
              "name": "owner",
              "type": "address"
            },
            {
              "internalType": "address",
              "name": "user",
              "type": "address"
            },
            {
              "internalType": "address",
              "name": "nftContract",
              "type": "address"
            },
            {
              "internalType": "uint256",
              "name": "tokenId",
              "type": "uint256"
            },
            {
              "internalType": "uint256",
              "name": "pricePerDay",
              "type": "uint256"
            },
            {
              "internalType": "uint64",
              "name": "numDays",
              "type": "uint64"
            },
            {
              "internalType": "uint256",
              "name": "startDateUNIX",
              "type": "uint256"
            },
            {
              "internalType": "uint256",
              "name": "endDateUNIX",
              "type": "uint256"
            },
            {
              "internalType": "uint256",
              "name": "expires",
              "type": "uint256"
            },
            {
              "internalType": "uint64",
              "name": "installment_count",
              "type": "uint64"
            },
            {
              "internalType": "uint64",
              "name": "installment_index",
              "type": "uint64"
            }
          ],
          "internalType": "struct AvianInstallment.Listing_installment",
          "name": "",
          "type": "tuple"
        }
      ],
      "stateMutability": "view",
      "type": "function"
    },
    {
      "inputs": [
        {
          "internalType": "address",
          "name": "nftAddress",
          "type": "address"
        }
      ],
      "name": "getINSListedAdddressTokens",
      "outputs": [
        {
          "internalType": "uint256[]",
          "name": "",
          "type": "uint256[]"
        }
      ],
      "stateMutability": "view",
      "type": "function"
    },
    {
      "inputs": [],
      "name": "getINSListedAdddresses",
      "outputs": [
        {
          "internalType": "address[]",
          "name": "",
          "type": "address[]"
        }
      ],
      "stateMutability": "view",
      "type": "function"
    },
    {
      "inputs": [],
      "name": "getListingFee",
      "outputs": [
        {
          "internalType": "uint256",
          "name": "",
          "type": "uint256"
        }
      ],
      "stateMutability": "view",
      "type": "function"
    },
    {
      "inputs": [
        {
          "internalType": "address",
          "name": "nftAddress",
          "type": "address"
        },
        {
          "internalType": "uint256",
          "name": "tokenId",
          "type": "uint256"
        },
        {
          "internalType": "uint64",
          "name": "rentalDays",
          "type": "uint64"
        }
      ],
      "name": "getNFTInstallment",
      "outputs": [
        {
          "internalType": "uint256",
          "name": "",
          "type": "uint256"
        }
      ],
      "stateMutability": "view",
      "type": "function"
    },
    {
      "inputs": [
        {
          "internalType": "address",
          "name": "nftContract",
          "type": "address"
        }
      ],
      "name": "isNFT",
      "outputs": [
        {
          "internalType": "bool",
          "name": "",
          "type": "bool"
        }
      ],
      "stateMutability": "view",
      "type": "function"
    },
    {
      "inputs": [
        {
          "internalType": "address",
          "name": "nftContract",
          "type": "address"
        }
      ],
      "name": "isRentableNFT",
      "outputs": [
        {
          "internalType": "bool",
          "name": "",
          "type": "bool"
        }
      ],
      "stateMutability": "view",
      "type": "function"
    },
    {
      "inputs": [
        {
          "internalType": "address",
          "name": "nftAddress",
          "type": "address"
        },
        {
          "internalType": "uint256",
          "name": "tokenId",
          "type": "uint256"
        },
        {
          "internalType": "uint256",
          "name": "pricePerDay",
          "type": "uint256"
        },
        {
          "internalType": "uint256",
          "name": "startDateUNIX",
          "type": "uint256"
        },
        {
          "internalType": "uint256",
          "name": "endDateUNIX",
          "type": "uint256"
        },
        {
          "internalType": "uint64",
          "name": "installment_count",
          "type": "uint64"
        }
      ],
      "name": "listInsBasedNFT",
      "outputs": [],
      "stateMutability": "payable",
      "type": "function"
    },
    {
      "inputs": [
        {
          "internalType": "address",
          "name": "nftContract",
          "type": "address"
        },
        {
          "internalType": "uint256",
          "name": "tokenId",
          "type": "uint256"
        }
      ],
      "name": "payNFTIns",
      "outputs": [],
      "stateMutability": "payable",
      "type": "function"
    },
    {
      "inputs": [
        {
          "internalType": "address",
          "name": "nftContract",
          "type": "address"
        },
        {
          "internalType": "uint256",
          "name": "tokenId",
          "type": "uint256"
        },
        {
          "internalType": "uint64",
          "name": "numDays",
          "type": "uint64"
        }
      ],
      "name": "rentINSNFT",
      "outputs": [],
      "stateMutability": "payable",
      "type": "function"
    },
    {
      "inputs": [
        {
          "internalType": "address",
          "name": "nftAddress",
          "type": "address"
        },
        {
          "internalType": "uint256",
          "name": "tokenId",
          "type": "uint256"
        }
      ],
      "name": "unlistINSNFT",
      "outputs": [],
      "stateMutability": "payable",
      "type": "function"
    }
  ],
  "bytecode": "0x608060405266038d7ea4c6800060025534801561001b57600080fd5b50600160008190555033600160006101000a81548173ffffffffffffffffffffffffffffffffffffffff021916908373ffffffffffffffffffffffffffffffffffffffff160217905550613942806100746000396000f3fe6080604052600436106100a75760003560e01c806382b679bf1161006457806382b679bf146101b7578063b1c3a9a1146101e2578063b31b85c91461021f578063b8fe6abe1461025c578063cebd514514610287578063e9a6f4f6146102a3576100a7565b806318f07d4f146100ac5780634b30261c146100e957806369f2439c146101055780636a80fbe9146101425780636bf510bf1461015e57806370f448901461017a575b600080fd5b3480156100b857600080fd5b506100d360048036038101906100ce91906127b0565b6102e0565b6040516100e09190612912565b60405180910390f35b61010360048036038101906100fe91906127b0565b610516565b005b34801561011157600080fd5b5061012c6004803603810190610127919061292e565b6108fb565b6040516101399190612990565b60405180910390f35b61015c600480360381019061015791906129d7565b610a37565b005b610178600480360381019061017391906127b0565b611452565b005b34801561018657600080fd5b506101a1600480360381019061019c9190612a64565b611a98565b6040516101ae9190612990565b60405180910390f35b3480156101c357600080fd5b506101cc611b83565b6040516101d99190612b66565b60405180910390f35b3480156101ee57600080fd5b5061020960048036038101906102049190612b88565b611b9a565b6040516102169190612c64565b60405180910390f35b34801561022b57600080fd5b5061024660048036038101906102419190612b88565b611bf0565b6040516102539190612ca1565b60405180910390f35b34801561026857600080fd5b50610271611ca6565b60405161027e9190612990565b60405180910390f35b6102a1600480360381019061029c9190612a64565b611cb0565b005b3480156102af57600080fd5b506102ca60048036038101906102c59190612b88565b61212a565b6040516102d79190612ca1565b60405180910390f35b6102e861265d565b600360008473ffffffffffffffffffffffffffffffffffffffff1673ffffffffffffffffffffffffffffffffffffffff1681526020019081526020016000206000838152602001908152602001600020604051806101600160405290816000820160009054906101000a900473ffffffffffffffffffffffffffffffffffffffff1673ffffffffffffffffffffffffffffffffffffffff1673ffffffffffffffffffffffffffffffffffffffff1681526020016001820160009054906101000a900473ffffffffffffffffffffffffffffffffffffffff1673ffffffffffffffffffffffffffffffffffffffff1673ffffffffffffffffffffffffffffffffffffffff1681526020016002820160009054906101000a900473ffffffffffffffffffffffffffffffffffffffff1673ffffffffffffffffffffffffffffffffffffffff1673ffffffffffffffffffffffffffffffffffffffff16815260200160038201548152602001600482015481526020016005820160009054906101000a900467ffffffffffffffff1667ffffffffffffffff1667ffffffffffffffff1681526020016006820154815260200160078201548152602001600882015481526020016009820160009054906101000a900467ffffffffffffffff1667ffffffffffffffff1667ffffffffffffffff1681526020016009820160089054906101000a900467ffffffffffffffff1667ffffffffffffffff1667ffffffffffffffff1681525050905092915050565b61051e612293565b6000600360008473ffffffffffffffffffffffffffffffffffffffff1673ffffffffffffffffffffffffffffffffffffffff168152602001908152602001600020600083815260200190815260200160002090503373ffffffffffffffffffffffffffffffffffffffff168160010160009054906101000a900473ffffffffffffffffffffffffffffffffffffffff1673ffffffffffffffffffffffffffffffffffffffff1614610604576040517f08c379a00000000000000000000000000000000000000000000000000000000081526004016105fb90612d19565b60405180910390fd5b8060080154421061064a576040517f08c379a000000000000000000000000000000000000000000000000000000000815260040161064190612d85565b60405180910390fd5b600062015180826008015461065f9190612dd4565b905060008260090160089054906101000a900467ffffffffffffffff169050600060018261068d9190612e08565b905060008460050160009054906101000a900467ffffffffffffffff1667ffffffffffffffff1685600401546106c39190612e44565b905060006106fe8660090160009054906101000a900467ffffffffffffffff1667ffffffffffffffff16838567ffffffffffffffff166108fb565b905080341015610743576040517f08c379a000000000000000000000000000000000000000000000000000000000815260040161073a90612ef8565b60405180910390fd5b8560000160009054906101000a900473ffffffffffffffffffffffffffffffffffffffff1673ffffffffffffffffffffffffffffffffffffffff166108fc829081150290604051600060405180830381858888f193505050501580156107ad573d6000803e3d6000fd5b50848660080181905550828660090160086101000a81548167ffffffffffffffff021916908367ffffffffffffffff1602179055508773ffffffffffffffffffffffffffffffffffffffff163373ffffffffffffffffffffffffffffffffffffffff168973ffffffffffffffffffffffffffffffffffffffff16636352211e8a6040518263ffffffff1660e01b81526004016108499190612990565b602060405180830381865afa158015610866573d6000803e3d6000fd5b505050506040513d601f19601f8201168201806040525081019061088a9190612f2d565b73ffffffffffffffffffffffffffffffffffffffff167f6b79cb7503cfb404ac433d40aaaafa93fb4c07ad7dae9ba0f77c46fd61ac787b8a8a600601548b600701548b8b896040516108e196959493929190612f69565b60405180910390a45050505050506108f76122e2565b5050565b600083821115610940576040517f08c379a00000000000000000000000000000000000000000000000000000000081526004016109379061303c565b60405180910390fd5b60008211610983576040517f08c379a000000000000000000000000000000000000000000000000000000000815260040161097a906130ce565b60405180910390fd5b600080600090506000600190505b8681116109b95780826109a49190612dd4565b915080806109b1906130ee565b915050610991565b50600081866109c89190613165565b9050868510156109fc57600185886109e09190613196565b6109ea9190612dd4565b816109f59190612e44565b9250610a2a565b868503610a2957600182610a109190613196565b81610a1b9190612e44565b86610a269190613196565b92505b5b8293505050509392505050565b610a3f612293565b85856000600360008473ffffffffffffffffffffffffffffffffffffffff1673ffffffffffffffffffffffffffffffffffffffff1681526020019081526020016000206000838152602001908152602001600020604051806101600160405290816000820160009054906101000a900473ffffffffffffffffffffffffffffffffffffffff1673ffffffffffffffffffffffffffffffffffffffff1673ffffffffffffffffffffffffffffffffffffffff1681526020016001820160009054906101000a900473ffffffffffffffffffffffffffffffffffffffff1673ffffffffffffffffffffffffffffffffffffffff1673ffffffffffffffffffffffffffffffffffffffff1681526020016002820160009054906101000a900473ffffffffffffffffffffffffffffffffffffffff1673ffffffffffffffffffffffffffffffffffffffff1673ffffffffffffffffffffffffffffffffffffffff16815260200160038201548152602001600482015481526020016005820160009054906101000a900467ffffffffffffffff1667ffffffffffffffff1667ffffffffffffffff1681526020016006820154815260200160078201548152602001600882015481526020016009820160009054906101000a900467ffffffffffffffff1667ffffffffffffffff1667ffffffffffffffff1681526020016009820160089054906101000a900467ffffffffffffffff1667ffffffffffffffff1667ffffffffffffffff16815250509050600081608001511115610cb75782826040517f4a5568d5000000000000000000000000000000000000000000000000000000008152600401610cae9291906131d9565b60405180910390fd5b610cc08961212a565b610cff576040517f08c379a0000000000000000000000000000000000000000000000000000000008152600401610cf69061324e565b60405180910390fd5b3373ffffffffffffffffffffffffffffffffffffffff168973ffffffffffffffffffffffffffffffffffffffff16636352211e8a6040518263ffffffff1660e01b8152600401610d4f9190612990565b602060405180830381865afa158015610d6c573d6000803e3d6000fd5b505050506040513d601f19601f82011682018060405250810190610d909190612f2d565b73ffffffffffffffffffffffffffffffffffffffff1614610de6576040517f08c379a0000000000000000000000000000000000000000000000000000000008152600401610ddd906132ba565b60405180910390fd5b6002543414610e2a576040517f08c379a0000000000000000000000000000000000000000000000000000000008152600401610e2190613326565b60405180910390fd5b60008711610e6d576040517f08c379a0000000000000000000000000000000000000000000000000000000008152600401610e64906133b8565b60405180910390fd5b42861015610eb0576040517f08c379a0000000000000000000000000000000000000000000000000000000008152600401610ea790613424565b60405180910390fd5b85851015610ef3576040517f08c379a0000000000000000000000000000000000000000000000000000000008152600401610eea906134b6565b60405180910390fd5b60008990503073ffffffffffffffffffffffffffffffffffffffff168173ffffffffffffffffffffffffffffffffffffffff1663081812fc8b6040518263ffffffff1660e01b8152600401610f489190612990565b602060405180830381865afa158015610f65573d6000803e3d6000fd5b505050506040513d601f19601f82011682018060405250810190610f899190612f2d565b73ffffffffffffffffffffffffffffffffffffffff1614610fd6576040517f4be3a2c500000000000000000000000000000000000000000000000000000000815260040160405180910390fd5b600160009054906101000a900473ffffffffffffffffffffffffffffffffffffffff1673ffffffffffffffffffffffffffffffffffffffff166108fc6002549081150290604051600060405180830381858888f19350505050158015611040573d6000803e3d6000fd5b506040518061016001604052803373ffffffffffffffffffffffffffffffffffffffff168152602001600073ffffffffffffffffffffffffffffffffffffffff1681526020018b73ffffffffffffffffffffffffffffffffffffffff1681526020018a8152602001898152602001600067ffffffffffffffff168152602001888152602001878152602001600081526020018667ffffffffffffffff168152602001600067ffffffffffffffff16815250600360008c73ffffffffffffffffffffffffffffffffffffffff1673ffffffffffffffffffffffffffffffffffffffff16815260200190815260200160002060008b815260200190815260200160002060008201518160000160006101000a81548173ffffffffffffffffffffffffffffffffffffffff021916908373ffffffffffffffffffffffffffffffffffffffff16021790555060208201518160010160006101000a81548173ffffffffffffffffffffffffffffffffffffffff021916908373ffffffffffffffffffffffffffffffffffffffff16021790555060408201518160020160006101000a81548173ffffffffffffffffffffffffffffffffffffffff021916908373ffffffffffffffffffffffffffffffffffffffff160217905550606082015181600301556080820151816004015560a08201518160050160006101000a81548167ffffffffffffffff021916908367ffffffffffffffff16021790555060c0820151816006015560e0820151816007015561010082015181600801556101208201518160090160006101000a81548167ffffffffffffffff021916908367ffffffffffffffff1602179055506101408201518160090160086101000a81548167ffffffffffffffff021916908367ffffffffffffffff1602179055509050506112e560076122ec565b61132d600460008c73ffffffffffffffffffffffffffffffffffffffff1673ffffffffffffffffffffffffffffffffffffffff1681526020019081526020016000208a612302565b5061133960058b61231c565b508973ffffffffffffffffffffffffffffffffffffffff16600073ffffffffffffffffffffffffffffffffffffffff168b73ffffffffffffffffffffffffffffffffffffffff16636352211e8c6040518263ffffffff1660e01b81526004016113a29190612990565b602060405180830381865afa1580156113bf573d6000803e3d6000fd5b505050506040513d601f19601f820116820180604052508101906113e39190612f2d565b73ffffffffffffffffffffffffffffffffffffffff167f5a762d62c0bc1463d40e46f39d70db6d7018d5fbf3b7c7bb627d6396c42cb8b38c8c8c8c60008d6000604051611436979695949392919061354c565b60405180910390a45050505061144a6122e2565b505050505050565b61145a612293565b818133600083905060008173ffffffffffffffffffffffffffffffffffffffff16636352211e856040518263ffffffff1660e01b815260040161149d9190612990565b602060405180830381865afa1580156114ba573d6000803e3d6000fd5b505050506040513d601f19601f820116820180604052508101906114de9190612f2d565b90508073ffffffffffffffffffffffffffffffffffffffff168373ffffffffffffffffffffffffffffffffffffffff1614611545576040517f30cd747100000000000000000000000000000000000000000000000000000000815260040160405180910390fd5b86866000600360008473ffffffffffffffffffffffffffffffffffffffff1673ffffffffffffffffffffffffffffffffffffffff1681526020019081526020016000206000838152602001908152602001600020604051806101600160405290816000820160009054906101000a900473ffffffffffffffffffffffffffffffffffffffff1673ffffffffffffffffffffffffffffffffffffffff1673ffffffffffffffffffffffffffffffffffffffff1681526020016001820160009054906101000a900473ffffffffffffffffffffffffffffffffffffffff1673ffffffffffffffffffffffffffffffffffffffff1673ffffffffffffffffffffffffffffffffffffffff1681526020016002820160009054906101000a900473ffffffffffffffffffffffffffffffffffffffff1673ffffffffffffffffffffffffffffffffffffffff1673ffffffffffffffffffffffffffffffffffffffff16815260200160038201548152602001600482015481526020016005820160009054906101000a900467ffffffffffffffff1667ffffffffffffffff1667ffffffffffffffff1681526020016006820154815260200160078201548152602001600882015481526020016009820160009054906101000a900467ffffffffffffffff1667ffffffffffffffff1667ffffffffffffffff1681526020016009820160089054906101000a900467ffffffffffffffff1667ffffffffffffffff1667ffffffffffffffff1681525050905060008160800151116117bc5782826040517f6831488c0000000000000000000000000000000000000000000000000000000081526004016117b39291906131d9565b60405180910390fd5b60008a73ffffffffffffffffffffffffffffffffffffffff1663e030565e8b6000806040518463ffffffff1660e01b81526004016117fc939291906135bb565b600060405180830381600087803b15801561181657600080fd5b505af115801561182a573d6000803e3d6000fd5b50505050611876600460008d73ffffffffffffffffffffffffffffffffffffffff1673ffffffffffffffffffffffffffffffffffffffff1681526020019081526020016000208b61234c565b50600360008c73ffffffffffffffffffffffffffffffffffffffff1673ffffffffffffffffffffffffffffffffffffffff16815260200190815260200160002060008b8152602001908152602001600020600080820160006101000a81549073ffffffffffffffffffffffffffffffffffffffff02191690556001820160006101000a81549073ffffffffffffffffffffffffffffffffffffffff02191690556002820160006101000a81549073ffffffffffffffffffffffffffffffffffffffff0219169055600382016000905560048201600090556005820160006101000a81549067ffffffffffffffff02191690556006820160009055600782016000905560088201600090556009820160006101000a81549067ffffffffffffffff02191690556009820160086101000a81549067ffffffffffffffff021916905550506000611a01600460008e73ffffffffffffffffffffffffffffffffffffffff1673ffffffffffffffffffffffffffffffffffffffff168152602001908152602001600020612366565b03611a1357611a1160058c61237b565b505b611a1d60076123ab565b898b73ffffffffffffffffffffffffffffffffffffffff163373ffffffffffffffffffffffffffffffffffffffff167f6d7362d1e96e1739a576062b58d2055c5f8f9b50bf703c53b1c26cd3a82548c684604051611a7b9190612990565b60405180910390a4505050505050505050611a946122e2565b5050565b600080600360008673ffffffffffffffffffffffffffffffffffffffff1673ffffffffffffffffffffffffffffffffffffffff1681526020019081526020016000206000858152602001908152602001600020905060008160090160089054906101000a900467ffffffffffffffff1690506000600182611b199190612e08565b905060008567ffffffffffffffff168460040154611b379190612e44565b90506000611b728560090160009054906101000a900467ffffffffffffffff1667ffffffffffffffff16838567ffffffffffffffff166108fb565b905080955050505050509392505050565b60606000611b916005612407565b90508091505090565b60606000611be5600460008573ffffffffffffffffffffffffffffffffffffffff1673ffffffffffffffffffffffffffffffffffffffff168152602001908152602001600020612428565b905080915050919050565b600080600090508273ffffffffffffffffffffffffffffffffffffffff166301ffc9a77f80ac58cd000000000000000000000000000000000000000000000000000000006040518263ffffffff1660e01b8152600401611c50919061362d565b602060405180830381865afa925050508015611c8a57506040513d601f19601f82011682018060405250810190611c879190613674565b60015b611c98576000915050611ca1565b80915050809150505b919050565b6000600254905090565b611cb8612293565b6000600360008573ffffffffffffffffffffffffffffffffffffffff1673ffffffffffffffffffffffffffffffffffffffff16815260200190815260200160002060008481526020019081526020016000209050600073ffffffffffffffffffffffffffffffffffffffff168160010160009054906101000a900473ffffffffffffffffffffffffffffffffffffffff1673ffffffffffffffffffffffffffffffffffffffff161480611d6e5750806008015442115b611dad576040517f08c379a0000000000000000000000000000000000000000000000000000000008152600401611da4906136ed565b60405180910390fd5b60006201518042611dbe9190612e08565b905060008260090160089054906101000a900467ffffffffffffffff1690506000600182611dec9190612e08565b905060008567ffffffffffffffff168560040154611e0a9190612e44565b90506000611e458660090160009054906101000a900467ffffffffffffffff1667ffffffffffffffff16838567ffffffffffffffff166108fb565b905080341015611e8a576040517f08c379a0000000000000000000000000000000000000000000000000000000008152600401611e8190612ef8565b60405180910390fd5b8560000160009054906101000a900473ffffffffffffffffffffffffffffffffffffffff1673ffffffffffffffffffffffffffffffffffffffff166108fc829081150290604051600060405180830381858888f19350505050158015611ef4573d6000803e3d6000fd5b508873ffffffffffffffffffffffffffffffffffffffff1663e030565e8933886040518463ffffffff1660e01b8152600401611f329392919061370d565b600060405180830381600087803b158015611f4c57600080fd5b505af1158015611f60573d6000803e3d6000fd5b50505050338660010160006101000a81548173ffffffffffffffffffffffffffffffffffffffff021916908373ffffffffffffffffffffffffffffffffffffffff1602179055508467ffffffffffffffff168660080181905550868660050160006101000a81548167ffffffffffffffff021916908367ffffffffffffffff160217905550828660090160086101000a81548167ffffffffffffffff021916908367ffffffffffffffff1602179055508873ffffffffffffffffffffffffffffffffffffffff163373ffffffffffffffffffffffffffffffffffffffff168a73ffffffffffffffffffffffffffffffffffffffff16636352211e8b6040518263ffffffff1660e01b81526004016120779190612990565b602060405180830381865afa158015612094573d6000803e3d6000fd5b505050506040513d601f19601f820116820180604052508101906120b89190612f2d565b73ffffffffffffffffffffffffffffffffffffffff167f6b79cb7503cfb404ac433d40aaaafa93fb4c07ad7dae9ba0f77c46fd61ac787b8b8a600601548b600701548b8b8960405161210f96959493929190613775565b60405180910390a45050505050506121256122e2565b505050565b6000806000905060008373ffffffffffffffffffffffffffffffffffffffff166301ffc9a77fad092b5c000000000000000000000000000000000000000000000000000000006040518263ffffffff1660e01b815260040161218c919061362d565b602060405180830381865afa9250505080156121c657506040513d601f19601f820116820180604052508101906121c39190613674565b60015b6121d55760009250505061228e565b809250508373ffffffffffffffffffffffffffffffffffffffff166301ffc9a77f80ac58cd000000000000000000000000000000000000000000000000000000006040518263ffffffff1660e01b8152600401612232919061362d565b602060405180830381865afa92505050801561226c57506040513d601f19601f820116820180604052508101906122699190613674565b60015b61227b5760009250505061228e565b809150508180156122895750805b925050505b919050565b6002600054036122d8576040517f08c379a00000000000000000000000000000000000000000000000000000000081526004016122cf90613822565b60405180910390fd5b6002600081905550565b6001600081905550565b6001816000016000828254019250508190555050565b6000612314836000018360001b612449565b905092915050565b6000612344836000018373ffffffffffffffffffffffffffffffffffffffff1660001b612449565b905092915050565b600061235e836000018360001b6124b9565b905092915050565b6000612374826000016125cd565b9050919050565b60006123a3836000018373ffffffffffffffffffffffffffffffffffffffff1660001b6124b9565b905092915050565b600081600001549050600081116123f7576040517f08c379a00000000000000000000000000000000000000000000000000000000081526004016123ee9061388e565b60405180910390fd5b6001810382600001819055505050565b60606000612417836000016125de565b905060608190508092505050919050565b60606000612438836000016125de565b905060608190508092505050919050565b6000612455838361263a565b6124ae5782600001829080600181540180825580915050600190039060005260206000200160009091909190915055826000018054905083600101600084815260200190815260200160002081905550600190506124b3565b600090505b92915050565b600080836001016000848152602001908152602001600020549050600081146125c15760006001826124eb9190613196565b90506000600186600001805490506125039190613196565b9050818114612572576000866000018281548110612524576125236138ae565b5b9060005260206000200154905080876000018481548110612548576125476138ae565b5b90600052602060002001819055508387600101600083815260200190815260200160002081905550505b85600001805480612586576125856138dd565b5b6001900381819060005260206000200160009055905585600101600086815260200190815260200160002060009055600193505050506125c7565b60009150505b92915050565b600081600001805490509050919050565b60608160000180548060200260200160405190810160405280929190818152602001828054801561262e57602002820191906000526020600020905b81548152602001906001019080831161261a575b50505050509050919050565b600080836001016000848152602001908152602001600020541415905092915050565b604051806101600160405280600073ffffffffffffffffffffffffffffffffffffffff168152602001600073ffffffffffffffffffffffffffffffffffffffff168152602001600073ffffffffffffffffffffffffffffffffffffffff1681526020016000815260200160008152602001600067ffffffffffffffff168152602001600081526020016000815260200160008152602001600067ffffffffffffffff168152602001600067ffffffffffffffff1681525090565b600080fd5b600073ffffffffffffffffffffffffffffffffffffffff82169050919050565b60006127478261271c565b9050919050565b6127578161273c565b811461276257600080fd5b50565b6000813590506127748161274e565b92915050565b6000819050919050565b61278d8161277a565b811461279857600080fd5b50565b6000813590506127aa81612784565b92915050565b600080604083850312156127c7576127c6612717565b5b60006127d585828601612765565b92505060206127e68582860161279b565b9150509250929050565b6127f98161273c565b82525050565b6128088161277a565b82525050565b600067ffffffffffffffff82169050919050565b61282b8161280e565b82525050565b6101608201600082015161284860008501826127f0565b50602082015161285b60208501826127f0565b50604082015161286e60408501826127f0565b50606082015161288160608501826127ff565b50608082015161289460808501826127ff565b5060a08201516128a760a0850182612822565b5060c08201516128ba60c08501826127ff565b5060e08201516128cd60e08501826127ff565b506101008201516128e26101008501826127ff565b506101208201516128f7610120850182612822565b5061014082015161290c610140850182612822565b50505050565b6000610160820190506129286000830184612831565b92915050565b60008060006060848603121561294757612946612717565b5b60006129558682870161279b565b93505060206129668682870161279b565b92505060406129778682870161279b565b9150509250925092565b61298a8161277a565b82525050565b60006020820190506129a56000830184612981565b92915050565b6129b48161280e565b81146129bf57600080fd5b50565b6000813590506129d1816129ab565b92915050565b60008060008060008060c087890312156129f4576129f3612717565b5b6000612a0289828a01612765565b9650506020612a1389828a0161279b565b9550506040612a2489828a0161279b565b9450506060612a3589828a0161279b565b9350506080612a4689828a0161279b565b92505060a0612a5789828a016129c2565b9150509295509295509295565b600080600060608486031215612a7d57612a7c612717565b5b6000612a8b86828701612765565b9350506020612a9c8682870161279b565b9250506040612aad868287016129c2565b9150509250925092565b600081519050919050565b600082825260208201905092915050565b6000819050602082019050919050565b6000612aef83836127f0565b60208301905092915050565b6000602082019050919050565b6000612b1382612ab7565b612b1d8185612ac2565b9350612b2883612ad3565b8060005b83811015612b59578151612b408882612ae3565b9750612b4b83612afb565b925050600181019050612b2c565b5085935050505092915050565b60006020820190508181036000830152612b808184612b08565b905092915050565b600060208284031215612b9e57612b9d612717565b5b6000612bac84828501612765565b91505092915050565b600081519050919050565b600082825260208201905092915050565b6000819050602082019050919050565b6000612bed83836127ff565b60208301905092915050565b6000602082019050919050565b6000612c1182612bb5565b612c1b8185612bc0565b9350612c2683612bd1565b8060005b83811015612c57578151612c3e8882612be1565b9750612c4983612bf9565b925050600181019050612c2a565b5085935050505092915050565b60006020820190508181036000830152612c7e8184612c06565b905092915050565b60008115159050919050565b612c9b81612c86565b82525050565b6000602082019050612cb66000830184612c92565b92915050565b600082825260208201905092915050565b7f596f7520617265206e6f74207468652063757272656e74207573657200000000600082015250565b6000612d03601c83612cbc565b9150612d0e82612ccd565b602082019050919050565b60006020820190508181036000830152612d3281612cf6565b9050919050565b7f4e46542065787069726564000000000000000000000000000000000000000000600082015250565b6000612d6f600b83612cbc565b9150612d7a82612d39565b602082019050919050565b60006020820190508181036000830152612d9e81612d62565b9050919050565b7f4e487b7100000000000000000000000000000000000000000000000000000000600052601160045260246000fd5b6000612ddf8261277a565b9150612dea8361277a565b9250828201905080821115612e0257612e01612da5565b5b92915050565b6000612e138261280e565b9150612e1e8361280e565b9250828201905067ffffffffffffffff811115612e3e57612e3d612da5565b5b92915050565b6000612e4f8261277a565b9150612e5a8361277a565b9250828202612e688161277a565b91508282048414831517612e7f57612e7e612da5565b5b5092915050565b7f4e6f7420656e6f75676820657468657220746f20636f7665722072656e74616c60008201527f20706572696f6400000000000000000000000000000000000000000000000000602082015250565b6000612ee2602783612cbc565b9150612eed82612e86565b604082019050919050565b60006020820190508181036000830152612f1181612ed5565b9050919050565b600081519050612f278161274e565b92915050565b600060208284031215612f4357612f42612717565b5b6000612f5184828501612f18565b91505092915050565b612f638161280e565b82525050565b600060c082019050612f7e6000830189612981565b612f8b6020830188612981565b612f986040830187612981565b612fa56060830186612981565b612fb26080830185612f5a565b612fbf60a0830184612981565b979650505050505050565b7f496e7374616c6c6d656e7420496e6465782073686f756c64206265206c65737360008201527f6572207468616e2074686520696e7374616c6c6d656e7420636f756e74000000602082015250565b6000613026603d83612cbc565b915061303182612fca565b604082019050919050565b6000602082019050818103600083015261305581613019565b9050919050565b7f496e7374616c6c6d656e7420496e6465782073686f756c64206265206772656160008201527f746572207468616e203000000000000000000000000000000000000000000000602082015250565b60006130b8602a83612cbc565b91506130c38261305c565b604082019050919050565b600060208201905081810360008301526130e7816130ab565b9050919050565b60006130f98261277a565b91507fffffffffffffffffffffffffffffffffffffffffffffffffffffffffffffffff820361312b5761312a612da5565b5b600182019050919050565b7f4e487b7100000000000000000000000000000000000000000000000000000000600052601260045260246000fd5b60006131708261277a565b915061317b8361277a565b92508261318b5761318a613136565b5b828204905092915050565b60006131a18261277a565b91506131ac8361277a565b92508282039050818111156131c4576131c3612da5565b5b92915050565b6131d38161273c565b82525050565b60006040820190506131ee60008301856131ca565b6131fb6020830184612981565b9392505050565b7f436f6e7472616374206973206e6f7420616e2045524334393037000000000000600082015250565b6000613238601a83612cbc565b915061324382613202565b602082019050919050565b600060208201905081810360008301526132678161322b565b9050919050565b7f4e6f74206f776e6572206f66206e667400000000000000000000000000000000600082015250565b60006132a4601083612cbc565b91506132af8261326e565b602082019050919050565b600060208201905081810360008301526132d381613297565b9050919050565b7f4e6f7420656e6f75676820657468657220666f72206c697374696e6720666565600082015250565b6000613310602083612cbc565b915061331b826132da565b602082019050919050565b6000602082019050818103600083015261333f81613303565b9050919050565b7f52656e74616c2070726963652073686f756c642062652067726561746572207460008201527f68616e2030000000000000000000000000000000000000000000000000000000602082015250565b60006133a2602583612cbc565b91506133ad82613346565b604082019050919050565b600060208201905081810360008301526133d181613395565b9050919050565b7f537461727420646174652063616e6e6f7420626520696e207468652070617374600082015250565b600061340e602083612cbc565b9150613419826133d8565b602082019050919050565b6000602082019050818103600083015261343d81613401565b9050919050565b7f456e6420646174652063616e6e6f74206265206265666f72652074686520737460008201527f6172742064617465000000000000000000000000000000000000000000000000602082015250565b60006134a0602883612cbc565b91506134ab82613444565b604082019050919050565b600060208201905081810360008301526134cf81613493565b9050919050565b6000819050919050565b6000819050919050565b60006135056135006134fb846134d6565b6134e0565b61277a565b9050919050565b613515816134ea565b82525050565b600061353661353161352c846134d6565b6134e0565b61280e565b9050919050565b6135468161351b565b82525050565b600060e082019050613561600083018a612981565b61356e6020830189612981565b61357b6040830188612981565b6135886060830187612981565b613595608083018661350c565b6135a260a0830185612f5a565b6135af60c083018461353d565b98975050505050505050565b60006060820190506135d06000830186612981565b6135dd60208301856131ca565b6135ea604083018461353d565b949350505050565b60007fffffffff0000000000000000000000000000000000000000000000000000000082169050919050565b613627816135f2565b82525050565b6000602082019050613642600083018461361e565b92915050565b61365181612c86565b811461365c57600080fd5b50565b60008151905061366e81613648565b92915050565b60006020828403121561368a57613689612717565b5b60006136988482850161365f565b91505092915050565b7f4e465420616c72656164792072656e7465640000000000000000000000000000600082015250565b60006136d7601283612cbc565b91506136e2826136a1565b602082019050919050565b60006020820190508181036000830152613706816136ca565b9050919050565b60006060820190506137226000830186612981565b61372f60208301856131ca565b61373c6040830184612f5a565b949350505050565b600061375f61375a6137558461280e565b6134e0565b61277a565b9050919050565b61376f81613744565b82525050565b600060c08201905061378a6000830189612981565b6137976020830188612981565b6137a46040830187612981565b6137b16060830186613766565b6137be6080830185612f5a565b6137cb60a0830184612981565b979650505050505050565b7f5265656e7472616e637947756172643a207265656e7472616e742063616c6c00600082015250565b600061380c601f83612cbc565b9150613817826137d6565b602082019050919050565b6000602082019050818103600083015261383b816137ff565b9050919050565b7f436f756e7465723a2064656372656d656e74206f766572666c6f770000000000600082015250565b6000613878601b83612cbc565b915061388382613842565b602082019050919050565b600060208201905081810360008301526138a78161386b565b9050919050565b7f4e487b7100000000000000000000000000000000000000000000000000000000600052603260045260246000fd5b7f4e487b7100000000000000000000000000000000000000000000000000000000600052603160045260246000fdfea264697066735822122045ceb737c91b19bf6c778fece6cfbc8e0c64d242f87a5c7df37163a877cc014364736f6c63430008110033",
  "linkReferences": {},
  "deployedLinkReferences": {}
}