{
  "_format": "hh-sol-artifact-1",
  "contractName": "FunctionVoting",
  "sourceName": "contracts/Voting.sol",
  "abi": [
    {
      "inputs": [
        {
          "internalType": "address",
          "name": "address1",
          "type": "address"
        },
        {
          "internalType": "address",
          "name": "address2",
          "type": "address"
        }
      ],
      "stateMutability": "nonpayable",
      "type": "constructor"
    },
    {
      "inputs": [],
      "name": "NotOwner",
      "type": "error"
    },
    {
      "inputs": [
        {
          "internalType": "address",
          "name": "contractAddress",
          "type": "address"
        }
      ],
      "name": "calculateVotingResult",
      "outputs": [
        {
          "internalType": "uint256",
          "name": "",
          "type": "uint256"
        }
      ],
      "stateMutability": "view",
      "type": "function"
    },
    {
      "inputs": [
        {
          "internalType": "address",
          "name": "contractAddress",
          "type": "address"
        }
      ],
      "name": "createVotingProposal",
      "outputs": [],
      "stateMutability": "nonpayable",
      "type": "function"
    },
    {
      "inputs": [
        {
          "internalType": "address",
          "name": "contractAddress",
          "type": "address"
        },
        {
          "internalType": "bool",
          "name": "supportChanges",
          "type": "bool"
        }
      ],
      "name": "voteOnProposal",
      "outputs": [],
      "stateMutability": "nonpayable",
      "type": "function"
    }
  ],
  "bytecode": "0x608060405234801561001057600080fd5b50604051610b5b380380610b5b8339818101604052810190610032919061015f565b33600260006101000a81548173ffffffffffffffffffffffffffffffffffffffff021916908373ffffffffffffffffffffffffffffffffffffffff16021790555081600360006101000a81548173ffffffffffffffffffffffffffffffffffffffff021916908373ffffffffffffffffffffffffffffffffffffffff16021790555080600460006101000a81548173ffffffffffffffffffffffffffffffffffffffff021916908373ffffffffffffffffffffffffffffffffffffffff160217905550505061019f565b600080fd5b600073ffffffffffffffffffffffffffffffffffffffff82169050919050565b600061012c82610101565b9050919050565b61013c81610121565b811461014757600080fd5b50565b60008151905061015981610133565b92915050565b60008060408385031215610176576101756100fc565b5b60006101848582860161014a565b92505060206101958582860161014a565b9150509250929050565b6109ad806101ae6000396000f3fe608060405234801561001057600080fd5b50600436106100415760003560e01c80635d4f85e514610046578063a5426e9c14610076578063f8e97ef914610092575b600080fd5b610060600480360381019061005b919061072c565b6100ae565b60405161006d9190610772565b60405180910390f35b610090600480360381019061008b91906107c5565b6101ed565b005b6100ac60048036038101906100a7919061072c565b610568565b005b6000806000808473ffffffffffffffffffffffffffffffffffffffff1673ffffffffffffffffffffffffffffffffffffffff1681526020019081526020016000206040518060600160405290816000820160009054906101000a900473ffffffffffffffffffffffffffffffffffffffff1673ffffffffffffffffffffffffffffffffffffffff1673ffffffffffffffffffffffffffffffffffffffff16815260200160018201548152602001600282015481525050905060008160400151826020015161017c9190610834565b905060008103610191576000925050506101e8565b600182602001511480156101a9575060018260400151145b156101b9576000925050506101e8565b600282602001511480156101d1575060028260400151145b156101e1576002925050506101e8565b6001925050505b919050565b81600160003373ffffffffffffffffffffffffffffffffffffffff1673ffffffffffffffffffffffffffffffffffffffff16815260200190815260200160002060008273ffffffffffffffffffffffffffffffffffffffff1673ffffffffffffffffffffffffffffffffffffffff16815260200190815260200160002060009054906101000a900460ff16156102b8576040517f08c379a00000000000000000000000000000000000000000000000000000000081526004016102af906108eb565b60405180910390fd5b60008060008573ffffffffffffffffffffffffffffffffffffffff1673ffffffffffffffffffffffffffffffffffffffff1681526020019081526020016000209050600360009054906101000a900473ffffffffffffffffffffffffffffffffffffffff1673ffffffffffffffffffffffffffffffffffffffff163373ffffffffffffffffffffffffffffffffffffffff161415806103a55750600460009054906101000a900473ffffffffffffffffffffffffffffffffffffffff1673ffffffffffffffffffffffffffffffffffffffff163373ffffffffffffffffffffffffffffffffffffffff1614155b6103e4576040517f08c379a00000000000000000000000000000000000000000000000000000000081526004016103db90610957565b60405180910390fd5b821561045e57600360009054906101000a900473ffffffffffffffffffffffffffffffffffffffff1673ffffffffffffffffffffffffffffffffffffffff163373ffffffffffffffffffffffffffffffffffffffff160361044e5760018160010181905550610459565b600181600201819055505b6104ce565b600360009054906101000a900473ffffffffffffffffffffffffffffffffffffffff1673ffffffffffffffffffffffffffffffffffffffff163373ffffffffffffffffffffffffffffffffffffffff16036104c257600281600101819055506104cd565b600281600201819055505b5b60018060003373ffffffffffffffffffffffffffffffffffffffff1673ffffffffffffffffffffffffffffffffffffffff16815260200190815260200160002060008673ffffffffffffffffffffffffffffffffffffffff1673ffffffffffffffffffffffffffffffffffffffff16815260200190815260200160002060006101000a81548160ff02191690831515021790555050505050565b338073ffffffffffffffffffffffffffffffffffffffff16600260009054906101000a900473ffffffffffffffffffffffffffffffffffffffff1673ffffffffffffffffffffffffffffffffffffffff16146105f0576040517f30cd747100000000000000000000000000000000000000000000000000000000815260040160405180910390fd5b600060405180606001604052808473ffffffffffffffffffffffffffffffffffffffff1681526020016000815260200160008152509050806000808573ffffffffffffffffffffffffffffffffffffffff1673ffffffffffffffffffffffffffffffffffffffff16815260200190815260200160002060008201518160000160006101000a81548173ffffffffffffffffffffffffffffffffffffffff021916908373ffffffffffffffffffffffffffffffffffffffff1602179055506020820151816001015560408201518160020155905050505050565b600080fd5b600073ffffffffffffffffffffffffffffffffffffffff82169050919050565b60006106f9826106ce565b9050919050565b610709816106ee565b811461071457600080fd5b50565b60008135905061072681610700565b92915050565b600060208284031215610742576107416106c9565b5b600061075084828501610717565b91505092915050565b6000819050919050565b61076c81610759565b82525050565b60006020820190506107876000830184610763565b92915050565b60008115159050919050565b6107a28161078d565b81146107ad57600080fd5b50565b6000813590506107bf81610799565b92915050565b600080604083850312156107dc576107db6106c9565b5b60006107ea85828601610717565b92505060206107fb858286016107b0565b9150509250929050565b7f4e487b7100000000000000000000000000000000000000000000000000000000600052601160045260246000fd5b600061083f82610759565b915061084a83610759565b925082820190508082111561086257610861610805565b5b92915050565b600082825260208201905092915050565b7f596f75206861766520616c726561647920766f746564206f6e2074686973207060008201527f726f706f73616c00000000000000000000000000000000000000000000000000602082015250565b60006108d5602783610868565b91506108e082610879565b604082019050919050565b60006020820190508181036000830152610904816108c8565b9050919050565b7f4e6f7420617574686f72697a656420746f20766f746500000000000000000000600082015250565b6000610941601683610868565b915061094c8261090b565b602082019050919050565b6000602082019050818103600083015261097081610934565b905091905056fea2646970667358221220d54a1a69a0fb739d4e371573f35e5721e0898a7f6a236dd76da78deced6e857964736f6c63430008110033",
  "linkReferences": {},
  "deployedLinkReferences": {}
}