{
  "_format": "hh-sol-artifact-1",
  "contractName": "AIE_Proxy",
  "sourceName": "contracts/AIEProxy.sol",
  "abi": [
    {
      "inputs": [
        {
          "internalType": "address",
          "name": "_implContract",
          "type": "address"
        }
      ],
      "stateMutability": "nonpayable",
      "type": "constructor"
    },
    {
      "anonymous": false,
      "inputs": [
        {
          "indexed": true,
          "internalType": "address",
          "name": "owner",
          "type": "address"
        },
        {
          "indexed": true,
          "internalType": "address",
          "name": "user",
          "type": "address"
        },
        {
          "indexed": true,
          "internalType": "address",
          "name": "nftContract",
          "type": "address"
        },
        {
          "indexed": false,
          "internalType": "uint256",
          "name": "tokenId",
          "type": "uint256"
        },
        {
          "indexed": false,
          "internalType": "uint256",
          "name": "pricePerDay",
          "type": "uint256"
        }
      ],
      "name": "INSNFTListed",
      "type": "event"
    },
    {
      "anonymous": false,
      "inputs": [
        {
          "indexed": true,
          "internalType": "address",
          "name": "marketowner",
          "type": "address"
        },
        {
          "indexed": true,
          "internalType": "address",
          "name": "newImplAddrs",
          "type": "address"
        }
      ],
      "name": "ImplUpgrade",
      "type": "event"
    },
    {
      "anonymous": false,
      "inputs": [
        {
          "indexed": true,
          "internalType": "address",
          "name": "owner",
          "type": "address"
        },
        {
          "indexed": true,
          "internalType": "address",
          "name": "user",
          "type": "address"
        },
        {
          "indexed": true,
          "internalType": "address",
          "name": "nftContract",
          "type": "address"
        },
        {
          "indexed": false,
          "internalType": "uint256",
          "name": "tokenId",
          "type": "uint256"
        },
        {
          "indexed": false,
          "internalType": "uint64",
          "name": "expires",
          "type": "uint64"
        },
        {
          "indexed": false,
          "internalType": "uint64",
          "name": "ins_index",
          "type": "uint64"
        },
        {
          "indexed": false,
          "internalType": "uint256",
          "name": "amountIns",
          "type": "uint256"
        },
        {
          "indexed": false,
          "internalType": "uint256",
          "name": "paidIns",
          "type": "uint256"
        }
      ],
      "name": "NFTINSPaid",
      "type": "event"
    },
    {
      "anonymous": false,
      "inputs": [
        {
          "indexed": true,
          "internalType": "address",
          "name": "unlistSender",
          "type": "address"
        },
        {
          "indexed": true,
          "internalType": "address",
          "name": "nftContract",
          "type": "address"
        },
        {
          "indexed": true,
          "internalType": "uint256",
          "name": "tokenId",
          "type": "uint256"
        }
      ],
      "name": "NFTUnlisted",
      "type": "event"
    },
    {
      "inputs": [
        {
          "internalType": "address",
          "name": "nftAddress",
          "type": "address"
        },
        {
          "internalType": "uint256",
          "name": "tokenId",
          "type": "uint256"
        }
      ],
      "name": "getAInsListing",
      "outputs": [
        {
          "components": [
            {
              "internalType": "address",
              "name": "owner",
              "type": "address"
            },
            {
              "internalType": "address",
              "name": "user",
              "type": "address"
            },
            {
              "internalType": "address",
              "name": "nftContract",
              "type": "address"
            },
            {
              "internalType": "uint256",
              "name": "tokenId",
              "type": "uint256"
            },
            {
              "internalType": "uint256",
              "name": "pricePerDay",
              "type": "uint256"
            },
            {
              "internalType": "uint64",
              "name": "installmentCount",
              "type": "uint64"
            },
            {
              "internalType": "uint64",
              "name": "expires",
              "type": "uint64"
            },
            {
              "internalType": "uint64",
              "name": "installmentIndex",
              "type": "uint64"
            },
            {
              "internalType": "uint256",
              "name": "paidIns",
              "type": "uint256"
            }
          ],
          "internalType": "struct AIE_Proxy.Listing_installment",
          "name": "",
          "type": "tuple"
        }
      ],
      "stateMutability": "view",
      "type": "function"
    },
    {
      "inputs": [],
      "name": "getImplAddrs",
      "outputs": [
        {
          "internalType": "address",
          "name": "",
          "type": "address"
        }
      ],
      "stateMutability": "view",
      "type": "function"
    },
    {
      "inputs": [
        {
          "internalType": "address",
          "name": "nftAddress",
          "type": "address"
        }
      ],
      "name": "getInsListedAdddressTokens",
      "outputs": [
        {
          "internalType": "uint256[]",
          "name": "",
          "type": "uint256[]"
        }
      ],
      "stateMutability": "view",
      "type": "function"
    },
    {
      "inputs": [],
      "name": "getInsListedAdddresses",
      "outputs": [
        {
          "internalType": "address[]",
          "name": "",
          "type": "address[]"
        }
      ],
      "stateMutability": "view",
      "type": "function"
    },
    {
      "inputs": [],
      "name": "getListingFee",
      "outputs": [
        {
          "internalType": "uint256",
          "name": "",
          "type": "uint256"
        }
      ],
      "stateMutability": "view",
      "type": "function"
    },
    {
      "inputs": [
        {
          "internalType": "address",
          "name": "nftAddress",
          "type": "address"
        },
        {
          "internalType": "uint256",
          "name": "tokenId",
          "type": "uint256"
        },
        {
          "internalType": "uint64",
          "name": "installmentCount",
          "type": "uint64"
        }
      ],
      "name": "getNftInstallment",
      "outputs": [
        {
          "internalType": "uint256",
          "name": "",
          "type": "uint256"
        }
      ],
      "stateMutability": "view",
      "type": "function"
    },
    {
      "inputs": [
        {
          "internalType": "address",
          "name": "nftContract",
          "type": "address"
        }
      ],
      "name": "isNFT",
      "outputs": [
        {
          "internalType": "bool",
          "name": "",
          "type": "bool"
        }
      ],
      "stateMutability": "view",
      "type": "function"
    },
    {
      "inputs": [
        {
          "internalType": "address",
          "name": "nftContract",
          "type": "address"
        }
      ],
      "name": "isRentableNFT",
      "outputs": [
        {
          "internalType": "bool",
          "name": "",
          "type": "bool"
        }
      ],
      "stateMutability": "view",
      "type": "function"
    },
    {
      "inputs": [
        {
          "internalType": "address",
          "name": "nftAddress",
          "type": "address"
        },
        {
          "internalType": "uint256",
          "name": "tokenId",
          "type": "uint256"
        },
        {
          "internalType": "uint256",
          "name": "pricePerDay",
          "type": "uint256"
        }
      ],
      "name": "listInsBasedNFT",
      "outputs": [
        {
          "internalType": "string",
          "name": "",
          "type": "string"
        }
      ],
      "stateMutability": "payable",
      "type": "function"
    },
    {
      "inputs": [
        {
          "internalType": "address",
          "name": "nftAddress",
          "type": "address"
        },
        {
          "internalType": "uint256",
          "name": "tokenId",
          "type": "uint256"
        }
      ],
      "name": "payNFTIns",
      "outputs": [
        {
          "internalType": "string",
          "name": "",
          "type": "string"
        }
      ],
      "stateMutability": "payable",
      "type": "function"
    },
    {
      "inputs": [
        {
          "internalType": "address",
          "name": "nftAddress",
          "type": "address"
        },
        {
          "internalType": "uint256",
          "name": "tokenId",
          "type": "uint256"
        },
        {
          "internalType": "uint64",
          "name": "numDays",
          "type": "uint64"
        }
      ],
      "name": "rentINSNFT",
      "outputs": [
        {
          "internalType": "string",
          "name": "",
          "type": "string"
        }
      ],
      "stateMutability": "payable",
      "type": "function"
    },
    {
      "inputs": [
        {
          "internalType": "address",
          "name": "nftAddress",
          "type": "address"
        },
        {
          "internalType": "uint256",
          "name": "tokenId",
          "type": "uint256"
        }
      ],
      "name": "unlistINSNFT",
      "outputs": [
        {
          "internalType": "string",
          "name": "",
          "type": "string"
        }
      ],
      "stateMutability": "nonpayable",
      "type": "function"
    },
    {
      "inputs": [
        {
          "internalType": "address",
          "name": "newImplAddrs",
          "type": "address"
        }
      ],
      "name": "updateImplContract",
      "outputs": [],
      "stateMutability": "nonpayable",
      "type": "function"
    }
  ],
  "bytecode": "0x6080604052662386f26fc10000600255600a600360006101000a81548167ffffffffffffffff021916908367ffffffffffffffff1602179055503480156200004657600080fd5b50604051620021003803806200210083398181016040528101906200006c919062000167565b600160008190555033600160006101000a81548173ffffffffffffffffffffffffffffffffffffffff021916908373ffffffffffffffffffffffffffffffffffffffff16021790555080600960006101000a81548173ffffffffffffffffffffffffffffffffffffffff021916908373ffffffffffffffffffffffffffffffffffffffff1602179055505062000199565b600080fd5b600073ffffffffffffffffffffffffffffffffffffffff82169050919050565b60006200012f8262000102565b9050919050565b620001418162000122565b81146200014d57600080fd5b50565b600081519050620001618162000136565b92915050565b60006020828403121562000180576200017f620000fd565b5b6000620001908482850162000150565b91505092915050565b611f5780620001a96000396000f3fe6080604052600436106100c25760003560e01c806393f332491161007f578063c80e712f11610059578063c80e712f14610295578063cebd5145146102c5578063d4a55a74146102f5578063e9a6f4f614610332576100c2565b806393f33249146101f0578063b31b85c91461022d578063b8fe6abe1461026a576100c2565b80632f4a073a146100c757806337feab07146101045780634b30261c1461012f5780636ae012c81461015f5780636bf510bf1461018a5780638524528f146101c7575b600080fd5b3480156100d357600080fd5b506100ee60048036038101906100e9919061143c565b61036f565b6040516100fb9190611531565b60405180910390f35b34801561011057600080fd5b506101196103c5565b6040516101269190611611565b60405180910390f35b6101496004803603810190610144919061165f565b6103dc565b604051610156919061172f565b60405180910390f35b34801561016b57600080fd5b5061017461055a565b6040516101819190611760565b60405180910390f35b34801561019657600080fd5b506101b160048036038101906101ac919061165f565b610584565b6040516101be919061172f565b60405180910390f35b3480156101d357600080fd5b506101ee60048036038101906101e9919061143c565b610702565b005b3480156101fc57600080fd5b50610217600480360381019061021291906117bb565b610884565b604051610224919061181d565b60405180910390f35b34801561023957600080fd5b50610254600480360381019061024f919061143c565b610ada565b6040516102619190611853565b60405180910390f35b34801561027657600080fd5b5061027f610b90565b60405161028c919061181d565b60405180910390f35b6102af60048036038101906102aa919061186e565b610b9a565b6040516102bc919061172f565b60405180910390f35b6102df60048036038101906102da91906117bb565b610d1b565b6040516102ec919061172f565b60405180910390f35b34801561030157600080fd5b5061031c6004803603810190610317919061165f565b610e9c565b6040516103299190611987565b60405180910390f35b34801561033e57600080fd5b506103596004803603810190610354919061143c565b6110be565b6040516103669190611853565b60405180910390f35b606060006103ba600560008573ffffffffffffffffffffffffffffffffffffffff1673ffffffffffffffffffffffffffffffffffffffff168152602001908152602001600020611227565b905080915050919050565b606060006103d36006611248565b90508091505090565b6060600080600960009054906101000a900473ffffffffffffffffffffffffffffffffffffffff1673ffffffffffffffffffffffffffffffffffffffff16858560405160240161042d9291906119a3565b6040516020818303038152906040527f4b30261c000000000000000000000000000000000000000000000000000000007bffffffffffffffffffffffffffffffffffffffffffffffffffffffff19166020820180517bffffffffffffffffffffffffffffffffffffffffffffffffffffffff83818316178352505050506040516104b79190611a13565b600060405180830381855af49150503d80600081146104f2576040519150601f19603f3d011682016040523d82523d6000602084013e6104f7565b606091505b50915091508161053c576040517f08c379a000000000000000000000000000000000000000000000000000000000815260040161053390611a76565b60405180910390fd5b808060200190518101906105509190611bbc565b9250505092915050565b6000600960009054906101000a900473ffffffffffffffffffffffffffffffffffffffff16905090565b6060600080600960009054906101000a900473ffffffffffffffffffffffffffffffffffffffff1673ffffffffffffffffffffffffffffffffffffffff1685856040516024016105d59291906119a3565b6040516020818303038152906040527f6bf510bf000000000000000000000000000000000000000000000000000000007bffffffffffffffffffffffffffffffffffffffffffffffffffffffff19166020820180517bffffffffffffffffffffffffffffffffffffffffffffffffffffffff838183161783525050505060405161065f9190611a13565b600060405180830381855af49150503d806000811461069a576040519150601f19603f3d011682016040523d82523d6000602084013e61069f565b606091505b5091509150816106e4576040517f08c379a00000000000000000000000000000000000000000000000000000000081526004016106db90611a76565b60405180910390fd5b808060200190518101906106f89190611bbc565b9250505092915050565b61070a611269565b600160009054906101000a900473ffffffffffffffffffffffffffffffffffffffff1673ffffffffffffffffffffffffffffffffffffffff163373ffffffffffffffffffffffffffffffffffffffff161461079a576040517f08c379a000000000000000000000000000000000000000000000000000000000815260040161079190611c77565b60405180910390fd5b80600960006101000a81548173ffffffffffffffffffffffffffffffffffffffff021916908373ffffffffffffffffffffffffffffffffffffffff160217905550600960009054906101000a900473ffffffffffffffffffffffffffffffffffffffff1673ffffffffffffffffffffffffffffffffffffffff16600160009054906101000a900473ffffffffffffffffffffffffffffffffffffffff1673ffffffffffffffffffffffffffffffffffffffff167f1ed34c9a7b236ee6031785cd9ca32de930e1ae39020c1279886b687a307e7fcb60405160405180910390a36108816112b8565b50565b600080600460008673ffffffffffffffffffffffffffffffffffffffff1673ffffffffffffffffffffffffffffffffffffffff1681526020019081526020016000206000858152602001908152602001600020905060008160050160009054906101000a900467ffffffffffffffff1667ffffffffffffffff161115610920578060050160009054906101000a900467ffffffffffffffff1692505b60008160050160109054906101000a900467ffffffffffffffff169050600060018261094c9190611cc6565b9050600080600960009054906101000a900473ffffffffffffffffffffffffffffffffffffffff1673ffffffffffffffffffffffffffffffffffffffff168560060154888760040154866040516024016109a99493929190611d11565b6040516020818303038152906040527f6d48cf02000000000000000000000000000000000000000000000000000000007bffffffffffffffffffffffffffffffffffffffffffffffffffffffff19166020820180517bffffffffffffffffffffffffffffffffffffffffffffffffffffffff8381831617835250505050604051610a339190611a13565b600060405180830381855afa9150503d8060008114610a6e576040519150601f19603f3d011682016040523d82523d6000602084013e610a73565b606091505b509150915081610ab8576040517f08c379a0000000000000000000000000000000000000000000000000000000008152600401610aaf90611a76565b60405180910390fd5b80806020019051810190610acc9190611d6b565b955050505050509392505050565b600080600090508273ffffffffffffffffffffffffffffffffffffffff166301ffc9a77f80ac58cd000000000000000000000000000000000000000000000000000000006040518263ffffffff1660e01b8152600401610b3a9190611dd3565b602060405180830381865afa925050508015610b7457506040513d601f19601f82011682018060405250810190610b719190611e1a565b60015b610b82576000915050610b8b565b80915050809150505b919050565b6000600254905090565b6060600080600960009054906101000a900473ffffffffffffffffffffffffffffffffffffffff1673ffffffffffffffffffffffffffffffffffffffff16868686604051602401610bed93929190611e47565b6040516020818303038152906040527fc80e712f000000000000000000000000000000000000000000000000000000007bffffffffffffffffffffffffffffffffffffffffffffffffffffffff19166020820180517bffffffffffffffffffffffffffffffffffffffffffffffffffffffff8381831617835250505050604051610c779190611a13565b600060405180830381855af49150503d8060008114610cb2576040519150601f19603f3d011682016040523d82523d6000602084013e610cb7565b606091505b509150915081610cfc576040517f08c379a0000000000000000000000000000000000000000000000000000000008152600401610cf390611a76565b60405180910390fd5b80806020019051810190610d109190611bbc565b925050509392505050565b6060600080600960009054906101000a900473ffffffffffffffffffffffffffffffffffffffff1673ffffffffffffffffffffffffffffffffffffffff16868686604051602401610d6e93929190611e7e565b6040516020818303038152906040527fcebd5145000000000000000000000000000000000000000000000000000000007bffffffffffffffffffffffffffffffffffffffffffffffffffffffff19166020820180517bffffffffffffffffffffffffffffffffffffffffffffffffffffffff8381831617835250505050604051610df89190611a13565b600060405180830381855af49150503d8060008114610e33576040519150601f19603f3d011682016040523d82523d6000602084013e610e38565b606091505b509150915081610e7d576040517f08c379a0000000000000000000000000000000000000000000000000000000008152600401610e7490611a76565b60405180910390fd5b80806020019051810190610e919190611bbc565b925050509392505050565b610ea461131e565b600460008473ffffffffffffffffffffffffffffffffffffffff1673ffffffffffffffffffffffffffffffffffffffff1681526020019081526020016000206000838152602001908152602001600020604051806101200160405290816000820160009054906101000a900473ffffffffffffffffffffffffffffffffffffffff1673ffffffffffffffffffffffffffffffffffffffff1673ffffffffffffffffffffffffffffffffffffffff1681526020016001820160009054906101000a900473ffffffffffffffffffffffffffffffffffffffff1673ffffffffffffffffffffffffffffffffffffffff1673ffffffffffffffffffffffffffffffffffffffff1681526020016002820160009054906101000a900473ffffffffffffffffffffffffffffffffffffffff1673ffffffffffffffffffffffffffffffffffffffff1673ffffffffffffffffffffffffffffffffffffffff16815260200160038201548152602001600482015481526020016005820160009054906101000a900467ffffffffffffffff1667ffffffffffffffff1667ffffffffffffffff1681526020016005820160089054906101000a900467ffffffffffffffff1667ffffffffffffffff1667ffffffffffffffff1681526020016005820160109054906101000a900467ffffffffffffffff1667ffffffffffffffff1667ffffffffffffffff168152602001600682015481525050905092915050565b6000806000905060008373ffffffffffffffffffffffffffffffffffffffff166301ffc9a77fad092b5c000000000000000000000000000000000000000000000000000000006040518263ffffffff1660e01b81526004016111209190611dd3565b602060405180830381865afa92505050801561115a57506040513d601f19601f820116820180604052508101906111579190611e1a565b60015b61116957600092505050611222565b809250508373ffffffffffffffffffffffffffffffffffffffff166301ffc9a77f80ac58cd000000000000000000000000000000000000000000000000000000006040518263ffffffff1660e01b81526004016111c69190611dd3565b602060405180830381865afa92505050801561120057506040513d601f19601f820116820180604052508101906111fd9190611e1a565b60015b61120f57600092505050611222565b8091505081801561121d5750805b925050505b919050565b60606000611237836000016112c2565b905060608190508092505050919050565b60606000611258836000016112c2565b905060608190508092505050919050565b6002600054036112ae576040517f08c379a00000000000000000000000000000000000000000000000000000000081526004016112a590611f01565b60405180910390fd5b6002600081905550565b6001600081905550565b60608160000180548060200260200160405190810160405280929190818152602001828054801561131257602002820191906000526020600020905b8154815260200190600101908083116112fe575b50505050509050919050565b604051806101200160405280600073ffffffffffffffffffffffffffffffffffffffff168152602001600073ffffffffffffffffffffffffffffffffffffffff168152602001600073ffffffffffffffffffffffffffffffffffffffff1681526020016000815260200160008152602001600067ffffffffffffffff168152602001600067ffffffffffffffff168152602001600067ffffffffffffffff168152602001600081525090565b6000604051905090565b600080fd5b600080fd5b600073ffffffffffffffffffffffffffffffffffffffff82169050919050565b6000611409826113de565b9050919050565b611419816113fe565b811461142457600080fd5b50565b60008135905061143681611410565b92915050565b600060208284031215611452576114516113d4565b5b600061146084828501611427565b91505092915050565b600081519050919050565b600082825260208201905092915050565b6000819050602082019050919050565b6000819050919050565b6114a881611495565b82525050565b60006114ba838361149f565b60208301905092915050565b6000602082019050919050565b60006114de82611469565b6114e88185611474565b93506114f383611485565b8060005b8381101561152457815161150b88826114ae565b9750611516836114c6565b9250506001810190506114f7565b5085935050505092915050565b6000602082019050818103600083015261154b81846114d3565b905092915050565b600081519050919050565b600082825260208201905092915050565b6000819050602082019050919050565b611588816113fe565b82525050565b600061159a838361157f565b60208301905092915050565b6000602082019050919050565b60006115be82611553565b6115c8818561155e565b93506115d38361156f565b8060005b838110156116045781516115eb888261158e565b97506115f6836115a6565b9250506001810190506115d7565b5085935050505092915050565b6000602082019050818103600083015261162b81846115b3565b905092915050565b61163c81611495565b811461164757600080fd5b50565b60008135905061165981611633565b92915050565b60008060408385031215611676576116756113d4565b5b600061168485828601611427565b92505060206116958582860161164a565b9150509250929050565b600081519050919050565b600082825260208201905092915050565b60005b838110156116d95780820151818401526020810190506116be565b60008484015250505050565b6000601f19601f8301169050919050565b60006117018261169f565b61170b81856116aa565b935061171b8185602086016116bb565b611724816116e5565b840191505092915050565b6000602082019050818103600083015261174981846116f6565b905092915050565b61175a816113fe565b82525050565b60006020820190506117756000830184611751565b92915050565b600067ffffffffffffffff82169050919050565b6117988161177b565b81146117a357600080fd5b50565b6000813590506117b58161178f565b92915050565b6000806000606084860312156117d4576117d36113d4565b5b60006117e286828701611427565b93505060206117f38682870161164a565b9250506040611804868287016117a6565b9150509250925092565b61181781611495565b82525050565b6000602082019050611832600083018461180e565b92915050565b60008115159050919050565b61184d81611838565b82525050565b60006020820190506118686000830184611844565b92915050565b600080600060608486031215611887576118866113d4565b5b600061189586828701611427565b93505060206118a68682870161164a565b92505060406118b78682870161164a565b9150509250925092565b6118ca8161177b565b82525050565b610120820160008201516118e7600085018261157f565b5060208201516118fa602085018261157f565b50604082015161190d604085018261157f565b506060820151611920606085018261149f565b506080820151611933608085018261149f565b5060a082015161194660a08501826118c1565b5060c082015161195960c08501826118c1565b5060e082015161196c60e08501826118c1565b5061010082015161198161010085018261149f565b50505050565b60006101208201905061199d60008301846118d0565b92915050565b60006040820190506119b86000830185611751565b6119c5602083018461180e565b9392505050565b600081519050919050565b600081905092915050565b60006119ed826119cc565b6119f781856119d7565b9350611a078185602086016116bb565b80840191505092915050565b6000611a1f82846119e2565b915081905092915050565b7f7472616e73616374696f6e206661696c65640000000000000000000000000000600082015250565b6000611a606012836116aa565b9150611a6b82611a2a565b602082019050919050565b60006020820190508181036000830152611a8f81611a53565b9050919050565b600080fd5b600080fd5b7f4e487b7100000000000000000000000000000000000000000000000000000000600052604160045260246000fd5b611ad8826116e5565b810181811067ffffffffffffffff82111715611af757611af6611aa0565b5b80604052505050565b6000611b0a6113ca565b9050611b168282611acf565b919050565b600067ffffffffffffffff821115611b3657611b35611aa0565b5b611b3f826116e5565b9050602081019050919050565b6000611b5f611b5a84611b1b565b611b00565b905082815260208101848484011115611b7b57611b7a611a9b565b5b611b868482856116bb565b509392505050565b600082601f830112611ba357611ba2611a96565b5b8151611bb3848260208601611b4c565b91505092915050565b600060208284031215611bd257611bd16113d4565b5b600082015167ffffffffffffffff811115611bf057611bef6113d9565b5b611bfc84828501611b8e565b91505092915050565b7f6d61726b6574706c6163652063616e206f6e6c7920626520757067726164656460008201527f20627920746865206f776e657200000000000000000000000000000000000000602082015250565b6000611c61602d836116aa565b9150611c6c82611c05565b604082019050919050565b60006020820190508181036000830152611c9081611c54565b9050919050565b7f4e487b7100000000000000000000000000000000000000000000000000000000600052601160045260246000fd5b6000611cd18261177b565b9150611cdc8361177b565b9250828201905067ffffffffffffffff811115611cfc57611cfb611c97565b5b92915050565b611d0b8161177b565b82525050565b6000608082019050611d26600083018761180e565b611d336020830186611d02565b611d40604083018561180e565b611d4d6060830184611d02565b95945050505050565b600081519050611d6581611633565b92915050565b600060208284031215611d8157611d806113d4565b5b6000611d8f84828501611d56565b91505092915050565b60007fffffffff0000000000000000000000000000000000000000000000000000000082169050919050565b611dcd81611d98565b82525050565b6000602082019050611de86000830184611dc4565b92915050565b611df781611838565b8114611e0257600080fd5b50565b600081519050611e1481611dee565b92915050565b600060208284031215611e3057611e2f6113d4565b5b6000611e3e84828501611e05565b91505092915050565b6000606082019050611e5c6000830186611751565b611e69602083018561180e565b611e76604083018461180e565b949350505050565b6000606082019050611e936000830186611751565b611ea0602083018561180e565b611ead6040830184611d02565b949350505050565b7f5265656e7472616e637947756172643a207265656e7472616e742063616c6c00600082015250565b6000611eeb601f836116aa565b9150611ef682611eb5565b602082019050919050565b60006020820190508181036000830152611f1a81611ede565b905091905056fea2646970667358221220f7e9f58467d15afbaf8c0a3783a21daaa9402b111b60ae0e5161e5d0be60de8064736f6c63430008110033",
  "linkReferences": {},
  "deployedLinkReferences": {}
}