{
  "_format": "hh-sol-artifact-1",
  "contractName": "AvianMarket",
  "sourceName": "contracts/AvianMarket.sol",
  "abi": [
    {
      "inputs": [],
      "stateMutability": "nonpayable",
      "type": "constructor"
    },
    {
      "inputs": [
        {
          "internalType": "address",
          "name": "nftAddress",
          "type": "address"
        },
        {
          "internalType": "uint256",
          "name": "tokenId",
          "type": "uint256"
        }
      ],
      "name": "AlreadyListed",
      "type": "error"
    },
    {
      "inputs": [],
      "name": "NoProceeds",
      "type": "error"
    },
    {
      "inputs": [],
      "name": "NotApprovedForMarketplace",
      "type": "error"
    },
    {
      "inputs": [
        {
          "internalType": "address",
          "name": "nftAddress",
          "type": "address"
        },
        {
          "internalType": "uint256",
          "name": "tokenId",
          "type": "uint256"
        }
      ],
      "name": "NotListed",
      "type": "error"
    },
    {
      "inputs": [],
      "name": "NotOwner",
      "type": "error"
    },
    {
      "inputs": [
        {
          "internalType": "address",
          "name": "nftAddress",
          "type": "address"
        },
        {
          "internalType": "uint256",
          "name": "tokenId",
          "type": "uint256"
        },
        {
          "internalType": "uint256",
          "name": "price",
          "type": "uint256"
        }
      ],
      "name": "PriceNotMet",
      "type": "error"
    },
    {
      "anonymous": false,
      "inputs": [
        {
          "indexed": true,
          "internalType": "address",
          "name": "buyer",
          "type": "address"
        },
        {
          "indexed": true,
          "internalType": "address",
          "name": "nftAddress",
          "type": "address"
        },
        {
          "indexed": true,
          "internalType": "uint256",
          "name": "tokenId",
          "type": "uint256"
        },
        {
          "indexed": false,
          "internalType": "uint256",
          "name": "price",
          "type": "uint256"
        }
      ],
      "name": "ItemBought",
      "type": "event"
    },
    {
      "anonymous": false,
      "inputs": [
        {
          "indexed": true,
          "internalType": "address",
          "name": "seller",
          "type": "address"
        },
        {
          "indexed": true,
          "internalType": "address",
          "name": "nftAddress",
          "type": "address"
        },
        {
          "indexed": true,
          "internalType": "uint256",
          "name": "tokenId",
          "type": "uint256"
        }
      ],
      "name": "ItemCanceled",
      "type": "event"
    },
    {
      "anonymous": false,
      "inputs": [
        {
          "indexed": true,
          "internalType": "address",
          "name": "seller",
          "type": "address"
        },
        {
          "indexed": true,
          "internalType": "address",
          "name": "nftAddress",
          "type": "address"
        },
        {
          "indexed": true,
          "internalType": "uint256",
          "name": "tokenId",
          "type": "uint256"
        },
        {
          "indexed": false,
          "internalType": "uint256",
          "name": "price",
          "type": "uint256"
        }
      ],
      "name": "ItemListed",
      "type": "event"
    },
    {
      "anonymous": false,
      "inputs": [
        {
          "indexed": true,
          "internalType": "address",
          "name": "owner",
          "type": "address"
        },
        {
          "indexed": true,
          "internalType": "address",
          "name": "user",
          "type": "address"
        },
        {
          "indexed": true,
          "internalType": "address",
          "name": "nftContract",
          "type": "address"
        },
        {
          "indexed": false,
          "internalType": "uint256",
          "name": "tokenId",
          "type": "uint256"
        },
        {
          "indexed": false,
          "internalType": "uint256",
          "name": "pricePerDay",
          "type": "uint256"
        },
        {
          "indexed": false,
          "internalType": "uint256",
          "name": "startDateUNIX",
          "type": "uint256"
        },
        {
          "indexed": false,
          "internalType": "uint256",
          "name": "endDateUNIX",
          "type": "uint256"
        },
        {
          "indexed": false,
          "internalType": "uint256",
          "name": "expires",
          "type": "uint256"
        }
      ],
      "name": "NFTListed",
      "type": "event"
    },
    {
      "anonymous": false,
      "inputs": [
        {
          "indexed": true,
          "internalType": "address",
          "name": "owner",
          "type": "address"
        },
        {
          "indexed": true,
          "internalType": "address",
          "name": "user",
          "type": "address"
        },
        {
          "indexed": true,
          "internalType": "address",
          "name": "nftContract",
          "type": "address"
        },
        {
          "indexed": false,
          "internalType": "uint256",
          "name": "tokenId",
          "type": "uint256"
        },
        {
          "indexed": false,
          "internalType": "uint256",
          "name": "startDateUNIX",
          "type": "uint256"
        },
        {
          "indexed": false,
          "internalType": "uint256",
          "name": "endDateUNIX",
          "type": "uint256"
        },
        {
          "indexed": false,
          "internalType": "uint64",
          "name": "expires",
          "type": "uint64"
        },
        {
          "indexed": false,
          "internalType": "uint256",
          "name": "rentalFee",
          "type": "uint256"
        }
      ],
      "name": "NFTRented",
      "type": "event"
    },
    {
      "anonymous": false,
      "inputs": [
        {
          "indexed": true,
          "internalType": "address",
          "name": "unlistSender",
          "type": "address"
        },
        {
          "indexed": true,
          "internalType": "address",
          "name": "nftContract",
          "type": "address"
        },
        {
          "indexed": true,
          "internalType": "uint256",
          "name": "tokenId",
          "type": "uint256"
        },
        {
          "indexed": false,
          "internalType": "uint256",
          "name": "refund",
          "type": "uint256"
        }
      ],
      "name": "NFTUnlisted",
      "type": "event"
    },
    {
      "inputs": [
        {
          "internalType": "address",
          "name": "nftAddress",
          "type": "address"
        },
        {
          "internalType": "uint256",
          "name": "tokenId",
          "type": "uint256"
        }
      ],
      "name": "buyItem",
      "outputs": [],
      "stateMutability": "payable",
      "type": "function"
    },
    {
      "inputs": [
        {
          "internalType": "address",
          "name": "nftAddress",
          "type": "address"
        },
        {
          "internalType": "uint256",
          "name": "tokenId",
          "type": "uint256"
        }
      ],
      "name": "cancelListing",
      "outputs": [],
      "stateMutability": "nonpayable",
      "type": "function"
    },
    {
      "inputs": [
        {
          "internalType": "address",
          "name": "nftAddress",
          "type": "address"
        },
        {
          "internalType": "uint256",
          "name": "tokenId",
          "type": "uint256"
        }
      ],
      "name": "getListing",
      "outputs": [
        {
          "components": [
            {
              "internalType": "uint256",
              "name": "price",
              "type": "uint256"
            },
            {
              "internalType": "address",
              "name": "seller",
              "type": "address"
            }
          ],
          "internalType": "struct AvianMarket.Listing_sell",
          "name": "",
          "type": "tuple"
        }
      ],
      "stateMutability": "view",
      "type": "function"
    },
    {
      "inputs": [],
      "name": "getListingFee",
      "outputs": [
        {
          "internalType": "uint256",
          "name": "",
          "type": "uint256"
        }
      ],
      "stateMutability": "view",
      "type": "function"
    },
    {
      "inputs": [
        {
          "internalType": "address",
          "name": "seller",
          "type": "address"
        }
      ],
      "name": "getProceeds",
      "outputs": [
        {
          "internalType": "uint256",
          "name": "",
          "type": "uint256"
        }
      ],
      "stateMutability": "view",
      "type": "function"
    },
    {
      "inputs": [],
      "name": "getRentListings",
      "outputs": [
        {
          "components": [
            {
              "internalType": "address",
              "name": "owner",
              "type": "address"
            },
            {
              "internalType": "address",
              "name": "user",
              "type": "address"
            },
            {
              "internalType": "address",
              "name": "nftContract",
              "type": "address"
            },
            {
              "internalType": "uint256",
              "name": "tokenId",
              "type": "uint256"
            },
            {
              "internalType": "uint256",
              "name": "pricePerDay",
              "type": "uint256"
            },
            {
              "internalType": "uint256",
              "name": "startDateUNIX",
              "type": "uint256"
            },
            {
              "internalType": "uint256",
              "name": "endDateUNIX",
              "type": "uint256"
            },
            {
              "internalType": "uint256",
              "name": "expires",
              "type": "uint256"
            }
          ],
          "internalType": "struct AvianMarket.Listing_rent[]",
          "name": "",
          "type": "tuple[]"
        }
      ],
      "stateMutability": "view",
      "type": "function"
    },
    {
      "inputs": [],
      "name": "getSellListings",
      "outputs": [
        {
          "components": [
            {
              "internalType": "uint256",
              "name": "price",
              "type": "uint256"
            },
            {
              "internalType": "address",
              "name": "seller",
              "type": "address"
            }
          ],
          "internalType": "struct AvianMarket.Listing_sell[]",
          "name": "",
          "type": "tuple[]"
        }
      ],
      "stateMutability": "view",
      "type": "function"
    },
    {
      "inputs": [
        {
          "internalType": "address",
          "name": "nftContract",
          "type": "address"
        }
      ],
      "name": "isNFT",
      "outputs": [
        {
          "internalType": "bool",
          "name": "",
          "type": "bool"
        }
      ],
      "stateMutability": "view",
      "type": "function"
    },
    {
      "inputs": [
        {
          "internalType": "address",
          "name": "nftContract",
          "type": "address"
        }
      ],
      "name": "isRentableNFT",
      "outputs": [
        {
          "internalType": "bool",
          "name": "",
          "type": "bool"
        }
      ],
      "stateMutability": "view",
      "type": "function"
    },
    {
      "inputs": [
        {
          "internalType": "address",
          "name": "nftAddress",
          "type": "address"
        },
        {
          "internalType": "uint256",
          "name": "tokenId",
          "type": "uint256"
        },
        {
          "internalType": "uint256",
          "name": "price",
          "type": "uint256"
        }
      ],
      "name": "listItem",
      "outputs": [],
      "stateMutability": "nonpayable",
      "type": "function"
    },
    {
      "inputs": [
        {
          "internalType": "address",
          "name": "nftAddress",
          "type": "address"
        },
        {
          "internalType": "uint256",
          "name": "tokenId",
          "type": "uint256"
        },
        {
          "internalType": "uint256",
          "name": "pricePerDay",
          "type": "uint256"
        },
        {
          "internalType": "uint256",
          "name": "startDateUNIX",
          "type": "uint256"
        },
        {
          "internalType": "uint256",
          "name": "endDateUNIX",
          "type": "uint256"
        }
      ],
      "name": "listNFT",
      "outputs": [],
      "stateMutability": "payable",
      "type": "function"
    },
    {
      "inputs": [
        {
          "internalType": "address",
          "name": "nftContract",
          "type": "address"
        },
        {
          "internalType": "uint256",
          "name": "tokenId",
          "type": "uint256"
        },
        {
          "internalType": "uint64",
          "name": "expires",
          "type": "uint64"
        }
      ],
      "name": "rentNFT",
      "outputs": [],
      "stateMutability": "payable",
      "type": "function"
    },
    {
      "inputs": [
        {
          "internalType": "address",
          "name": "nftAddress",
          "type": "address"
        },
        {
          "internalType": "uint256",
          "name": "tokenId",
          "type": "uint256"
        }
      ],
      "name": "unlistNFT",
      "outputs": [],
      "stateMutability": "payable",
      "type": "function"
    },
    {
      "inputs": [
        {
          "internalType": "address",
          "name": "nftAddress",
          "type": "address"
        },
        {
          "internalType": "uint256",
          "name": "tokenId",
          "type": "uint256"
        },
        {
          "internalType": "uint256",
          "name": "newPrice",
          "type": "uint256"
        }
      ],
      "name": "updateListing",
      "outputs": [],
      "stateMutability": "nonpayable",
      "type": "function"
    },
    {
      "inputs": [],
      "name": "withdrawProceeds",
      "outputs": [],
      "stateMutability": "nonpayable",
      "type": "function"
    }
  ],
  "bytecode": "0x608060405266038d7ea4c6800060025534801561001b57600080fd5b50600160008190555033600160006101000a81548173ffffffffffffffffffffffffffffffffffffffff021916908373ffffffffffffffffffffffffffffffffffffffff16021790555061487f806100746000396000f3fe6080604052600436106100e85760003560e01c8063995e578b1161008a578063b31b85c911610059578063b31b85c914610296578063b8fe6abe146102d3578063e9a6f4f6146102fe578063f772adf11461033b576100e8565b8063995e578b1461020a5780639a34f003146102355780639f37092a14610251578063b2ddee061461026d576100e8565b80637fc27efd116100c65780637fc27efd1461017157806388700d1c1461018d57806389bfd38f146101ca5780639038e693146101f3576100e8565b806330cfeda9146100ed578063789df8db1461012a5780637e943afd14610155575b600080fd5b3480156100f957600080fd5b50610114600480360381019061010f9190613662565b610364565b60405161012191906136a8565b60405180910390f35b34801561013657600080fd5b5061013f6103ad565b60405161014c9190613833565b60405180910390f35b61016f600480360381019061016a9190613881565b6106aa565b005b61018b600480360381019061018691906138fc565b610f67565b005b34801561019957600080fd5b506101b460048036038101906101af91906138fc565b611671565b6040516101c1919061396b565b60405180910390f35b3480156101d657600080fd5b506101f160048036038101906101ec9190613986565b61173c565b005b3480156101ff57600080fd5b50610208611c3b565b005b34801561021657600080fd5b5061021f611dae565b60405161022c9190613ab7565b60405180910390f35b61024f600480360381019061024a9190613b19565b611fd6565b005b61026b600480360381019061026691906138fc565b612409565b005b34801561027957600080fd5b50610294600480360381019061028f91906138fc565b6128a4565b005b3480156102a257600080fd5b506102bd60048036038101906102b89190613662565b612c32565b6040516102ca9190613b87565b60405180910390f35b3480156102df57600080fd5b506102e8612ce8565b6040516102f591906136a8565b60405180910390f35b34801561030a57600080fd5b5061032560048036038101906103209190613662565b612cf2565b6040516103329190613b87565b60405180910390f35b34801561034757600080fd5b50610362600480360381019061035d9190613986565b612e5b565b005b6000600560008373ffffffffffffffffffffffffffffffffffffffff1673ffffffffffffffffffffffffffffffffffffffff168152602001908152602001600020549050919050565b606060006103bb600d613170565b67ffffffffffffffff8111156103d4576103d3613ba2565b5b60405190808252806020026020018201604052801561040d57816020015b6103fa613548565b8152602001906001900390816103f25790505b50905060008061041d600a61317e565b905060005b81518110156106a05760008282815181106104405761043f613bd1565b5b602002602001015190506000610493600760008473ffffffffffffffffffffffffffffffffffffffff1673ffffffffffffffffffffffffffffffffffffffff16815260200190815260200160002061319f565b905060005b815181101561068a57600460008473ffffffffffffffffffffffffffffffffffffffff1673ffffffffffffffffffffffffffffffffffffffff16815260200190815260200160002060008383815181106104f5576104f4613bd1565b5b60200260200101518152602001908152602001600020604051806101000160405290816000820160009054906101000a900473ffffffffffffffffffffffffffffffffffffffff1673ffffffffffffffffffffffffffffffffffffffff1673ffffffffffffffffffffffffffffffffffffffff1681526020016001820160009054906101000a900473ffffffffffffffffffffffffffffffffffffffff1673ffffffffffffffffffffffffffffffffffffffff1673ffffffffffffffffffffffffffffffffffffffff1681526020016002820160009054906101000a900473ffffffffffffffffffffffffffffffffffffffff1673ffffffffffffffffffffffffffffffffffffffff1673ffffffffffffffffffffffffffffffffffffffff1681526020016003820154815260200160048201548152602001600582015481526020016006820154815260200160078201548152505087878151811061065e5761065d613bd1565b5b6020026020010181905250858061067490613c2f565b965050808061068290613c2f565b915050610498565b505050808061069890613c2f565b915050610422565b5082935050505090565b6106b26131c0565b84846000600460008473ffffffffffffffffffffffffffffffffffffffff1673ffffffffffffffffffffffffffffffffffffffff1681526020019081526020016000206000838152602001908152602001600020604051806101000160405290816000820160009054906101000a900473ffffffffffffffffffffffffffffffffffffffff1673ffffffffffffffffffffffffffffffffffffffff1673ffffffffffffffffffffffffffffffffffffffff1681526020016001820160009054906101000a900473ffffffffffffffffffffffffffffffffffffffff1673ffffffffffffffffffffffffffffffffffffffff1673ffffffffffffffffffffffffffffffffffffffff1681526020016002820160009054906101000a900473ffffffffffffffffffffffffffffffffffffffff1673ffffffffffffffffffffffffffffffffffffffff1673ffffffffffffffffffffffffffffffffffffffff1681526020016003820154815260200160048201548152602001600582015481526020016006820154815260200160078201548152505090506000816080015111156108945782826040517f4a5568d500000000000000000000000000000000000000000000000000000000815260040161088b929190613c86565b60405180910390fd5b61089d88612cf2565b6108dc576040517f08c379a00000000000000000000000000000000000000000000000000000000081526004016108d390613d0c565b60405180910390fd5b3373ffffffffffffffffffffffffffffffffffffffff168873ffffffffffffffffffffffffffffffffffffffff16636352211e896040518263ffffffff1660e01b815260040161092c91906136a8565b602060405180830381865afa158015610949573d6000803e3d6000fd5b505050506040513d601f19601f8201168201806040525081019061096d9190613d41565b73ffffffffffffffffffffffffffffffffffffffff16146109c3576040517f08c379a00000000000000000000000000000000000000000000000000000000081526004016109ba90613dba565b60405180910390fd5b6002543414610a07576040517f08c379a00000000000000000000000000000000000000000000000000000000081526004016109fe90613e26565b60405180910390fd5b60008611610a4a576040517f08c379a0000000000000000000000000000000000000000000000000000000008152600401610a4190613eb8565b60405180910390fd5b42851015610a8d576040517f08c379a0000000000000000000000000000000000000000000000000000000008152600401610a8490613f24565b60405180910390fd5b84841015610ad0576040517f08c379a0000000000000000000000000000000000000000000000000000000008152600401610ac790613fb6565b60405180910390fd5b60008890503073ffffffffffffffffffffffffffffffffffffffff168173ffffffffffffffffffffffffffffffffffffffff1663081812fc8a6040518263ffffffff1660e01b8152600401610b2591906136a8565b602060405180830381865afa158015610b42573d6000803e3d6000fd5b505050506040513d601f19601f82011682018060405250810190610b669190613d41565b73ffffffffffffffffffffffffffffffffffffffff1614610bb3576040517f4be3a2c500000000000000000000000000000000000000000000000000000000815260040160405180910390fd5b600160009054906101000a900473ffffffffffffffffffffffffffffffffffffffff1673ffffffffffffffffffffffffffffffffffffffff166108fc6002549081150290604051600060405180830381858888f19350505050158015610c1d573d6000803e3d6000fd5b506040518061010001604052803373ffffffffffffffffffffffffffffffffffffffff168152602001600073ffffffffffffffffffffffffffffffffffffffff1681526020018a73ffffffffffffffffffffffffffffffffffffffff1681526020018981526020018881526020018781526020018681526020016000815250600460008b73ffffffffffffffffffffffffffffffffffffffff1673ffffffffffffffffffffffffffffffffffffffff16815260200190815260200160002060008a815260200190815260200160002060008201518160000160006101000a81548173ffffffffffffffffffffffffffffffffffffffff021916908373ffffffffffffffffffffffffffffffffffffffff16021790555060208201518160010160006101000a81548173ffffffffffffffffffffffffffffffffffffffff021916908373ffffffffffffffffffffffffffffffffffffffff16021790555060408201518160020160006101000a81548173ffffffffffffffffffffffffffffffffffffffff021916908373ffffffffffffffffffffffffffffffffffffffff160217905550606082015181600301556080820151816004015560a0820151816005015560c0820151816006015560e08201518160070155905050610e00600d61320f565b610e48600760008b73ffffffffffffffffffffffffffffffffffffffff1673ffffffffffffffffffffffffffffffffffffffff16815260200190815260200160002089613225565b50610e54600a8a61323f565b508873ffffffffffffffffffffffffffffffffffffffff16600073ffffffffffffffffffffffffffffffffffffffff168a73ffffffffffffffffffffffffffffffffffffffff16636352211e8b6040518263ffffffff1660e01b8152600401610ebd91906136a8565b602060405180830381865afa158015610eda573d6000803e3d6000fd5b505050506040513d601f19601f82011682018060405250810190610efe9190613d41565b73ffffffffffffffffffffffffffffffffffffffff167f51961ff716bd7d3e30c6869dae4d4c0f9e0c6abbae1aa5887f3f6fa8d68f34df8b8b8b8b6000604051610f4c95949392919061401b565b60405180910390a450505050610f6061326f565b5050505050565b610f6f6131c0565b818133600083905060008173ffffffffffffffffffffffffffffffffffffffff16636352211e856040518263ffffffff1660e01b8152600401610fb291906136a8565b602060405180830381865afa158015610fcf573d6000803e3d6000fd5b505050506040513d601f19601f82011682018060405250810190610ff39190613d41565b90508073ffffffffffffffffffffffffffffffffffffffff168373ffffffffffffffffffffffffffffffffffffffff161461105a576040517f30cd747100000000000000000000000000000000000000000000000000000000815260040160405180910390fd5b86866000600460008473ffffffffffffffffffffffffffffffffffffffff1673ffffffffffffffffffffffffffffffffffffffff1681526020019081526020016000206000838152602001908152602001600020604051806101000160405290816000820160009054906101000a900473ffffffffffffffffffffffffffffffffffffffff1673ffffffffffffffffffffffffffffffffffffffff1673ffffffffffffffffffffffffffffffffffffffff1681526020016001820160009054906101000a900473ffffffffffffffffffffffffffffffffffffffff1673ffffffffffffffffffffffffffffffffffffffff1673ffffffffffffffffffffffffffffffffffffffff1681526020016002820160009054906101000a900473ffffffffffffffffffffffffffffffffffffffff1673ffffffffffffffffffffffffffffffffffffffff1673ffffffffffffffffffffffffffffffffffffffff168152602001600382015481526020016004820154815260200160058201548152602001600682015481526020016007820154815250509050600081608001511161123b5782826040517f6831488c000000000000000000000000000000000000000000000000000000008152600401611232929190613c86565b60405180910390fd5b6000600460008c73ffffffffffffffffffffffffffffffffffffffff1673ffffffffffffffffffffffffffffffffffffffff16815260200190815260200160002060008b8152602001908152602001600020905060008073ffffffffffffffffffffffffffffffffffffffff168260010160009054906101000a900473ffffffffffffffffffffffffffffffffffffffff1673ffffffffffffffffffffffffffffffffffffffff16146113e757816004015460016018603c80428760070154611304919061406e565b61130e91906140d1565b61131891906140d1565b61132291906140d1565b61132c9190614102565b6113369190614136565b90508034101561137b576040517f08c379a0000000000000000000000000000000000000000000000000000000008152600401611372906141c4565b60405180910390fd5b8160010160009054906101000a900473ffffffffffffffffffffffffffffffffffffffff1673ffffffffffffffffffffffffffffffffffffffff166108fc829081150290604051600060405180830381858888f193505050501580156113e5573d6000803e3d6000fd5b505b8b73ffffffffffffffffffffffffffffffffffffffff1663e030565e8c6000806040518463ffffffff1660e01b815260040161142593929190614215565b600060405180830381600087803b15801561143f57600080fd5b505af1158015611453573d6000803e3d6000fd5b5050505061149f600760008e73ffffffffffffffffffffffffffffffffffffffff1673ffffffffffffffffffffffffffffffffffffffff1681526020019081526020016000208c613279565b50600460008d73ffffffffffffffffffffffffffffffffffffffff1673ffffffffffffffffffffffffffffffffffffffff16815260200190815260200160002060008c8152602001908152602001600020600080820160006101000a81549073ffffffffffffffffffffffffffffffffffffffff02191690556001820160006101000a81549073ffffffffffffffffffffffffffffffffffffffff02191690556002820160006101000a81549073ffffffffffffffffffffffffffffffffffffffff021916905560038201600090556004820160009055600582016000905560068201600090556007820160009055505060006115d9600760008f73ffffffffffffffffffffffffffffffffffffffff1673ffffffffffffffffffffffffffffffffffffffff168152602001908152602001600020613293565b036115eb576115e9600a8d6132a8565b505b6115f5600d6132d8565b8a8c73ffffffffffffffffffffffffffffffffffffffff163373ffffffffffffffffffffffffffffffffffffffff167f6d7362d1e96e1739a576062b58d2055c5f8f9b50bf703c53b1c26cd3a82548c68460405161165391906136a8565b60405180910390a45050505050505050505061166d61326f565b5050565b6116796135cf565b600360008473ffffffffffffffffffffffffffffffffffffffff1673ffffffffffffffffffffffffffffffffffffffff1681526020019081526020016000206000838152602001908152602001600020604051806040016040529081600082015481526020016001820160009054906101000a900473ffffffffffffffffffffffffffffffffffffffff1673ffffffffffffffffffffffffffffffffffffffff1673ffffffffffffffffffffffffffffffffffffffff1681525050905092915050565b82826000600360008473ffffffffffffffffffffffffffffffffffffffff1673ffffffffffffffffffffffffffffffffffffffff1681526020019081526020016000206000838152602001908152602001600020604051806040016040529081600082015481526020016001820160009054906101000a900473ffffffffffffffffffffffffffffffffffffffff1673ffffffffffffffffffffffffffffffffffffffff1673ffffffffffffffffffffffffffffffffffffffff168152505090506000816000015111156118495782826040517f4a5568d5000000000000000000000000000000000000000000000000000000008152600401611840929190613c86565b60405180910390fd5b61185286612c32565b611891576040517f08c379a000000000000000000000000000000000000000000000000000000000815260040161188890614298565b60405180910390fd5b3373ffffffffffffffffffffffffffffffffffffffff168673ffffffffffffffffffffffffffffffffffffffff16636352211e876040518263ffffffff1660e01b81526004016118e191906136a8565b602060405180830381865afa1580156118fe573d6000803e3d6000fd5b505050506040513d601f19601f820116820180604052508101906119229190613d41565b73ffffffffffffffffffffffffffffffffffffffff1614611978576040517f08c379a000000000000000000000000000000000000000000000000000000000815260040161196f90613dba565b60405180910390fd5b600084116119bb576040517f08c379a00000000000000000000000000000000000000000000000000000000081526004016119b29061432a565b60405180910390fd5b60008690503073ffffffffffffffffffffffffffffffffffffffff168173ffffffffffffffffffffffffffffffffffffffff1663081812fc886040518263ffffffff1660e01b8152600401611a1091906136a8565b602060405180830381865afa158015611a2d573d6000803e3d6000fd5b505050506040513d601f19601f82011682018060405250810190611a519190613d41565b73ffffffffffffffffffffffffffffffffffffffff1614611a9e576040517f4be3a2c500000000000000000000000000000000000000000000000000000000815260040160405180910390fd5b60405180604001604052808681526020013373ffffffffffffffffffffffffffffffffffffffff16815250600360008973ffffffffffffffffffffffffffffffffffffffff1673ffffffffffffffffffffffffffffffffffffffff16815260200190815260200160002060008881526020019081526020016000206000820151816000015560208201518160010160006101000a81548173ffffffffffffffffffffffffffffffffffffffff021916908373ffffffffffffffffffffffffffffffffffffffff160217905550905050611b77600c61320f565b611bbf600660008973ffffffffffffffffffffffffffffffffffffffff1673ffffffffffffffffffffffffffffffffffffffff16815260200190815260200160002087613225565b50611bcb60088861323f565b50858773ffffffffffffffffffffffffffffffffffffffff163373ffffffffffffffffffffffffffffffffffffffff167fd547e933094f12a9159076970143ebe73234e64480317844b0dcb36117116de488604051611c2a91906136a8565b60405180910390a450505050505050565b6000600560003373ffffffffffffffffffffffffffffffffffffffff1673ffffffffffffffffffffffffffffffffffffffff16815260200190815260200160002054905060008111611cb9576040517fc4d8fa8700000000000000000000000000000000000000000000000000000000815260040160405180910390fd5b6000600560003373ffffffffffffffffffffffffffffffffffffffff1673ffffffffffffffffffffffffffffffffffffffff1681526020019081526020016000208190555060003373ffffffffffffffffffffffffffffffffffffffff1682604051611d249061437b565b60006040518083038185875af1925050503d8060008114611d61576040519150601f19603f3d011682016040523d82523d6000602084013e611d66565b606091505b5050905080611daa576040517f08c379a0000000000000000000000000000000000000000000000000000000008152600401611da1906143dc565b60405180910390fd5b5050565b60606000611dbc600c613170565b67ffffffffffffffff811115611dd557611dd4613ba2565b5b604051908082528060200260200182016040528015611e0e57816020015b611dfb6135cf565b815260200190600190039081611df35790505b509050600080611e1e600861317e565b905060005b8151811015611fcc576000828281518110611e4157611e40613bd1565b5b602002602001015190506000611e94600660008473ffffffffffffffffffffffffffffffffffffffff1673ffffffffffffffffffffffffffffffffffffffff16815260200190815260200160002061319f565b905060005b8151811015611fb657600360008473ffffffffffffffffffffffffffffffffffffffff1673ffffffffffffffffffffffffffffffffffffffff1681526020019081526020016000206000838381518110611ef657611ef5613bd1565b5b60200260200101518152602001908152602001600020604051806040016040529081600082015481526020016001820160009054906101000a900473ffffffffffffffffffffffffffffffffffffffff1673ffffffffffffffffffffffffffffffffffffffff1673ffffffffffffffffffffffffffffffffffffffff1681525050878781518110611f8a57611f89613bd1565b5b60200260200101819052508580611fa090613c2f565b9650508080611fae90613c2f565b915050611e99565b5050508080611fc490613c2f565b915050611e23565b5082935050505090565b611fde6131c0565b6000600460008573ffffffffffffffffffffffffffffffffffffffff1673ffffffffffffffffffffffffffffffffffffffff16815260200190815260200160002060008481526020019081526020016000209050600073ffffffffffffffffffffffffffffffffffffffff168160010160009054906101000a900473ffffffffffffffffffffffffffffffffffffffff1673ffffffffffffffffffffffffffffffffffffffff1614806120945750806007015442115b6120d3576040517f08c379a00000000000000000000000000000000000000000000000000000000081526004016120ca90614448565b60405180910390fd5b80600601548267ffffffffffffffff161115612124576040517f08c379a000000000000000000000000000000000000000000000000000000000815260040161211b906144da565b60405180910390fd5b600060016018603c80428767ffffffffffffffff16612143919061406e565b61214d91906140d1565b61215791906140d1565b61216191906140d1565b61216b9190614102565b9050600081836004015461217f9190614136565b9050803410156121c4576040517f08c379a00000000000000000000000000000000000000000000000000000000081526004016121bb9061456c565b60405180910390fd5b8260000160009054906101000a900473ffffffffffffffffffffffffffffffffffffffff1673ffffffffffffffffffffffffffffffffffffffff166108fc829081150290604051600060405180830381858888f1935050505015801561222e573d6000803e3d6000fd5b508573ffffffffffffffffffffffffffffffffffffffff1663e030565e8633876040518463ffffffff1660e01b815260040161226c9392919061459b565b600060405180830381600087803b15801561228657600080fd5b505af115801561229a573d6000803e3d6000fd5b50505050338360010160006101000a81548173ffffffffffffffffffffffffffffffffffffffff021916908373ffffffffffffffffffffffffffffffffffffffff1602179055508367ffffffffffffffff1683600701819055508573ffffffffffffffffffffffffffffffffffffffff163373ffffffffffffffffffffffffffffffffffffffff168773ffffffffffffffffffffffffffffffffffffffff16636352211e886040518263ffffffff1660e01b815260040161235b91906136a8565b602060405180830381865afa158015612378573d6000803e3d6000fd5b505050506040513d601f19601f8201168201806040525081019061239c9190613d41565b73ffffffffffffffffffffffffffffffffffffffff167f9e281a126f51088cc2a404608130a64cb50df5e046d30d0540344ef4f1b6ec2a88876005015488600601548a886040516123f19594939291906145d2565b60405180910390a450505061240461326f565b505050565b81816000600360008473ffffffffffffffffffffffffffffffffffffffff1673ffffffffffffffffffffffffffffffffffffffff1681526020019081526020016000206000838152602001908152602001600020604051806040016040529081600082015481526020016001820160009054906101000a900473ffffffffffffffffffffffffffffffffffffffff1673ffffffffffffffffffffffffffffffffffffffff1673ffffffffffffffffffffffffffffffffffffffff1681525050905060008160000151116125155782826040517f6831488c00000000000000000000000000000000000000000000000000000000815260040161250c929190613c86565b60405180910390fd5b61251d6131c0565b6000600360008773ffffffffffffffffffffffffffffffffffffffff1673ffffffffffffffffffffffffffffffffffffffff1681526020019081526020016000206000868152602001908152602001600020604051806040016040529081600082015481526020016001820160009054906101000a900473ffffffffffffffffffffffffffffffffffffffff1673ffffffffffffffffffffffffffffffffffffffff1673ffffffffffffffffffffffffffffffffffffffff16815250509050806000015134101561262d57858582600001516040517f7c93456500000000000000000000000000000000000000000000000000000000815260040161262493929190614625565b60405180910390fd5b3460056000836020015173ffffffffffffffffffffffffffffffffffffffff1673ffffffffffffffffffffffffffffffffffffffff16815260200190815260200160002060008282546126809190614102565b92505081905550600360008773ffffffffffffffffffffffffffffffffffffffff1673ffffffffffffffffffffffffffffffffffffffff16815260200190815260200160002060008681526020019081526020016000206000808201600090556001820160006101000a81549073ffffffffffffffffffffffffffffffffffffffff02191690555050612751600660008873ffffffffffffffffffffffffffffffffffffffff1673ffffffffffffffffffffffffffffffffffffffff16815260200190815260200160002086613279565b50600061279b600660008973ffffffffffffffffffffffffffffffffffffffff1673ffffffffffffffffffffffffffffffffffffffff168152602001908152602001600020613293565b036127ad576127ab6008876132a8565b505b6127b7600c6132d8565b8573ffffffffffffffffffffffffffffffffffffffff166342842e0e826020015133886040518463ffffffff1660e01b81526004016127f89392919061465c565b600060405180830381600087803b15801561281257600080fd5b505af1158015612826573d6000803e3d6000fd5b50505050848673ffffffffffffffffffffffffffffffffffffffff163373ffffffffffffffffffffffffffffffffffffffff167f263223b1dd81e51054a4e6f791d45a4a1ddb4aadcd93a2dfd892615c3fdac187846000015160405161288c91906136a8565b60405180910390a45061289d61326f565b5050505050565b818133600083905060008173ffffffffffffffffffffffffffffffffffffffff16636352211e856040518263ffffffff1660e01b81526004016128e791906136a8565b602060405180830381865afa158015612904573d6000803e3d6000fd5b505050506040513d601f19601f820116820180604052508101906129289190613d41565b90508073ffffffffffffffffffffffffffffffffffffffff168373ffffffffffffffffffffffffffffffffffffffff161461298f576040517f30cd747100000000000000000000000000000000000000000000000000000000815260040160405180910390fd5b86866000600360008473ffffffffffffffffffffffffffffffffffffffff1673ffffffffffffffffffffffffffffffffffffffff1681526020019081526020016000206000838152602001908152602001600020604051806040016040529081600082015481526020016001820160009054906101000a900473ffffffffffffffffffffffffffffffffffffffff1673ffffffffffffffffffffffffffffffffffffffff1673ffffffffffffffffffffffffffffffffffffffff168152505090506000816000015111612a9b5782826040517f6831488c000000000000000000000000000000000000000000000000000000008152600401612a92929190613c86565b60405180910390fd5b600360008b73ffffffffffffffffffffffffffffffffffffffff1673ffffffffffffffffffffffffffffffffffffffff16815260200190815260200160002060008a81526020019081526020016000206000808201600090556001820160006101000a81549073ffffffffffffffffffffffffffffffffffffffff02191690555050612b65600660008c73ffffffffffffffffffffffffffffffffffffffff1673ffffffffffffffffffffffffffffffffffffffff1681526020019081526020016000208a613279565b506000612baf600660008d73ffffffffffffffffffffffffffffffffffffffff1673ffffffffffffffffffffffffffffffffffffffff168152602001908152602001600020613293565b03612bc157612bbf60088b6132a8565b505b612bcb600c6132d8565b888a73ffffffffffffffffffffffffffffffffffffffff163373ffffffffffffffffffffffffffffffffffffffff167f9ba1a3cb55ce8d63d072a886f94d2a744f50cddf82128e897d0661f5ec62315860405160405180910390a450505050505050505050565b600080600090508273ffffffffffffffffffffffffffffffffffffffff166301ffc9a77f80ac58cd000000000000000000000000000000000000000000000000000000006040518263ffffffff1660e01b8152600401612c9291906146ce565b602060405180830381865afa925050508015612ccc57506040513d601f19601f82011682018060405250810190612cc99190614715565b60015b612cda576000915050612ce3565b80915050809150505b919050565b6000600254905090565b6000806000905060008373ffffffffffffffffffffffffffffffffffffffff166301ffc9a77fad092b5c000000000000000000000000000000000000000000000000000000006040518263ffffffff1660e01b8152600401612d5491906146ce565b602060405180830381865afa925050508015612d8e57506040513d601f19601f82011682018060405250810190612d8b9190614715565b60015b612d9d57600092505050612e56565b809250508373ffffffffffffffffffffffffffffffffffffffff166301ffc9a77f80ac58cd000000000000000000000000000000000000000000000000000000006040518263ffffffff1660e01b8152600401612dfa91906146ce565b602060405180830381865afa925050508015612e3457506040513d601f19601f82011682018060405250810190612e319190614715565b60015b612e4357600092505050612e56565b80915050818015612e515750805b925050505b919050565b82826000600360008473ffffffffffffffffffffffffffffffffffffffff1673ffffffffffffffffffffffffffffffffffffffff1681526020019081526020016000206000838152602001908152602001600020604051806040016040529081600082015481526020016001820160009054906101000a900473ffffffffffffffffffffffffffffffffffffffff1673ffffffffffffffffffffffffffffffffffffffff1673ffffffffffffffffffffffffffffffffffffffff168152505090506000816000015111612f675782826040517f6831488c000000000000000000000000000000000000000000000000000000008152600401612f5e929190613c86565b60405180910390fd5b612f6f6131c0565b858533600083905060008173ffffffffffffffffffffffffffffffffffffffff16636352211e856040518263ffffffff1660e01b8152600401612fb291906136a8565b602060405180830381865afa158015612fcf573d6000803e3d6000fd5b505050506040513d601f19601f82011682018060405250810190612ff39190613d41565b90508073ffffffffffffffffffffffffffffffffffffffff168373ffffffffffffffffffffffffffffffffffffffff161461305a576040517f30cd747100000000000000000000000000000000000000000000000000000000815260040160405180910390fd5b6000891161309d576040517f08c379a00000000000000000000000000000000000000000000000000000000081526004016130949061432a565b60405180910390fd5b88600360008d73ffffffffffffffffffffffffffffffffffffffff1673ffffffffffffffffffffffffffffffffffffffff16815260200190815260200160002060008c815260200190815260200160002060000181905550898b73ffffffffffffffffffffffffffffffffffffffff163373ffffffffffffffffffffffffffffffffffffffff167fd547e933094f12a9159076970143ebe73234e64480317844b0dcb36117116de48c60405161315391906136a8565b60405180910390a4505050505061316861326f565b505050505050565b600081600001549050919050565b6060600061318e83600001613334565b905060608190508092505050919050565b606060006131af83600001613334565b905060608190508092505050919050565b600260005403613205576040517f08c379a00000000000000000000000000000000000000000000000000000000081526004016131fc9061478e565b60405180910390fd5b6002600081905550565b6001816000016000828254019250508190555050565b6000613237836000018360001b613390565b905092915050565b6000613267836000018373ffffffffffffffffffffffffffffffffffffffff1660001b613390565b905092915050565b6001600081905550565b600061328b836000018360001b613400565b905092915050565b60006132a182600001613514565b9050919050565b60006132d0836000018373ffffffffffffffffffffffffffffffffffffffff1660001b613400565b905092915050565b60008160000154905060008111613324576040517f08c379a000000000000000000000000000000000000000000000000000000000815260040161331b906147fa565b60405180910390fd5b6001810382600001819055505050565b60608160000180548060200260200160405190810160405280929190818152602001828054801561338457602002820191906000526020600020905b815481526020019060010190808311613370575b50505050509050919050565b600061339c8383613525565b6133f55782600001829080600181540180825580915050600190039060005260206000200160009091909190915055826000018054905083600101600084815260200190815260200160002081905550600190506133fa565b600090505b92915050565b60008083600101600084815260200190815260200160002054905060008114613508576000600182613432919061406e565b905060006001866000018054905061344a919061406e565b90508181146134b957600086600001828154811061346b5761346a613bd1565b5b906000526020600020015490508087600001848154811061348f5761348e613bd1565b5b90600052602060002001819055508387600101600083815260200190815260200160002081905550505b856000018054806134cd576134cc61481a565b5b60019003818190600052602060002001600090559055856001016000868152602001908152602001600020600090556001935050505061350e565b60009150505b92915050565b600081600001805490509050919050565b600080836001016000848152602001908152602001600020541415905092915050565b604051806101000160405280600073ffffffffffffffffffffffffffffffffffffffff168152602001600073ffffffffffffffffffffffffffffffffffffffff168152602001600073ffffffffffffffffffffffffffffffffffffffff16815260200160008152602001600081526020016000815260200160008152602001600081525090565b604051806040016040528060008152602001600073ffffffffffffffffffffffffffffffffffffffff1681525090565b600080fd5b600073ffffffffffffffffffffffffffffffffffffffff82169050919050565b600061362f82613604565b9050919050565b61363f81613624565b811461364a57600080fd5b50565b60008135905061365c81613636565b92915050565b600060208284031215613678576136776135ff565b5b60006136868482850161364d565b91505092915050565b6000819050919050565b6136a28161368f565b82525050565b60006020820190506136bd6000830184613699565b92915050565b600081519050919050565b600082825260208201905092915050565b6000819050602082019050919050565b6136f881613624565b82525050565b6137078161368f565b82525050565b6101008201600082015161372460008501826136ef565b50602082015161373760208501826136ef565b50604082015161374a60408501826136ef565b50606082015161375d60608501826136fe565b50608082015161377060808501826136fe565b5060a082015161378360a08501826136fe565b5060c082015161379660c08501826136fe565b5060e08201516137a960e08501826136fe565b50505050565b60006137bb838361370d565b6101008301905092915050565b6000602082019050919050565b60006137e0826136c3565b6137ea81856136ce565b93506137f5836136df565b8060005b8381101561382657815161380d88826137af565b9750613818836137c8565b9250506001810190506137f9565b5085935050505092915050565b6000602082019050818103600083015261384d81846137d5565b905092915050565b61385e8161368f565b811461386957600080fd5b50565b60008135905061387b81613855565b92915050565b600080600080600060a0868803121561389d5761389c6135ff565b5b60006138ab8882890161364d565b95505060206138bc8882890161386c565b94505060406138cd8882890161386c565b93505060606138de8882890161386c565b92505060806138ef8882890161386c565b9150509295509295909350565b60008060408385031215613913576139126135ff565b5b60006139218582860161364d565b92505060206139328582860161386c565b9150509250929050565b60408201600082015161395260008501826136fe565b50602082015161396560208501826136ef565b50505050565b6000604082019050613980600083018461393c565b92915050565b60008060006060848603121561399f5761399e6135ff565b5b60006139ad8682870161364d565b93505060206139be8682870161386c565b92505060406139cf8682870161386c565b9150509250925092565b600081519050919050565b600082825260208201905092915050565b6000819050602082019050919050565b604082016000820151613a1b60008501826136fe565b506020820151613a2e60208501826136ef565b50505050565b6000613a408383613a05565b60408301905092915050565b6000602082019050919050565b6000613a64826139d9565b613a6e81856139e4565b9350613a79836139f5565b8060005b83811015613aaa578151613a918882613a34565b9750613a9c83613a4c565b925050600181019050613a7d565b5085935050505092915050565b60006020820190508181036000830152613ad18184613a59565b905092915050565b600067ffffffffffffffff82169050919050565b613af681613ad9565b8114613b0157600080fd5b50565b600081359050613b1381613aed565b92915050565b600080600060608486031215613b3257613b316135ff565b5b6000613b408682870161364d565b9350506020613b518682870161386c565b9250506040613b6286828701613b04565b9150509250925092565b60008115159050919050565b613b8181613b6c565b82525050565b6000602082019050613b9c6000830184613b78565b92915050565b7f4e487b7100000000000000000000000000000000000000000000000000000000600052604160045260246000fd5b7f4e487b7100000000000000000000000000000000000000000000000000000000600052603260045260246000fd5b7f4e487b7100000000000000000000000000000000000000000000000000000000600052601160045260246000fd5b6000613c3a8261368f565b91507fffffffffffffffffffffffffffffffffffffffffffffffffffffffffffffffff8203613c6c57613c6b613c00565b5b600182019050919050565b613c8081613624565b82525050565b6000604082019050613c9b6000830185613c77565b613ca86020830184613699565b9392505050565b600082825260208201905092915050565b7f436f6e7472616374206973206e6f7420616e2045524334393037000000000000600082015250565b6000613cf6601a83613caf565b9150613d0182613cc0565b602082019050919050565b60006020820190508181036000830152613d2581613ce9565b9050919050565b600081519050613d3b81613636565b92915050565b600060208284031215613d5757613d566135ff565b5b6000613d6584828501613d2c565b91505092915050565b7f4e6f74206f776e6572206f66206e667400000000000000000000000000000000600082015250565b6000613da4601083613caf565b9150613daf82613d6e565b602082019050919050565b60006020820190508181036000830152613dd381613d97565b9050919050565b7f4e6f7420656e6f75676820657468657220666f72206c697374696e6720666565600082015250565b6000613e10602083613caf565b9150613e1b82613dda565b602082019050919050565b60006020820190508181036000830152613e3f81613e03565b9050919050565b7f52656e74616c2070726963652073686f756c642062652067726561746572207460008201527f68616e2030000000000000000000000000000000000000000000000000000000602082015250565b6000613ea2602583613caf565b9150613ead82613e46565b604082019050919050565b60006020820190508181036000830152613ed181613e95565b9050919050565b7f537461727420646174652063616e6e6f7420626520696e207468652070617374600082015250565b6000613f0e602083613caf565b9150613f1982613ed8565b602082019050919050565b60006020820190508181036000830152613f3d81613f01565b9050919050565b7f456e6420646174652063616e6e6f74206265206265666f72652074686520737460008201527f6172742064617465000000000000000000000000000000000000000000000000602082015250565b6000613fa0602883613caf565b9150613fab82613f44565b604082019050919050565b60006020820190508181036000830152613fcf81613f93565b9050919050565b6000819050919050565b6000819050919050565b6000614005614000613ffb84613fd6565b613fe0565b61368f565b9050919050565b61401581613fea565b82525050565b600060a0820190506140306000830188613699565b61403d6020830187613699565b61404a6040830186613699565b6140576060830185613699565b614064608083018461400c565b9695505050505050565b60006140798261368f565b91506140848361368f565b925082820390508181111561409c5761409b613c00565b5b92915050565b7f4e487b7100000000000000000000000000000000000000000000000000000000600052601260045260246000fd5b60006140dc8261368f565b91506140e78361368f565b9250826140f7576140f66140a2565b5b828204905092915050565b600061410d8261368f565b91506141188361368f565b92508282019050808211156141305761412f613c00565b5b92915050565b60006141418261368f565b915061414c8361368f565b925082820261415a8161368f565b9150828204841483151761417157614170613c00565b5b5092915050565b7f4e6f7420656e6f75676820657468657220746f20636f76657220726566756e64600082015250565b60006141ae602083613caf565b91506141b982614178565b602082019050919050565b600060208201905081810360008301526141dd816141a1565b9050919050565b60006141ff6141fa6141f584613fd6565b613fe0565b613ad9565b9050919050565b61420f816141e4565b82525050565b600060608201905061422a6000830186613699565b6142376020830185613c77565b6142446040830184614206565b949350505050565b7f436f6e7472616374206973206e6f7420616e2045524337323100000000000000600082015250565b6000614282601983613caf565b915061428d8261424c565b602082019050919050565b600060208201905081810360008301526142b181614275565b9050919050565b7f6c697374696e672070726963652073686f756c6420626520677265617465722060008201527f7468616e20300000000000000000000000000000000000000000000000000000602082015250565b6000614314602683613caf565b915061431f826142b8565b604082019050919050565b6000602082019050818103600083015261434381614307565b9050919050565b600081905092915050565b50565b600061436560008361434a565b915061437082614355565b600082019050919050565b600061438682614358565b9150819050919050565b7f5472616e73666572206661696c65640000000000000000000000000000000000600082015250565b60006143c6600f83613caf565b91506143d182614390565b602082019050919050565b600060208201905081810360008301526143f5816143b9565b9050919050565b7f4e465420616c72656164792072656e7465640000000000000000000000000000600082015250565b6000614432601283613caf565b915061443d826143fc565b602082019050919050565b6000602082019050818103600083015261446181614425565b9050919050565b7f52656e74616c20706572696f642065786365656473206d61782064617465207260008201527f656e7461626c6500000000000000000000000000000000000000000000000000602082015250565b60006144c4602783613caf565b91506144cf82614468565b604082019050919050565b600060208201905081810360008301526144f3816144b7565b9050919050565b7f4e6f7420656e6f75676820657468657220746f20636f7665722072656e74616c60008201527f20706572696f6400000000000000000000000000000000000000000000000000602082015250565b6000614556602783613caf565b9150614561826144fa565b604082019050919050565b6000602082019050818103600083015261458581614549565b9050919050565b61459581613ad9565b82525050565b60006060820190506145b06000830186613699565b6145bd6020830185613c77565b6145ca604083018461458c565b949350505050565b600060a0820190506145e76000830188613699565b6145f46020830187613699565b6146016040830186613699565b61460e606083018561458c565b61461b6080830184613699565b9695505050505050565b600060608201905061463a6000830186613c77565b6146476020830185613699565b6146546040830184613699565b949350505050565b60006060820190506146716000830186613c77565b61467e6020830185613c77565b61468b6040830184613699565b949350505050565b60007fffffffff0000000000000000000000000000000000000000000000000000000082169050919050565b6146c881614693565b82525050565b60006020820190506146e360008301846146bf565b92915050565b6146f281613b6c565b81146146fd57600080fd5b50565b60008151905061470f816146e9565b92915050565b60006020828403121561472b5761472a6135ff565b5b600061473984828501614700565b91505092915050565b7f5265656e7472616e637947756172643a207265656e7472616e742063616c6c00600082015250565b6000614778601f83613caf565b915061478382614742565b602082019050919050565b600060208201905081810360008301526147a78161476b565b9050919050565b7f436f756e7465723a2064656372656d656e74206f766572666c6f770000000000600082015250565b60006147e4601b83613caf565b91506147ef826147ae565b602082019050919050565b60006020820190508181036000830152614813816147d7565b9050919050565b7f4e487b7100000000000000000000000000000000000000000000000000000000600052603160045260246000fdfea264697066735822122054720c1c167a2f0a4c22a20df53ecb9f973f7802404b05a694022362b59c6d3164736f6c63430008110033",
  "linkReferences": {},
  "deployedLinkReferences": {}
}